{
  "contractName": "DepositFactoryAuthority",
  "abi": [
    {
      "constant": false,
      "inputs": [
        {
          "internalType": "address",
          "name": "_factory",
          "type": "address"
        }
      ],
      "name": "initialize",
      "outputs": [],
      "payable": false,
      "stateMutability": "nonpayable",
      "type": "function"
    }
  ],
  "bytecode": "0x60806040526000805460ff1916905534801561001a57600080fd5b5061011c8061002a6000396000f3fe6080604052348015600f57600080fd5b506004361060285760003560e01c8063c4d66de814602d575b600080fd5b605060048036036020811015604157600080fd5b50356001600160a01b03166052565b005b60005460ff161560935760405162461bcd60e51b81526004018080602001828103825260258152602001806100c36025913960400191505060405180910390fd5b6000805460ff196001600160a01b0390931661010002610100600160a81b03199091161791909116600117905556fe466163746f72792063616e206f6e6c7920626520696e697469616c697a6564206f6e63652ea265627a7a72315820f32b2d3b50e2e46580a4ee33893627a6f8860e4f2af67b50422bfc96f47f733564736f6c63430005110032",
  "source": "pragma solidity 0.5.17;\n\n/// @title  Deposit Factory Authority\n/// @notice Contract to secure function calls to the Deposit Factory.\n/// @dev    Secured by setting the depositFactory address and using the onlyFactory\n///         modifier on functions requiring restriction.\ncontract DepositFactoryAuthority {\n\n    bool internal _initialized = false;\n    address internal _depositFactory;\n\n    /// @notice Set the address of the System contract on contract initialization.\n    function initialize(address _factory) public {\n        require(! _initialized, \"Factory can only be initialized once.\");\n\n        _depositFactory = _factory;\n        _initialized = true;\n    }\n\n    /// @notice Function modifier ensures modified function is only called by set deposit factory.\n    modifier onlyFactory(){\n        require(_initialized, \"Factory initialization must have been called.\");\n        require(msg.sender == _depositFactory, \"Caller must be depositFactory contract\");\n        _;\n    }\n}\n",
  "sourcePath": "/Users/symf/IdeaProjects/tbtc/solidity/contracts/system/DepositFactoryAuthority.sol",
  "compiler": {
    "name": "solc",
    "version": "0.5.17+commit.d19bba13.Emscripten.clang"
  },
  "schemaVersion": "3.0.23",
  "updatedAt": "2020-08-21T21:24:02.860Z",
  "devdoc": {
    "details": "Secured by setting the depositFactory address and using the onlyFactory         modifier on functions requiring restriction.",
    "methods": {},
    "title": "Deposit Factory Authority"
  },
  "userdoc": {
    "methods": {
      "initialize(address)": {
        "notice": "Set the address of the System contract on contract initialization."
      }
    },
    "notice": "Contract to secure function calls to the Deposit Factory."
  }
}