{
  "contractName": "DepositFactory",
  "abi": [
    {
      "inputs": [
        {
          "internalType": "address",
          "name": "_systemAddress",
          "type": "address"
        }
      ],
      "payable": false,
      "stateMutability": "nonpayable",
      "type": "constructor"
    },
    {
      "anonymous": false,
      "inputs": [
        {
          "indexed": false,
          "internalType": "address",
          "name": "depositCloneAddress",
          "type": "address"
        }
      ],
      "name": "DepositCloneCreated",
      "type": "event"
    },
    {
      "constant": true,
      "inputs": [],
      "name": "feeRebateToken",
      "outputs": [
        {
          "internalType": "contract FeeRebateToken",
          "name": "",
          "type": "address"
        }
      ],
      "payable": false,
      "stateMutability": "view",
      "type": "function"
    },
    {
      "constant": true,
      "inputs": [],
      "name": "masterDepositAddress",
      "outputs": [
        {
          "internalType": "address payable",
          "name": "",
          "type": "address"
        }
      ],
      "payable": false,
      "stateMutability": "view",
      "type": "function"
    },
    {
      "constant": true,
      "inputs": [],
      "name": "tbtcSystem",
      "outputs": [
        {
          "internalType": "contract TBTCSystem",
          "name": "",
          "type": "address"
        }
      ],
      "payable": false,
      "stateMutability": "view",
      "type": "function"
    },
    {
      "constant": true,
      "inputs": [],
      "name": "tbtcToken",
      "outputs": [
        {
          "internalType": "contract TBTCToken",
          "name": "",
          "type": "address"
        }
      ],
      "payable": false,
      "stateMutability": "view",
      "type": "function"
    },
    {
      "constant": true,
      "inputs": [],
      "name": "vendingMachineAddress",
      "outputs": [
        {
          "internalType": "address",
          "name": "",
          "type": "address"
        }
      ],
      "payable": false,
      "stateMutability": "view",
      "type": "function"
    },
    {
      "constant": false,
      "inputs": [
        {
          "internalType": "address payable",
          "name": "_masterDepositAddress",
          "type": "address"
        },
        {
          "internalType": "contract TBTCSystem",
          "name": "_tbtcSystem",
          "type": "address"
        },
        {
          "internalType": "contract TBTCToken",
          "name": "_tbtcToken",
          "type": "address"
        },
        {
          "internalType": "contract TBTCDepositToken",
          "name": "_tbtcDepositToken",
          "type": "address"
        },
        {
          "internalType": "contract FeeRebateToken",
          "name": "_feeRebateToken",
          "type": "address"
        },
        {
          "internalType": "address",
          "name": "_vendingMachineAddress",
          "type": "address"
        }
      ],
      "name": "setExternalDependencies",
      "outputs": [],
      "payable": false,
      "stateMutability": "nonpayable",
      "type": "function"
    },
    {
      "constant": false,
      "inputs": [
        {
          "internalType": "uint64",
          "name": "_lotSizeSatoshis",
          "type": "uint64"
        }
      ],
      "name": "createDeposit",
      "outputs": [
        {
          "internalType": "address",
          "name": "",
          "type": "address"
        }
      ],
      "payable": true,
      "stateMutability": "payable",
      "type": "function"
    }
  ],
  "bytecode": "0x608060405234801561001057600080fd5b506040516105623803806105628339818101604052602081101561003357600080fd5b5051600080546001600160a01b039092166001600160a01b03199092169190911790556104fd806100656000396000f3fe6080604052600436106100705760003560e01c8063b7947b401161004e578063b7947b40146100d0578063bbe2bbd5146100f7578063c3e26d9914610154578063e5d3d7141461016957610070565b80630873c713146100755780633fd8a4a4146100a65780639da1e244146100bb575b600080fd5b34801561008157600080fd5b5061008a61017e565b604080516001600160a01b039092168252519081900360200190f35b3480156100b257600080fd5b5061008a61018d565b3480156100c757600080fd5b5061008a61019c565b61008a600480360360208110156100e657600080fd5b503567ffffffffffffffff166101ab565b34801561010357600080fd5b50610152600480360360c081101561011a57600080fd5b506001600160a01b038135811691602081013582169160408201358116916060810135821691608082013581169160a001351661037e565b005b34801561016057600080fd5b5061008a610436565b34801561017557600080fd5b5061008a610445565b6006546001600160a01b031681565b6003546001600160a01b031681565b6001546001600160a01b031681565b60015460009081906101c5906001600160a01b0316610454565b600254604080516340c10f1960e01b81523360048201526001600160a01b03808516602483015291519394509116916340c10f199160448082019260009290919082900301818387803b15801561021b57600080fd5b505af115801561022f573d6000803e3d6000fd5b50506040805163189acdbd60e31b815230600482015290518493506001600160a01b038416925063c4d66de89160248082019260009290919082900301818387803b15801561027d57600080fd5b505af1158015610291573d6000803e3d6000fd5b5050600354600480546002546005546006546040805163a81e63f760e01b81526001600160a01b039788169681019690965293861660248601529185166044850152841660648401528316608483015267ffffffffffffffff891660a483015251918516935063a81e63f79250349160c480830192600092919082900301818588803b15801561032057600080fd5b505af1158015610334573d6000803e3d6000fd5b5050604080516001600160a01b038716815290517f1d6e7961301df0f19b325bf7669f5b932069b5ad8f9b71292351c7bed17cf4f194509081900360200192509050a15092915050565b6000546001600160a01b031633146103c75760405162461bcd60e51b81526004018080602001828103825260228152602001806104a76022913960400191505060405180910390fd5b600180546001600160a01b03199081166001600160a01b0398891617909155600280548216948816949094179093556003805484169587169590951790945560048054831693861693909317909255600580548216928516929092179091556006805490911691909216179055565b6005546001600160a01b031681565b6004546001600160a01b031681565b6000808260601b9050604051733d602d80600a3d3981f3363d3d373d3d3d363d7360601b81528160148201526e5af43d82803e903d91602b57fd5bf360881b60288201526037816000f094935050505056fe43616c6c6572206d757374206265207462746353797374656d20636f6e7472616374a265627a7a72315820c3312033057f9e3457e982bd91428429e0556595062f6e2dd7b9e3fac770ab6964736f6c63430005110032",
  "source": "pragma solidity 0.5.17;\n\nimport \"./CloneFactory.sol\";\nimport \"../deposit/Deposit.sol\";\nimport \"../system/TBTCSystem.sol\";\nimport \"../system/TBTCToken.sol\";\nimport \"../system/FeeRebateToken.sol\";\nimport \"../system/TBTCSystemAuthority.sol\";\nimport {TBTCDepositToken} from \"../system/TBTCDepositToken.sol\";\n\n\n/// @title Deposit Factory\n/// @notice Factory for the creation of new deposit clones.\n/// @dev We avoid redeployment of deposit contract by using the clone factory.\n/// Proxy delegates calls to Deposit and therefore does not affect deposit state.\n/// This means that we only need to deploy the deposit contracts once.\n/// The factory provides clean state for every new deposit clone.\ncontract DepositFactory is CloneFactory, TBTCSystemAuthority{\n\n    // Holds the address of the deposit contract\n    // which will be used as a master contract for cloning.\n    address payable public masterDepositAddress;\n    TBTCDepositToken tbtcDepositToken;\n    TBTCSystem public tbtcSystem;\n    TBTCToken public tbtcToken;\n    FeeRebateToken public feeRebateToken;\n    address public vendingMachineAddress;\n\n    constructor(address _systemAddress)\n        TBTCSystemAuthority(_systemAddress)\n    public {}\n\n    /// @dev                          Set the required external variables.\n    /// @param _masterDepositAddress  The address of the master deposit contract.\n    /// @param _tbtcSystem            Tbtc system contract.\n    /// @param _tbtcToken             TBTC token contract.\n    /// @param _tbtcDepositToken      TBTC Deposit Token contract.\n    /// @param _feeRebateToken        AFee Rebate Token contract.\n    /// @param _vendingMachineAddress Address of the Vending Machine contract.\n    function setExternalDependencies(\n        address payable _masterDepositAddress,\n        TBTCSystem _tbtcSystem,\n        TBTCToken _tbtcToken,\n        TBTCDepositToken _tbtcDepositToken,\n        FeeRebateToken _feeRebateToken,\n        address _vendingMachineAddress\n    ) public onlyTbtcSystem {\n        masterDepositAddress = _masterDepositAddress;\n        tbtcDepositToken = _tbtcDepositToken;\n        tbtcSystem = _tbtcSystem;\n        tbtcToken = _tbtcToken;\n        feeRebateToken = _feeRebateToken;\n        vendingMachineAddress = _vendingMachineAddress;\n    }\n\n    event DepositCloneCreated(address depositCloneAddress);\n\n    /// @notice Creates a new deposit instance and mints a TDT. This function is\n    ///         currently the only way to create a new deposit.\n    /// @dev Calls `Deposit.initializeDeposit` to initialize the instance. Mints\n    ///      the TDT to the function caller. (See `TBTCDepositToken` for more\n    ///      info on TDTs). Reverts if new deposits are currently paused, if the\n    ///      specified lot size is not currently permitted, or if the selection\n    ///      of the signers fails for any reason. Also reverts if the bonds\n    ///      collateralizing the deposit would not be enough to cover a refund\n    ///      of the deposit creation fee, should the signer group fail to\n    ///      complete its setup process.\n    /// @return The address of the new deposit.\n    function createDeposit(uint64 _lotSizeSatoshis) public payable returns(address) {\n        address cloneAddress = createClone(masterDepositAddress);\n\n        TBTCDepositToken(tbtcDepositToken).mint(msg.sender, uint256(cloneAddress));\n\n        Deposit deposit = Deposit(address(uint160(cloneAddress)));\n        deposit.initialize(address(this));\n        deposit.initializeDeposit.value(msg.value)(\n                tbtcSystem,\n                tbtcToken,\n                tbtcDepositToken,\n                feeRebateToken,\n                vendingMachineAddress,\n                _lotSizeSatoshis\n            );\n\n        emit DepositCloneCreated(cloneAddress);\n\n        return cloneAddress;\n    }\n}\n",
  "sourcePath": "/Users/symf/IdeaProjects/tbtc/solidity/contracts/proxy/DepositFactory.sol",
  "compiler": {
    "name": "solc",
    "version": "0.5.17+commit.d19bba13.Emscripten.clang"
  },
  "schemaVersion": "3.0.23",
  "updatedAt": "2020-08-21T21:24:02.854Z",
  "devdoc": {
    "details": "We avoid redeployment of deposit contract by using the clone factory. Proxy delegates calls to Deposit and therefore does not affect deposit state. This means that we only need to deploy the deposit contracts once. The factory provides clean state for every new deposit clone.",
    "methods": {
      "createDeposit(uint64)": {
        "details": "Calls `Deposit.initializeDeposit` to initialize the instance. Mints      the TDT to the function caller. (See `TBTCDepositToken` for more      info on TDTs). Reverts if new deposits are currently paused, if the      specified lot size is not currently permitted, or if the selection      of the signers fails for any reason. Also reverts if the bonds      collateralizing the deposit would not be enough to cover a refund      of the deposit creation fee, should the signer group fail to      complete its setup process.",
        "return": "The address of the new deposit."
      },
      "setExternalDependencies(address,address,address,address,address,address)": {
        "details": "Set the required external variables.",
        "params": {
          "_feeRebateToken": "AFee Rebate Token contract.",
          "_masterDepositAddress": "The address of the master deposit contract.",
          "_tbtcDepositToken": "TBTC Deposit Token contract.",
          "_tbtcSystem": "Tbtc system contract.",
          "_tbtcToken": "TBTC token contract.",
          "_vendingMachineAddress": "Address of the Vending Machine contract."
        }
      }
    },
    "title": "Deposit Factory"
  },
  "userdoc": {
    "methods": {
      "createDeposit(uint64)": {
        "notice": "Creates a new deposit instance and mints a TDT. This function is         currently the only way to create a new deposit."
      }
    },
    "notice": "Factory for the creation of new deposit clones."
  }
}