{
  "contractName": "ECDSAKeepStub",
  "abi": [
    {
      "anonymous": false,
      "inputs": [
        {
          "indexed": false,
          "internalType": "bytes32",
          "name": "digest",
          "type": "bytes32"
        }
      ],
      "name": "SignatureRequested",
      "type": "event"
    },
    {
      "payable": true,
      "stateMutability": "payable",
      "type": "fallback"
    },
    {
      "constant": true,
      "inputs": [],
      "name": "getPublicKey",
      "outputs": [
        {
          "internalType": "bytes",
          "name": "",
          "type": "bytes"
        }
      ],
      "payable": false,
      "stateMutability": "view",
      "type": "function"
    },
    {
      "constant": true,
      "inputs": [],
      "name": "checkBondAmount",
      "outputs": [
        {
          "internalType": "uint256",
          "name": "",
          "type": "uint256"
        }
      ],
      "payable": false,
      "stateMutability": "view",
      "type": "function"
    },
    {
      "constant": false,
      "inputs": [
        {
          "internalType": "bytes32",
          "name": "_digest",
          "type": "bytes32"
        }
      ],
      "name": "sign",
      "outputs": [],
      "payable": false,
      "stateMutability": "nonpayable",
      "type": "function"
    },
    {
      "constant": false,
      "inputs": [],
      "name": "distributeETHReward",
      "outputs": [],
      "payable": true,
      "stateMutability": "payable",
      "type": "function"
    },
    {
      "constant": false,
      "inputs": [
        {
          "internalType": "address",
          "name": "_asset",
          "type": "address"
        },
        {
          "internalType": "uint256",
          "name": "_value",
          "type": "uint256"
        }
      ],
      "name": "distributeERC20Reward",
      "outputs": [],
      "payable": false,
      "stateMutability": "nonpayable",
      "type": "function"
    },
    {
      "constant": false,
      "inputs": [],
      "name": "seizeSignerBonds",
      "outputs": [],
      "payable": false,
      "stateMutability": "nonpayable",
      "type": "function"
    },
    {
      "constant": false,
      "inputs": [],
      "name": "returnPartialSignerBonds",
      "outputs": [],
      "payable": true,
      "stateMutability": "payable",
      "type": "function"
    },
    {
      "constant": false,
      "inputs": [
        {
          "internalType": "uint8",
          "name": "",
          "type": "uint8"
        },
        {
          "internalType": "bytes32",
          "name": "",
          "type": "bytes32"
        },
        {
          "internalType": "bytes32",
          "name": "",
          "type": "bytes32"
        },
        {
          "internalType": "bytes32",
          "name": "",
          "type": "bytes32"
        },
        {
          "internalType": "bytes",
          "name": "",
          "type": "bytes"
        }
      ],
      "name": "submitSignatureFraud",
      "outputs": [
        {
          "internalType": "bool",
          "name": "",
          "type": "bool"
        }
      ],
      "payable": false,
      "stateMutability": "nonpayable",
      "type": "function"
    },
    {
      "constant": false,
      "inputs": [],
      "name": "closeKeep",
      "outputs": [],
      "payable": false,
      "stateMutability": "nonpayable",
      "type": "function"
    },
    {
      "constant": false,
      "inputs": [],
      "name": "reset",
      "outputs": [],
      "payable": false,
      "stateMutability": "nonpayable",
      "type": "function"
    },
    {
      "constant": false,
      "inputs": [
        {
          "internalType": "bytes",
          "name": "_publicKey",
          "type": "bytes"
        }
      ],
      "name": "setPublicKey",
      "outputs": [],
      "payable": false,
      "stateMutability": "nonpayable",
      "type": "function"
    },
    {
      "constant": false,
      "inputs": [
        {
          "internalType": "bool",
          "name": "_success",
          "type": "bool"
        }
      ],
      "name": "setSuccess",
      "outputs": [],
      "payable": false,
      "stateMutability": "nonpayable",
      "type": "function"
    },
    {
      "constant": false,
      "inputs": [
        {
          "internalType": "uint256",
          "name": "_bondAmount",
          "type": "uint256"
        }
      ],
      "name": "setBondAmount",
      "outputs": [],
      "payable": false,
      "stateMutability": "nonpayable",
      "type": "function"
    },
    {
      "constant": false,
      "inputs": [],
      "name": "burnContractBalance",
      "outputs": [],
      "payable": false,
      "stateMutability": "nonpayable",
      "type": "function"
    },
    {
      "constant": false,
      "inputs": [
        {
          "internalType": "address payable",
          "name": "_depositAddress",
          "type": "address"
        }
      ],
      "name": "pushFundsFromKeep",
      "outputs": [],
      "payable": true,
      "stateMutability": "payable",
      "type": "function"
    },
    {
      "constant": false,
      "inputs": [],
      "name": "drain",
      "outputs": [],
      "payable": false,
      "stateMutability": "nonpayable",
      "type": "function"
    }
  ],
  "bytecode": "0x60806040526001805460ff19168117905561271060025534801561002257600080fd5b506107f9806100326000396000f3fe6080604052600436106100f35760003560e01c80637bcc7f811161008a578063a91d58b411610059578063a91d58b4146102a5578063d826f88f14610358578063dc3d6da81461036d578063f15d1a9014610394576100f3565b80637bcc7f811461023e5780638403c1361461026a5780639890220b1461010a578063a15c3bbb14610290576100f3565b80632e334452116100c65780632e334452146101515780635a89f810146101db5780636ed15f9414610149578063799cd33314610214576100f3565b806307acd5cb146100f55780630a81df181461010a57806328f9f3e61461011f5780632930e17014610149575b005b34801561010157600080fd5b506100f3610440565b34801561011657600080fd5b506100f3610476565b34801561012b57600080fd5b506100f36004803603602081101561014257600080fd5b50356104a2565b6100f3610474565b34801561015d57600080fd5b506101666104a7565b6040805160208082528351818301528351919283929083019185019080838360005b838110156101a0578181015183820152602001610188565b50505050905090810190601f1680156101cd5780820380516001836020036101000a031916815260200191505b509250505060405180910390f35b3480156101e757600080fd5b506100f3600480360360408110156101fe57600080fd5b506001600160a01b03813516906020013561053e565b34801561022057600080fd5b506100f36004803603602081101561023757600080fd5b50356105c3565b34801561024a57600080fd5b506100f36004803603602081101561026157600080fd5b503515156105f9565b6100f36004803603602081101561028057600080fd5b50356001600160a01b031661060c565b34801561029c57600080fd5b506100f3610474565b3480156102b157600080fd5b506100f3600480360360208110156102c857600080fd5b8101906020810181356401000000008111156102e357600080fd5b8201836020820111156102f557600080fd5b8035906020019184600183028401116401000000008311171561031757600080fd5b91908080601f01602080910402602001604051908101604052809392919081815260200183838082843760009201919091525092955061069a945050505050565b34801561036457600080fd5b506100f36106ad565b34801561037957600080fd5b506103826106bb565b60408051918252519081900360200190f35b3480156103a057600080fd5b5061042c600480360360a08110156103b757600080fd5b60ff8235169160208101359160408201359160608101359181019060a0810160808201356401000000008111156103ed57600080fd5b8201836020820111156103ff57600080fd5b8035906020019184600183028401116401000000008311171561042157600080fd5b5090925090506106c1565b604080519115158252519081900360200190f35b47156104745760405133904780156108fc02916000818181858888f19350505050158015610472573d6000803e3d6000fd5b505b565b6040516000904780156108fc029183818181858288f19350505050158015610472573d6000803e3d6000fd5b600255565b60008054604080516020601f60026000196101006001881615020190951694909404938401819004810282018101909252828152606093909290918301828280156105335780601f1061050857610100808354040283529160200191610533565b820191906000526020600020905b81548152906001019060200180831161051657829003601f168201915b505050505090505b90565b604080516323b872dd60e01b81523360048201523060248201526044810183905290516001600160a01b038416916323b872dd9160648083019260209291908290030181600087803b15801561059357600080fd5b505af11580156105a7573d6000803e3d6000fd5b505050506040513d60208110156105bd57600080fd5b50505050565b6040805182815290517f34f611bedd4f8c135323bbfc4921e3f6e4feb7eef591036eed6af5462e6cfab09181900360200190a150565b6001805460ff1916911515919091179055565b60003411610661576040805162461bcd60e51b815260206004820152601c60248201527f76616c7565206d7573742062652067726561746572207468616e203000000000604482015290519081900360640190fd5b6040516001600160a01b038216903480156108fc02916000818181858888f19350505050158015610696573d6000803e3d6000fd5b5050565b805161069690600090602084019061072c565b6001805460ff191681179055565b60025490565b60015460009060ff1661071b576040805162461bcd60e51b815260206004820152601b60248201527f5369676e6174757265206973206e6f74206672617564756c656e740000000000604482015290519081900360640190fd5b5060015460ff169695505050505050565b828054600181600116156101000203166002900490600052602060002090601f016020900481019282601f1061076d57805160ff191683800117855561079a565b8280016001018555821561079a579182015b8281111561079a57825182559160200191906001019061077f565b506107a69291506107aa565b5090565b61053b91905b808211156107a657600081556001016107b056fea265627a7a72315820407717508f892caec4688be6f2ea1474e869b6c65646f7c38163088178fc4ea564736f6c63430005110032",
  "source": "pragma solidity 0.5.17;\n\nimport {\n    IBondedECDSAKeep\n} from \"@keep-network/keep-ecdsa/contracts/api/IBondedECDSAKeep.sol\";\nimport {TestTBTCToken} from \"../system/TestTBTCToken.sol\";\n\n/// @notice Implementation of ECDSAKeep interface used in tests only\n/// @dev This is a stub used in tests, so we don't have to call actual ECDSAKeep\ncontract ECDSAKeepStub is IBondedECDSAKeep {\n    bytes publicKey;\n    bool success = true;\n    uint256 bondAmount = 10000;\n\n    // Notification that the keep was requested to sign a digest.\n    event SignatureRequested(bytes32 digest);\n\n    // Define fallback function so the contract can accept ether.\n    function() external payable {}\n\n    // Functions implemented for IBondedECDSAKeep interface.\n\n    function getPublicKey() external view returns (bytes memory) {\n        return publicKey;\n    }\n\n    function checkBondAmount() external view returns (uint256) {\n        return bondAmount;\n    }\n\n    function sign(bytes32 _digest) external {\n        emit SignatureRequested(_digest);\n    }\n\n    function distributeETHReward() external payable {\n        // solium-disable-previous-line no-empty-blocks\n    }\n\n    function distributeERC20Reward(address _asset, uint256 _value) external {\n        TestTBTCToken(_asset).transferFrom(msg.sender, address(this), _value);\n    }\n\n    function seizeSignerBonds() external {\n        if (address(this).balance > 0) {\n            msg.sender.transfer(address(this).balance);\n        }\n    }\n\n    function returnPartialSignerBonds() external payable {\n        // solium-disable-previous-line no-empty-blocks\n    }\n\n    function submitSignatureFraud(\n        uint8,\n        bytes32,\n        bytes32,\n        bytes32,\n        bytes calldata\n    ) external returns (bool) {\n        require(success, \"Signature is not fraudulent\");\n\n        return success;\n    }\n\n    function closeKeep() external {\n        // solium-disable-previous-line no-empty-blocks\n    }\n\n    // Functions to set data for tests.\n\n    function reset() public {\n        success = true;\n    }\n\n    function setPublicKey(bytes memory _publicKey) public {\n        publicKey = _publicKey;\n    }\n\n    function setSuccess(bool _success) public {\n        success = _success;\n    }\n\n    function setBondAmount(uint256 _bondAmount) public {\n        bondAmount = _bondAmount;\n    }\n\n    function burnContractBalance() public {\n        address(0).transfer(address(this).balance);\n    }\n\n    function pushFundsFromKeep(address payable _depositAddress) public payable {\n        require(msg.value > 0, \"value must be greater than 0\");\n        _depositAddress.transfer(msg.value);\n    }\n\n    function drain() public {\n        address(0).transfer(address(this).balance);\n    }\n}\n",
  "sourcePath": "/Users/symf/IdeaProjects/tbtc/solidity/contracts/test/keep/ECDSAKeepStub.sol",
  "compiler": {
    "name": "solc",
    "version": "0.5.17+commit.d19bba13.Emscripten.clang"
  },
  "schemaVersion": "3.0.23",
  "updatedAt": "2020-08-21T21:24:02.914Z",
  "devdoc": {
    "details": "This is a stub used in tests, so we don't have to call actual ECDSAKeep",
    "methods": {}
  },
  "userdoc": {
    "methods": {},
    "notice": "Implementation of ECDSAKeep interface used in tests only"
  }
}