{
  "contractName": "IntermediaryMedianizer",
  "abi": [
    {
      "inputs": [
        {
          "internalType": "contract IMedianizer",
          "name": "realMedianizer",
          "type": "address"
        }
      ],
      "payable": false,
      "stateMutability": "nonpayable",
      "type": "constructor"
    },
    {
      "anonymous": false,
      "inputs": [
        {
          "indexed": true,
          "internalType": "address",
          "name": "previousOwner",
          "type": "address"
        },
        {
          "indexed": true,
          "internalType": "address",
          "name": "newOwner",
          "type": "address"
        }
      ],
      "name": "OwnershipTransferred",
      "type": "event"
    },
    {
      "constant": true,
      "inputs": [],
      "name": "isOwner",
      "outputs": [
        {
          "internalType": "bool",
          "name": "",
          "type": "bool"
        }
      ],
      "payable": false,
      "stateMutability": "view",
      "type": "function"
    },
    {
      "constant": true,
      "inputs": [],
      "name": "owner",
      "outputs": [
        {
          "internalType": "address",
          "name": "",
          "type": "address"
        }
      ],
      "payable": false,
      "stateMutability": "view",
      "type": "function"
    },
    {
      "constant": false,
      "inputs": [],
      "name": "renounceOwnership",
      "outputs": [],
      "payable": false,
      "stateMutability": "nonpayable",
      "type": "function"
    },
    {
      "constant": false,
      "inputs": [
        {
          "internalType": "address",
          "name": "newOwner",
          "type": "address"
        }
      ],
      "name": "transferOwnership",
      "outputs": [],
      "payable": false,
      "stateMutability": "nonpayable",
      "type": "function"
    },
    {
      "constant": true,
      "inputs": [],
      "name": "getMedianizer",
      "outputs": [
        {
          "internalType": "contract IMedianizer",
          "name": "",
          "type": "address"
        }
      ],
      "payable": false,
      "stateMutability": "view",
      "type": "function"
    },
    {
      "constant": true,
      "inputs": [],
      "name": "peek",
      "outputs": [
        {
          "internalType": "uint256",
          "name": "",
          "type": "uint256"
        },
        {
          "internalType": "bool",
          "name": "",
          "type": "bool"
        }
      ],
      "payable": false,
      "stateMutability": "view",
      "type": "function"
    },
    {
      "constant": true,
      "inputs": [],
      "name": "read",
      "outputs": [
        {
          "internalType": "uint256",
          "name": "",
          "type": "uint256"
        }
      ],
      "payable": false,
      "stateMutability": "view",
      "type": "function"
    },
    {
      "constant": false,
      "inputs": [
        {
          "internalType": "contract IMedianizer",
          "name": "realMedianizer",
          "type": "address"
        }
      ],
      "name": "setMedianizer",
      "outputs": [],
      "payable": false,
      "stateMutability": "nonpayable",
      "type": "function"
    }
  ],
  "bytecode": "0x608060405234801561001057600080fd5b506040516105b73803806105b78339818101604052602081101561003357600080fd5b5051600080546001600160a01b03191633178082556040516001600160a01b039190911691907f8be0079c531659141344cd1fd0a4f28419497f9722a3daafe3b4186f6b6457e0908290a3600180546001600160a01b0319166001600160a01b039290921691909117905561050a806100ad6000396000f3fe608060405234801561001057600080fd5b50600436106100885760003560e01c80638da5cb5b1161005b5780638da5cb5b146100f65780638f32d59b146100fe578063e7baf8dd1461011a578063f2fde38b1461014057610088565b8063242043491461008d57806357de26a4146100b157806359e02dd7146100cb578063715018a6146100ec575b600080fd5b610095610166565b604080516001600160a01b039092168252519081900360200190f35b6100b9610175565b60408051918252519081900360200190f35b6100d36101eb565b6040805192835290151560208301528051918290030190f35b6100f461026c565b005b61009561030f565b61010661031e565b604080519115158252519081900360200190f35b6100f46004803603602081101561013057600080fd5b50356001600160a01b031661032f565b6100f46004803603602081101561015657600080fd5b50356001600160a01b03166103aa565b6001546001600160a01b031690565b600154604080516315f789a960e21b815290516000926001600160a01b0316916357de26a4916004808301926020929190829003018186803b1580156101ba57600080fd5b505afa1580156101ce573d6000803e3d6000fd5b505050506040513d60208110156101e457600080fd5b5051905090565b600154604080516359e02dd760e01b8152815160009384936001600160a01b03909116926359e02dd79260048083019392829003018186803b15801561023057600080fd5b505afa158015610244573d6000803e3d6000fd5b505050506040513d604081101561025a57600080fd5b50805160209091015190925090509091565b61027461031e565b6102c5576040805162461bcd60e51b815260206004820181905260248201527f4f776e61626c653a2063616c6c6572206973206e6f7420746865206f776e6572604482015290519081900360640190fd5b600080546040516001600160a01b03909116907f8be0079c531659141344cd1fd0a4f28419497f9722a3daafe3b4186f6b6457e0908390a3600080546001600160a01b0319169055565b6000546001600160a01b031690565b6000546001600160a01b0316331490565b61033761031e565b610388576040805162461bcd60e51b815260206004820181905260248201527f4f776e61626c653a2063616c6c6572206973206e6f7420746865206f776e6572604482015290519081900360640190fd5b600180546001600160a01b0319166001600160a01b0392909216919091179055565b6103b261031e565b610403576040805162461bcd60e51b815260206004820181905260248201527f4f776e61626c653a2063616c6c6572206973206e6f7420746865206f776e6572604482015290519081900360640190fd5b61040c8161040f565b50565b6001600160a01b0381166104545760405162461bcd60e51b81526004018080602001828103825260268152602001806104b06026913960400191505060405180910390fd5b600080546040516001600160a01b03808516939216917f8be0079c531659141344cd1fd0a4f28419497f9722a3daafe3b4186f6b6457e091a3600080546001600160a01b0319166001600160a01b039290921691909117905556fe4f776e61626c653a206e6577206f776e657220697320746865207a65726f2061646472657373a265627a7a7231582030f5e0ac371827bd4ee4f473e97a436635e0d3d249ea3dc0f9ed35a507c61c9064736f6c63430005110032",
  "source": "pragma solidity 0.5.17;\n\nimport \"openzeppelin-solidity/contracts/ownership/Ownable.sol\";\nimport \"../../../contracts/external/IMedianizer.sol\";\n\n/// @title IntermediaryMedianizer is an updatable intermediary between a real\n///        medianizer and IMedianizer users.\n/// @dev This is used in Keep testnets where Maker has deployed a Medianizer\n///      instance that needs to authorize a single consumer, to enable multiple\n///      tBTC deployments to happen in the background and be pointed at a stable\n///      medianizer instance that is authorized on the Maker contract. It allows\n///      the updating of the backing medianizer and therefore is NOT suitable\n///      for mainnet deployment.\ncontract IntermediaryMedianizer is Ownable, IMedianizer {\n    IMedianizer private _realMedianizer;\n\n    constructor(IMedianizer realMedianizer) public {\n        _realMedianizer = realMedianizer;\n    }\n\n    function getMedianizer() external view returns (IMedianizer) {\n        return _realMedianizer;\n    }\n\n    function peek() external view returns (uint256, bool) {\n        return _realMedianizer.peek();\n    }\n\n    function read() external view returns (uint256) {\n        return _realMedianizer.read();\n    }\n\n    function setMedianizer(IMedianizer realMedianizer) public onlyOwner {\n        _realMedianizer = realMedianizer;\n    }\n}\n",
  "sourcePath": "/Users/symf/IdeaProjects/tbtc/solidity/contracts/test/price-feed/IntermediaryMedianizer.sol",
  "compiler": {
    "name": "solc",
    "version": "0.5.17+commit.d19bba13.Emscripten.clang"
  },
  "schemaVersion": "3.0.23",
  "updatedAt": "2020-08-21T21:24:02.916Z",
  "devdoc": {
    "details": "This is used in Keep testnets where Maker has deployed a Medianizer      instance that needs to authorize a single consumer, to enable multiple      tBTC deployments to happen in the background and be pointed at a stable      medianizer instance that is authorized on the Maker contract. It allows      the updating of the backing medianizer and therefore is NOT suitable      for mainnet deployment.",
    "methods": {
      "isOwner()": {
        "details": "Returns true if the caller is the current owner."
      },
      "owner()": {
        "details": "Returns the address of the current owner."
      },
      "renounceOwnership()": {
        "details": "Leaves the contract without owner. It will not be possible to call `onlyOwner` functions anymore. Can only be called by the current owner.     * > Note: Renouncing ownership will leave the contract without an owner, thereby removing any functionality that is only available to the owner."
      },
      "transferOwnership(address)": {
        "details": "Transfers ownership of the contract to a new account (`newOwner`). Can only be called by the current owner."
      }
    },
    "title": "IntermediaryMedianizer is an updatable intermediary between a real        medianizer and IMedianizer users."
  },
  "userdoc": {
    "methods": {}
  }
}