{
  "contractName": "KeepFactorySelectorStub",
  "abi": [
    {
      "constant": true,
      "inputs": [
        {
          "internalType": "uint256",
          "name": "_seed",
          "type": "uint256"
        },
        {
          "internalType": "contract IBondedECDSAKeepFactory",
          "name": "_defaultFactory",
          "type": "address"
        },
        {
          "internalType": "contract IBondedECDSAKeepFactory",
          "name": "_fullyBackedFactory",
          "type": "address"
        }
      ],
      "name": "selectFactory",
      "outputs": [
        {
          "internalType": "contract IBondedECDSAKeepFactory",
          "name": "",
          "type": "address"
        }
      ],
      "payable": false,
      "stateMutability": "view",
      "type": "function"
    },
    {
      "constant": false,
      "inputs": [],
      "name": "setMaliciousMode",
      "outputs": [],
      "payable": false,
      "stateMutability": "nonpayable",
      "type": "function"
    },
    {
      "constant": false,
      "inputs": [],
      "name": "unsetMaliciousMode",
      "outputs": [],
      "payable": false,
      "stateMutability": "nonpayable",
      "type": "function"
    },
    {
      "constant": false,
      "inputs": [],
      "name": "setDefaultMode",
      "outputs": [],
      "payable": false,
      "stateMutability": "nonpayable",
      "type": "function"
    },
    {
      "constant": false,
      "inputs": [],
      "name": "setFullyBackedMode",
      "outputs": [],
      "payable": false,
      "stateMutability": "nonpayable",
      "type": "function"
    }
  ],
  "bytecode": "0x60806040526000805461ff001960ff1990911660011716905534801561002457600080fd5b50610184806100346000396000f3fe608060405234801561001057600080fd5b50600436106100575760003560e01c8063377661711461005c57806371d2fdfd146100ac578063ca606f91146100b6578063e0e82d9d146100be578063fad16bca146100c6575b600080fd5b6100906004803603606081101561007257600080fd5b508035906001600160a01b03602082013581169160400135166100ce565b604080516001600160a01b039092168252519081900360200190f35b6100b4610116565b005b6100b4610125565b6100b4610136565b6100b4610142565b60008054610100900460ff16156100fa575073afacebadfacecffeefaceacebaceafacecffeea061010f565b60005460ff161561010c57508161010f565b50805b9392505050565b6000805460ff19166001179055565b6000805461ff001916610100179055565b6000805460ff19169055565b6000805461ff001916905556fea265627a7a7231582066d2e125ac186f986f0244fc8190ce7ccfae94840d404558ef1bddf8bb802f4064736f6c63430005110032",
  "source": "pragma solidity 0.5.17;\n\nimport {IBondedECDSAKeepFactory} from \"@keep-network/keep-ecdsa/contracts/api/IBondedECDSAKeepFactory.sol\";\n\nimport \"../../system/KeepFactorySelection.sol\";\n\ncontract KeepFactorySelectionStub {\n    using KeepFactorySelection for KeepFactorySelection.Storage;\n    KeepFactorySelection.Storage keepFactorySelection;\n\n    function initialize(IBondedECDSAKeepFactory _defaultFactory) public {\n        keepFactorySelection.initialize(_defaultFactory);\n    }\n\n    function selectFactory() public view returns (IBondedECDSAKeepFactory) {\n        return keepFactorySelection.selectFactory();\n    }\n\n    function selectFactoryAndRefresh() public returns (IBondedECDSAKeepFactory) {\n        return keepFactorySelection.selectFactoryAndRefresh();\n    }\n\n    function setFullyBackedKeepFactory(address _fullyBackedFactory) public {\n        keepFactorySelection.setFullyBackedKeepFactory(_fullyBackedFactory);\n    }\n\n    function setKeepFactorySelector(address _factorySelector) public {\n        keepFactorySelection.setKeepFactorySelector(_factorySelector);\n    }\n}\n\ncontract KeepFactorySelectorStub is KeepFactorySelector {\n\n    bool internal defaultMode = true;\n    bool internal maliciousMode = false;\n\n    function selectFactory(\n        uint256 _seed,\n        IBondedECDSAKeepFactory _defaultFactory,\n        IBondedECDSAKeepFactory _fullyBackedFactory\n    ) external view returns (IBondedECDSAKeepFactory) {\n        if (maliciousMode) {\n            return IBondedECDSAKeepFactory(0xaFacEbadfAceCffeeFaceacebacEAfAceCfFEeA0);\n        } else if (defaultMode) {\n            return _defaultFactory;\n        } else {\n            return _fullyBackedFactory;\n        }\n    }\n\n    function setMaliciousMode() public {\n        maliciousMode = true;\n    }\n\n    function unsetMaliciousMode() public {\n        maliciousMode = false;\n    }\n\n    function setDefaultMode() public {\n        defaultMode = true;\n    }\n\n    function setFullyBackedMode() public {\n        defaultMode = false;\n    }\n}\n",
  "sourcePath": "/Users/symf/IdeaProjects/tbtc/solidity/contracts/test/system/KeepFactorySelectionStub.sol",
  "compiler": {
    "name": "solc",
    "version": "0.5.17+commit.d19bba13.Emscripten.clang"
  },
  "schemaVersion": "3.0.23",
  "updatedAt": "2020-08-21T21:24:02.921Z",
  "devdoc": {
    "methods": {}
  },
  "userdoc": {
    "methods": {}
  }
}