{
  "contractName": "MockSatWeiPriceFeed",
  "abi": [
    {
      "constant": true,
      "inputs": [],
      "name": "getPrice",
      "outputs": [
        {
          "internalType": "uint256",
          "name": "",
          "type": "uint256"
        }
      ],
      "payable": false,
      "stateMutability": "view",
      "type": "function"
    },
    {
      "constant": false,
      "inputs": [
        {
          "internalType": "uint256",
          "name": "_price",
          "type": "uint256"
        }
      ],
      "name": "setPrice",
      "outputs": [],
      "payable": false,
      "stateMutability": "nonpayable",
      "type": "function"
    }
  ],
  "bytecode": "0x6080604052348015600f57600080fd5b5060ab8061001e6000396000f3fe6080604052348015600f57600080fd5b506004361060325760003560e01c806391b7f5ed14603757806398d5fdca146053575b600080fd5b605160048036036020811015604b57600080fd5b5035606b565b005b60596070565b60408051918252519081900360200190f35b600055565b6000549056fea265627a7a723158202aedb246c75b32e23586addf3d604fc10454e03a590d190a4cb82b119f6e0c2f64736f6c63430005110032",
  "source": "pragma solidity 0.5.17;\n\ncontract MockSatWeiPriceFeed{\n\n    uint256 private price;\n\n    /// @notice Get the current price of satoshi in wei.\n    /// @return The price of one satoshi in wei.\n    function getPrice()\n        external view returns (uint256)\n    {\n        return price;\n    }\n\n    function setPrice(uint256 _price) public {\n        price = _price;\n    }\n\n}\n",
  "sourcePath": "/Users/symf/IdeaProjects/tbtc/solidity/contracts/test/price-feed/MockSatWeiPriceFeed.sol",
  "compiler": {
    "name": "solc",
    "version": "0.5.17+commit.d19bba13.Emscripten.clang"
  },
  "schemaVersion": "3.0.23",
  "updatedAt": "2020-08-21T21:24:02.918Z",
  "devdoc": {
    "methods": {
      "getPrice()": {
        "return": "The price of one satoshi in wei."
      }
    }
  },
  "userdoc": {
    "methods": {
      "getPrice()": {
        "notice": "Get the current price of satoshi in wei."
      }
    }
  }
}