{
  "contractName": "SatWeiPriceFeed",
  "abi": [
    {
      "inputs": [],
      "payable": false,
      "stateMutability": "nonpayable",
      "type": "constructor"
    },
    {
      "anonymous": false,
      "inputs": [
        {
          "indexed": true,
          "internalType": "address",
          "name": "previousOwner",
          "type": "address"
        },
        {
          "indexed": true,
          "internalType": "address",
          "name": "newOwner",
          "type": "address"
        }
      ],
      "name": "OwnershipTransferred",
      "type": "event"
    },
    {
      "constant": true,
      "inputs": [],
      "name": "isOwner",
      "outputs": [
        {
          "internalType": "bool",
          "name": "",
          "type": "bool"
        }
      ],
      "payable": false,
      "stateMutability": "view",
      "type": "function"
    },
    {
      "constant": true,
      "inputs": [],
      "name": "owner",
      "outputs": [
        {
          "internalType": "address",
          "name": "",
          "type": "address"
        }
      ],
      "payable": false,
      "stateMutability": "view",
      "type": "function"
    },
    {
      "constant": false,
      "inputs": [],
      "name": "renounceOwnership",
      "outputs": [],
      "payable": false,
      "stateMutability": "nonpayable",
      "type": "function"
    },
    {
      "constant": false,
      "inputs": [
        {
          "internalType": "address",
          "name": "newOwner",
          "type": "address"
        }
      ],
      "name": "transferOwnership",
      "outputs": [],
      "payable": false,
      "stateMutability": "nonpayable",
      "type": "function"
    },
    {
      "constant": false,
      "inputs": [
        {
          "internalType": "address",
          "name": "_tbtcSystemAddress",
          "type": "address"
        },
        {
          "internalType": "contract IMedianizer",
          "name": "_ETHBTCPriceFeed",
          "type": "address"
        }
      ],
      "name": "initialize",
      "outputs": [],
      "payable": false,
      "stateMutability": "nonpayable",
      "type": "function"
    },
    {
      "constant": true,
      "inputs": [],
      "name": "getPrice",
      "outputs": [
        {
          "internalType": "uint256",
          "name": "",
          "type": "uint256"
        }
      ],
      "payable": false,
      "stateMutability": "view",
      "type": "function"
    },
    {
      "constant": true,
      "inputs": [],
      "name": "getWorkingEthBtcFeed",
      "outputs": [
        {
          "internalType": "address",
          "name": "",
          "type": "address"
        }
      ],
      "payable": false,
      "stateMutability": "view",
      "type": "function"
    },
    {
      "constant": false,
      "inputs": [
        {
          "internalType": "contract IMedianizer",
          "name": "_ethBtcFeed",
          "type": "address"
        }
      ],
      "name": "addEthBtcFeed",
      "outputs": [],
      "payable": false,
      "stateMutability": "nonpayable",
      "type": "function"
    }
  ],
  "bytecode": "0x60806040526000805460ff60a01b1916905534801561001d57600080fd5b50600080546001600160a01b03191633178082556040516001600160a01b039190911691907f8be0079c531659141344cd1fd0a4f28419497f9722a3daafe3b4186f6b6457e0908290a3610906806100766000396000f3fe608060405234801561001057600080fd5b50600436106100885760003560e01c806398d5fdca1161005b57806398d5fdca14610105578063d14dd4131461011f578063e6f5c60a14610145578063f2fde38b1461014d57610088565b8063485cc9551461008d578063715018a6146100bd5780638da5cb5b146100c55780638f32d59b146100e9575b600080fd5b6100bb600480360360408110156100a357600080fd5b506001600160a01b0381358116916020013516610173565b005b6100bb610294565b6100cd610337565b604080516001600160a01b039092168252519081900360200190f35b6100f1610347565b604080519115158252519081900360200190f35b61010d610358565b60408051918252519081900360200190f35b6100bb6004803603602081101561013557600080fd5b50356001600160a01b03166104dc565b6100cd610635565b6100bb6004803603602081101561016357600080fd5b50356001600160a01b031661071a565b61017b610347565b6101cc576040805162461bcd60e51b815260206004820181905260248201527f4f776e61626c653a2063616c6c6572206973206e6f7420746865206f776e6572604482015290519081900360640190fd5b600054600160a01b900460ff1615610222576040805162461bcd60e51b815260206004820152601460248201527320b63932b0b23c9034b734ba34b0b634bd32b21760611b604482015290519081900360640190fd5b600180546001600160a01b039384166001600160a01b031991821617825560028054928301815560009081527f405787fa12a823e0f2b7631cc41b3ba8828b3321ca811111fa75cd3aa3bb5ace909201805493909416921691909117909155805460ff60a01b1916600160a01b179055565b61029c610347565b6102ed576040805162461bcd60e51b815260206004820181905260248201527f4f776e61626c653a2063616c6c6572206973206e6f7420746865206f776e6572604482015290519081900360640190fd5b600080546040516001600160a01b03909116907f8be0079c531659141344cd1fd0a4f28419497f9722a3daafe3b4186f6b6457e0908390a3600080546001600160a01b0319169055565b6000546001600160a01b03165b90565b6000546001600160a01b0316331490565b6001546000906001600160a01b031633146103a45760405162461bcd60e51b81526004018080602001828103825260228152602001806108b06022913960400191505060405180910390fd5b600080805b60025481101561045f57600281815481106103c057fe5b9060005260206000200160009054906101000a90046001600160a01b03166001600160a01b03166359e02dd76040518163ffffffff1660e01b8152600401604080518083038186803b15801561041557600080fd5b505afa158015610429573d6000803e3d6000fd5b505050506040513d604081101561043f57600080fd5b5080516020909101519350915082156104575761045f565b6001016103a9565b50816104a7576040805162461bcd60e51b815260206004820152601260248201527150726963652066656564206f66666c696e6560701b604482015290519081900360640190fd5b6104d56b204fce5e3e250261100000006fffffffffffffffffffffffffffffffff831663ffffffff61077f16565b9250505090565b6001546001600160a01b031633146105255760405162461bcd60e51b81526004018080602001828103825260228152602001806108b06022913960400191505060405180910390fd5b6000816001600160a01b03166359e02dd76040518163ffffffff1660e01b8152600401604080518083038186803b15801561055f57600080fd5b505afa158015610573573d6000803e3d6000fd5b505050506040513d604081101561058957600080fd5b50602001519050806105e2576040805162461bcd60e51b815260206004820152601860248201527f43616e6e6f742061646420696e61637469766520666565640000000000000000604482015290519081900360640190fd5b50600280546001810182556000919091527f405787fa12a823e0f2b7631cc41b3ba8828b3321ca811111fa75cd3aa3bb5ace0180546001600160a01b0319166001600160a01b0392909216919091179055565b600080805b600254811015610711576002818154811061065157fe5b9060005260206000200160009054906101000a90046001600160a01b03166001600160a01b03166359e02dd76040518163ffffffff1660e01b8152600401604080518083038186803b1580156106a657600080fd5b505afa1580156106ba573d6000803e3d6000fd5b505050506040513d60408110156106d057600080fd5b50602001519150811561070957600281815481106106ea57fe5b6000918252602090912001546001600160a01b03169250610344915050565b60010161063a565b50600091505090565b610722610347565b610773576040805162461bcd60e51b815260206004820181905260248201527f4f776e61626c653a2063616c6c6572206973206e6f7420746865206f776e6572604482015290519081900360640190fd5b61077c816107e9565b50565b60008082116107d5576040805162461bcd60e51b815260206004820152601a60248201527f536166654d6174683a206469766973696f6e206279207a65726f000000000000604482015290519081900360640190fd5b60008284816107e057fe5b04949350505050565b6001600160a01b03811661082e5760405162461bcd60e51b815260040180806020018281038252602681526020018061088a6026913960400191505060405180910390fd5b600080546040516001600160a01b03808516939216917f8be0079c531659141344cd1fd0a4f28419497f9722a3daafe3b4186f6b6457e091a3600080546001600160a01b0319166001600160a01b039290921691909117905556fe4f776e61626c653a206e6577206f776e657220697320746865207a65726f206164647265737343616c6c6572206d757374206265207462746353797374656d20636f6e7472616374a265627a7a72315820d0fb6e3f5841c8edd78f78e3f00213003f5c9a48ef3afabf2a67b2a1325c839864736f6c63430005110032",
  "source": "pragma solidity 0.5.17;\n\nimport {SafeMath} from \"openzeppelin-solidity/contracts/math/SafeMath.sol\";\nimport \"openzeppelin-solidity/contracts/ownership/Ownable.sol\";\nimport \"../external/IMedianizer.sol\";\nimport \"../interfaces/ISatWeiPriceFeed.sol\";\n\n/// @notice satoshi/wei price feed.\n/// @dev Used ETH/USD medianizer values converted to sat/wei.\ncontract SatWeiPriceFeed is Ownable, ISatWeiPriceFeed {\n    using SafeMath for uint256;\n\n    bool private _initialized = false;\n    address internal tbtcSystemAddress;\n\n    IMedianizer[] private ethBtcFeeds;\n\n    constructor() public {\n    // solium-disable-previous-line no-empty-blocks\n    }\n\n    /// @notice Initialises the addresses of the ETHBTC price feeds.\n    /// @param _tbtcSystemAddress Address of the `TBTCSystem` contract. Used for access control.\n    /// @param _ETHBTCPriceFeed The ETHBTC price feed address.\n    function initialize(\n        address _tbtcSystemAddress,\n        IMedianizer _ETHBTCPriceFeed\n    )\n        external onlyOwner\n    {\n        require(!_initialized, \"Already initialized.\");\n        tbtcSystemAddress = _tbtcSystemAddress;\n        ethBtcFeeds.push(_ETHBTCPriceFeed);\n        _initialized = true;\n    }\n\n    /// @notice Get the current price of 1 satoshi in wei.\n    /// @dev This does not account for any 'Flippening' event.\n    /// @return The price of one satoshi in wei.\n    function getPrice()\n        external onlyTbtcSystem view returns (uint256)\n    {\n        bool ethBtcActive;\n        uint256 ethBtc;\n\n        for(uint i = 0; i < ethBtcFeeds.length; i++){\n            (ethBtc, ethBtcActive) = ethBtcFeeds[i].peek();\n            if(ethBtcActive) {\n                break;\n            }\n        }\n\n        require(ethBtcActive, \"Price feed offline\");\n\n        // convert eth/btc to sat/wei\n        // We typecast down to uint128, because the first 128 bits of\n        // the medianizer value is unrelated to the price.\n        return uint256(10**28).div(uint256(uint128(ethBtc)));\n    }\n\n    /// @notice Get the first active Medianizer contract from the ethBtcFeeds array.\n    /// @return The address of the first Active Medianizer. address(0) if none found\n    function getWorkingEthBtcFeed() external view returns (address){\n        bool ethBtcActive;\n\n        for(uint i = 0; i < ethBtcFeeds.length; i++){\n            (, ethBtcActive) = ethBtcFeeds[i].peek();\n            if(ethBtcActive) {\n                return address(ethBtcFeeds[i]);\n            }\n        }\n        return address(0);\n    }\n\n    /// @notice Add _ethBtcFeed to internal ethBtcFeeds array.\n    /// @dev IMedianizer must be active in order to add.\n    function addEthBtcFeed(IMedianizer _ethBtcFeed) external onlyTbtcSystem {\n        bool ethBtcActive;\n        (, ethBtcActive) = _ethBtcFeed.peek();\n        require(ethBtcActive, \"Cannot add inactive feed\");\n        ethBtcFeeds.push(_ethBtcFeed);\n    }\n\n    /// @notice Function modifier ensures modified function is only called by tbtcSystemAddress.\n    modifier onlyTbtcSystem(){\n        require(msg.sender == tbtcSystemAddress, \"Caller must be tbtcSystem contract\");\n        _;\n    }\n}\n",
  "sourcePath": "/Users/symf/IdeaProjects/tbtc/solidity/contracts/price-feed/SatWeiPriceFeed.sol",
  "compiler": {
    "name": "solc",
    "version": "0.5.17+commit.d19bba13.Emscripten.clang"
  },
  "schemaVersion": "3.0.23",
  "updatedAt": "2020-08-21T21:24:02.851Z",
  "devdoc": {
    "details": "Used ETH/USD medianizer values converted to sat/wei.",
    "methods": {
      "addEthBtcFeed(address)": {
        "details": "IMedianizer must be active in order to add."
      },
      "getPrice()": {
        "details": "This does not account for any 'Flippening' event.",
        "return": "The price of one satoshi in wei."
      },
      "getWorkingEthBtcFeed()": {
        "return": "The address of the first Active Medianizer. address(0) if none found"
      },
      "initialize(address,address)": {
        "params": {
          "_ETHBTCPriceFeed": "The ETHBTC price feed address.",
          "_tbtcSystemAddress": "Address of the `TBTCSystem` contract. Used for access control."
        }
      },
      "isOwner()": {
        "details": "Returns true if the caller is the current owner."
      },
      "owner()": {
        "details": "Returns the address of the current owner."
      },
      "renounceOwnership()": {
        "details": "Leaves the contract without owner. It will not be possible to call `onlyOwner` functions anymore. Can only be called by the current owner.     * > Note: Renouncing ownership will leave the contract without an owner, thereby removing any functionality that is only available to the owner."
      },
      "transferOwnership(address)": {
        "details": "Transfers ownership of the contract to a new account (`newOwner`). Can only be called by the current owner."
      }
    }
  },
  "userdoc": {
    "methods": {
      "addEthBtcFeed(address)": {
        "notice": "Add _ethBtcFeed to internal ethBtcFeeds array."
      },
      "getPrice()": {
        "notice": "Get the current price of 1 satoshi in wei."
      },
      "getWorkingEthBtcFeed()": {
        "notice": "Get the first active Medianizer contract from the ethBtcFeeds array."
      },
      "initialize(address,address)": {
        "notice": "Initialises the addresses of the ETHBTC price feeds."
      }
    },
    "notice": "satoshi/wei price feed."
  }
}