{
  "contractName": "TBTCDepositToken",
  "abi": [
    {
      "inputs": [
        {
          "internalType": "address",
          "name": "_depositFactoryAddress",
          "type": "address"
        }
      ],
      "payable": false,
      "stateMutability": "nonpayable",
      "type": "constructor"
    },
    {
      "anonymous": false,
      "inputs": [
        {
          "indexed": true,
          "internalType": "address",
          "name": "owner",
          "type": "address"
        },
        {
          "indexed": true,
          "internalType": "address",
          "name": "approved",
          "type": "address"
        },
        {
          "indexed": true,
          "internalType": "uint256",
          "name": "tokenId",
          "type": "uint256"
        }
      ],
      "name": "Approval",
      "type": "event"
    },
    {
      "anonymous": false,
      "inputs": [
        {
          "indexed": true,
          "internalType": "address",
          "name": "owner",
          "type": "address"
        },
        {
          "indexed": true,
          "internalType": "address",
          "name": "operator",
          "type": "address"
        },
        {
          "indexed": false,
          "internalType": "bool",
          "name": "approved",
          "type": "bool"
        }
      ],
      "name": "ApprovalForAll",
      "type": "event"
    },
    {
      "anonymous": false,
      "inputs": [
        {
          "indexed": true,
          "internalType": "address",
          "name": "from",
          "type": "address"
        },
        {
          "indexed": true,
          "internalType": "address",
          "name": "to",
          "type": "address"
        },
        {
          "indexed": true,
          "internalType": "uint256",
          "name": "tokenId",
          "type": "uint256"
        }
      ],
      "name": "Transfer",
      "type": "event"
    },
    {
      "constant": false,
      "inputs": [
        {
          "internalType": "address",
          "name": "to",
          "type": "address"
        },
        {
          "internalType": "uint256",
          "name": "tokenId",
          "type": "uint256"
        }
      ],
      "name": "approve",
      "outputs": [],
      "payable": false,
      "stateMutability": "nonpayable",
      "type": "function"
    },
    {
      "constant": true,
      "inputs": [
        {
          "internalType": "address",
          "name": "owner",
          "type": "address"
        }
      ],
      "name": "balanceOf",
      "outputs": [
        {
          "internalType": "uint256",
          "name": "",
          "type": "uint256"
        }
      ],
      "payable": false,
      "stateMutability": "view",
      "type": "function"
    },
    {
      "constant": true,
      "inputs": [
        {
          "internalType": "uint256",
          "name": "tokenId",
          "type": "uint256"
        }
      ],
      "name": "getApproved",
      "outputs": [
        {
          "internalType": "address",
          "name": "",
          "type": "address"
        }
      ],
      "payable": false,
      "stateMutability": "view",
      "type": "function"
    },
    {
      "constant": false,
      "inputs": [
        {
          "internalType": "address",
          "name": "_factory",
          "type": "address"
        }
      ],
      "name": "initialize",
      "outputs": [],
      "payable": false,
      "stateMutability": "nonpayable",
      "type": "function"
    },
    {
      "constant": true,
      "inputs": [
        {
          "internalType": "address",
          "name": "owner",
          "type": "address"
        },
        {
          "internalType": "address",
          "name": "operator",
          "type": "address"
        }
      ],
      "name": "isApprovedForAll",
      "outputs": [
        {
          "internalType": "bool",
          "name": "",
          "type": "bool"
        }
      ],
      "payable": false,
      "stateMutability": "view",
      "type": "function"
    },
    {
      "constant": true,
      "inputs": [],
      "name": "name",
      "outputs": [
        {
          "internalType": "string",
          "name": "",
          "type": "string"
        }
      ],
      "payable": false,
      "stateMutability": "view",
      "type": "function"
    },
    {
      "constant": true,
      "inputs": [
        {
          "internalType": "uint256",
          "name": "tokenId",
          "type": "uint256"
        }
      ],
      "name": "ownerOf",
      "outputs": [
        {
          "internalType": "address",
          "name": "",
          "type": "address"
        }
      ],
      "payable": false,
      "stateMutability": "view",
      "type": "function"
    },
    {
      "constant": false,
      "inputs": [
        {
          "internalType": "address",
          "name": "from",
          "type": "address"
        },
        {
          "internalType": "address",
          "name": "to",
          "type": "address"
        },
        {
          "internalType": "uint256",
          "name": "tokenId",
          "type": "uint256"
        }
      ],
      "name": "safeTransferFrom",
      "outputs": [],
      "payable": false,
      "stateMutability": "nonpayable",
      "type": "function"
    },
    {
      "constant": false,
      "inputs": [
        {
          "internalType": "address",
          "name": "from",
          "type": "address"
        },
        {
          "internalType": "address",
          "name": "to",
          "type": "address"
        },
        {
          "internalType": "uint256",
          "name": "tokenId",
          "type": "uint256"
        },
        {
          "internalType": "bytes",
          "name": "_data",
          "type": "bytes"
        }
      ],
      "name": "safeTransferFrom",
      "outputs": [],
      "payable": false,
      "stateMutability": "nonpayable",
      "type": "function"
    },
    {
      "constant": false,
      "inputs": [
        {
          "internalType": "address",
          "name": "to",
          "type": "address"
        },
        {
          "internalType": "bool",
          "name": "approved",
          "type": "bool"
        }
      ],
      "name": "setApprovalForAll",
      "outputs": [],
      "payable": false,
      "stateMutability": "nonpayable",
      "type": "function"
    },
    {
      "constant": true,
      "inputs": [
        {
          "internalType": "bytes4",
          "name": "interfaceId",
          "type": "bytes4"
        }
      ],
      "name": "supportsInterface",
      "outputs": [
        {
          "internalType": "bool",
          "name": "",
          "type": "bool"
        }
      ],
      "payable": false,
      "stateMutability": "view",
      "type": "function"
    },
    {
      "constant": true,
      "inputs": [],
      "name": "symbol",
      "outputs": [
        {
          "internalType": "string",
          "name": "",
          "type": "string"
        }
      ],
      "payable": false,
      "stateMutability": "view",
      "type": "function"
    },
    {
      "constant": true,
      "inputs": [
        {
          "internalType": "uint256",
          "name": "tokenId",
          "type": "uint256"
        }
      ],
      "name": "tokenURI",
      "outputs": [
        {
          "internalType": "string",
          "name": "",
          "type": "string"
        }
      ],
      "payable": false,
      "stateMutability": "view",
      "type": "function"
    },
    {
      "constant": false,
      "inputs": [
        {
          "internalType": "address",
          "name": "from",
          "type": "address"
        },
        {
          "internalType": "address",
          "name": "to",
          "type": "address"
        },
        {
          "internalType": "uint256",
          "name": "tokenId",
          "type": "uint256"
        }
      ],
      "name": "transferFrom",
      "outputs": [],
      "payable": false,
      "stateMutability": "nonpayable",
      "type": "function"
    },
    {
      "constant": false,
      "inputs": [
        {
          "internalType": "address",
          "name": "_to",
          "type": "address"
        },
        {
          "internalType": "uint256",
          "name": "_tokenId",
          "type": "uint256"
        }
      ],
      "name": "mint",
      "outputs": [],
      "payable": false,
      "stateMutability": "nonpayable",
      "type": "function"
    },
    {
      "constant": true,
      "inputs": [
        {
          "internalType": "uint256",
          "name": "_tokenId",
          "type": "uint256"
        }
      ],
      "name": "exists",
      "outputs": [
        {
          "internalType": "bool",
          "name": "",
          "type": "bool"
        }
      ],
      "payable": false,
      "stateMutability": "view",
      "type": "function"
    },
    {
      "constant": false,
      "inputs": [
        {
          "internalType": "contract ITokenRecipient",
          "name": "_spender",
          "type": "address"
        },
        {
          "internalType": "uint256",
          "name": "_tdtId",
          "type": "uint256"
        },
        {
          "internalType": "bytes",
          "name": "_extraData",
          "type": "bytes"
        }
      ],
      "name": "approveAndCall",
      "outputs": [
        {
          "internalType": "bool",
          "name": "",
          "type": "bool"
        }
      ],
      "payable": false,
      "stateMutability": "nonpayable",
      "type": "function"
    }
  ],
  "bytecode": "0x60806040526008805460ff191690553480156200001b57600080fd5b506040516200181438038062001814833981810160405260208110156200004157600080fd5b505160408051808201825260128152713a212a21902232b837b9b4ba102a37b5b2b760711b6020828101919091528251808401909352600383526215111560ea1b9083015290620000a26301ffc9a760e01b6001600160e01b036200012216565b620000bd6380ac58cd60e01b6001600160e01b036200012216565b8151620000d29060059060208501906200021a565b508051620000e89060069060208401906200021a565b5062000104635b5e139f60e01b6001600160e01b036200012216565b506200011b9050816001600160e01b03620001a716565b50620002bf565b6001600160e01b0319808216141562000182576040805162461bcd60e51b815260206004820152601c60248201527f4552433136353a20696e76616c696420696e7465726661636520696400000000604482015290519081900360640190fd5b6001600160e01b0319166000908152602081905260409020805460ff19166001179055565b60085460ff1615620001eb5760405162461bcd60e51b8152600401808060200182810382526025815260200180620017ef6025913960400191505060405180910390fd5b6008805460ff196001600160a01b0390931661010002610100600160a81b031990911617919091166001179055565b828054600181600116156101000203166002900490600052602060002090601f016020900481019282601f106200025d57805160ff19168380011785556200028d565b828001600101855582156200028d579182015b828111156200028d57825182559160200191906001019062000270565b506200029b9291506200029f565b5090565b620002bc91905b808211156200029b5760008155600101620002a6565b90565b61152080620002cf6000396000f3fe608060405234801561001057600080fd5b506004361061010b5760003560e01c80636352211e116100a2578063b88d4fde11610071578063b88d4fde1461036f578063c4d66de814610435578063c87b56dd1461045b578063cae9ca5114610478578063e985e9c5146105335761010b565b80636352211e146102e457806370a082311461030157806395d89b4114610339578063a22cb465146103415761010b565b806323b872dd116100de57806323b872dd1461022f57806340c10f191461026557806342842e0e146102915780634f558e79146102c75761010b565b806301ffc9a71461011057806306fdde031461014b578063081812fc146101c8578063095ea7b314610201575b600080fd5b6101376004803603602081101561012657600080fd5b50356001600160e01b031916610561565b604080519115158252519081900360200190f35b610153610580565b6040805160208082528351818301528351919283929083019185019080838360005b8381101561018d578181015183820152602001610175565b50505050905090810190601f1680156101ba5780820380516001836020036101000a031916815260200191505b509250505060405180910390f35b6101e5600480360360208110156101de57600080fd5b5035610616565b604080516001600160a01b039092168252519081900360200190f35b61022d6004803603604081101561021757600080fd5b506001600160a01b038135169060200135610678565b005b61022d6004803603606081101561024557600080fd5b506001600160a01b03813581169160208101359091169060400135610789565b61022d6004803603604081101561027b57600080fd5b506001600160a01b0381351690602001356107de565b61022d600480360360608110156102a757600080fd5b506001600160a01b0381358116916020810135909116906040013561087b565b610137600480360360208110156102dd57600080fd5b5035610896565b6101e5600480360360208110156102fa57600080fd5b50356108a7565b6103276004803603602081101561031757600080fd5b50356001600160a01b03166108fb565b60408051918252519081900360200190f35b610153610963565b61022d6004803603604081101561035757600080fd5b506001600160a01b03813516906020013515156109c4565b61022d6004803603608081101561038557600080fd5b6001600160a01b038235811692602081013590911691604082013591908101906080810160608201356401000000008111156103c057600080fd5b8201836020820111156103d257600080fd5b803590602001918460018302840111640100000000831117156103f457600080fd5b91908080601f016020809104026020016040519081016040528093929190818152602001838380828437600092019190915250929550610a90945050505050565b61022d6004803603602081101561044b57600080fd5b50356001600160a01b0316610ae8565b6101536004803603602081101561047157600080fd5b5035610b59565b6101376004803603606081101561048e57600080fd5b6001600160a01b03823516916020810135918101906060810160408201356401000000008111156104be57600080fd5b8201836020820111156104d057600080fd5b803590602001918460018302840111640100000000831117156104f257600080fd5b91908080601f016020809104026020016040519081016040528093929190818152602001838380828437600092019190915250929550610c3e945050505050565b6101376004803603604081101561054957600080fd5b506001600160a01b0381358116916020013516610d35565b6001600160e01b03191660009081526020819052604090205460ff1690565b60058054604080516020601f600260001961010060018816150201909516949094049384018190048102820181019092528281526060939092909183018282801561060c5780601f106105e15761010080835404028352916020019161060c565b820191906000526020600020905b8154815290600101906020018083116105ef57829003601f168201915b5050505050905090565b600061062182610d63565b61065c5760405162461bcd60e51b815260040180806020018281038252602c81526020018061139e602c913960400191505060405180910390fd5b506000908152600260205260409020546001600160a01b031690565b6000610683826108a7565b9050806001600160a01b0316836001600160a01b031614156106d65760405162461bcd60e51b81526004018080602001828103825260218152602001806114226021913960400191505060405180910390fd5b336001600160a01b03821614806106f257506106f28133610d35565b61072d5760405162461bcd60e51b81526004018080602001828103825260388152602001806113136038913960400191505060405180910390fd5b60008281526002602052604080822080546001600160a01b0319166001600160a01b0387811691821790925591518593918516917f8c5be1e5ebec7d5bd14f71427d1e84f3dd0314c0f7b2291e5b200ac8c7c3b92591a4505050565b6107933382610d80565b6107ce5760405162461bcd60e51b81526004018080602001828103825260318152602001806114436031913960400191505060405180910390fd5b6107d9838383610e24565b505050565b60085460ff1661081f5760405162461bcd60e51b815260040180806020018281038252602d8152602001806114bf602d913960400191505060405180910390fd5b60085461010090046001600160a01b0316331461086d5760405162461bcd60e51b81526004018080602001828103825260268152602001806114996026913960400191505060405180910390fd5b6108778282610f68565b5050565b6107d983838360405180602001604052806000815250610a90565b60006108a182610d63565b92915050565b6000818152600160205260408120546001600160a01b0316806108a15760405162461bcd60e51b81526004018080602001828103825260298152602001806113756029913960400191505060405180910390fd5b60006001600160a01b0382166109425760405162461bcd60e51b815260040180806020018281038252602a81526020018061134b602a913960400191505060405180910390fd5b6001600160a01b03821660009081526003602052604090206108a190611099565b60068054604080516020601f600260001961010060018816150201909516949094049384018190048102820181019092528281526060939092909183018282801561060c5780601f106105e15761010080835404028352916020019161060c565b6001600160a01b038216331415610a22576040805162461bcd60e51b815260206004820152601960248201527f4552433732313a20617070726f766520746f2063616c6c657200000000000000604482015290519081900360640190fd5b3360008181526004602090815260408083206001600160a01b03871680855290835292819020805460ff1916861515908117909155815190815290519293927f17307eab39ab6107e8899845ad3d59bd9653f200f220920489ca2b5937696c31929181900390910190a35050565b610a9b848484610789565b610aa78484848461109d565b610ae25760405162461bcd60e51b81526004018080602001828103825260328152602001806112916032913960400191505060405180910390fd5b50505050565b60085460ff1615610b2a5760405162461bcd60e51b81526004018080602001828103825260258152602001806114746025913960400191505060405180910390fd5b6008805460ff196001600160a01b0390931661010002610100600160a81b031990911617919091166001179055565b6060610b6482610d63565b610b9f5760405162461bcd60e51b815260040180806020018281038252602f8152602001806113f3602f913960400191505060405180910390fd5b60008281526007602090815260409182902080548351601f600260001961010060018616150201909316929092049182018490048402810184019094528084529091830182828015610c325780601f10610c0757610100808354040283529160200191610c32565b820191906000526020600020905b815481529060010190602001808311610c1557829003601f168201915b50505050509050919050565b6000610c4a8484610678565b604051638f4ffcb160e01b815233600482018181526024830186905230604484018190526080606485019081528651608486015286516001600160a01b038a1695638f4ffcb195948a94938a939192909160a490910190602085019080838360005b83811015610cc4578181015183820152602001610cac565b50505050905090810190601f168015610cf15780820380516001836020036101000a031916815260200191505b5095505050505050600060405180830381600087803b158015610d1357600080fd5b505af1158015610d27573d6000803e3d6000fd5b506001979650505050505050565b6001600160a01b03918216600090815260046020908152604080832093909416825291909152205460ff1690565b6000908152600160205260409020546001600160a01b0316151590565b6000610d8b82610d63565b610dc65760405162461bcd60e51b815260040180806020018281038252602c8152602001806112e7602c913960400191505060405180910390fd5b6000610dd1836108a7565b9050806001600160a01b0316846001600160a01b03161480610e0c5750836001600160a01b0316610e0184610616565b6001600160a01b0316145b80610e1c5750610e1c8185610d35565b949350505050565b826001600160a01b0316610e37826108a7565b6001600160a01b031614610e7c5760405162461bcd60e51b81526004018080602001828103825260298152602001806113ca6029913960400191505060405180910390fd5b6001600160a01b038216610ec15760405162461bcd60e51b81526004018080602001828103825260248152602001806112c36024913960400191505060405180910390fd5b610eca816111d0565b6001600160a01b0383166000908152600360205260409020610eeb9061120d565b6001600160a01b0382166000908152600360205260409020610f0c90611224565b60008181526001602052604080822080546001600160a01b0319166001600160a01b0386811691821790925591518493918716917fddf252ad1be2c89b69c2b068fc378daa952ba7f163c4a11628f55a4df523b3ef91a4505050565b6001600160a01b038216610fc3576040805162461bcd60e51b815260206004820181905260248201527f4552433732313a206d696e7420746f20746865207a65726f2061646472657373604482015290519081900360640190fd5b610fcc81610d63565b1561101e576040805162461bcd60e51b815260206004820152601c60248201527f4552433732313a20746f6b656e20616c7265616479206d696e74656400000000604482015290519081900360640190fd5b600081815260016020908152604080832080546001600160a01b0319166001600160a01b03871690811790915583526003909152902061105d90611224565b60405181906001600160a01b038416906000907fddf252ad1be2c89b69c2b068fc378daa952ba7f163c4a11628f55a4df523b3ef908290a45050565b5490565b60006110b1846001600160a01b031661122d565b6110bd57506001610e1c565b604051630a85bd0160e11b815233600482018181526001600160a01b03888116602485015260448401879052608060648501908152865160848601528651600095928a169463150b7a029490938c938b938b939260a4019060208501908083838e5b8381101561113757818101518382015260200161111f565b50505050905090810190601f1680156111645780820380516001836020036101000a031916815260200191505b5095505050505050602060405180830381600087803b15801561118657600080fd5b505af115801561119a573d6000803e3d6000fd5b505050506040513d60208110156111b057600080fd5b50516001600160e01b031916630a85bd0160e11b14915050949350505050565b6000818152600260205260409020546001600160a01b03161561120a57600081815260026020526040902080546001600160a01b03191690555b50565b805461122090600163ffffffff61123316565b9055565b80546001019055565b3b151590565b60008282111561128a576040805162461bcd60e51b815260206004820152601e60248201527f536166654d6174683a207375627472616374696f6e206f766572666c6f770000604482015290519081900360640190fd5b5090039056fe4552433732313a207472616e7366657220746f206e6f6e20455243373231526563656976657220696d706c656d656e7465724552433732313a207472616e7366657220746f20746865207a65726f20616464726573734552433732313a206f70657261746f7220717565727920666f72206e6f6e6578697374656e7420746f6b656e4552433732313a20617070726f76652063616c6c6572206973206e6f74206f776e6572206e6f7220617070726f76656420666f7220616c6c4552433732313a2062616c616e636520717565727920666f7220746865207a65726f20616464726573734552433732313a206f776e657220717565727920666f72206e6f6e6578697374656e7420746f6b656e4552433732313a20617070726f76656420717565727920666f72206e6f6e6578697374656e7420746f6b656e4552433732313a207472616e73666572206f6620746f6b656e2074686174206973206e6f74206f776e4552433732314d657461646174613a2055524920717565727920666f72206e6f6e6578697374656e7420746f6b656e4552433732313a20617070726f76616c20746f2063757272656e74206f776e65724552433732313a207472616e736665722063616c6c6572206973206e6f74206f776e6572206e6f7220617070726f766564466163746f72792063616e206f6e6c7920626520696e697469616c697a6564206f6e63652e43616c6c6572206d757374206265206465706f736974466163746f727920636f6e7472616374466163746f727920696e697469616c697a6174696f6e206d7573742068617665206265656e2063616c6c65642ea265627a7a72315820d69db455750f86136b3cd9966495c35e48ff44d4c53e9811f4591997380ee72c64736f6c63430005110032466163746f72792063616e206f6e6c7920626520696e697469616c697a6564206f6e63652e",
  "source": "pragma solidity 0.5.17;\n\nimport {ERC721Metadata} from \"openzeppelin-solidity/contracts/token/ERC721/ERC721Metadata.sol\";\nimport {DepositFactoryAuthority} from \"./DepositFactoryAuthority.sol\";\nimport {ITokenRecipient} from \"../interfaces/ITokenRecipient.sol\";\n\n/// @title tBTC Deposit Token for tracking deposit ownership\n/// @notice The tBTC Deposit Token, commonly referenced as the TDT, is an\n///         ERC721 non-fungible token whose ownership reflects the ownership\n///         of its corresponding deposit. Each deposit has one TDT, and vice\n///         versa. Owning a TDT is equivalent to owning its corresponding\n///         deposit. TDTs can be transferred freely. tBTC's VendingMachine\n///         contract takes ownership of TDTs and in exchange returns fungible\n///         TBTC tokens whose value is backed 1-to-1 by the corresponding\n///         deposit's BTC.\n/// @dev Currently, TDTs are minted using the uint256 casting of the\n///      corresponding deposit contract's address. That is, the TDT's id is\n///      convertible to the deposit's address and vice versa. TDTs are minted\n///      automatically by the factory during each deposit's initialization. See\n///      DepositFactory.createNewDeposit() for more info on how the TDT is minted.\ncontract TBTCDepositToken is ERC721Metadata, DepositFactoryAuthority {\n\n    constructor(address _depositFactoryAddress)\n        ERC721Metadata(\"tBTC Deposit Token\", \"TDT\")\n    public {\n        initialize(_depositFactoryAddress);\n    }\n\n    /// @dev Mints a new token.\n    /// Reverts if the given token ID already exists.\n    /// @param _to The address that will own the minted token\n    /// @param _tokenId uint256 ID of the token to be minted\n    function mint(address _to, uint256 _tokenId) public onlyFactory {\n        _mint(_to, _tokenId);\n    }\n\n    /// @dev Returns whether the specified token exists.\n    /// @param _tokenId uint256 ID of the token to query the existence of.\n    /// @return bool whether the token exists.\n    function exists(uint256 _tokenId) public view returns (bool) {\n        return _exists(_tokenId);\n    }\n\n    /// @notice           Allow another address to spend on the caller's behalf.\n    ///                   Set allowance for other address and notify.\n    ///                   Allows `_spender` to transfer the specified TDT\n    ///                   on your behalf and then ping the contract about it.\n    /// @dev              The `_spender` should implement the `ITokenRecipient`\n    ///                   interface below to receive approval notifications.\n    /// @param _spender   `ITokenRecipient`-conforming contract authorized to\n    ///        operate on the approved token.\n    /// @param _tdtId     The TDT they can spend.\n    /// @param _extraData Extra information to send to the approved contract.\n    function approveAndCall(ITokenRecipient _spender, uint256 _tdtId, bytes memory _extraData) public returns (bool) {\n        approve(address(_spender), _tdtId);\n        _spender.receiveApproval(msg.sender, _tdtId, address(this), _extraData);\n        return true;\n    }\n}\n",
  "sourcePath": "/Users/symf/IdeaProjects/tbtc/solidity/contracts/system/TBTCDepositToken.sol",
  "compiler": {
    "name": "solc",
    "version": "0.5.17+commit.d19bba13.Emscripten.clang"
  },
  "schemaVersion": "3.0.23",
  "updatedAt": "2020-08-21T21:24:02.874Z",
  "devdoc": {
    "details": "Currently, TDTs are minted using the uint256 casting of the      corresponding deposit contract's address. That is, the TDT's id is      convertible to the deposit's address and vice versa. TDTs are minted      automatically by the factory during each deposit's initialization. See      DepositFactory.createNewDeposit() for more info on how the TDT is minted.",
    "methods": {
      "approve(address,uint256)": {
        "details": "Approves another address to transfer the given token ID The zero address indicates there is no approved address. There can only be one approved address per token at a given time. Can only be called by the token owner or an approved operator.",
        "params": {
          "to": "address to be approved for the given token ID",
          "tokenId": "uint256 ID of the token to be approved"
        }
      },
      "approveAndCall(address,uint256,bytes)": {
        "details": "The `_spender` should implement the `ITokenRecipient`                   interface below to receive approval notifications.",
        "params": {
          "_extraData": "Extra information to send to the approved contract.",
          "_spender": "`ITokenRecipient`-conforming contract authorized to        operate on the approved token.",
          "_tdtId": "The TDT they can spend."
        }
      },
      "balanceOf(address)": {
        "details": "Gets the balance of the specified address.",
        "params": {
          "owner": "address to query the balance of"
        },
        "return": "uint256 representing the amount owned by the passed address"
      },
      "exists(uint256)": {
        "details": "Returns whether the specified token exists.",
        "params": {
          "_tokenId": "uint256 ID of the token to query the existence of."
        },
        "return": "bool whether the token exists."
      },
      "getApproved(uint256)": {
        "details": "Gets the approved address for a token ID, or zero if no address set Reverts if the token ID does not exist.",
        "params": {
          "tokenId": "uint256 ID of the token to query the approval of"
        },
        "return": "address currently approved for the given token ID"
      },
      "isApprovedForAll(address,address)": {
        "details": "Tells whether an operator is approved by a given owner.",
        "params": {
          "operator": "operator address which you want to query the approval of",
          "owner": "owner address which you want to query the approval of"
        },
        "return": "bool whether the given operator is approved by the given owner"
      },
      "mint(address,uint256)": {
        "details": "Mints a new token. Reverts if the given token ID already exists.",
        "params": {
          "_to": "The address that will own the minted token",
          "_tokenId": "uint256 ID of the token to be minted"
        }
      },
      "name()": {
        "details": "Gets the token name.",
        "return": "string representing the token name"
      },
      "ownerOf(uint256)": {
        "details": "Gets the owner of the specified token ID.",
        "params": {
          "tokenId": "uint256 ID of the token to query the owner of"
        },
        "return": "address currently marked as the owner of the given token ID"
      },
      "safeTransferFrom(address,address,uint256)": {
        "details": "Safely transfers the ownership of a given token ID to another address If the target address is a contract, it must implement `onERC721Received`, which is called upon a safe transfer, and return the magic value `bytes4(keccak256(\"onERC721Received(address,address,uint256,bytes)\"))`; otherwise, the transfer is reverted. Requires the msg.sender to be the owner, approved, or operator",
        "params": {
          "from": "current owner of the token",
          "to": "address to receive the ownership of the given token ID",
          "tokenId": "uint256 ID of the token to be transferred"
        }
      },
      "safeTransferFrom(address,address,uint256,bytes)": {
        "details": "Safely transfers the ownership of a given token ID to another address If the target address is a contract, it must implement `onERC721Received`, which is called upon a safe transfer, and return the magic value `bytes4(keccak256(\"onERC721Received(address,address,uint256,bytes)\"))`; otherwise, the transfer is reverted. Requires the msg.sender to be the owner, approved, or operator",
        "params": {
          "_data": "bytes data to send along with a safe transfer check",
          "from": "current owner of the token",
          "to": "address to receive the ownership of the given token ID",
          "tokenId": "uint256 ID of the token to be transferred"
        }
      },
      "setApprovalForAll(address,bool)": {
        "details": "Sets or unsets the approval of a given operator An operator is allowed to transfer all tokens of the sender on their behalf.",
        "params": {
          "approved": "representing the status of the approval to be set",
          "to": "operator address to set the approval"
        }
      },
      "supportsInterface(bytes4)": {
        "details": "See `IERC165.supportsInterface`.     * Time complexity O(1), guaranteed to always use less than 30 000 gas."
      },
      "symbol()": {
        "details": "Gets the token symbol.",
        "return": "string representing the token symbol"
      },
      "tokenURI(uint256)": {
        "details": "Returns an URI for a given token ID. Throws if the token ID does not exist. May return an empty string.",
        "params": {
          "tokenId": "uint256 ID of the token to query"
        }
      },
      "transferFrom(address,address,uint256)": {
        "details": "Transfers the ownership of a given token ID to another address. Usage of this method is discouraged, use `safeTransferFrom` whenever possible. Requires the msg.sender to be the owner, approved, or operator.",
        "params": {
          "from": "current owner of the token",
          "to": "address to receive the ownership of the given token ID",
          "tokenId": "uint256 ID of the token to be transferred"
        }
      }
    },
    "title": "tBTC Deposit Token for tracking deposit ownership"
  },
  "userdoc": {
    "methods": {
      "approveAndCall(address,uint256,bytes)": {
        "notice": "Allow another address to spend on the caller's behalf.                   Set allowance for other address and notify.                   Allows `_spender` to transfer the specified TDT                   on your behalf and then ping the contract about it."
      },
      "initialize(address)": {
        "notice": "Set the address of the System contract on contract initialization."
      }
    },
    "notice": "The tBTC Deposit Token, commonly referenced as the TDT, is an         ERC721 non-fungible token whose ownership reflects the ownership         of its corresponding deposit. Each deposit has one TDT, and vice         versa. Owning a TDT is equivalent to owning its corresponding         deposit. TDTs can be transferred freely. tBTC's VendingMachine         contract takes ownership of TDTs and in exchange returns fungible         TBTC tokens whose value is backed 1-to-1 by the corresponding         deposit's BTC."
  }
}