{
  "contractName": "TBTCSystem",
  "abi": [
    {
      "inputs": [
        {
          "internalType": "address",
          "name": "_priceFeed",
          "type": "address"
        },
        {
          "internalType": "address",
          "name": "_relay",
          "type": "address"
        }
      ],
      "payable": false,
      "stateMutability": "nonpayable",
      "type": "constructor"
    },
    {
      "anonymous": false,
      "inputs": [
        {
          "indexed": false,
          "internalType": "bool",
          "name": "_allowNewDeposits",
          "type": "bool"
        }
      ],
      "name": "AllowNewDepositsUpdated",
      "type": "event"
    },
    {
      "anonymous": false,
      "inputs": [
        {
          "indexed": false,
          "internalType": "uint16",
          "name": "_initialCollateralizedPercent",
          "type": "uint16"
        },
        {
          "indexed": false,
          "internalType": "uint16",
          "name": "_undercollateralizedThresholdPercent",
          "type": "uint16"
        },
        {
          "indexed": false,
          "internalType": "uint16",
          "name": "_severelyUndercollateralizedThresholdPercent",
          "type": "uint16"
        },
        {
          "indexed": false,
          "internalType": "uint256",
          "name": "_timestamp",
          "type": "uint256"
        }
      ],
      "name": "CollateralizationThresholdsUpdateStarted",
      "type": "event"
    },
    {
      "anonymous": false,
      "inputs": [
        {
          "indexed": false,
          "internalType": "uint16",
          "name": "_initialCollateralizedPercent",
          "type": "uint16"
        },
        {
          "indexed": false,
          "internalType": "uint16",
          "name": "_undercollateralizedThresholdPercent",
          "type": "uint16"
        },
        {
          "indexed": false,
          "internalType": "uint16",
          "name": "_severelyUndercollateralizedThresholdPercent",
          "type": "uint16"
        }
      ],
      "name": "CollateralizationThresholdsUpdated",
      "type": "event"
    },
    {
      "anonymous": false,
      "inputs": [
        {
          "indexed": true,
          "internalType": "address",
          "name": "_depositContractAddress",
          "type": "address"
        },
        {
          "indexed": false,
          "internalType": "uint256",
          "name": "_timestamp",
          "type": "uint256"
        }
      ],
      "name": "CourtesyCalled",
      "type": "event"
    },
    {
      "anonymous": false,
      "inputs": [
        {
          "indexed": true,
          "internalType": "address",
          "name": "_depositContractAddress",
          "type": "address"
        },
        {
          "indexed": true,
          "internalType": "address",
          "name": "_keepAddress",
          "type": "address"
        },
        {
          "indexed": false,
          "internalType": "uint256",
          "name": "_timestamp",
          "type": "uint256"
        }
      ],
      "name": "Created",
      "type": "event"
    },
    {
      "anonymous": false,
      "inputs": [
        {
          "indexed": false,
          "internalType": "address",
          "name": "_priceFeed",
          "type": "address"
        }
      ],
      "name": "EthBtcPriceFeedAdded",
      "type": "event"
    },
    {
      "anonymous": false,
      "inputs": [
        {
          "indexed": false,
          "internalType": "address",
          "name": "_priceFeed",
          "type": "address"
        },
        {
          "indexed": false,
          "internalType": "uint256",
          "name": "_timestamp",
          "type": "uint256"
        }
      ],
      "name": "EthBtcPriceFeedAdditionStarted",
      "type": "event"
    },
    {
      "anonymous": false,
      "inputs": [
        {
          "indexed": true,
          "internalType": "address",
          "name": "_depositContractAddress",
          "type": "address"
        },
        {
          "indexed": false,
          "internalType": "uint256",
          "name": "_timestamp",
          "type": "uint256"
        }
      ],
      "name": "ExitedCourtesyCall",
      "type": "event"
    },
    {
      "anonymous": false,
      "inputs": [
        {
          "indexed": true,
          "internalType": "address",
          "name": "_depositContractAddress",
          "type": "address"
        },
        {
          "indexed": false,
          "internalType": "uint256",
          "name": "_timestamp",
          "type": "uint256"
        }
      ],
      "name": "FraudDuringSetup",
      "type": "event"
    },
    {
      "anonymous": false,
      "inputs": [
        {
          "indexed": true,
          "internalType": "address",
          "name": "_depositContractAddress",
          "type": "address"
        },
        {
          "indexed": true,
          "internalType": "bytes32",
          "name": "_txid",
          "type": "bytes32"
        },
        {
          "indexed": false,
          "internalType": "uint256",
          "name": "_timestamp",
          "type": "uint256"
        }
      ],
      "name": "Funded",
      "type": "event"
    },
    {
      "anonymous": false,
      "inputs": [
        {
          "indexed": true,
          "internalType": "address",
          "name": "_depositContractAddress",
          "type": "address"
        },
        {
          "indexed": false,
          "internalType": "bytes",
          "name": "_abortOutputScript",
          "type": "bytes"
        }
      ],
      "name": "FunderAbortRequested",
      "type": "event"
    },
    {
      "anonymous": false,
      "inputs": [
        {
          "indexed": true,
          "internalType": "address",
          "name": "_depositContractAddress",
          "type": "address"
        },
        {
          "indexed": true,
          "internalType": "bytes32",
          "name": "_digest",
          "type": "bytes32"
        },
        {
          "indexed": false,
          "internalType": "bytes32",
          "name": "_r",
          "type": "bytes32"
        },
        {
          "indexed": false,
          "internalType": "bytes32",
          "name": "_s",
          "type": "bytes32"
        },
        {
          "indexed": false,
          "internalType": "uint256",
          "name": "_timestamp",
          "type": "uint256"
        }
      ],
      "name": "GotRedemptionSignature",
      "type": "event"
    },
    {
      "anonymous": false,
      "inputs": [
        {
          "indexed": false,
          "internalType": "address",
          "name": "_factorySelector",
          "type": "address"
        },
        {
          "indexed": false,
          "internalType": "address",
          "name": "_ethBackedFactory",
          "type": "address"
        },
        {
          "indexed": false,
          "internalType": "uint256",
          "name": "_timestamp",
          "type": "uint256"
        }
      ],
      "name": "KeepFactorySingleShotUpdateStarted",
      "type": "event"
    },
    {
      "anonymous": false,
      "inputs": [
        {
          "indexed": false,
          "internalType": "address",
          "name": "_factorySelector",
          "type": "address"
        },
        {
          "indexed": false,
          "internalType": "address",
          "name": "_ethBackedFactory",
          "type": "address"
        }
      ],
      "name": "KeepFactorySingleShotUpdated",
      "type": "event"
    },
    {
      "anonymous": false,
      "inputs": [
        {
          "indexed": true,
          "internalType": "address",
          "name": "_depositContractAddress",
          "type": "address"
        },
        {
          "indexed": false,
          "internalType": "uint256",
          "name": "_timestamp",
          "type": "uint256"
        }
      ],
      "name": "Liquidated",
      "type": "event"
    },
    {
      "anonymous": false,
      "inputs": [
        {
          "indexed": false,
          "internalType": "uint64[]",
          "name": "_lotSizes",
          "type": "uint64[]"
        },
        {
          "indexed": false,
          "internalType": "uint256",
          "name": "_timestamp",
          "type": "uint256"
        }
      ],
      "name": "LotSizesUpdateStarted",
      "type": "event"
    },
    {
      "anonymous": false,
      "inputs": [
        {
          "indexed": false,
          "internalType": "uint64[]",
          "name": "_lotSizes",
          "type": "uint64[]"
        }
      ],
      "name": "LotSizesUpdated",
      "type": "event"
    },
    {
      "anonymous": false,
      "inputs": [
        {
          "indexed": true,
          "internalType": "address",
          "name": "previousOwner",
          "type": "address"
        },
        {
          "indexed": true,
          "internalType": "address",
          "name": "newOwner",
          "type": "address"
        }
      ],
      "name": "OwnershipTransferred",
      "type": "event"
    },
    {
      "anonymous": false,
      "inputs": [
        {
          "indexed": true,
          "internalType": "address",
          "name": "_depositContractAddress",
          "type": "address"
        },
        {
          "indexed": true,
          "internalType": "bytes32",
          "name": "_txid",
          "type": "bytes32"
        },
        {
          "indexed": false,
          "internalType": "uint256",
          "name": "_timestamp",
          "type": "uint256"
        }
      ],
      "name": "Redeemed",
      "type": "event"
    },
    {
      "anonymous": false,
      "inputs": [
        {
          "indexed": true,
          "internalType": "address",
          "name": "_depositContractAddress",
          "type": "address"
        },
        {
          "indexed": true,
          "internalType": "address",
          "name": "_requester",
          "type": "address"
        },
        {
          "indexed": true,
          "internalType": "bytes32",
          "name": "_digest",
          "type": "bytes32"
        },
        {
          "indexed": false,
          "internalType": "uint256",
          "name": "_utxoValue",
          "type": "uint256"
        },
        {
          "indexed": false,
          "internalType": "bytes",
          "name": "_redeemerOutputScript",
          "type": "bytes"
        },
        {
          "indexed": false,
          "internalType": "uint256",
          "name": "_requestedFee",
          "type": "uint256"
        },
        {
          "indexed": false,
          "internalType": "bytes",
          "name": "_outpoint",
          "type": "bytes"
        }
      ],
      "name": "RedemptionRequested",
      "type": "event"
    },
    {
      "anonymous": false,
      "inputs": [
        {
          "indexed": true,
          "internalType": "address",
          "name": "_depositContractAddress",
          "type": "address"
        },
        {
          "indexed": false,
          "internalType": "bytes32",
          "name": "_signingGroupPubkeyX",
          "type": "bytes32"
        },
        {
          "indexed": false,
          "internalType": "bytes32",
          "name": "_signingGroupPubkeyY",
          "type": "bytes32"
        },
        {
          "indexed": false,
          "internalType": "uint256",
          "name": "_timestamp",
          "type": "uint256"
        }
      ],
      "name": "RegisteredPubkey",
      "type": "event"
    },
    {
      "anonymous": false,
      "inputs": [
        {
          "indexed": true,
          "internalType": "address",
          "name": "_depositContractAddress",
          "type": "address"
        },
        {
          "indexed": false,
          "internalType": "uint256",
          "name": "_timestamp",
          "type": "uint256"
        }
      ],
      "name": "SetupFailed",
      "type": "event"
    },
    {
      "anonymous": false,
      "inputs": [
        {
          "indexed": false,
          "internalType": "uint16",
          "name": "_signerFeeDivisor",
          "type": "uint16"
        },
        {
          "indexed": false,
          "internalType": "uint256",
          "name": "_timestamp",
          "type": "uint256"
        }
      ],
      "name": "SignerFeeDivisorUpdateStarted",
      "type": "event"
    },
    {
      "anonymous": false,
      "inputs": [
        {
          "indexed": false,
          "internalType": "uint16",
          "name": "_signerFeeDivisor",
          "type": "uint16"
        }
      ],
      "name": "SignerFeeDivisorUpdated",
      "type": "event"
    },
    {
      "anonymous": false,
      "inputs": [
        {
          "indexed": true,
          "internalType": "address",
          "name": "_depositContractAddress",
          "type": "address"
        },
        {
          "indexed": false,
          "internalType": "bool",
          "name": "_wasFraud",
          "type": "bool"
        },
        {
          "indexed": false,
          "internalType": "uint256",
          "name": "_timestamp",
          "type": "uint256"
        }
      ],
      "name": "StartedLiquidation",
      "type": "event"
    },
    {
      "constant": true,
      "inputs": [
        {
          "internalType": "address",
          "name": "_caller",
          "type": "address"
        }
      ],
      "name": "approvedToLog",
      "outputs": [
        {
          "internalType": "bool",
          "name": "",
          "type": "bool"
        }
      ],
      "payable": false,
      "stateMutability": "view",
      "type": "function"
    },
    {
      "constant": true,
      "inputs": [],
      "name": "isOwner",
      "outputs": [
        {
          "internalType": "bool",
          "name": "",
          "type": "bool"
        }
      ],
      "payable": false,
      "stateMutability": "view",
      "type": "function"
    },
    {
      "constant": true,
      "inputs": [],
      "name": "keepSize",
      "outputs": [
        {
          "internalType": "uint16",
          "name": "",
          "type": "uint16"
        }
      ],
      "payable": false,
      "stateMutability": "view",
      "type": "function"
    },
    {
      "constant": true,
      "inputs": [],
      "name": "keepThreshold",
      "outputs": [
        {
          "internalType": "uint16",
          "name": "",
          "type": "uint16"
        }
      ],
      "payable": false,
      "stateMutability": "view",
      "type": "function"
    },
    {
      "constant": false,
      "inputs": [],
      "name": "logCourtesyCalled",
      "outputs": [],
      "payable": false,
      "stateMutability": "nonpayable",
      "type": "function"
    },
    {
      "constant": false,
      "inputs": [
        {
          "internalType": "address",
          "name": "_keepAddress",
          "type": "address"
        }
      ],
      "name": "logCreated",
      "outputs": [],
      "payable": false,
      "stateMutability": "nonpayable",
      "type": "function"
    },
    {
      "constant": false,
      "inputs": [],
      "name": "logExitedCourtesyCall",
      "outputs": [],
      "payable": false,
      "stateMutability": "nonpayable",
      "type": "function"
    },
    {
      "constant": false,
      "inputs": [],
      "name": "logFraudDuringSetup",
      "outputs": [],
      "payable": false,
      "stateMutability": "nonpayable",
      "type": "function"
    },
    {
      "constant": false,
      "inputs": [
        {
          "internalType": "bytes32",
          "name": "_txid",
          "type": "bytes32"
        }
      ],
      "name": "logFunded",
      "outputs": [],
      "payable": false,
      "stateMutability": "nonpayable",
      "type": "function"
    },
    {
      "constant": false,
      "inputs": [
        {
          "internalType": "bytes",
          "name": "_abortOutputScript",
          "type": "bytes"
        }
      ],
      "name": "logFunderRequestedAbort",
      "outputs": [],
      "payable": false,
      "stateMutability": "nonpayable",
      "type": "function"
    },
    {
      "constant": false,
      "inputs": [
        {
          "internalType": "bytes32",
          "name": "_digest",
          "type": "bytes32"
        },
        {
          "internalType": "bytes32",
          "name": "_r",
          "type": "bytes32"
        },
        {
          "internalType": "bytes32",
          "name": "_s",
          "type": "bytes32"
        }
      ],
      "name": "logGotRedemptionSignature",
      "outputs": [],
      "payable": false,
      "stateMutability": "nonpayable",
      "type": "function"
    },
    {
      "constant": false,
      "inputs": [],
      "name": "logLiquidated",
      "outputs": [],
      "payable": false,
      "stateMutability": "nonpayable",
      "type": "function"
    },
    {
      "constant": false,
      "inputs": [
        {
          "internalType": "bytes32",
          "name": "_txid",
          "type": "bytes32"
        }
      ],
      "name": "logRedeemed",
      "outputs": [],
      "payable": false,
      "stateMutability": "nonpayable",
      "type": "function"
    },
    {
      "constant": false,
      "inputs": [
        {
          "internalType": "address",
          "name": "_requester",
          "type": "address"
        },
        {
          "internalType": "bytes32",
          "name": "_digest",
          "type": "bytes32"
        },
        {
          "internalType": "uint256",
          "name": "_utxoValue",
          "type": "uint256"
        },
        {
          "internalType": "bytes",
          "name": "_redeemerOutputScript",
          "type": "bytes"
        },
        {
          "internalType": "uint256",
          "name": "_requestedFee",
          "type": "uint256"
        },
        {
          "internalType": "bytes",
          "name": "_outpoint",
          "type": "bytes"
        }
      ],
      "name": "logRedemptionRequested",
      "outputs": [],
      "payable": false,
      "stateMutability": "nonpayable",
      "type": "function"
    },
    {
      "constant": false,
      "inputs": [
        {
          "internalType": "bytes32",
          "name": "_signingGroupPubkeyX",
          "type": "bytes32"
        },
        {
          "internalType": "bytes32",
          "name": "_signingGroupPubkeyY",
          "type": "bytes32"
        }
      ],
      "name": "logRegisteredPubkey",
      "outputs": [],
      "payable": false,
      "stateMutability": "nonpayable",
      "type": "function"
    },
    {
      "constant": false,
      "inputs": [],
      "name": "logSetupFailed",
      "outputs": [],
      "payable": false,
      "stateMutability": "nonpayable",
      "type": "function"
    },
    {
      "constant": false,
      "inputs": [
        {
          "internalType": "bool",
          "name": "_wasFraud",
          "type": "bool"
        }
      ],
      "name": "logStartedLiquidation",
      "outputs": [],
      "payable": false,
      "stateMutability": "nonpayable",
      "type": "function"
    },
    {
      "constant": true,
      "inputs": [],
      "name": "owner",
      "outputs": [
        {
          "internalType": "address",
          "name": "",
          "type": "address"
        }
      ],
      "payable": false,
      "stateMutability": "view",
      "type": "function"
    },
    {
      "constant": true,
      "inputs": [],
      "name": "priceFeed",
      "outputs": [
        {
          "internalType": "contract ISatWeiPriceFeed",
          "name": "",
          "type": "address"
        }
      ],
      "payable": false,
      "stateMutability": "view",
      "type": "function"
    },
    {
      "constant": true,
      "inputs": [],
      "name": "relay",
      "outputs": [
        {
          "internalType": "contract IRelay",
          "name": "",
          "type": "address"
        }
      ],
      "payable": false,
      "stateMutability": "view",
      "type": "function"
    },
    {
      "constant": false,
      "inputs": [],
      "name": "renounceOwnership",
      "outputs": [],
      "payable": false,
      "stateMutability": "nonpayable",
      "type": "function"
    },
    {
      "constant": false,
      "inputs": [
        {
          "internalType": "address",
          "name": "newOwner",
          "type": "address"
        }
      ],
      "name": "transferOwnership",
      "outputs": [],
      "payable": false,
      "stateMutability": "nonpayable",
      "type": "function"
    },
    {
      "constant": false,
      "inputs": [
        {
          "internalType": "contract IBondedECDSAKeepFactory",
          "name": "_defaultKeepFactory",
          "type": "address"
        },
        {
          "internalType": "contract DepositFactory",
          "name": "_depositFactory",
          "type": "address"
        },
        {
          "internalType": "address payable",
          "name": "_masterDepositAddress",
          "type": "address"
        },
        {
          "internalType": "contract TBTCToken",
          "name": "_tbtcToken",
          "type": "address"
        },
        {
          "internalType": "contract TBTCDepositToken",
          "name": "_tbtcDepositToken",
          "type": "address"
        },
        {
          "internalType": "contract FeeRebateToken",
          "name": "_feeRebateToken",
          "type": "address"
        },
        {
          "internalType": "contract VendingMachine",
          "name": "_vendingMachine",
          "type": "address"
        },
        {
          "internalType": "uint16",
          "name": "_keepThreshold",
          "type": "uint16"
        },
        {
          "internalType": "uint16",
          "name": "_keepSize",
          "type": "uint16"
        }
      ],
      "name": "initialize",
      "outputs": [],
      "payable": false,
      "stateMutability": "nonpayable",
      "type": "function"
    },
    {
      "constant": true,
      "inputs": [],
      "name": "getAllowNewDeposits",
      "outputs": [
        {
          "internalType": "bool",
          "name": "",
          "type": "bool"
        }
      ],
      "payable": false,
      "stateMutability": "view",
      "type": "function"
    },
    {
      "constant": true,
      "inputs": [],
      "name": "getMinimumLotSize",
      "outputs": [
        {
          "internalType": "uint256",
          "name": "",
          "type": "uint256"
        }
      ],
      "payable": false,
      "stateMutability": "view",
      "type": "function"
    },
    {
      "constant": true,
      "inputs": [],
      "name": "getMaximumLotSize",
      "outputs": [
        {
          "internalType": "uint256",
          "name": "",
          "type": "uint256"
        }
      ],
      "payable": false,
      "stateMutability": "view",
      "type": "function"
    },
    {
      "constant": false,
      "inputs": [],
      "name": "emergencyPauseNewDeposits",
      "outputs": [],
      "payable": false,
      "stateMutability": "nonpayable",
      "type": "function"
    },
    {
      "constant": false,
      "inputs": [],
      "name": "resumeNewDeposits",
      "outputs": [],
      "payable": false,
      "stateMutability": "nonpayable",
      "type": "function"
    },
    {
      "constant": true,
      "inputs": [],
      "name": "getRemainingPauseTerm",
      "outputs": [
        {
          "internalType": "uint256",
          "name": "",
          "type": "uint256"
        }
      ],
      "payable": false,
      "stateMutability": "view",
      "type": "function"
    },
    {
      "constant": false,
      "inputs": [
        {
          "internalType": "uint16",
          "name": "_signerFeeDivisor",
          "type": "uint16"
        }
      ],
      "name": "beginSignerFeeDivisorUpdate",
      "outputs": [],
      "payable": false,
      "stateMutability": "nonpayable",
      "type": "function"
    },
    {
      "constant": false,
      "inputs": [
        {
          "internalType": "uint64[]",
          "name": "_lotSizes",
          "type": "uint64[]"
        }
      ],
      "name": "beginLotSizesUpdate",
      "outputs": [],
      "payable": false,
      "stateMutability": "nonpayable",
      "type": "function"
    },
    {
      "constant": false,
      "inputs": [
        {
          "internalType": "uint16",
          "name": "_initialCollateralizedPercent",
          "type": "uint16"
        },
        {
          "internalType": "uint16",
          "name": "_undercollateralizedThresholdPercent",
          "type": "uint16"
        },
        {
          "internalType": "uint16",
          "name": "_severelyUndercollateralizedThresholdPercent",
          "type": "uint16"
        }
      ],
      "name": "beginCollateralizationThresholdsUpdate",
      "outputs": [],
      "payable": false,
      "stateMutability": "nonpayable",
      "type": "function"
    },
    {
      "constant": false,
      "inputs": [
        {
          "internalType": "address",
          "name": "_factorySelector",
          "type": "address"
        },
        {
          "internalType": "address",
          "name": "_ethBackedFactory",
          "type": "address"
        }
      ],
      "name": "beginKeepFactorySingleShotUpdate",
      "outputs": [],
      "payable": false,
      "stateMutability": "nonpayable",
      "type": "function"
    },
    {
      "constant": false,
      "inputs": [
        {
          "internalType": "contract IMedianizer",
          "name": "_ethBtcPriceFeed",
          "type": "address"
        }
      ],
      "name": "beginEthBtcPriceFeedAddition",
      "outputs": [],
      "payable": false,
      "stateMutability": "nonpayable",
      "type": "function"
    },
    {
      "constant": false,
      "inputs": [],
      "name": "finalizeSignerFeeDivisorUpdate",
      "outputs": [],
      "payable": false,
      "stateMutability": "nonpayable",
      "type": "function"
    },
    {
      "constant": false,
      "inputs": [],
      "name": "finalizeLotSizesUpdate",
      "outputs": [],
      "payable": false,
      "stateMutability": "nonpayable",
      "type": "function"
    },
    {
      "constant": false,
      "inputs": [],
      "name": "finalizeCollateralizationThresholdsUpdate",
      "outputs": [],
      "payable": false,
      "stateMutability": "nonpayable",
      "type": "function"
    },
    {
      "constant": false,
      "inputs": [],
      "name": "finalizeKeepFactorySingleShotUpdate",
      "outputs": [],
      "payable": false,
      "stateMutability": "nonpayable",
      "type": "function"
    },
    {
      "constant": false,
      "inputs": [],
      "name": "finalizeEthBtcPriceFeedAddition",
      "outputs": [],
      "payable": false,
      "stateMutability": "nonpayable",
      "type": "function"
    },
    {
      "constant": true,
      "inputs": [],
      "name": "getSignerFeeDivisor",
      "outputs": [
        {
          "internalType": "uint16",
          "name": "",
          "type": "uint16"
        }
      ],
      "payable": false,
      "stateMutability": "view",
      "type": "function"
    },
    {
      "constant": true,
      "inputs": [],
      "name": "getAllowedLotSizes",
      "outputs": [
        {
          "internalType": "uint64[]",
          "name": "",
          "type": "uint64[]"
        }
      ],
      "payable": false,
      "stateMutability": "view",
      "type": "function"
    },
    {
      "constant": true,
      "inputs": [],
      "name": "getUndercollateralizedThresholdPercent",
      "outputs": [
        {
          "internalType": "uint16",
          "name": "",
          "type": "uint16"
        }
      ],
      "payable": false,
      "stateMutability": "view",
      "type": "function"
    },
    {
      "constant": true,
      "inputs": [],
      "name": "getSeverelyUndercollateralizedThresholdPercent",
      "outputs": [
        {
          "internalType": "uint16",
          "name": "",
          "type": "uint16"
        }
      ],
      "payable": false,
      "stateMutability": "view",
      "type": "function"
    },
    {
      "constant": true,
      "inputs": [],
      "name": "getInitialCollateralizedPercent",
      "outputs": [
        {
          "internalType": "uint16",
          "name": "",
          "type": "uint16"
        }
      ],
      "payable": false,
      "stateMutability": "view",
      "type": "function"
    },
    {
      "constant": true,
      "inputs": [],
      "name": "fetchBitcoinPrice",
      "outputs": [
        {
          "internalType": "uint256",
          "name": "",
          "type": "uint256"
        }
      ],
      "payable": false,
      "stateMutability": "view",
      "type": "function"
    },
    {
      "constant": true,
      "inputs": [],
      "name": "fetchRelayCurrentDifficulty",
      "outputs": [
        {
          "internalType": "uint256",
          "name": "",
          "type": "uint256"
        }
      ],
      "payable": false,
      "stateMutability": "view",
      "type": "function"
    },
    {
      "constant": true,
      "inputs": [],
      "name": "fetchRelayPreviousDifficulty",
      "outputs": [
        {
          "internalType": "uint256",
          "name": "",
          "type": "uint256"
        }
      ],
      "payable": false,
      "stateMutability": "view",
      "type": "function"
    },
    {
      "constant": true,
      "inputs": [],
      "name": "getRemainingSignerFeeDivisorUpdateTime",
      "outputs": [
        {
          "internalType": "uint256",
          "name": "",
          "type": "uint256"
        }
      ],
      "payable": false,
      "stateMutability": "view",
      "type": "function"
    },
    {
      "constant": true,
      "inputs": [],
      "name": "getRemainingLotSizesUpdateTime",
      "outputs": [
        {
          "internalType": "uint256",
          "name": "",
          "type": "uint256"
        }
      ],
      "payable": false,
      "stateMutability": "view",
      "type": "function"
    },
    {
      "constant": true,
      "inputs": [],
      "name": "getRemainingCollateralizationThresholdsUpdateTime",
      "outputs": [
        {
          "internalType": "uint256",
          "name": "",
          "type": "uint256"
        }
      ],
      "payable": false,
      "stateMutability": "view",
      "type": "function"
    },
    {
      "constant": true,
      "inputs": [],
      "name": "getRemainingKeepFactorySingleShotUpdateTime",
      "outputs": [
        {
          "internalType": "uint256",
          "name": "",
          "type": "uint256"
        }
      ],
      "payable": false,
      "stateMutability": "view",
      "type": "function"
    },
    {
      "constant": true,
      "inputs": [],
      "name": "getRemainingEthBtcPriceFeedAdditionTime",
      "outputs": [
        {
          "internalType": "uint256",
          "name": "",
          "type": "uint256"
        }
      ],
      "payable": false,
      "stateMutability": "view",
      "type": "function"
    },
    {
      "constant": false,
      "inputs": [],
      "name": "refreshMinimumBondableValue",
      "outputs": [],
      "payable": false,
      "stateMutability": "nonpayable",
      "type": "function"
    },
    {
      "constant": true,
      "inputs": [],
      "name": "getGovernanceTimeDelay",
      "outputs": [
        {
          "internalType": "uint256",
          "name": "",
          "type": "uint256"
        }
      ],
      "payable": false,
      "stateMutability": "pure",
      "type": "function"
    },
    {
      "constant": true,
      "inputs": [],
      "name": "getPriceFeedGovernanceTimeDelay",
      "outputs": [
        {
          "internalType": "uint256",
          "name": "",
          "type": "uint256"
        }
      ],
      "payable": false,
      "stateMutability": "view",
      "type": "function"
    },
    {
      "constant": true,
      "inputs": [],
      "name": "getNewDepositFeeEstimate",
      "outputs": [
        {
          "internalType": "uint256",
          "name": "",
          "type": "uint256"
        }
      ],
      "payable": false,
      "stateMutability": "view",
      "type": "function"
    },
    {
      "constant": false,
      "inputs": [
        {
          "internalType": "uint64",
          "name": "_lotSizeSatoshis",
          "type": "uint64"
        },
        {
          "internalType": "uint256",
          "name": "_maxSecuredLifetime",
          "type": "uint256"
        }
      ],
      "name": "requestNewKeep",
      "outputs": [
        {
          "internalType": "address",
          "name": "",
          "type": "address"
        }
      ],
      "payable": true,
      "stateMutability": "payable",
      "type": "function"
    },
    {
      "constant": true,
      "inputs": [
        {
          "internalType": "uint64",
          "name": "_lotSizeSatoshis",
          "type": "uint64"
        }
      ],
      "name": "isAllowedLotSize",
      "outputs": [
        {
          "internalType": "bool",
          "name": "",
          "type": "bool"
        }
      ],
      "payable": false,
      "stateMutability": "view",
      "type": "function"
    }
  ],
  "bytecode": "0x6000600255600b805462ffffff60201b19166607d000000000001761ffff60381b19166796000000000000001761ffff60481b1916697d0000000000000000001761ffff60581b19166b6e0000000000000000000000179055610140604052620186a06080908152620f424060a0526298968060c0526301312d0060e0526302faf080610100526305f5e100610120526200009f90600c9060066200015e565b506276a700601555348015620000b457600080fd5b50604051620042ec380380620042ec83398181016040526040811015620000da57600080fd5b508051602090910151600080546001600160a01b03191633178082556040516001600160a01b039190911691907f8be0079c531659141344cd1fd0a4f28419497f9722a3daafe3b4186f6b6457e0908290a3600480546001600160a01b039384166001600160a01b0319918216179091556005805492909316911617905562000244565b82805482825590600052602060002090600301600490048101928215620002085791602002820160005b83821115620001d157835183826101000a8154816001600160401b03021916908363ffffffff160217905550926020019260080160208160070104928301926001030262000188565b8015620002065782816101000a8154906001600160401b030219169055600801602081600701049283019260010302620001d1565b505b50620002169291506200021a565b5090565b6200024191905b80821115620002165780546001600160401b031916815560010162000221565b90565b61409880620002546000396000f3fe6080604052600436106103815760003560e01c806380f04b8c116101d1578063b792a38e11610102578063dde3fdd2116100a0578063e9cfd4a31161006f578063e9cfd4a314610c9d578063f2e7234714610cb2578063f2fde38b14610cc7578063f760621e14610cfa57610381565b8063dde3fdd214610c1e578063de1e57d014610c5e578063e2c50ad814610c73578063e5426d2e14610c8857610381565b8063cb277dfe116100dc578063cb277dfe14610b08578063cd3a949014610b43578063ce2c07ce14610b58578063dab70cb114610c0957610381565b8063b792a38e14610ac9578063c074d55014610ade578063c8fba24314610af357610381565b8063a28b79f11161016f578063a831c81611610149578063a831c81614610a75578063adc3ef7014610a8a578063ae7f4a5f14610a9f578063b59589d114610ab457610381565b8063a28b79f114610a18578063a2cd75da14610a4b578063a6c1691c14610a6057610381565b80638da5cb5b116101ab5780638da5cb5b146109a65780638f32d59b146109bb578063987ecea7146109d05780639ffb3862146109e557610381565b806380f04b8c1461093557806382f919681461094a578063869f94691461097657610381565b80632d00f1ee116102b657806364bdb66711610254578063741bef1a11610223578063741bef1a146108b05780637c33fc05146108e15780637c75b115146108f65780637ed451a41461090b57610381565b806364bdb667146108475780636e1ba2831461085c5780636f4fef6214610886578063715018a61461089b57610381565b80633ee850bc116102905780633ee850bc146107c3578063402b783d146107d857806349b64730146107ed57806360e98d591461081b57610381565b80632d00f1ee1461076d57806334d534a9146107825780633aac34671461079757610381565b8063191d20321161032357806322e5724c116102fd57806322e5724c146106955780632753d84b146106aa578063282bfd38146106bf5780632b155e37146106f257610381565b8063191d2032146105f45780631c52d90c1461060957806322a147e61461068057610381565b80630af488f91161035f5780630af488f9146104475780630ce0e7001461045c5780630d7eb1c41461047157806318e647dd1461049a57610381565b8063013b0f301461038657806307a3d659146103ad578063086c9edd146103e2575b600080fd5b34801561039257600080fd5b5061039b610d30565b60408051918252519081900360200190f35b3480156103b957600080fd5b506103e0600480360360208110156103d057600080fd5b50356001600160a01b0316610dd1565b005b3480156103ee57600080fd5b506103f7610f38565b60408051602080825283518183015283519192839290830191858101910280838360005b8381101561043357818101518382015260200161041b565b505050509050019250505060405180910390f35b34801561045357600080fd5b5061039b610fc2565b34801561046857600080fd5b506103e0610fd2565b34801561047d57600080fd5b5061048661112a565b604080519115158252519081900360200190f35b3480156104a657600080fd5b506103e0600480360360c08110156104bd57600080fd5b6001600160a01b038235169160208101359160408201359190810190608081016060820135600160201b8111156104f357600080fd5b82018360208201111561050557600080fd5b803590602001918460018302840111600160201b8311171561052657600080fd5b91908080601f01602080910402602001604051908101604052809392919081815260200183838082843760009201919091525092958435959094909350604081019250602001359050600160201b81111561058057600080fd5b82018360208201111561059257600080fd5b803590602001918460018302840111600160201b831117156105b357600080fd5b91908080601f01602080910402602001604051908101604052809392919081815260200183838082843760009201919091525092955061113a945050505050565b34801561060057600080fd5b5061039b6112ab565b34801561061557600080fd5b506103e0600480360361012081101561062d57600080fd5b506001600160a01b038135811691602081013582169160408201358116916060810135821691608082013581169160a081013582169160c0820135169061ffff60e08201358116916101000135166112bc565b34801561068c57600080fd5b506103e0611516565b3480156106a157600080fd5b506103e0611592565b3480156106b657600080fd5b5061039b61160e565b3480156106cb57600080fd5b506103e0600480360360208110156106e257600080fd5b50356001600160a01b0316611650565b3480156106fe57600080fd5b506103e06004803603602081101561071557600080fd5b810190602081018135600160201b81111561072f57600080fd5b82018360208201111561074157600080fd5b803590602001918460208302840111600160201b8311171561076257600080fd5b5090925090506116d7565b34801561077957600080fd5b5061039b611a38565b34801561078e57600080fd5b5061039b611b2f565b3480156107a357600080fd5b506103e0600480360360208110156107ba57600080fd5b50351515611b3f565b3480156107cf57600080fd5b5061039b611bc1565b3480156107e457600080fd5b5061039b611bd2565b3480156107f957600080fd5b506103e06004803603602081101561081057600080fd5b503561ffff16611c48565b34801561082757600080fd5b50610830611d6e565b6040805161ffff9092168252519081900360200190f35b34801561085357600080fd5b50610830611d81565b34801561086857600080fd5b506103e06004803603602081101561087f57600080fd5b5035611d8b565b34801561089257600080fd5b50610830611e09565b3480156108a757600080fd5b506103e0611e1a565b3480156108bc57600080fd5b506108c5611eab565b604080516001600160a01b039092168252519081900360200190f35b3480156108ed57600080fd5b506103e0611eba565b34801561090257600080fd5b506103e061200d565b34801561091757600080fd5b506103e06004803603602081101561092e57600080fd5b50356120b3565b34801561094157600080fd5b506103e0612131565b6108c56004803603604081101561096057600080fd5b506001600160401b038135169060200135612246565b34801561098257600080fd5b506103e06004803603604081101561099957600080fd5b5080359060200135612496565b3480156109b257600080fd5b506108c5612520565b3480156109c757600080fd5b5061048661252f565b3480156109dc57600080fd5b50610830612540565b3480156109f157600080fd5b5061048660048036036020811015610a0857600080fd5b50356001600160a01b0316612551565b348015610a2457600080fd5b5061048660048036036020811015610a3b57600080fd5b50356001600160401b03166125d6565b348015610a5757600080fd5b50610830612643565b348015610a6c57600080fd5b5061039b612654565b348015610a8157600080fd5b506103e061270e565b348015610a9657600080fd5b506103e061278a565b348015610aab57600080fd5b5061039b612934565b348015610ac057600080fd5b506108c561293a565b348015610ad557600080fd5b5061039b612949565b348015610aea57600080fd5b5061039b61295a565b348015610aff57600080fd5b506103e061296b565b348015610b1457600080fd5b506103e060048036036040811015610b2b57600080fd5b506001600160a01b03813581169160200135166129e7565b348015610b4f57600080fd5b506103e0612b99565b348015610b6457600080fd5b506103e060048036036020811015610b7b57600080fd5b810190602081018135600160201b811115610b9557600080fd5b820183602082011115610ba757600080fd5b803590602001918460018302840111600160201b83111715610bc857600080fd5b91908080601f016020809104026020016040519081016040528093929190818152602001838380828437600092019190915250929550612d5d945050505050565b348015610c1557600080fd5b5061039b612e3d565b348015610c2a57600080fd5b506103e060048036036060811015610c4157600080fd5b5061ffff8135811691602081013582169160409091013516612e82565b348015610c6a57600080fd5b506103e061306f565b348015610c7f57600080fd5b506103e061321c565b348015610c9457600080fd5b50610830613298565b348015610ca957600080fd5b506103e06132a8565b348015610cbe57600080fd5b5061039b613443565b348015610cd357600080fd5b506103e060048036036020811015610cea57600080fd5b50356001600160a01b031661344a565b348015610d0657600080fd5b506103e060048036036060811015610d1d57600080fd5b508035906020810135906040013561349d565b600b54600090600160201b900460ff1615610d7c5760405162461bcd60e51b8152600401808060200182810382526022815260200180613f7f6022913960400191505060405180910390fd5b620d2f00610d956003544261352990919063ffffffff16565b1015610dc857610dc3610db36003544261352990919063ffffffff16565b620d2f009063ffffffff61352916565b610dcb565b60005b90505b90565b610dd961252f565b610e18576040805162461bcd60e51b81526020600482018190526024820152600080516020613eb1833981519152604482015290519081900360640190fd5b6000816001600160a01b03166359e02dd76040518163ffffffff1660e01b8152600401604080518083038186803b158015610e5257600080fd5b505afa158015610e66573d6000803e3d6000fd5b505050506040513d6040811015610e7c57600080fd5b5060200151905080610ed5576040805162461bcd60e51b815260206004820152601860248201527f43616e6e6f742061646420696e61637469766520666565640000000000000000604482015290519081900360640190fd5b601780546001600160a01b0319166001600160a01b03841690811790915542601681905560408051928352602083019190915280517f5a3d3d9197f5c60c16de28887dccf83284a4fd034b930272637c83307b4fffe79281900390910190a15050565b6060600c805480602002602001604051908101604052809291908181526020018280548015610fb857602002820191906000526020600020906000905b82829054906101000a90046001600160401b03166001600160401b031681526020019060080190602082600701049283019260010382029150808411610f755790505b5050505050905090565b6000610dcb601654601554613586565b610fda61252f565b611019576040805162461bcd60e51b81526020600482018190526024820152600080516020613eb1833981519152604482015290519081900360640190fd5b600d546202a3006000821161106c576040805162461bcd60e51b815260206004820152601460248201527310da185b99d9481b9bdd081a5b9a5d1a585d195960621b604482015290519081900360640190fd5b8061107d428463ffffffff61352916565b10156110be576040805162461bcd60e51b81526020600482018190526024820152600080516020613e91833981519152604482015290519081900360640190fd5b601154600b80546501000000000061ffff90931692830266ffff00000000001990911617905560408051918252517f236dec26d53c6a51390e98ed703106e132fd062b0e38b8a9cf8b4d13f47952c89181900360200190a150506011805461ffff191690556000600d55565b600b54600160201b900460ff1690565b61114333612551565b61117e5760405162461bcd60e51b8152600401808060200182810382526024815260200180613d3d6024913960400191505060405180910390fd5b84866001600160a01b0316336001600160a01b03167f7959c380174061a21a3ba80243a032ba9cd10dc8bd1736d7e835c94e97a35a9887878787604051808581526020018060200184815260200180602001838103835286818151815260200191508051906020019080838360005b838110156112055781810151838201526020016111ed565b50505050905090810190601f1680156112325780820380516001836020036101000a031916815260200191505b50838103825284518152845160209182019186019080838360005b8381101561126557818101518382015260200161124d565b50505050905090810190601f1680156112925780820380516001836020036101000a031916815260200191505b50965050505050505060405180910390a4505050505050565b6000610dcb6010546202a300613586565b6112c461252f565b611303576040805162461bcd60e51b81526020600482018190526024820152600080516020613eb1833981519152604482015290519081900360640190fd5b6002541561134e576040805162461bcd60e51b8152602060048201526013602482015272185b1c9958591e481a5b9a5d1a585b1a5e9959606a1b604482015290519081900360640190fd5b6040805163e8e08cf160e01b8152600660048201526001600160a01b038b166024820152905173__KeepFactorySelection__________________9163e8e08cf1916044808301926000929190829003018186803b1580156113af57600080fd5b505af41580156113c3573d6000803e3d6000fd5b5050600b805461ffff85811661ffff19918816620100000263ffff0000199093169290921716179055505060408051630d4815e560e21b81526001600160a01b0388811660048301528781166024830152868116604483015291519185169163352057949160648082019260009290919082900301818387803b15801561144957600080fd5b505af115801561145d573d6000803e3d6000fd5b50506040805163bbe2bbd560e01b81526001600160a01b038b811660048301523060248301528a811660448301528981166064830152888116608483015287811660a48301529151918c16935063bbe2bbd5925060c48082019260009290919082900301818387803b1580156114d257600080fd5b505af11580156114e6573d6000803e3d6000fd5b505050506114f385613610565b5050426002555050600b805464ff000000001916600160201b1790555050505050565b61151f33612551565b61155a5760405162461bcd60e51b8152600401808060200182810382526024815260200180613d3d6024913960400191505060405180910390fd5b60408051428152905133917f6e7b45210b79c12cd1332babd8d86c0bbb9ca898a89ce0404f17064dbfba18c0919081900360200190a2565b61159b33612551565b6115d65760405162461bcd60e51b8152600401808060200182810382526024815260200180613d3d6024913960400191505060405180910390fd5b60408051428152905133917f07f0eaafadb9abb1d28da85d4b4c74f1939fd61b535c7f5ab501f618f07e76ee919081900360200190a2565b600c805460009190600019810190811061162457fe5b6000918252602090912060048204015460039091166008026101000a90046001600160401b0316919050565b61165933612551565b6116945760405162461bcd60e51b8152600401808060200182810382526024815260200180613d3d6024913960400191505060405180910390fd5b6040805142815290516001600160a01b0383169133917f822b3073be62c5c7f143c2dcd71ee266434ee935d90a1eec3be34710ac8ec1a29181900360200190a350565b6116df61252f565b61171e576040805162461bcd60e51b81526020600482018190526024820152600080516020613eb1833981519152604482015290519081900360640190fd5b6000805b8281101561197a5783838281811061173657fe5b905060200201356001600160401b03166001600160401b03166305f5e10014156117635760019150611972565b61c35084848381811061177257fe5b905060200201356001600160401b03166001600160401b031610156117c85760405162461bcd60e51b815260040180806020018281038252602e815260200180613dd2602e913960400191505060405180910390fd5b6402540be4008484838181106117da57fe5b905060200201356001600160401b03166001600160401b031611156118305760405162461bcd60e51b815260040180806020018281038252602e815260200180613f51602e913960400191505060405180910390fd5b60008111801561188a575083836001830381811061184a57fe5b905060200201356001600160401b03166001600160401b031684848381811061186f57fe5b905060200201356001600160401b03166001600160401b0316145b156118c65760405162461bcd60e51b8152600401808060200182810382526027815260200180613dab6027913960400191505060405180910390fd5b60008111801561192057508383600183038181106118e057fe5b905060200201356001600160401b03166001600160401b031684848381811061190557fe5b905060200201356001600160401b03166001600160401b0316105b15611972576040805162461bcd60e51b815260206004820152601d60248201527f4c6f742073697a65206172726179206d75737420626520736f72746564000000604482015290519081900360640190fd5b600101611722565b50806119b75760405162461bcd60e51b8152600401808060200182810382526028815260200180613ed16028913960400191505060405180910390fd5b7fffb1e2bce3c7a63d0cac5492540bd370e1156621adde36cd481262c2846a2b7b83834260405180806020018381526020018281038252858582818152602001925060200280828437600083820152604051601f909101601f1916909201829003965090945050505050a1611a2e60128484613ac1565b505042600e555050565b600080600673__KeepFactorySelection__________________63d83d44b090916040518263ffffffff1660e01b81526004018082815260200191505060206040518083038186803b158015611a8d57600080fd5b505af4158015611aa1573d6000803e3d6000fd5b505050506040513d6020811015611ab757600080fd5b50516040805163bc2c289f60e01b815290519192506001600160a01b0383169163bc2c289f91600480820192602092909190829003018186803b158015611afd57600080fd5b505afa158015611b11573d6000803e3d6000fd5b505050506040513d6020811015611b2757600080fd5b505191505090565b6000600c60008154811061162457fe5b611b4833612551565b611b835760405162461bcd60e51b8152600401808060200182810382526024815260200180613d3d6024913960400191505060405180910390fd5b604080518215158152426020820152815133927fbef11c059eefba82a15aea8a3a89c86fd08d7711c88fa7daea2632a55488510c928290030190a250565b6000610dcb600e546202a300613586565b60055460408051630ae5ef8960e21b815290516000926001600160a01b031691632b97be24916004808301926020929190829003018186803b158015611c1757600080fd5b505afa158015611c2b573d6000803e3d6000fd5b505050506040513d6020811015611c4157600080fd5b5051905090565b611c5061252f565b611c8f576040805162461bcd60e51b81526020600482018190526024820152600080516020613eb1833981519152604482015290519081900360640190fd5b60098161ffff1611611cd25760405162461bcd60e51b815260040180806020018281038252604a815260200180613d61604a913960600191505060405180910390fd5b6113888161ffff1610611d165760405162461bcd60e51b815260040180806020018281038252604b815260200180613fcd604b913960600191505060405180910390fd5b6011805461ffff191661ffff831690811790915542600d81905560408051928352602083019190915280517f38cb7049f0daf658ca989e9ef6b850ef11e3740ff07a0c16706042c39adf48fc9281900390910190a150565b600b5465010000000000900461ffff1690565b600b5461ffff1681565b611d9433612551565b611dcf5760405162461bcd60e51b8152600401808060200182810382526024815260200180613d3d6024913960400191505060405180910390fd5b604080514281529051829133917f44b7f176bcc739b54bd0800fe491cbdea19df7d4d6b19c281462e6b4fc5043449181900360200190a350565b600b54600160581b900461ffff1690565b611e2261252f565b611e61576040805162461bcd60e51b81526020600482018190526024820152600080516020613eb1833981519152604482015290519081900360640190fd5b600080546040516001600160a01b03909116907f8be0079c531659141344cd1fd0a4f28419497f9722a3daafe3b4186f6b6457e0908390a3600080546001600160a01b0319169055565b6004546001600160a01b031681565b600b54600160201b900460ff1615611f035760405162461bcd60e51b8152600401808060200182810382526022815260200180613f7f6022913960400191505060405180910390fd5b600354611f57576040805162461bcd60e51b815260206004820152601b60248201527f4465706f73697420686173206e6f74206265656e207061757365640000000000604482015290519081900360640190fd5b620d2f00611f706003544261352990919063ffffffff16565b1015611fc3576040805162461bcd60e51b815260206004820152601960248201527f4465706f7369747320617265207374696c6c2070617573656400000000000000604482015290519081900360640190fd5b600b805464ff000000001916600160201b179055604080516001815290517f3a854be74be62dd3ba5f0fdb7aa5b535683f999e90cda09ba75a2d99b27225239181900360200190a1565b73__KeepFactorySelection__________________63e33cd9716006612039612034611b2f565b613690565b600b54604080516001600160e01b031960e087901b1681526004810194909452602484019290925261ffff808216604485015262010000909104166064830152516084808301926000929190829003018186803b15801561209957600080fd5b505af41580156120ad573d6000803e3d6000fd5b50505050565b6120bc33612551565b6120f75760405162461bcd60e51b8152600401808060200182810382526024815260200180613d3d6024913960400191505060405180910390fd5b604080514281529051829133917fe34c70bd3e03956978a5c76d2ea5f3a60819171afea6dee4fc12b2e45f72d43d9181900360200190a350565b61213961252f565b612178576040805162461bcd60e51b81526020600482018190526024820152600080516020613eb1833981519152604482015290519081900360640190fd5b600354156121b75760405162461bcd60e51b8152600401808060200182810382526031815260200180613c496031913960400191505060405180910390fd5b600254420362ed4e0081106121fd5760405162461bcd60e51b815260040180806020018281038252604e815260200180613c7a604e913960600191505060405180910390fd5b42600355600b805464ff0000000019169055604080516000815290517f3a854be74be62dd3ba5f0fdb7aa5b535683f999e90cda09ba75a2d99b27225239181900360200190a150565b60015460408051634f558e7960e01b815233600482015290516000926001600160a01b031691634f558e79916024808301926020929190829003018186803b15801561229157600080fd5b505afa1580156122a5573d6000803e3d6000fd5b505050506040513d60208110156122bb57600080fd5b50516122f85760405162461bcd60e51b8152600401808060200182810382526021815260200180613cee6021913960400191505060405180910390fd5b612301836125d6565b612352576040805162461bcd60e51b815260206004820152601f60248201527f70726f7669646564206c6f742073697a65206e6f7420737570706f7274656400604482015290519081900360640190fd5b6000600673__KeepFactorySelection__________________63d857268890916040518263ffffffff1660e01b81526004018082815260200191505060206040518083038186803b1580156123a657600080fd5b505af41580156123ba573d6000803e3d6000fd5b505050506040513d60208110156123d057600080fd5b5051905060006123e86001600160401b038616613690565b600b546040805163ca050cfd60e01b815261ffff80841660048301526201000090930490921660248301523360448301526064820183905260848201879052519192506001600160a01b0384169163ca050cfd91349160a480830192602092919082900301818588803b15801561245e57600080fd5b505af1158015612472573d6000803e3d6000fd5b50505050506040513d602081101561248957600080fd5b5051925050505b92915050565b61249f33612551565b6124da5760405162461bcd60e51b8152600401808060200182810382526024815260200180613d3d6024913960400191505060405180910390fd5b60408051838152602081018390524281830152905133917f8ee737ab16909c4e9d1b750814a4393c9f84ab5d3a29c08c313b783fc846ae33919081900360600190a25050565b6000546001600160a01b031690565b6000546001600160a01b0316331490565b600b54600160381b900461ffff1690565b60015460408051634f558e7960e01b81526001600160a01b03848116600483015291516000939290921691634f558e7991602480820192602092909190829003018186803b1580156125a257600080fd5b505afa1580156125b6573d6000803e3d6000fd5b505050506040513d60208110156125cc57600080fd5b505190505b919050565b6000805b600c5481101561263a57826001600160401b0316600c82815481106125fb57fe5b6000918252602090912060048204015460039091166008026101000a90046001600160401b031614156126325760019150506125d1565b6001016125da565b50600092915050565b600b54600160481b900461ffff1690565b60015460408051634f558e7960e01b815233600482015290516000926001600160a01b031691634f558e79916024808301926020929190829003018186803b15801561269f57600080fd5b505afa1580156126b3573d6000803e3d6000fd5b505050506040513d60208110156126c957600080fd5b50516127065760405162461bcd60e51b8152600401808060200182810382526021815260200180613cee6021913960400191505060405180910390fd5b610dcb6136e2565b61271733612551565b6127525760405162461bcd60e51b8152600401808060200182810382526024815260200180613d3d6024913960400191505060405180910390fd5b60408051428152905133917f8fd2cfb62a35fccc1ecef829f83a6c2f840b73dad49d3eaaa402909752086d4b919081900360200190a2565b61279261252f565b6127d1576040805162461bcd60e51b81526020600482018190526024820152600080516020613eb1833981519152604482015290519081900360640190fd5b60165460155460008211612823576040805162461bcd60e51b815260206004820152601460248201527310da185b99d9481b9bdd081a5b9a5d1a585d195960621b604482015290519081900360640190fd5b80612834428463ffffffff61352916565b1015612875576040805162461bcd60e51b81526020600482018190526024820152600080516020613e91833981519152604482015290519081900360640190fd5b601780546001600160a01b0319811690915560006016819055600480546040805163d14dd41360e01b81526001600160a01b03958616938101849052905192949091169263d14dd4139260248084019382900301818387803b1580156128da57600080fd5b505af11580156128ee573d6000803e3d6000fd5b5050604080516001600160a01b038516815290517f5e4bd1f6e413d39e172d96a88ee6b1b2ba9e1a6207e2ca34fa8c3ccd152ff21a9350908190036020019150a1505050565b60155490565b6005546001600160a01b031681565b6000610dcb600d546202a300613586565b6000610dcb600f546202a300613586565b61297433612551565b6129af5760405162461bcd60e51b8152600401808060200182810382526024815260200180613d3d6024913960400191505060405180910390fd5b60408051428152905133917fa5ee7a2b0254fce91deed604506790ed7fa072d0b14cba4859c3bc8955b9caac919081900360200190a2565b6129ef61252f565b612a2e576040805162461bcd60e51b81526020600482018190526024820152600080516020613eb1833981519152604482015290519081900360640190fd5b601054151580612a4757506014546001600160a01b0316155b612a825760405162461bcd60e51b815260040180806020018281038252602a815260200180613e46602a913960400191505060405180910390fd5b6001600160a01b038216612ac75760405162461bcd60e51b815260040180806020018281038252602a815260200180613f27602a913960400191505060405180910390fd5b6001600160a01b038116612b0c5760405162461bcd60e51b815260040180806020018281038252602c815260200180613fa1602c913960400191505060405180910390fd5b601380546601000000000000600160d01b031916600160301b6001600160a01b0385811691820292909217909255601480546001600160a01b031916918416918217905542601081905560408051938452602084019290925282820152517fdc461af7d95f963ea23749952c5e95648f5f7c79116442e5a1a7010259e88548916060908290030190a15050565b612ba161252f565b612be0576040805162461bcd60e51b81526020600482018190526024820152600080516020613eb1833981519152604482015290519081900360640190fd5b600e546202a30060008211612c33576040805162461bcd60e51b815260206004820152601460248201527310da185b99d9481b9bdd081a5b9a5d1a585d195960621b604482015290519081900360640190fd5b80612c44428463ffffffff61352916565b1015612c85576040805162461bcd60e51b81526020600482018190526024820152600080516020613e91833981519152604482015290519081900360640190fd5b60128054612c9591600c91613b82565b507fa801e49d33e856d89d06e647753d9d9dda3d0b0520c4346290ada455a00cafcc601260405180806020018281038252838181548152602001915080548015612d3057602002820191906000526020600020906000905b82829054906101000a90046001600160401b03166001600160401b031681526020019060080190602082600701049283019260010382029150808411612ced5790505b50509250505060405180910390a16000600e819055612d50601282613bd0565b50612d5961200d565b5050565b612d6633612551565b612da15760405162461bcd60e51b8152600401808060200182810382526024815260200180613d3d6024913960400191505060405180910390fd5b604080516020808252835181830152835133937fa6e9673b5d53b3fe3c62b6459720f9c2a1b129d4f69acb771404ba8681b6a9309386939092839283019185019080838360005b83811015612e00578181015183820152602001612de8565b50505050905090810190601f168015612e2d5780820380516001836020036101000a031916815260200191505b509250505060405180910390a250565b6005546040805163089bb25f60e11b815290516000926001600160a01b03169163113764be916004808301926020929190829003018186803b158015611c1757600080fd5b612e8a61252f565b612ec9576040805162461bcd60e51b81526020600482018190526024820152600080516020613eb1833981519152604482015290519081900360640190fd5b61012c8361ffff161115612f0e5760405162461bcd60e51b815260040180806020018281038252602e815260200180613ef9602e913960400191505060405180910390fd5b60648361ffff1611612f515760405162461bcd60e51b815260040180806020018281038252602e815260200180613d0f602e913960400191505060405180910390fd5b8161ffff168361ffff1611612f975760405162461bcd60e51b8152600401808060200182810382526046815260200180613e006046913960600191505060405180910390fd5b8061ffff168261ffff1611612fdd5760405162461bcd60e51b815260040180806020018281038252604c815260200180614018604c913960600191505060405180910390fd5b6013805461ffff191661ffff85811691821763ffff00001916620100008683169081029190911765ffff000000001916600160201b9286169283021790935542600f81905560408051938452602084019490945282840191909152606082015290517fc9e225c2db3e9f70966e6c0403de785bcda0172ec4e41111a6e8f4b85b1f30fb916080908290030190a1505050565b61307761252f565b6130b6576040805162461bcd60e51b81526020600482018190526024820152600080516020613eb1833981519152604482015290519081900360640190fd5b600f546202a30060008211613109576040805162461bcd60e51b815260206004820152601460248201527310da185b99d9481b9bdd081a5b9a5d1a585d195960621b604482015290519081900360640190fd5b8061311a428463ffffffff61352916565b101561315b576040805162461bcd60e51b81526020600482018190526024820152600080516020613e91833981519152604482015290519081900360640190fd5b601354600b805468ffff00000000000000191661ffff808416600160381b8102929092176affff00000000000000000019166201000085048216600160481b81029190911761ffff60581b1916600160201b90950491909116600160581b81029490941790925560408051918252602082019290925280820192909252517f07ac9ce7dc4b2edb6435fb2255e9e867f357ef2052b982ce468442aa9d6c1d50916060908290030190a150506013805465ffffffffffff191690556000600f55565b61322533612551565b6132605760405162461bcd60e51b8152600401808060200182810382526024815260200180613d3d6024913960400191505060405180910390fd5b60408051428152905133917f1e61af503f1d7de21d5300094c18bf8700f82b2951a4d54dd2adda13f6b3da30919081900360200190a2565b600b5462010000900461ffff1681565b6132b061252f565b6132ef576040805162461bcd60e51b81526020600482018190526024820152600080516020613eb1833981519152604482015290519081900360640190fd5b6010546202a30060008211613342576040805162461bcd60e51b815260206004820152601460248201527310da185b99d9481b9bdd081a5b9a5d1a585d195960621b604482015290519081900360640190fd5b80613353428463ffffffff61352916565b1015613394576040805162461bcd60e51b81526020600482018190526024820152600080516020613e91833981519152604482015290519081900360640190fd5b6013546133b390600690600160301b90046001600160a01b03166137ba565b6014546133d1906006906001600160a01b031663ffffffff61388c16565b60135460145460408051600160301b9093046001600160a01b039081168452909116602083015280517f39b37f415e2f67e47284ea76be07eb83aea456a7f5457474f09e078d69a7c0279281900390910190a150506000601055601380546601000000000000600160d01b0319169055565b6202a30090565b61345261252f565b613491576040805162461bcd60e51b81526020600482018190526024820152600080516020613eb1833981519152604482015290519081900360640190fd5b61349a8161395e565b50565b6134a633612551565b6134e15760405162461bcd60e51b8152600401808060200182810382526024815260200180613d3d6024913960400191505060405180910390fd5b604080518381526020810183905242818301529051849133917f7f7d7327762d01d2c4a552ea0be2bc5a76264574a80aa78083e691a840e509f29181900360600190a3505050565b600082821115613580576040805162461bcd60e51b815260206004820152601e60248201527f536166654d6174683a207375627472616374696f6e206f766572666c6f770000604482015290519081900360640190fd5b50900390565b60008083116135d3576040805162461bcd60e51b8152602060048201526014602482015273155c19185d19481b9bdd081a5b9a5d1a585d195960621b604482015290519081900360640190fd5b60006135e5428563ffffffff61352916565b90508281106135f8576000915050612490565b613608838263ffffffff61352916565b915050612490565b6001546001600160a01b03161561366e576040805162461bcd60e51b815260206004820152601f60248201527f746274634465706f736974546f6b656e20697320616c72656164792073657400604482015290519081900360640190fd5b600180546001600160a01b0319166001600160a01b0392909216919091179055565b600b5460009081906136c1906064906136b5908690600160381b900461ffff166139fe565b9063ffffffff613a5716565b90506136db816136cf6136e2565b9063ffffffff6139fe16565b9392505050565b6004805460408051634c6afee560e11b8152905160009384936001600160a01b0316926398d5fdca9281830192602092829003018186803b15801561372657600080fd5b505afa15801561373a573d6000803e3d6000fd5b505050506040513d602081101561375057600080fd5b505190508015806137685750670de0b6b3a764000081115b15610dcb576040805162461bcd60e51b815260206004820152601b60248201527f53797374656d2072657475726e65642061206261642070726963650000000000604482015290519081900360640190fd5b60028201546001600160a01b03161561381a576040805162461bcd60e51b815260206004820152601c60248201527f466163746f72792073656c6563746f7220616c72656164792073657400000000604482015290519081900360640190fd5b6001600160a01b038116613867576040805162461bcd60e51b815260206004820152600f60248201526e496e76616c6964206164647265737360881b604482015290519081900360640190fd5b60029190910180546001600160a01b0319166001600160a01b03909216919091179055565b60048201546001600160a01b0316156138ec576040805162461bcd60e51b815260206004820181905260248201527f46756c6c79206261636b656420666163746f727920616c726561647920736574604482015290519081900360640190fd5b6001600160a01b038116613939576040805162461bcd60e51b815260206004820152600f60248201526e496e76616c6964206164647265737360881b604482015290519081900360640190fd5b60049190910180546001600160a01b0319166001600160a01b03909216919091179055565b6001600160a01b0381166139a35760405162461bcd60e51b8152600401808060200182810382526026815260200180613cc86026913960400191505060405180910390fd5b600080546040516001600160a01b03808516939216917f8be0079c531659141344cd1fd0a4f28419497f9722a3daafe3b4186f6b6457e091a3600080546001600160a01b0319166001600160a01b0392909216919091179055565b600082613a0d57506000612490565b82820282848281613a1a57fe5b04146136db5760405162461bcd60e51b8152600401808060200182810382526021815260200180613e706021913960400191505060405180910390fd5b6000808211613aad576040805162461bcd60e51b815260206004820152601a60248201527f536166654d6174683a206469766973696f6e206279207a65726f000000000000604482015290519081900360640190fd5b6000828481613ab857fe5b04949350505050565b82805482825590600052602060002090600301600490048101928215613b725791602002820160005b83821115613b3d5783356001600160401b031683826101000a8154816001600160401b0302191690836001600160401b031602179055509260200192600801602081600701049283019260010302613aea565b8015613b705782816101000a8154906001600160401b030219169055600801602081600701049283019260010302613b3d565b505b50613b7e929150613c09565b5090565b82805482825590600052602060002090600301600490048101928215613b72576000526020600020916003016004900482015b82811115613b72578254825591600101919060010190613bb5565b815481835581811115613c04576003016004900481600301600490048360005260206000209182019101613c049190613c2e565b505050565b610dce91905b80821115613b7e57805467ffffffffffffffff19168155600101613c0f565b610dce91905b80821115613b7e5760008155600101613c3456fe656d657267656e637950617573654e65774465706f736974732063616e206f6e6c792062652063616c6c6564206f6e6365656d657267656e637950617573654e65774465706f736974732063616e206f6e6c792062652063616c6c65642077697468696e203138302064617973206f6620696e697469616c697a6174696f6e4f776e61626c653a206e6577206f776e657220697320746865207a65726f206164647265737343616c6c6572206d7573742062652061204465706f73697420636f6e7472616374496e697469616c20636f6c6c61746572616c697a65642070657263656e74206d757374206265203e3d203130302543616c6c6572206973206e6f7420617070726f76656420746f206c6f67206576656e74735369676e6572206665652064697669736f72206d7573742062652067726561746572207468616e20392c20666f722061207369676e6572206665652074686174206973203c3d203130254c6f742073697a65206172726179206d757374206e6f742068617665206475706c6963617465734c6f742073697a6573206c657373207468616e20302e303030352042544320617265206e6f7420616c6c6f776564556e646572636f6c6c61746572616c697a6564207468726573686f6c64206d757374206265203c20696e697469616c20636f6c6c61746572616c697a65642070657263656e744b65657020666163746f727920646174612063616e206f6e6c792062652075706461746564206f6e6365536166654d6174683a206d756c7469706c69636174696f6e206f766572666c6f77476f7665726e616e63652064656c617920686173206e6f7420656c61707365644f776e61626c653a2063616c6c6572206973206e6f7420746865206f776e65724c6f742073697a65206172726179206d75737420616c7761797320636f6e7461696e203120425443496e697469616c20636f6c6c61746572616c697a65642070657263656e74206d757374206265203c3d2033303025466163746f72792073656c6563746f72206d7573742062652061206e6f6e7a65726f20616464726573734c6f742073697a65732067726561746572207468616e203130302042544320617265206e6f7420616c6c6f7765644e6577206465706f73697473206172652063757272656e746c7920616c6c6f7765644554482d6261636b656420666163746f7279206d7573742062652061206e6f6e7a65726f20616464726573735369676e6572206665652064697669736f72206d757374206265206c657373207468616e20353030302c20666f722061207369676e6572206665652074686174206973203e20302e30322553657665726520756e646572636f6c6c61746572616c697a6564207468726573686f6c64206d757374206265203c20756e646572636f6c6c61746572616c697a6564207468726573686f6c64a265627a7a723158205ec2569e8e5a4211ce928792173c4bacaaf0f7fb7e2a0d457626d2740fdc38b164736f6c63430005110032",
  "source": "/* solium-disable function-order */\npragma solidity 0.5.17;\n\nimport {IBondedECDSAKeepFactory} from \"@keep-network/keep-ecdsa/contracts/api/IBondedECDSAKeepFactory.sol\";\n\nimport {VendingMachine} from \"./VendingMachine.sol\";\nimport {DepositFactory} from \"../proxy/DepositFactory.sol\";\n\nimport {IRelay} from \"@summa-tx/relay-sol/contracts/Relay.sol\";\nimport \"../external/IMedianizer.sol\";\n\nimport {ITBTCSystem} from \"../interfaces/ITBTCSystem.sol\";\nimport {ISatWeiPriceFeed} from \"../interfaces/ISatWeiPriceFeed.sol\";\nimport {DepositLog} from \"../DepositLog.sol\";\n\nimport {TBTCDepositToken} from \"./TBTCDepositToken.sol\";\nimport \"./TBTCToken.sol\";\nimport \"./FeeRebateToken.sol\";\nimport \"openzeppelin-solidity/contracts/ownership/Ownable.sol\";\nimport \"openzeppelin-solidity/contracts/math/SafeMath.sol\";\nimport \"./KeepFactorySelection.sol\";\n\n/// @title TBTC System.\n/// @notice This contract acts as a central point for access control,\n///         value governance, and price feed.\n/// @dev    Governable values should only affect new deposit creation.\ncontract TBTCSystem is Ownable, ITBTCSystem, DepositLog {\n\n    using SafeMath for uint256;\n    using KeepFactorySelection for KeepFactorySelection.Storage;\n\n    event EthBtcPriceFeedAdditionStarted(address _priceFeed, uint256 _timestamp);\n    event LotSizesUpdateStarted(uint64[] _lotSizes, uint256 _timestamp);\n    event SignerFeeDivisorUpdateStarted(uint16 _signerFeeDivisor, uint256 _timestamp);\n    event CollateralizationThresholdsUpdateStarted(\n        uint16 _initialCollateralizedPercent,\n        uint16 _undercollateralizedThresholdPercent,\n        uint16 _severelyUndercollateralizedThresholdPercent,\n        uint256 _timestamp\n    );\n    event KeepFactorySingleShotUpdateStarted(\n        address _factorySelector,\n        address _ethBackedFactory,\n        uint256 _timestamp\n    );\n\n    event EthBtcPriceFeedAdded(address _priceFeed);\n    event LotSizesUpdated(uint64[] _lotSizes);\n    event AllowNewDepositsUpdated(bool _allowNewDeposits);\n    event SignerFeeDivisorUpdated(uint16 _signerFeeDivisor);\n    event CollateralizationThresholdsUpdated(\n        uint16 _initialCollateralizedPercent,\n        uint16 _undercollateralizedThresholdPercent,\n        uint16 _severelyUndercollateralizedThresholdPercent\n    );\n    event KeepFactorySingleShotUpdated(\n        address _factorySelector,\n        address _ethBackedFactory\n    );\n\n    uint256 initializedTimestamp = 0;\n    uint256 pausedTimestamp;\n    uint256 constant pausedDuration = 10 days;\n\n    ISatWeiPriceFeed public priceFeed;\n    IRelay public relay;\n\n    KeepFactorySelection.Storage keepFactorySelection;\n\n    uint16 public keepSize;\n    uint16 public keepThreshold;\n\n    // Parameters governed by the TBTCSystem owner\n    bool private allowNewDeposits = false;\n    uint16 private signerFeeDivisor = 2000; // 1/2000 == 5bps == 0.05% == 0.0005\n    uint16 private initialCollateralizedPercent = 150; // percent\n    uint16 private undercollateralizedThresholdPercent = 125;  // percent\n    uint16 private severelyUndercollateralizedThresholdPercent = 110; // percent\n    uint64[] lotSizesSatoshis = [10**5, 10**6, 10**7, 2 * 10**7, 5 * 10**7, 10**8]; // [0.001, 0.01, 0.1, 0.2, 0.5, 1.0] BTC\n\n    uint256 constant governanceTimeDelay = 48 hours;\n\n    uint256 private signerFeeDivisorChangeInitiated;\n    uint256 private lotSizesChangeInitiated;\n    uint256 private collateralizationThresholdsChangeInitiated;\n    uint256 private keepFactorySingleShotUpdateInitiated;\n\n    uint16 private newSignerFeeDivisor;\n    uint64[] newLotSizesSatoshis;\n    uint16 private newInitialCollateralizedPercent;\n    uint16 private newUndercollateralizedThresholdPercent;\n    uint16 private newSeverelyUndercollateralizedThresholdPercent;\n    address private newFactorySelector;\n    address private newEthBackedFactory;\n\n    // price feed\n    uint256 priceFeedGovernanceTimeDelay = 90 days;\n    uint256 ethBtcPriceFeedAdditionInitiated;\n    IMedianizer nextEthBtcPriceFeed;\n\n    constructor(address _priceFeed, address _relay) public {\n        priceFeed = ISatWeiPriceFeed(_priceFeed);\n        relay = IRelay(_relay);\n    }\n\n    /// @notice        Initialize contracts\n    /// @dev           Only the Deposit factory should call this, and only once.\n    /// @param _defaultKeepFactory       ECDSA keep factory backed by KEEP stake.\n    /// @param _depositFactory    Deposit Factory. More info in `DepositFactory`.\n    /// @param _masterDepositAddress  Master Deposit address. More info in `Deposit`.\n    /// @param _tbtcToken         TBTCToken. More info in `TBTCToken`.\n    /// @param _tbtcDepositToken  TBTCDepositToken (TDT). More info in `TBTCDepositToken`.\n    /// @param _feeRebateToken    FeeRebateToken (FRT). More info in `FeeRebateToken`.\n    /// @param _keepThreshold     Signing group honesty threshold.\n    /// @param _keepSize          Signing group size.\n    function initialize(\n        IBondedECDSAKeepFactory _defaultKeepFactory,\n        DepositFactory _depositFactory,\n        address payable _masterDepositAddress,\n        TBTCToken _tbtcToken,\n        TBTCDepositToken _tbtcDepositToken,\n        FeeRebateToken _feeRebateToken,\n        VendingMachine _vendingMachine,\n        uint16 _keepThreshold,\n        uint16 _keepSize\n    ) external onlyOwner {\n        require(initializedTimestamp == 0, \"already initialized\");\n\n        keepFactorySelection.initialize(_defaultKeepFactory);\n        keepThreshold = _keepThreshold;\n        keepSize = _keepSize;\n\n        _vendingMachine.setExternalAddresses(\n            _tbtcToken,\n            _tbtcDepositToken,\n            _feeRebateToken\n        );\n        _depositFactory.setExternalDependencies(\n            _masterDepositAddress,\n            this,\n            _tbtcToken,\n            _tbtcDepositToken,\n            _feeRebateToken,\n            address(_vendingMachine)\n        );\n        setTbtcDepositToken(_tbtcDepositToken);\n        initializedTimestamp = block.timestamp;\n        allowNewDeposits = true;\n    }\n\n    /// @notice Returns whether new deposits should be allowed.\n    /// @return True if new deposits should be allowed by the emergency pause button\n    function getAllowNewDeposits() external view returns (bool) {\n        return allowNewDeposits;\n    }\n\n    /// @notice Return the lowest lot size currently enabled for deposits.\n    /// @return The lowest lot size, in satoshis.\n    function getMinimumLotSize() public view returns (uint256) {\n        return lotSizesSatoshis[0];\n    }\n\n    /// @notice Return the largest lot size currently enabled for deposits.\n    /// @return The largest lot size, in satoshis.\n    function getMaximumLotSize() public view returns (uint256) {\n        return lotSizesSatoshis[lotSizesSatoshis.length - 1];\n    }\n\n    /// @notice One-time-use emergency function to disallow future deposit creation for 10 days.\n    function emergencyPauseNewDeposits() external onlyOwner {\n        require(pausedTimestamp == 0, \"emergencyPauseNewDeposits can only be called once\");\n        uint256 sinceInit = block.timestamp - initializedTimestamp;\n        require(sinceInit < 180 days, \"emergencyPauseNewDeposits can only be called within 180 days of initialization\");\n        pausedTimestamp = block.timestamp;\n        allowNewDeposits = false;\n        emit AllowNewDepositsUpdated(false);\n    }\n\n    /// @notice Anyone can reactivate deposit creations after the pause duration is over.\n    function resumeNewDeposits() public {\n        require(allowNewDeposits == false, \"New deposits are currently allowed\");\n        require(pausedTimestamp != 0, \"Deposit has not been paused\");\n        require(block.timestamp.sub(pausedTimestamp) >= pausedDuration, \"Deposits are still paused\");\n        allowNewDeposits = true;\n        emit AllowNewDepositsUpdated(true);\n    }\n\n    function getRemainingPauseTerm() public view returns (uint256) {\n        require(allowNewDeposits == false, \"New deposits are currently allowed\");\n        return (block.timestamp.sub(pausedTimestamp) >= pausedDuration)?\n            0:\n            pausedDuration.sub(block.timestamp.sub(pausedTimestamp));\n    }\n\n    /// @notice Set the system signer fee divisor.\n    /// @dev    This can be finalized by calling `finalizeSignerFeeDivisorUpdate`\n    ///         Anytime after `governanceTimeDelay` has elapsed.\n    /// @param _signerFeeDivisor The signer fee divisor.\n    function beginSignerFeeDivisorUpdate(uint16 _signerFeeDivisor)\n        external onlyOwner\n    {\n        require(\n            _signerFeeDivisor > 9,\n            \"Signer fee divisor must be greater than 9, for a signer fee that is <= 10%\"\n        );\n        require(\n            _signerFeeDivisor < 5000,\n            \"Signer fee divisor must be less than 5000, for a signer fee that is > 0.02%\"\n        );\n\n        newSignerFeeDivisor = _signerFeeDivisor;\n        signerFeeDivisorChangeInitiated = block.timestamp;\n        emit SignerFeeDivisorUpdateStarted(_signerFeeDivisor, block.timestamp);\n    }\n\n    /// @notice Set the allowed deposit lot sizes.\n    /// @dev    Lot size array should always contain 10**8 satoshis (1 BTC) and\n    ///         cannot contain values less than 50000 satoshis (0.0005 BTC) or\n    ///         greater than 10**10 satoshis (100 BTC). Lot size array must not\n    ///         have duplicates and it must be sorted.\n    ///         This can be finalized by calling `finalizeLotSizesUpdate`\n    ///         anytime after `governanceTimeDelay` has elapsed.\n    /// @param _lotSizes Array of allowed lot sizes.\n    function beginLotSizesUpdate(uint64[] calldata _lotSizes)\n        external onlyOwner\n    {\n        bool hasSingleBitcoin = false;\n        for (uint i = 0; i < _lotSizes.length; i++) {\n            if (_lotSizes[i] == 10**8) {\n                hasSingleBitcoin = true;\n            } else if (_lotSizes[i] < 50 * 10**3) {\n                // Failed the minimum requirement, break on out.\n                revert(\"Lot sizes less than 0.0005 BTC are not allowed\");\n            } else if (_lotSizes[i] > 10 * 10**9) {\n                // Failed the maximum requirement, break on out.\n                revert(\"Lot sizes greater than 100 BTC are not allowed\");\n            } else if (i > 0 && _lotSizes[i] == _lotSizes[i-1]) {\n                revert(\"Lot size array must not have duplicates\");\n            } else if (i > 0 && _lotSizes[i] < _lotSizes[i-1]) {\n                revert(\"Lot size array must be sorted\");\n            }\n        }\n\n        require(hasSingleBitcoin, \"Lot size array must always contain 1 BTC\");\n\n        emit LotSizesUpdateStarted(_lotSizes, block.timestamp);\n        newLotSizesSatoshis = _lotSizes;\n        lotSizesChangeInitiated = block.timestamp;\n    }\n\n    /// @notice Set the system collateralization levels\n    /// @dev    This can be finalized by calling `finalizeCollateralizationThresholdsUpdate`\n    ///         Anytime after `governanceTimeDelay` has elapsed.\n    /// @param _initialCollateralizedPercent default signing bond percent for new deposits\n    /// @param _undercollateralizedThresholdPercent first undercollateralization trigger\n    /// @param _severelyUndercollateralizedThresholdPercent second undercollateralization trigger\n    function beginCollateralizationThresholdsUpdate(\n        uint16 _initialCollateralizedPercent,\n        uint16 _undercollateralizedThresholdPercent,\n        uint16 _severelyUndercollateralizedThresholdPercent\n    ) external onlyOwner {\n        require(\n            _initialCollateralizedPercent <= 300,\n            \"Initial collateralized percent must be <= 300%\"\n        );\n        require(\n            _initialCollateralizedPercent > 100,\n            \"Initial collateralized percent must be >= 100%\"\n        );\n        require(\n            _initialCollateralizedPercent > _undercollateralizedThresholdPercent,\n            \"Undercollateralized threshold must be < initial collateralized percent\"\n        );\n        require(\n            _undercollateralizedThresholdPercent > _severelyUndercollateralizedThresholdPercent,\n            \"Severe undercollateralized threshold must be < undercollateralized threshold\"\n        );\n\n        newInitialCollateralizedPercent = _initialCollateralizedPercent;\n        newUndercollateralizedThresholdPercent = _undercollateralizedThresholdPercent;\n        newSeverelyUndercollateralizedThresholdPercent = _severelyUndercollateralizedThresholdPercent;\n        collateralizationThresholdsChangeInitiated = block.timestamp;\n        emit CollateralizationThresholdsUpdateStarted(\n            _initialCollateralizedPercent,\n            _undercollateralizedThresholdPercent,\n            _severelyUndercollateralizedThresholdPercent,\n            block.timestamp\n        );\n    }\n\n    /// @notice Sets the address of the ETH-only-backed ECDSA keep factory and\n    ///         the selection strategy that will choose between it and the\n    ///         default KEEP-backed factory for new deposits. When the\n    ///         ETH-only-backed factory and strategy are set, TBTCSystem load\n    ///         balances between two factories based on the selection strategy.\n    /// @dev It can be finalized by calling `finalizeKeepFactorySingleShotUpdate`\n    ///      any time after `governanceTimeDelay` has elapsed. This can be\n    ///      called more than once until finalized to reset the values and\n    ///      timer, but it can only be finalized once!\n    /// @param _factorySelector Address of the keep factory selection strategy.\n    /// @param _ethBackedFactory Address of the ETH-stake-based factory.\n    function beginKeepFactorySingleShotUpdate(\n        address _factorySelector,\n        address _ethBackedFactory\n    )\n        external onlyOwner\n    {\n        require(\n            // Either an update is in progress,\n            keepFactorySingleShotUpdateInitiated != 0 ||\n            // or we're trying to start a fresh one, in which case we must not\n            // have an already-finalized one (indicated by newEthBackedFactory\n            // being set).\n            newEthBackedFactory == address(0),\n            \"Keep factory data can only be updated once\"\n        );\n        require(\n            _factorySelector != address(0),\n            \"Factory selector must be a nonzero address\"\n        );\n        require(\n            _ethBackedFactory != address(0),\n            \"ETH-backed factory must be a nonzero address\"\n        );\n\n        newFactorySelector = _factorySelector;\n        newEthBackedFactory = _ethBackedFactory;\n        keepFactorySingleShotUpdateInitiated = block.timestamp;\n        emit KeepFactorySingleShotUpdateStarted(\n            _factorySelector,\n            _ethBackedFactory,\n            block.timestamp\n        );\n    }\n\n    /// @notice Add a new ETH/BTC price feed contract to the priecFeed.\n    /// @dev This can be finalized by calling `finalizeEthBtcPriceFeedAddition`\n    ///      anytime after `priceFeedGovernanceTimeDelay` has elapsed.\n    function beginEthBtcPriceFeedAddition(IMedianizer _ethBtcPriceFeed) external onlyOwner {\n        bool ethBtcActive;\n        (, ethBtcActive) = _ethBtcPriceFeed.peek();\n        require(ethBtcActive, \"Cannot add inactive feed\");\n\n        nextEthBtcPriceFeed = _ethBtcPriceFeed;\n        ethBtcPriceFeedAdditionInitiated = block.timestamp;\n        emit EthBtcPriceFeedAdditionStarted(address(_ethBtcPriceFeed), block.timestamp);\n    }\n\n    modifier onlyAfterGovernanceDelay(\n        uint256 _changeInitializedTimestamp,\n        uint256 _delay\n    ) {\n        require(_changeInitializedTimestamp > 0, \"Change not initiated\");\n        require(\n            block.timestamp.sub(_changeInitializedTimestamp) >= _delay,\n            \"Governance delay has not elapsed\"\n        );\n        _;\n    }\n\n    /// @notice Finish setting the system signer fee divisor.\n    /// @dev `beginSignerFeeDivisorUpdate` must be called first, once `governanceTimeDelay`\n    ///       has passed, this function can be called to set the signer fee divisor to the\n    ///       value set in `beginSignerFeeDivisorUpdate`\n    function finalizeSignerFeeDivisorUpdate()\n        external\n        onlyOwner\n        onlyAfterGovernanceDelay(signerFeeDivisorChangeInitiated, governanceTimeDelay)\n    {\n        signerFeeDivisor = newSignerFeeDivisor;\n        emit SignerFeeDivisorUpdated(newSignerFeeDivisor);\n        newSignerFeeDivisor = 0;\n        signerFeeDivisorChangeInitiated = 0;\n    }\n    /// @notice Finish setting the accepted system lot sizes.\n    /// @dev `beginLotSizesUpdate` must be called first, once `governanceTimeDelay`\n    ///       has passed, this function can be called to set the lot sizes to the\n    ///       value set in `beginLotSizesUpdate`\n    function finalizeLotSizesUpdate()\n        external\n        onlyOwner\n        onlyAfterGovernanceDelay(lotSizesChangeInitiated, governanceTimeDelay) {\n\n        lotSizesSatoshis = newLotSizesSatoshis;\n        emit LotSizesUpdated(newLotSizesSatoshis);\n        lotSizesChangeInitiated = 0;\n        newLotSizesSatoshis.length = 0;\n\n        refreshMinimumBondableValue();\n    }\n\n    /// @notice Finish setting the system collateralization levels\n    /// @dev `beginCollateralizationThresholdsUpdate` must be called first, once `governanceTimeDelay`\n    ///       has passed, this function can be called to set the collateralization thresholds to the\n    ///       value set in `beginCollateralizationThresholdsUpdate`\n    function finalizeCollateralizationThresholdsUpdate()\n        external\n        onlyOwner\n        onlyAfterGovernanceDelay(\n            collateralizationThresholdsChangeInitiated,\n            governanceTimeDelay\n        ) {\n\n        initialCollateralizedPercent = newInitialCollateralizedPercent;\n        undercollateralizedThresholdPercent = newUndercollateralizedThresholdPercent;\n        severelyUndercollateralizedThresholdPercent = newSeverelyUndercollateralizedThresholdPercent;\n\n        emit CollateralizationThresholdsUpdated(\n            newInitialCollateralizedPercent,\n            newUndercollateralizedThresholdPercent,\n            newSeverelyUndercollateralizedThresholdPercent\n        );\n\n        newInitialCollateralizedPercent = 0;\n        newUndercollateralizedThresholdPercent = 0;\n        newSeverelyUndercollateralizedThresholdPercent = 0;\n        collateralizationThresholdsChangeInitiated = 0;\n    }\n\n    /// @notice Finish setting the address of the ETH-only-backed ECDSA keep\n    ///         factory and the selection strategy that will choose between it\n    ///         and the default KEEP-backed factory for new deposits.\n    /// @dev `beginKeepFactorySingleShotUpdate` must be called first; once\n    ///      `governanceTimeDelay` has passed, this function can be called to\n    ///      set the collateralization thresholds to the value set in\n    ///      `beginKeepFactorySingleShotUpdate`.\n    function finalizeKeepFactorySingleShotUpdate()\n        external\n        onlyOwner\n        onlyAfterGovernanceDelay(\n            keepFactorySingleShotUpdateInitiated,\n            governanceTimeDelay\n        ) {\n\n        keepFactorySelection.setKeepFactorySelector(newFactorySelector);\n        keepFactorySelection.setFullyBackedKeepFactory(newEthBackedFactory);\n\n        emit KeepFactorySingleShotUpdated(\n            newFactorySelector,\n            newEthBackedFactory\n        );\n\n        keepFactorySingleShotUpdateInitiated = 0;\n        newFactorySelector = address(0);\n        // Keep newEthBackedFactory set as a marker that the update has already\n        // occurred.\n    }\n\n    /// @notice Finish adding a new price feed contract to the priceFeed.\n    /// @dev `beginEthBtcPriceFeedAddition` must be called first; once\n    ///      `ethBtcPriceFeedAdditionInitiated` has passed, this function can be\n    ///      called to append a new price feed.\n    function finalizeEthBtcPriceFeedAddition()\n            external\n            onlyOwner\n            onlyAfterGovernanceDelay(\n                ethBtcPriceFeedAdditionInitiated,\n                priceFeedGovernanceTimeDelay\n            ) {\n        // This process interacts with external contracts, so\n        // Checks-Effects-Interactions it.\n        IMedianizer _nextEthBtcPriceFeed = nextEthBtcPriceFeed;\n        nextEthBtcPriceFeed = IMedianizer(0);\n        ethBtcPriceFeedAdditionInitiated = 0;\n\n        priceFeed.addEthBtcFeed(_nextEthBtcPriceFeed);\n\n        emit EthBtcPriceFeedAdded(address(_nextEthBtcPriceFeed));\n    }\n\n    /// @notice Gets the system signer fee divisor.\n    /// @return The signer fee divisor.\n    function getSignerFeeDivisor() external view returns (uint16) { return signerFeeDivisor; }\n\n    /// @notice Gets the allowed lot sizes\n    /// @return Uint64 array of allowed lot sizes\n    function getAllowedLotSizes() external view returns (uint64[] memory){\n        return lotSizesSatoshis;\n    }\n\n    /// @notice Get the system undercollateralization level for new deposits\n    function getUndercollateralizedThresholdPercent() external view returns (uint16) {\n        return undercollateralizedThresholdPercent;\n    }\n\n    /// @notice Get the system severe undercollateralization level for new deposits\n    function getSeverelyUndercollateralizedThresholdPercent() external view returns (uint16) {\n        return severelyUndercollateralizedThresholdPercent;\n    }\n\n    /// @notice Get the system initial collateralized level for new deposits.\n    function getInitialCollateralizedPercent() external view returns (uint16) {\n        return initialCollateralizedPercent;\n    }\n\n    /// @notice Get the price of one satoshi in wei.\n    /// @dev Reverts if the price of one satoshi is 0 wei, or if the price of\n    ///      one satoshi is 1 ether. Can only be called by a deposit with minted\n    ///      TDT.\n    /// @return The price of one satoshi in wei.\n    function fetchBitcoinPrice() external view returns (uint256) {\n        require(\n            tbtcDepositToken.exists(uint256(msg.sender)),\n            \"Caller must be a Deposit contract\"\n        );\n\n        return _fetchBitcoinPrice();\n    }\n\n    // Difficulty Oracle\n    function fetchRelayCurrentDifficulty() external view returns (uint256) {\n        return relay.getCurrentEpochDifficulty();\n    }\n\n    function fetchRelayPreviousDifficulty() external view returns (uint256) {\n        return relay.getPrevEpochDifficulty();\n    }\n\n    /// @notice Get the time remaining until the signer fee divisor can be updated.\n    function getRemainingSignerFeeDivisorUpdateTime() external view returns (uint256) {\n        return getRemainingChangeTime(\n            signerFeeDivisorChangeInitiated,\n            governanceTimeDelay\n        );\n    }\n\n    /// @notice Get the time remaining until the lot sizes can be updated.\n    function getRemainingLotSizesUpdateTime() external view returns (uint256) {\n        return getRemainingChangeTime(\n            lotSizesChangeInitiated,\n            governanceTimeDelay\n        );\n    }\n\n    /// @notice Get the time remaining until the collateralization thresholds can be updated.\n    function getRemainingCollateralizationThresholdsUpdateTime() external view returns (uint256) {\n        return getRemainingChangeTime(\n            collateralizationThresholdsChangeInitiated,\n            governanceTimeDelay\n        );\n    }\n\n    /// @notice Get the time remaining until the Keep ETH-only-backed ECDSA keep\n    ///         factory and the selection strategy that will choose between it\n    ///         and the KEEP-backed factory can be updated.\n    function getRemainingKeepFactorySingleShotUpdateTime() external view returns (uint256) {\n        return getRemainingChangeTime(\n            keepFactorySingleShotUpdateInitiated,\n            governanceTimeDelay\n        );\n    }\n\n    /// @notice Get the time remaining until the signer fee divisor can be updated.\n    function getRemainingEthBtcPriceFeedAdditionTime() external view returns (uint256) {\n        return getRemainingChangeTime(\n            ethBtcPriceFeedAdditionInitiated,\n            priceFeedGovernanceTimeDelay\n        );\n    }\n\n    /// @notice Refreshes the minimum bondable value required from the operator\n    /// to join the sortition pool for tBTC. The minimum bondable value is\n    /// equal to the current minimum lot size collateralized 150% multiplied by\n    /// the current BTC price.\n    /// @dev It is recommended to call this function on tBTC initialization and\n    /// after minimum lot size update.\n    function refreshMinimumBondableValue() public {\n        keepFactorySelection.setMinimumBondableValue(\n            calculateBondRequirementWei(getMinimumLotSize()),\n            keepSize,\n            keepThreshold\n        );\n    }\n\n    /// @notice Returns the time delay used for governance actions except for\n    ///         price feed additions.\n    function getGovernanceTimeDelay() public pure returns (uint256) {\n        return governanceTimeDelay;\n    }\n\n    /// @notice Returns the time delay used for price feed addition governance\n    ///         actions.\n    function getPriceFeedGovernanceTimeDelay() public view returns (uint256) {\n        return priceFeedGovernanceTimeDelay;\n    }\n\n    /// @notice Gets a fee estimate for creating a new Deposit.\n    /// @return Uint256 estimate.\n    function getNewDepositFeeEstimate()\n        external\n        view\n        returns (uint256)\n    {\n        IBondedECDSAKeepFactory _keepFactory = keepFactorySelection.selectFactory();\n        return _keepFactory.openKeepFeeEstimate();\n    }\n\n    /// @notice Request a new keep opening.\n    /// @param _lotSizeSatoshis Lot size in satoshis.\n    /// @param _maxSecuredLifetime Duration of stake lock in seconds.\n    /// @return Address of a new keep.\n    function requestNewKeep(\n        uint64 _lotSizeSatoshis,\n        uint256 _maxSecuredLifetime\n    )\n        external\n        payable\n        returns (address)\n    {\n        require(tbtcDepositToken.exists(uint256(msg.sender)), \"Caller must be a Deposit contract\");\n        require(isAllowedLotSize(_lotSizeSatoshis), \"provided lot size not supported\");\n\n        IBondedECDSAKeepFactory _keepFactory = keepFactorySelection.selectFactoryAndRefresh();\n        uint256 bond = calculateBondRequirementWei(_lotSizeSatoshis);\n        return _keepFactory.openKeep.value(msg.value)(keepSize, keepThreshold, msg.sender, bond, _maxSecuredLifetime);\n    }\n\n    /// @notice Check if a lot size is allowed.\n    /// @param _lotSizeSatoshis Lot size to check.\n    /// @return True if lot size is allowed, false otherwise.\n    function isAllowedLotSize(uint64 _lotSizeSatoshis) public view returns (bool){\n        for( uint i = 0; i < lotSizesSatoshis.length; i++){\n            if (lotSizesSatoshis[i] == _lotSizeSatoshis){\n                return true;\n            }\n        }\n        return false;\n    }\n\n    /// @notice Calculates bond requirement in wei for the given lot size in\n    /// satoshis based on the current ETHBTC price.\n    /// @param _lotSizeSatoshis Lot size in satoshis.\n    /// @return Bond requirement in wei.\n    function calculateBondRequirementWei(\n        uint256 _lotSizeSatoshis\n    ) internal view returns (uint256) {\n        uint256 bondRequirementSatoshis = _lotSizeSatoshis.mul(\n            initialCollateralizedPercent\n        ).div(100);\n        return _fetchBitcoinPrice().mul(bondRequirementSatoshis);\n    }\n\n    function _fetchBitcoinPrice() internal view returns (uint256) {\n        uint256 price = priceFeed.getPrice();\n        if (price == 0 || price > 10 ** 18) {\n            // This is if a sat is worth 0 wei, or is worth >1 ether. Revert at\n            // once.\n            revert(\"System returned a bad price\");\n        }\n        return price;\n    }\n\n    /// @notice Get the time remaining until the function parameter timer value can be updated.\n    function getRemainingChangeTime(\n        uint256 _changeTimestamp,\n        uint256 _delayAmount\n    ) internal view returns (uint256){\n        require(_changeTimestamp > 0, \"Update not initiated\");\n        uint256 elapsed = block.timestamp.sub(_changeTimestamp);\n        if (elapsed >= _delayAmount) {\n            return 0;\n        } else {\n            return _delayAmount.sub(elapsed);\n        }\n    }\n}\n",
  "sourcePath": "/Users/symf/IdeaProjects/tbtc/solidity/contracts/system/TBTCSystem.sol",
  "compiler": {
    "name": "solc",
    "version": "0.5.17+commit.d19bba13.Emscripten.clang"
  },
  "schemaVersion": "3.0.23",
  "updatedAt": "2020-08-21T21:24:02.877Z",
  "devdoc": {
    "details": "Governable values should only affect new deposit creation.",
    "methods": {
      "approvedToLog(address)": {
        "details": "checks tbtcDepositToken to see if the caller represents                     an existing deposit.                     We don't require this, so deposits are not bricked if the system borks.",
        "params": {
          "_caller": "The address of the calling contract."
        },
        "return": "True if approved, otherwise false."
      },
      "beginCollateralizationThresholdsUpdate(uint16,uint16,uint16)": {
        "details": "This can be finalized by calling `finalizeCollateralizationThresholdsUpdate`         Anytime after `governanceTimeDelay` has elapsed.",
        "params": {
          "_initialCollateralizedPercent": "default signing bond percent for new deposits",
          "_severelyUndercollateralizedThresholdPercent": "second undercollateralization trigger",
          "_undercollateralizedThresholdPercent": "first undercollateralization trigger"
        }
      },
      "beginEthBtcPriceFeedAddition(address)": {
        "details": "This can be finalized by calling `finalizeEthBtcPriceFeedAddition`      anytime after `priceFeedGovernanceTimeDelay` has elapsed."
      },
      "beginKeepFactorySingleShotUpdate(address,address)": {
        "details": "It can be finalized by calling `finalizeKeepFactorySingleShotUpdate`      any time after `governanceTimeDelay` has elapsed. This can be      called more than once until finalized to reset the values and      timer, but it can only be finalized once!",
        "params": {
          "_ethBackedFactory": "Address of the ETH-stake-based factory.",
          "_factorySelector": "Address of the keep factory selection strategy."
        }
      },
      "beginLotSizesUpdate(uint64[])": {
        "details": "Lot size array should always contain 10**8 satoshis (1 BTC) and         cannot contain values less than 50000 satoshis (0.0005 BTC) or         greater than 10**10 satoshis (100 BTC). Lot size array must not         have duplicates and it must be sorted.         This can be finalized by calling `finalizeLotSizesUpdate`         anytime after `governanceTimeDelay` has elapsed.",
        "params": {
          "_lotSizes": "Array of allowed lot sizes."
        }
      },
      "beginSignerFeeDivisorUpdate(uint16)": {
        "details": "This can be finalized by calling `finalizeSignerFeeDivisorUpdate`         Anytime after `governanceTimeDelay` has elapsed.",
        "params": {
          "_signerFeeDivisor": "The signer fee divisor."
        }
      },
      "fetchBitcoinPrice()": {
        "details": "Reverts if the price of one satoshi is 0 wei, or if the price of      one satoshi is 1 ether. Can only be called by a deposit with minted      TDT.",
        "return": "The price of one satoshi in wei."
      },
      "finalizeCollateralizationThresholdsUpdate()": {
        "details": "`beginCollateralizationThresholdsUpdate` must be called first, once `governanceTimeDelay`       has passed, this function can be called to set the collateralization thresholds to the       value set in `beginCollateralizationThresholdsUpdate`"
      },
      "finalizeEthBtcPriceFeedAddition()": {
        "details": "`beginEthBtcPriceFeedAddition` must be called first; once      `ethBtcPriceFeedAdditionInitiated` has passed, this function can be      called to append a new price feed."
      },
      "finalizeKeepFactorySingleShotUpdate()": {
        "details": "`beginKeepFactorySingleShotUpdate` must be called first; once      `governanceTimeDelay` has passed, this function can be called to      set the collateralization thresholds to the value set in      `beginKeepFactorySingleShotUpdate`."
      },
      "finalizeLotSizesUpdate()": {
        "details": "`beginLotSizesUpdate` must be called first, once `governanceTimeDelay`       has passed, this function can be called to set the lot sizes to the       value set in `beginLotSizesUpdate`"
      },
      "finalizeSignerFeeDivisorUpdate()": {
        "details": "`beginSignerFeeDivisorUpdate` must be called first, once `governanceTimeDelay`       has passed, this function can be called to set the signer fee divisor to the       value set in `beginSignerFeeDivisorUpdate`"
      },
      "getAllowNewDeposits()": {
        "return": "True if new deposits should be allowed by the emergency pause button"
      },
      "getAllowedLotSizes()": {
        "return": "Uint64 array of allowed lot sizes"
      },
      "getMaximumLotSize()": {
        "return": "The largest lot size, in satoshis."
      },
      "getMinimumLotSize()": {
        "return": "The lowest lot size, in satoshis."
      },
      "getNewDepositFeeEstimate()": {
        "return": "Uint256 estimate."
      },
      "getSignerFeeDivisor()": {
        "return": "The signer fee divisor."
      },
      "initialize(address,address,address,address,address,address,address,uint16,uint16)": {
        "details": "Only the Deposit factory should call this, and only once.",
        "params": {
          "_defaultKeepFactory": "ECDSA keep factory backed by KEEP stake.",
          "_depositFactory": "Deposit Factory. More info in `DepositFactory`.",
          "_feeRebateToken": "FeeRebateToken (FRT). More info in `FeeRebateToken`.",
          "_keepSize": "Signing group size.",
          "_keepThreshold": "Signing group honesty threshold.",
          "_masterDepositAddress": "Master Deposit address. More info in `Deposit`.",
          "_tbtcDepositToken": "TBTCDepositToken (TDT). More info in `TBTCDepositToken`.",
          "_tbtcToken": "TBTCToken. More info in `TBTCToken`."
        }
      },
      "isAllowedLotSize(uint64)": {
        "params": {
          "_lotSizeSatoshis": "Lot size to check."
        },
        "return": "True if lot size is allowed, false otherwise."
      },
      "isOwner()": {
        "details": "Returns true if the caller is the current owner."
      },
      "logCourtesyCalled()": {
        "details": "We append the sender, which is the deposit contract that called."
      },
      "logCreated(address)": {
        "details": "We append the sender, which is the deposit contract that called.",
        "params": {
          "_keepAddress": "The address of the associated keep."
        },
        "return": "True if successful, else revert."
      },
      "logExitedCourtesyCall()": {
        "details": "We append the sender, which is the deposit contract that called."
      },
      "logFraudDuringSetup()": {
        "details": "We append the sender, which is the deposit contract that called."
      },
      "logFunded(bytes32)": {
        "details": "We append the sender, which is the deposit contract that called."
      },
      "logFunderRequestedAbort(bytes)": {
        "details": "We append the sender, which is the deposit contract that called."
      },
      "logGotRedemptionSignature(bytes32,bytes32,bytes32)": {
        "details": "We append the sender, which is the deposit contract that called.",
        "params": {
          "_digest": "signed digest.",
          "_r": "signature r value.",
          "_s": "signature s value."
        }
      },
      "logLiquidated()": {
        "details": "We append the sender, which is the deposit contract that called."
      },
      "logRedeemed(bytes32)": {
        "details": "We append the sender, which is the deposit contract that called."
      },
      "logRedemptionRequested(address,bytes32,uint256,bytes,uint256,bytes)": {
        "details": "This is the only event without an explicit timestamp.",
        "params": {
          "_digest": "The calculated sighash digest.",
          "_outpoint": "The 36 byte outpoint.",
          "_redeemerOutputScript": "The redeemer's length-prefixed output script.",
          "_requestedFee": "The requester or bump-system specified fee.",
          "_requester": "The ethereum address of the requester.",
          "_utxoValue": "The size of the utxo in sat."
        },
        "return": "True if successful, else revert."
      },
      "logRegisteredPubkey(bytes32,bytes32)": {
        "details": "We append the sender, which is the deposit contract that called."
      },
      "logSetupFailed()": {
        "details": "We append the sender, which is the deposit contract that called."
      },
      "logStartedLiquidation(bool)": {
        "details": "We append the sender, which is the deposit contract that called.",
        "params": {
          "_wasFraud": "True if liquidating for fraud."
        }
      },
      "owner()": {
        "details": "Returns the address of the current owner."
      },
      "refreshMinimumBondableValue()": {
        "details": "It is recommended to call this function on tBTC initialization and after minimum lot size update."
      },
      "renounceOwnership()": {
        "details": "Leaves the contract without owner. It will not be possible to call `onlyOwner` functions anymore. Can only be called by the current owner.     * > Note: Renouncing ownership will leave the contract without an owner, thereby removing any functionality that is only available to the owner."
      },
      "requestNewKeep(uint64,uint256)": {
        "params": {
          "_lotSizeSatoshis": "Lot size in satoshis.",
          "_maxSecuredLifetime": "Duration of stake lock in seconds."
        },
        "return": "Address of a new keep."
      },
      "transferOwnership(address)": {
        "details": "Transfers ownership of the contract to a new account (`newOwner`). Can only be called by the current owner."
      }
    },
    "title": "TBTC System."
  },
  "userdoc": {
    "methods": {
      "approvedToLog(address)": {
        "notice": "Checks if an address is an allowed logger."
      },
      "beginCollateralizationThresholdsUpdate(uint16,uint16,uint16)": {
        "notice": "Set the system collateralization levels"
      },
      "beginEthBtcPriceFeedAddition(address)": {
        "notice": "Add a new ETH/BTC price feed contract to the priecFeed."
      },
      "beginKeepFactorySingleShotUpdate(address,address)": {
        "notice": "Sets the address of the ETH-only-backed ECDSA keep factory and         the selection strategy that will choose between it and the         default KEEP-backed factory for new deposits. When the         ETH-only-backed factory and strategy are set, TBTCSystem load         balances between two factories based on the selection strategy."
      },
      "beginLotSizesUpdate(uint64[])": {
        "notice": "Set the allowed deposit lot sizes."
      },
      "beginSignerFeeDivisorUpdate(uint16)": {
        "notice": "Set the system signer fee divisor."
      },
      "emergencyPauseNewDeposits()": {
        "notice": "One-time-use emergency function to disallow future deposit creation for 10 days."
      },
      "fetchBitcoinPrice()": {
        "notice": "Get the price of one satoshi in wei."
      },
      "finalizeCollateralizationThresholdsUpdate()": {
        "notice": "Finish setting the system collateralization levels"
      },
      "finalizeEthBtcPriceFeedAddition()": {
        "notice": "Finish adding a new price feed contract to the priceFeed."
      },
      "finalizeKeepFactorySingleShotUpdate()": {
        "notice": "Finish setting the address of the ETH-only-backed ECDSA keep         factory and the selection strategy that will choose between it         and the default KEEP-backed factory for new deposits."
      },
      "finalizeLotSizesUpdate()": {
        "notice": "Finish setting the accepted system lot sizes."
      },
      "finalizeSignerFeeDivisorUpdate()": {
        "notice": "Finish setting the system signer fee divisor."
      },
      "getAllowNewDeposits()": {
        "notice": "Returns whether new deposits should be allowed."
      },
      "getAllowedLotSizes()": {
        "notice": "Gets the allowed lot sizes"
      },
      "getGovernanceTimeDelay()": {
        "notice": "Returns the time delay used for governance actions except for         price feed additions."
      },
      "getInitialCollateralizedPercent()": {
        "notice": "Get the system initial collateralized level for new deposits."
      },
      "getMaximumLotSize()": {
        "notice": "Return the largest lot size currently enabled for deposits."
      },
      "getMinimumLotSize()": {
        "notice": "Return the lowest lot size currently enabled for deposits."
      },
      "getNewDepositFeeEstimate()": {
        "notice": "Gets a fee estimate for creating a new Deposit."
      },
      "getPriceFeedGovernanceTimeDelay()": {
        "notice": "Returns the time delay used for price feed addition governance         actions."
      },
      "getRemainingCollateralizationThresholdsUpdateTime()": {
        "notice": "Get the time remaining until the collateralization thresholds can be updated."
      },
      "getRemainingEthBtcPriceFeedAdditionTime()": {
        "notice": "Get the time remaining until the signer fee divisor can be updated."
      },
      "getRemainingKeepFactorySingleShotUpdateTime()": {
        "notice": "Get the time remaining until the Keep ETH-only-backed ECDSA keep         factory and the selection strategy that will choose between it         and the KEEP-backed factory can be updated."
      },
      "getRemainingLotSizesUpdateTime()": {
        "notice": "Get the time remaining until the lot sizes can be updated."
      },
      "getRemainingSignerFeeDivisorUpdateTime()": {
        "notice": "Get the time remaining until the signer fee divisor can be updated."
      },
      "getSeverelyUndercollateralizedThresholdPercent()": {
        "notice": "Get the system severe undercollateralization level for new deposits"
      },
      "getSignerFeeDivisor()": {
        "notice": "Gets the system signer fee divisor."
      },
      "getUndercollateralizedThresholdPercent()": {
        "notice": "Get the system undercollateralization level for new deposits"
      },
      "initialize(address,address,address,address,address,address,address,uint16,uint16)": {
        "notice": "Initialize contracts"
      },
      "isAllowedLotSize(uint64)": {
        "notice": "Check if a lot size is allowed."
      },
      "logCourtesyCalled()": {
        "notice": "Fires a CourtesyCalled event."
      },
      "logCreated(address)": {
        "notice": "Fires a Created event."
      },
      "logExitedCourtesyCall()": {
        "notice": "Fires a ExitedCourtesyCall event"
      },
      "logFraudDuringSetup()": {
        "notice": "Fires a FraudDuringSetup event."
      },
      "logFunded(bytes32)": {
        "notice": "Fires a Funded event."
      },
      "logFunderRequestedAbort(bytes)": {
        "notice": "Fires a FunderAbortRequested event."
      },
      "logGotRedemptionSignature(bytes32,bytes32,bytes32)": {
        "notice": "Fires a GotRedemptionSignature event."
      },
      "logLiquidated()": {
        "notice": "Fires a Liquidated event"
      },
      "logRedeemed(bytes32)": {
        "notice": "Fires a Redeemed event"
      },
      "logRedemptionRequested(address,bytes32,uint256,bytes,uint256,bytes)": {
        "notice": "Fires a RedemptionRequested event."
      },
      "logRegisteredPubkey(bytes32,bytes32)": {
        "notice": "Fires a RegisteredPubkey event."
      },
      "logSetupFailed()": {
        "notice": "Fires a SetupFailed event."
      },
      "logStartedLiquidation(bool)": {
        "notice": "Fires a StartedLiquidation event."
      },
      "refreshMinimumBondableValue()": {
        "notice": "Refreshes the minimum bondable value required from the operator to join the sortition pool for tBTC. The minimum bondable value is equal to the current minimum lot size collateralized 150% multiplied by the current BTC price."
      },
      "requestNewKeep(uint64,uint256)": {
        "notice": "Request a new keep opening."
      },
      "resumeNewDeposits()": {
        "notice": "Anyone can reactivate deposit creations after the pause duration is over."
      }
    },
    "notice": "This contract acts as a central point for access control,         value governance, and price feed."
  }
}