{
  "contractName": "TBTCSystemStub",
  "abi": [
    {
      "inputs": [
        {
          "internalType": "address",
          "name": "_priceFeed",
          "type": "address"
        },
        {
          "internalType": "address",
          "name": "_relay",
          "type": "address"
        }
      ],
      "payable": false,
      "stateMutability": "nonpayable",
      "type": "constructor"
    },
    {
      "anonymous": false,
      "inputs": [
        {
          "indexed": false,
          "internalType": "bool",
          "name": "_allowNewDeposits",
          "type": "bool"
        }
      ],
      "name": "AllowNewDepositsUpdated",
      "type": "event"
    },
    {
      "anonymous": false,
      "inputs": [
        {
          "indexed": false,
          "internalType": "uint16",
          "name": "_initialCollateralizedPercent",
          "type": "uint16"
        },
        {
          "indexed": false,
          "internalType": "uint16",
          "name": "_undercollateralizedThresholdPercent",
          "type": "uint16"
        },
        {
          "indexed": false,
          "internalType": "uint16",
          "name": "_severelyUndercollateralizedThresholdPercent",
          "type": "uint16"
        },
        {
          "indexed": false,
          "internalType": "uint256",
          "name": "_timestamp",
          "type": "uint256"
        }
      ],
      "name": "CollateralizationThresholdsUpdateStarted",
      "type": "event"
    },
    {
      "anonymous": false,
      "inputs": [
        {
          "indexed": false,
          "internalType": "uint16",
          "name": "_initialCollateralizedPercent",
          "type": "uint16"
        },
        {
          "indexed": false,
          "internalType": "uint16",
          "name": "_undercollateralizedThresholdPercent",
          "type": "uint16"
        },
        {
          "indexed": false,
          "internalType": "uint16",
          "name": "_severelyUndercollateralizedThresholdPercent",
          "type": "uint16"
        }
      ],
      "name": "CollateralizationThresholdsUpdated",
      "type": "event"
    },
    {
      "anonymous": false,
      "inputs": [
        {
          "indexed": true,
          "internalType": "address",
          "name": "_depositContractAddress",
          "type": "address"
        },
        {
          "indexed": false,
          "internalType": "uint256",
          "name": "_timestamp",
          "type": "uint256"
        }
      ],
      "name": "CourtesyCalled",
      "type": "event"
    },
    {
      "anonymous": false,
      "inputs": [
        {
          "indexed": true,
          "internalType": "address",
          "name": "_depositContractAddress",
          "type": "address"
        },
        {
          "indexed": true,
          "internalType": "address",
          "name": "_keepAddress",
          "type": "address"
        },
        {
          "indexed": false,
          "internalType": "uint256",
          "name": "_timestamp",
          "type": "uint256"
        }
      ],
      "name": "Created",
      "type": "event"
    },
    {
      "anonymous": false,
      "inputs": [
        {
          "indexed": false,
          "internalType": "address",
          "name": "_priceFeed",
          "type": "address"
        }
      ],
      "name": "EthBtcPriceFeedAdded",
      "type": "event"
    },
    {
      "anonymous": false,
      "inputs": [
        {
          "indexed": false,
          "internalType": "address",
          "name": "_priceFeed",
          "type": "address"
        },
        {
          "indexed": false,
          "internalType": "uint256",
          "name": "_timestamp",
          "type": "uint256"
        }
      ],
      "name": "EthBtcPriceFeedAdditionStarted",
      "type": "event"
    },
    {
      "anonymous": false,
      "inputs": [
        {
          "indexed": true,
          "internalType": "address",
          "name": "_depositContractAddress",
          "type": "address"
        },
        {
          "indexed": false,
          "internalType": "uint256",
          "name": "_timestamp",
          "type": "uint256"
        }
      ],
      "name": "ExitedCourtesyCall",
      "type": "event"
    },
    {
      "anonymous": false,
      "inputs": [
        {
          "indexed": true,
          "internalType": "address",
          "name": "_depositContractAddress",
          "type": "address"
        },
        {
          "indexed": false,
          "internalType": "uint256",
          "name": "_timestamp",
          "type": "uint256"
        }
      ],
      "name": "FraudDuringSetup",
      "type": "event"
    },
    {
      "anonymous": false,
      "inputs": [
        {
          "indexed": true,
          "internalType": "address",
          "name": "_depositContractAddress",
          "type": "address"
        },
        {
          "indexed": true,
          "internalType": "bytes32",
          "name": "_txid",
          "type": "bytes32"
        },
        {
          "indexed": false,
          "internalType": "uint256",
          "name": "_timestamp",
          "type": "uint256"
        }
      ],
      "name": "Funded",
      "type": "event"
    },
    {
      "anonymous": false,
      "inputs": [
        {
          "indexed": true,
          "internalType": "address",
          "name": "_depositContractAddress",
          "type": "address"
        },
        {
          "indexed": false,
          "internalType": "bytes",
          "name": "_abortOutputScript",
          "type": "bytes"
        }
      ],
      "name": "FunderAbortRequested",
      "type": "event"
    },
    {
      "anonymous": false,
      "inputs": [
        {
          "indexed": true,
          "internalType": "address",
          "name": "_depositContractAddress",
          "type": "address"
        },
        {
          "indexed": true,
          "internalType": "bytes32",
          "name": "_digest",
          "type": "bytes32"
        },
        {
          "indexed": false,
          "internalType": "bytes32",
          "name": "_r",
          "type": "bytes32"
        },
        {
          "indexed": false,
          "internalType": "bytes32",
          "name": "_s",
          "type": "bytes32"
        },
        {
          "indexed": false,
          "internalType": "uint256",
          "name": "_timestamp",
          "type": "uint256"
        }
      ],
      "name": "GotRedemptionSignature",
      "type": "event"
    },
    {
      "anonymous": false,
      "inputs": [
        {
          "indexed": false,
          "internalType": "address",
          "name": "_factorySelector",
          "type": "address"
        },
        {
          "indexed": false,
          "internalType": "address",
          "name": "_ethBackedFactory",
          "type": "address"
        },
        {
          "indexed": false,
          "internalType": "uint256",
          "name": "_timestamp",
          "type": "uint256"
        }
      ],
      "name": "KeepFactorySingleShotUpdateStarted",
      "type": "event"
    },
    {
      "anonymous": false,
      "inputs": [
        {
          "indexed": false,
          "internalType": "address",
          "name": "_factorySelector",
          "type": "address"
        },
        {
          "indexed": false,
          "internalType": "address",
          "name": "_ethBackedFactory",
          "type": "address"
        }
      ],
      "name": "KeepFactorySingleShotUpdated",
      "type": "event"
    },
    {
      "anonymous": false,
      "inputs": [
        {
          "indexed": true,
          "internalType": "address",
          "name": "_depositContractAddress",
          "type": "address"
        },
        {
          "indexed": false,
          "internalType": "uint256",
          "name": "_timestamp",
          "type": "uint256"
        }
      ],
      "name": "Liquidated",
      "type": "event"
    },
    {
      "anonymous": false,
      "inputs": [
        {
          "indexed": false,
          "internalType": "uint64[]",
          "name": "_lotSizes",
          "type": "uint64[]"
        },
        {
          "indexed": false,
          "internalType": "uint256",
          "name": "_timestamp",
          "type": "uint256"
        }
      ],
      "name": "LotSizesUpdateStarted",
      "type": "event"
    },
    {
      "anonymous": false,
      "inputs": [
        {
          "indexed": false,
          "internalType": "uint64[]",
          "name": "_lotSizes",
          "type": "uint64[]"
        }
      ],
      "name": "LotSizesUpdated",
      "type": "event"
    },
    {
      "anonymous": false,
      "inputs": [
        {
          "indexed": true,
          "internalType": "address",
          "name": "previousOwner",
          "type": "address"
        },
        {
          "indexed": true,
          "internalType": "address",
          "name": "newOwner",
          "type": "address"
        }
      ],
      "name": "OwnershipTransferred",
      "type": "event"
    },
    {
      "anonymous": false,
      "inputs": [
        {
          "indexed": true,
          "internalType": "address",
          "name": "_depositContractAddress",
          "type": "address"
        },
        {
          "indexed": true,
          "internalType": "bytes32",
          "name": "_txid",
          "type": "bytes32"
        },
        {
          "indexed": false,
          "internalType": "uint256",
          "name": "_timestamp",
          "type": "uint256"
        }
      ],
      "name": "Redeemed",
      "type": "event"
    },
    {
      "anonymous": false,
      "inputs": [
        {
          "indexed": true,
          "internalType": "address",
          "name": "_depositContractAddress",
          "type": "address"
        },
        {
          "indexed": true,
          "internalType": "address",
          "name": "_requester",
          "type": "address"
        },
        {
          "indexed": true,
          "internalType": "bytes32",
          "name": "_digest",
          "type": "bytes32"
        },
        {
          "indexed": false,
          "internalType": "uint256",
          "name": "_utxoValue",
          "type": "uint256"
        },
        {
          "indexed": false,
          "internalType": "bytes",
          "name": "_redeemerOutputScript",
          "type": "bytes"
        },
        {
          "indexed": false,
          "internalType": "uint256",
          "name": "_requestedFee",
          "type": "uint256"
        },
        {
          "indexed": false,
          "internalType": "bytes",
          "name": "_outpoint",
          "type": "bytes"
        }
      ],
      "name": "RedemptionRequested",
      "type": "event"
    },
    {
      "anonymous": false,
      "inputs": [
        {
          "indexed": true,
          "internalType": "address",
          "name": "_depositContractAddress",
          "type": "address"
        },
        {
          "indexed": false,
          "internalType": "bytes32",
          "name": "_signingGroupPubkeyX",
          "type": "bytes32"
        },
        {
          "indexed": false,
          "internalType": "bytes32",
          "name": "_signingGroupPubkeyY",
          "type": "bytes32"
        },
        {
          "indexed": false,
          "internalType": "uint256",
          "name": "_timestamp",
          "type": "uint256"
        }
      ],
      "name": "RegisteredPubkey",
      "type": "event"
    },
    {
      "anonymous": false,
      "inputs": [
        {
          "indexed": true,
          "internalType": "address",
          "name": "_depositContractAddress",
          "type": "address"
        },
        {
          "indexed": false,
          "internalType": "uint256",
          "name": "_timestamp",
          "type": "uint256"
        }
      ],
      "name": "SetupFailed",
      "type": "event"
    },
    {
      "anonymous": false,
      "inputs": [
        {
          "indexed": false,
          "internalType": "uint16",
          "name": "_signerFeeDivisor",
          "type": "uint16"
        },
        {
          "indexed": false,
          "internalType": "uint256",
          "name": "_timestamp",
          "type": "uint256"
        }
      ],
      "name": "SignerFeeDivisorUpdateStarted",
      "type": "event"
    },
    {
      "anonymous": false,
      "inputs": [
        {
          "indexed": false,
          "internalType": "uint16",
          "name": "_signerFeeDivisor",
          "type": "uint16"
        }
      ],
      "name": "SignerFeeDivisorUpdated",
      "type": "event"
    },
    {
      "anonymous": false,
      "inputs": [
        {
          "indexed": true,
          "internalType": "address",
          "name": "_depositContractAddress",
          "type": "address"
        },
        {
          "indexed": false,
          "internalType": "bool",
          "name": "_wasFraud",
          "type": "bool"
        },
        {
          "indexed": false,
          "internalType": "uint256",
          "name": "_timestamp",
          "type": "uint256"
        }
      ],
      "name": "StartedLiquidation",
      "type": "event"
    },
    {
      "constant": true,
      "inputs": [
        {
          "internalType": "address",
          "name": "_caller",
          "type": "address"
        }
      ],
      "name": "approvedToLog",
      "outputs": [
        {
          "internalType": "bool",
          "name": "",
          "type": "bool"
        }
      ],
      "payable": false,
      "stateMutability": "view",
      "type": "function"
    },
    {
      "constant": false,
      "inputs": [
        {
          "internalType": "uint16",
          "name": "_initialCollateralizedPercent",
          "type": "uint16"
        },
        {
          "internalType": "uint16",
          "name": "_undercollateralizedThresholdPercent",
          "type": "uint16"
        },
        {
          "internalType": "uint16",
          "name": "_severelyUndercollateralizedThresholdPercent",
          "type": "uint16"
        }
      ],
      "name": "beginCollateralizationThresholdsUpdate",
      "outputs": [],
      "payable": false,
      "stateMutability": "nonpayable",
      "type": "function"
    },
    {
      "constant": false,
      "inputs": [
        {
          "internalType": "contract IMedianizer",
          "name": "_ethBtcPriceFeed",
          "type": "address"
        }
      ],
      "name": "beginEthBtcPriceFeedAddition",
      "outputs": [],
      "payable": false,
      "stateMutability": "nonpayable",
      "type": "function"
    },
    {
      "constant": false,
      "inputs": [
        {
          "internalType": "address",
          "name": "_factorySelector",
          "type": "address"
        },
        {
          "internalType": "address",
          "name": "_ethBackedFactory",
          "type": "address"
        }
      ],
      "name": "beginKeepFactorySingleShotUpdate",
      "outputs": [],
      "payable": false,
      "stateMutability": "nonpayable",
      "type": "function"
    },
    {
      "constant": false,
      "inputs": [
        {
          "internalType": "uint64[]",
          "name": "_lotSizes",
          "type": "uint64[]"
        }
      ],
      "name": "beginLotSizesUpdate",
      "outputs": [],
      "payable": false,
      "stateMutability": "nonpayable",
      "type": "function"
    },
    {
      "constant": false,
      "inputs": [
        {
          "internalType": "uint16",
          "name": "_signerFeeDivisor",
          "type": "uint16"
        }
      ],
      "name": "beginSignerFeeDivisorUpdate",
      "outputs": [],
      "payable": false,
      "stateMutability": "nonpayable",
      "type": "function"
    },
    {
      "constant": false,
      "inputs": [],
      "name": "emergencyPauseNewDeposits",
      "outputs": [],
      "payable": false,
      "stateMutability": "nonpayable",
      "type": "function"
    },
    {
      "constant": true,
      "inputs": [],
      "name": "fetchRelayCurrentDifficulty",
      "outputs": [
        {
          "internalType": "uint256",
          "name": "",
          "type": "uint256"
        }
      ],
      "payable": false,
      "stateMutability": "view",
      "type": "function"
    },
    {
      "constant": true,
      "inputs": [],
      "name": "fetchRelayPreviousDifficulty",
      "outputs": [
        {
          "internalType": "uint256",
          "name": "",
          "type": "uint256"
        }
      ],
      "payable": false,
      "stateMutability": "view",
      "type": "function"
    },
    {
      "constant": false,
      "inputs": [],
      "name": "finalizeCollateralizationThresholdsUpdate",
      "outputs": [],
      "payable": false,
      "stateMutability": "nonpayable",
      "type": "function"
    },
    {
      "constant": false,
      "inputs": [],
      "name": "finalizeEthBtcPriceFeedAddition",
      "outputs": [],
      "payable": false,
      "stateMutability": "nonpayable",
      "type": "function"
    },
    {
      "constant": false,
      "inputs": [],
      "name": "finalizeKeepFactorySingleShotUpdate",
      "outputs": [],
      "payable": false,
      "stateMutability": "nonpayable",
      "type": "function"
    },
    {
      "constant": false,
      "inputs": [],
      "name": "finalizeLotSizesUpdate",
      "outputs": [],
      "payable": false,
      "stateMutability": "nonpayable",
      "type": "function"
    },
    {
      "constant": false,
      "inputs": [],
      "name": "finalizeSignerFeeDivisorUpdate",
      "outputs": [],
      "payable": false,
      "stateMutability": "nonpayable",
      "type": "function"
    },
    {
      "constant": true,
      "inputs": [],
      "name": "getAllowNewDeposits",
      "outputs": [
        {
          "internalType": "bool",
          "name": "",
          "type": "bool"
        }
      ],
      "payable": false,
      "stateMutability": "view",
      "type": "function"
    },
    {
      "constant": true,
      "inputs": [],
      "name": "getAllowedLotSizes",
      "outputs": [
        {
          "internalType": "uint64[]",
          "name": "",
          "type": "uint64[]"
        }
      ],
      "payable": false,
      "stateMutability": "view",
      "type": "function"
    },
    {
      "constant": true,
      "inputs": [],
      "name": "getGovernanceTimeDelay",
      "outputs": [
        {
          "internalType": "uint256",
          "name": "",
          "type": "uint256"
        }
      ],
      "payable": false,
      "stateMutability": "pure",
      "type": "function"
    },
    {
      "constant": true,
      "inputs": [],
      "name": "getInitialCollateralizedPercent",
      "outputs": [
        {
          "internalType": "uint16",
          "name": "",
          "type": "uint16"
        }
      ],
      "payable": false,
      "stateMutability": "view",
      "type": "function"
    },
    {
      "constant": true,
      "inputs": [],
      "name": "getMaximumLotSize",
      "outputs": [
        {
          "internalType": "uint256",
          "name": "",
          "type": "uint256"
        }
      ],
      "payable": false,
      "stateMutability": "view",
      "type": "function"
    },
    {
      "constant": true,
      "inputs": [],
      "name": "getMinimumLotSize",
      "outputs": [
        {
          "internalType": "uint256",
          "name": "",
          "type": "uint256"
        }
      ],
      "payable": false,
      "stateMutability": "view",
      "type": "function"
    },
    {
      "constant": true,
      "inputs": [],
      "name": "getNewDepositFeeEstimate",
      "outputs": [
        {
          "internalType": "uint256",
          "name": "",
          "type": "uint256"
        }
      ],
      "payable": false,
      "stateMutability": "view",
      "type": "function"
    },
    {
      "constant": true,
      "inputs": [],
      "name": "getPriceFeedGovernanceTimeDelay",
      "outputs": [
        {
          "internalType": "uint256",
          "name": "",
          "type": "uint256"
        }
      ],
      "payable": false,
      "stateMutability": "view",
      "type": "function"
    },
    {
      "constant": true,
      "inputs": [],
      "name": "getRemainingCollateralizationThresholdsUpdateTime",
      "outputs": [
        {
          "internalType": "uint256",
          "name": "",
          "type": "uint256"
        }
      ],
      "payable": false,
      "stateMutability": "view",
      "type": "function"
    },
    {
      "constant": true,
      "inputs": [],
      "name": "getRemainingEthBtcPriceFeedAdditionTime",
      "outputs": [
        {
          "internalType": "uint256",
          "name": "",
          "type": "uint256"
        }
      ],
      "payable": false,
      "stateMutability": "view",
      "type": "function"
    },
    {
      "constant": true,
      "inputs": [],
      "name": "getRemainingKeepFactorySingleShotUpdateTime",
      "outputs": [
        {
          "internalType": "uint256",
          "name": "",
          "type": "uint256"
        }
      ],
      "payable": false,
      "stateMutability": "view",
      "type": "function"
    },
    {
      "constant": true,
      "inputs": [],
      "name": "getRemainingLotSizesUpdateTime",
      "outputs": [
        {
          "internalType": "uint256",
          "name": "",
          "type": "uint256"
        }
      ],
      "payable": false,
      "stateMutability": "view",
      "type": "function"
    },
    {
      "constant": true,
      "inputs": [],
      "name": "getRemainingPauseTerm",
      "outputs": [
        {
          "internalType": "uint256",
          "name": "",
          "type": "uint256"
        }
      ],
      "payable": false,
      "stateMutability": "view",
      "type": "function"
    },
    {
      "constant": true,
      "inputs": [],
      "name": "getRemainingSignerFeeDivisorUpdateTime",
      "outputs": [
        {
          "internalType": "uint256",
          "name": "",
          "type": "uint256"
        }
      ],
      "payable": false,
      "stateMutability": "view",
      "type": "function"
    },
    {
      "constant": true,
      "inputs": [],
      "name": "getSeverelyUndercollateralizedThresholdPercent",
      "outputs": [
        {
          "internalType": "uint16",
          "name": "",
          "type": "uint16"
        }
      ],
      "payable": false,
      "stateMutability": "view",
      "type": "function"
    },
    {
      "constant": true,
      "inputs": [],
      "name": "getSignerFeeDivisor",
      "outputs": [
        {
          "internalType": "uint16",
          "name": "",
          "type": "uint16"
        }
      ],
      "payable": false,
      "stateMutability": "view",
      "type": "function"
    },
    {
      "constant": true,
      "inputs": [],
      "name": "getUndercollateralizedThresholdPercent",
      "outputs": [
        {
          "internalType": "uint16",
          "name": "",
          "type": "uint16"
        }
      ],
      "payable": false,
      "stateMutability": "view",
      "type": "function"
    },
    {
      "constant": false,
      "inputs": [
        {
          "internalType": "contract IBondedECDSAKeepFactory",
          "name": "_defaultKeepFactory",
          "type": "address"
        },
        {
          "internalType": "contract DepositFactory",
          "name": "_depositFactory",
          "type": "address"
        },
        {
          "internalType": "address payable",
          "name": "_masterDepositAddress",
          "type": "address"
        },
        {
          "internalType": "contract TBTCToken",
          "name": "_tbtcToken",
          "type": "address"
        },
        {
          "internalType": "contract TBTCDepositToken",
          "name": "_tbtcDepositToken",
          "type": "address"
        },
        {
          "internalType": "contract FeeRebateToken",
          "name": "_feeRebateToken",
          "type": "address"
        },
        {
          "internalType": "contract VendingMachine",
          "name": "_vendingMachine",
          "type": "address"
        },
        {
          "internalType": "uint16",
          "name": "_keepThreshold",
          "type": "uint16"
        },
        {
          "internalType": "uint16",
          "name": "_keepSize",
          "type": "uint16"
        }
      ],
      "name": "initialize",
      "outputs": [],
      "payable": false,
      "stateMutability": "nonpayable",
      "type": "function"
    },
    {
      "constant": true,
      "inputs": [
        {
          "internalType": "uint64",
          "name": "_lotSizeSatoshis",
          "type": "uint64"
        }
      ],
      "name": "isAllowedLotSize",
      "outputs": [
        {
          "internalType": "bool",
          "name": "",
          "type": "bool"
        }
      ],
      "payable": false,
      "stateMutability": "view",
      "type": "function"
    },
    {
      "constant": true,
      "inputs": [],
      "name": "isOwner",
      "outputs": [
        {
          "internalType": "bool",
          "name": "",
          "type": "bool"
        }
      ],
      "payable": false,
      "stateMutability": "view",
      "type": "function"
    },
    {
      "constant": true,
      "inputs": [],
      "name": "keepSize",
      "outputs": [
        {
          "internalType": "uint16",
          "name": "",
          "type": "uint16"
        }
      ],
      "payable": false,
      "stateMutability": "view",
      "type": "function"
    },
    {
      "constant": true,
      "inputs": [],
      "name": "keepThreshold",
      "outputs": [
        {
          "internalType": "uint16",
          "name": "",
          "type": "uint16"
        }
      ],
      "payable": false,
      "stateMutability": "view",
      "type": "function"
    },
    {
      "constant": false,
      "inputs": [],
      "name": "logCourtesyCalled",
      "outputs": [],
      "payable": false,
      "stateMutability": "nonpayable",
      "type": "function"
    },
    {
      "constant": false,
      "inputs": [
        {
          "internalType": "address",
          "name": "_keepAddress",
          "type": "address"
        }
      ],
      "name": "logCreated",
      "outputs": [],
      "payable": false,
      "stateMutability": "nonpayable",
      "type": "function"
    },
    {
      "constant": false,
      "inputs": [],
      "name": "logExitedCourtesyCall",
      "outputs": [],
      "payable": false,
      "stateMutability": "nonpayable",
      "type": "function"
    },
    {
      "constant": false,
      "inputs": [],
      "name": "logFraudDuringSetup",
      "outputs": [],
      "payable": false,
      "stateMutability": "nonpayable",
      "type": "function"
    },
    {
      "constant": false,
      "inputs": [
        {
          "internalType": "bytes32",
          "name": "_txid",
          "type": "bytes32"
        }
      ],
      "name": "logFunded",
      "outputs": [],
      "payable": false,
      "stateMutability": "nonpayable",
      "type": "function"
    },
    {
      "constant": false,
      "inputs": [
        {
          "internalType": "bytes",
          "name": "_abortOutputScript",
          "type": "bytes"
        }
      ],
      "name": "logFunderRequestedAbort",
      "outputs": [],
      "payable": false,
      "stateMutability": "nonpayable",
      "type": "function"
    },
    {
      "constant": false,
      "inputs": [
        {
          "internalType": "bytes32",
          "name": "_digest",
          "type": "bytes32"
        },
        {
          "internalType": "bytes32",
          "name": "_r",
          "type": "bytes32"
        },
        {
          "internalType": "bytes32",
          "name": "_s",
          "type": "bytes32"
        }
      ],
      "name": "logGotRedemptionSignature",
      "outputs": [],
      "payable": false,
      "stateMutability": "nonpayable",
      "type": "function"
    },
    {
      "constant": false,
      "inputs": [],
      "name": "logLiquidated",
      "outputs": [],
      "payable": false,
      "stateMutability": "nonpayable",
      "type": "function"
    },
    {
      "constant": false,
      "inputs": [
        {
          "internalType": "bytes32",
          "name": "_txid",
          "type": "bytes32"
        }
      ],
      "name": "logRedeemed",
      "outputs": [],
      "payable": false,
      "stateMutability": "nonpayable",
      "type": "function"
    },
    {
      "constant": false,
      "inputs": [
        {
          "internalType": "address",
          "name": "_requester",
          "type": "address"
        },
        {
          "internalType": "bytes32",
          "name": "_digest",
          "type": "bytes32"
        },
        {
          "internalType": "uint256",
          "name": "_utxoValue",
          "type": "uint256"
        },
        {
          "internalType": "bytes",
          "name": "_redeemerOutputScript",
          "type": "bytes"
        },
        {
          "internalType": "uint256",
          "name": "_requestedFee",
          "type": "uint256"
        },
        {
          "internalType": "bytes",
          "name": "_outpoint",
          "type": "bytes"
        }
      ],
      "name": "logRedemptionRequested",
      "outputs": [],
      "payable": false,
      "stateMutability": "nonpayable",
      "type": "function"
    },
    {
      "constant": false,
      "inputs": [
        {
          "internalType": "bytes32",
          "name": "_signingGroupPubkeyX",
          "type": "bytes32"
        },
        {
          "internalType": "bytes32",
          "name": "_signingGroupPubkeyY",
          "type": "bytes32"
        }
      ],
      "name": "logRegisteredPubkey",
      "outputs": [],
      "payable": false,
      "stateMutability": "nonpayable",
      "type": "function"
    },
    {
      "constant": false,
      "inputs": [],
      "name": "logSetupFailed",
      "outputs": [],
      "payable": false,
      "stateMutability": "nonpayable",
      "type": "function"
    },
    {
      "constant": false,
      "inputs": [
        {
          "internalType": "bool",
          "name": "_wasFraud",
          "type": "bool"
        }
      ],
      "name": "logStartedLiquidation",
      "outputs": [],
      "payable": false,
      "stateMutability": "nonpayable",
      "type": "function"
    },
    {
      "constant": true,
      "inputs": [],
      "name": "owner",
      "outputs": [
        {
          "internalType": "address",
          "name": "",
          "type": "address"
        }
      ],
      "payable": false,
      "stateMutability": "view",
      "type": "function"
    },
    {
      "constant": true,
      "inputs": [],
      "name": "priceFeed",
      "outputs": [
        {
          "internalType": "contract ISatWeiPriceFeed",
          "name": "",
          "type": "address"
        }
      ],
      "payable": false,
      "stateMutability": "view",
      "type": "function"
    },
    {
      "constant": false,
      "inputs": [],
      "name": "refreshMinimumBondableValue",
      "outputs": [],
      "payable": false,
      "stateMutability": "nonpayable",
      "type": "function"
    },
    {
      "constant": true,
      "inputs": [],
      "name": "relay",
      "outputs": [
        {
          "internalType": "contract IRelay",
          "name": "",
          "type": "address"
        }
      ],
      "payable": false,
      "stateMutability": "view",
      "type": "function"
    },
    {
      "constant": false,
      "inputs": [],
      "name": "renounceOwnership",
      "outputs": [],
      "payable": false,
      "stateMutability": "nonpayable",
      "type": "function"
    },
    {
      "constant": false,
      "inputs": [],
      "name": "resumeNewDeposits",
      "outputs": [],
      "payable": false,
      "stateMutability": "nonpayable",
      "type": "function"
    },
    {
      "constant": false,
      "inputs": [
        {
          "internalType": "address",
          "name": "newOwner",
          "type": "address"
        }
      ],
      "name": "transferOwnership",
      "outputs": [],
      "payable": false,
      "stateMutability": "nonpayable",
      "type": "function"
    },
    {
      "constant": false,
      "inputs": [
        {
          "internalType": "uint256",
          "name": "_oraclePrice",
          "type": "uint256"
        }
      ],
      "name": "setOraclePrice",
      "outputs": [],
      "payable": false,
      "stateMutability": "nonpayable",
      "type": "function"
    },
    {
      "constant": true,
      "inputs": [],
      "name": "fetchBitcoinPrice",
      "outputs": [
        {
          "internalType": "uint256",
          "name": "",
          "type": "uint256"
        }
      ],
      "payable": false,
      "stateMutability": "view",
      "type": "function"
    },
    {
      "constant": false,
      "inputs": [
        {
          "internalType": "address",
          "name": "_keepAddress",
          "type": "address"
        }
      ],
      "name": "setKeepAddress",
      "outputs": [],
      "payable": false,
      "stateMutability": "nonpayable",
      "type": "function"
    },
    {
      "constant": false,
      "inputs": [
        {
          "internalType": "uint64",
          "name": "",
          "type": "uint64"
        },
        {
          "internalType": "uint256",
          "name": "",
          "type": "uint256"
        }
      ],
      "name": "requestNewKeep",
      "outputs": [
        {
          "internalType": "address",
          "name": "_keepAddress",
          "type": "address"
        }
      ],
      "payable": true,
      "stateMutability": "payable",
      "type": "function"
    }
  ],
  "bytecode": "0x6000600255600b805462ffffff60201b19166607d000000000001761ffff60381b19166796000000000000001761ffff60481b1916697d0000000000000000001761ffff60581b19166b6e0000000000000000000000179055610140604052620186a06080908152620f424060a0526298968060c0526301312d0060e0526302faf080610100526305f5e100610120526200009f90600c9060066200017d565b506276a700601555601880546001600160a01b031916600717905564e8d4a51000601955348015620000d057600080fd5b50604051620040933803806200409383398181016040526040811015620000f657600080fd5b508051602090910151600080546001600160a01b0319163317808255604051849284926001600160a01b0316917f8be0079c531659141344cd1fd0a4f28419497f9722a3daafe3b4186f6b6457e0908290a3600480546001600160a01b039384166001600160a01b0319918216179091556005805492909316911617905550620002639050565b82805482825590600052602060002090600301600490048101928215620002275791602002820160005b83821115620001f057835183826101000a8154816001600160401b03021916908363ffffffff1602179055509260200192600801602081600701049283019260010302620001a7565b8015620002255782816101000a8154906001600160401b030219169055600801602081600701049283019260010302620001f0565b505b506200023592915062000239565b5090565b6200026091905b80821115620002355780546001600160401b031916815560010162000240565b90565b613e2080620002736000396000f3fe6080604052600436106103975760003560e01c806380f04b8c116101dc578063c074d55011610102578063dde3fdd2116100a0578063e9cfd4a31161006f578063e9cfd4a314610d10578063f2e7234714610d25578063f2fde38b14610d3a578063f760621e14610d6d57610397565b8063dde3fdd214610c91578063de1e57d014610cd1578063e2c50ad814610ce6578063e5426d2e14610cfb57610397565b8063cb277dfe116100dc578063cb277dfe14610b7b578063cd3a949014610bb6578063ce2c07ce14610bcb578063dab70cb114610c7c57610397565b8063c074d55014610b27578063c65cd86d14610b3c578063c8fba24314610b6657610397565b8063a28b79f11161017a578063adc3ef7011610149578063adc3ef7014610ad3578063ae7f4a5f14610ae8578063b59589d114610afd578063b792a38e14610b1257610397565b8063a28b79f114610a61578063a2cd75da14610a94578063a6c1691c14610aa9578063a831c81614610abe57610397565b80638da5cb5b116101b65780638da5cb5b146109ef5780638f32d59b14610a04578063987ecea714610a195780639ffb386214610a2e57610397565b806380f04b8c1461097e57806382f9196814610993578063869f9469146109bf57610397565b80632d00f1ee116102c157806364bdb6671161025f578063741bef1a1161022e578063741bef1a146108f95780637c33fc051461092a5780637c75b1151461093f5780637ed451a41461095457610397565b806364bdb667146108905780636e1ba283146108a55780636f4fef62146108cf578063715018a6146108e457610397565b80633ee850bc1161029b5780633ee850bc1461080c578063402b783d1461082157806349b647301461083657806360e98d591461086457610397565b80632d00f1ee146107b657806334d534a9146107cb5780633aac3467146107e057610397565b806318e647dd1161033957806322e5724c1161030857806322e5724c146106de5780632753d84b146106f3578063282bfd38146107085780632b155e371461073b57610397565b806318e647dd146104e3578063191d20321461063d5780631c52d90c1461065257806322a147e6146106c957610397565b8063086c9edd11610375578063086c9edd1461042b5780630af488f9146104905780630ce0e700146104a55780630d7eb1c4146104ba57610397565b8063013b0f301461039c578063022d44b7146103c357806307a3d659146103f8575b600080fd5b3480156103a857600080fd5b506103b1610da3565b60408051918252519081900360200190f35b3480156103cf57600080fd5b506103f6600480360360208110156103e657600080fd5b50356001600160a01b0316610e44565b005b34801561040457600080fd5b506103f66004803603602081101561041b57600080fd5b50356001600160a01b0316610e66565b34801561043757600080fd5b50610440610fcd565b60408051602080825283518183015283519192839290830191858101910280838360005b8381101561047c578181015183820152602001610464565b505050509050019250505060405180910390f35b34801561049c57600080fd5b506103b1611057565b3480156104b157600080fd5b506103f6611067565b3480156104c657600080fd5b506104cf6111bf565b604080519115158252519081900360200190f35b3480156104ef57600080fd5b506103f6600480360360c081101561050657600080fd5b6001600160a01b038235169160208101359160408201359190810190608081016060820135600160201b81111561053c57600080fd5b82018360208201111561054e57600080fd5b803590602001918460018302840111600160201b8311171561056f57600080fd5b91908080601f01602080910402602001604051908101604052809392919081815260200183838082843760009201919091525092958435959094909350604081019250602001359050600160201b8111156105c957600080fd5b8201836020820111156105db57600080fd5b803590602001918460018302840111600160201b831117156105fc57600080fd5b91908080601f0160208091040260200160405190810160405280939291908181526020018383808284376000920191909152509295506111cf945050505050565b34801561064957600080fd5b506103b1611340565b34801561065e57600080fd5b506103f6600480360361012081101561067657600080fd5b506001600160a01b038135811691602081013582169160408201358116916060810135821691608082013581169160a081013582169160c0820135169061ffff60e0820135811691610100013516611351565b3480156106d557600080fd5b506103f66115ab565b3480156106ea57600080fd5b506103f6611627565b3480156106ff57600080fd5b506103b16116a3565b34801561071457600080fd5b506103f66004803603602081101561072b57600080fd5b50356001600160a01b03166116e5565b34801561074757600080fd5b506103f66004803603602081101561075e57600080fd5b810190602081018135600160201b81111561077857600080fd5b82018360208201111561078a57600080fd5b803590602001918460208302840111600160201b831117156107ab57600080fd5b50909250905061176c565b3480156107c257600080fd5b506103b1611acd565b3480156107d757600080fd5b506103b1611bc4565b3480156107ec57600080fd5b506103f66004803603602081101561080357600080fd5b50351515611bd4565b34801561081857600080fd5b506103b1611c56565b34801561082d57600080fd5b506103b1611c67565b34801561084257600080fd5b506103f66004803603602081101561085957600080fd5b503561ffff16611cdd565b34801561087057600080fd5b50610879611e03565b6040805161ffff9092168252519081900360200190f35b34801561089c57600080fd5b50610879611e16565b3480156108b157600080fd5b506103f6600480360360208110156108c857600080fd5b5035611e20565b3480156108db57600080fd5b50610879611e9e565b3480156108f057600080fd5b506103f6611eaf565b34801561090557600080fd5b5061090e611f40565b604080516001600160a01b039092168252519081900360200190f35b34801561093657600080fd5b506103f6611f4f565b34801561094b57600080fd5b506103f66120a2565b34801561096057600080fd5b506103f66004803603602081101561097757600080fd5b5035612148565b34801561098a57600080fd5b506103f66121c6565b61090e600480360360408110156109a957600080fd5b506001600160401b0381351690602001356122db565b3480156109cb57600080fd5b506103f6600480360360408110156109e257600080fd5b50803590602001356122ee565b3480156109fb57600080fd5b5061090e612378565b348015610a1057600080fd5b506104cf612387565b348015610a2557600080fd5b50610879612398565b348015610a3a57600080fd5b506104cf60048036036020811015610a5157600080fd5b50356001600160a01b03166123a9565b348015610a6d57600080fd5b506104cf60048036036020811015610a8457600080fd5b50356001600160401b031661242e565b348015610aa057600080fd5b5061087961249b565b348015610ab557600080fd5b506103b16124ac565b348015610aca57600080fd5b506103f66124b2565b348015610adf57600080fd5b506103f661252e565b348015610af457600080fd5b506103b16126d8565b348015610b0957600080fd5b5061090e6126de565b348015610b1e57600080fd5b506103b16126ed565b348015610b3357600080fd5b506103b16126fe565b348015610b4857600080fd5b506103f660048036036020811015610b5f57600080fd5b503561270f565b348015610b7257600080fd5b506103f6612714565b348015610b8757600080fd5b506103f660048036036040811015610b9e57600080fd5b506001600160a01b0381358116916020013516612790565b348015610bc257600080fd5b506103f6612942565b348015610bd757600080fd5b506103f660048036036020811015610bee57600080fd5b810190602081018135600160201b811115610c0857600080fd5b820183602082011115610c1a57600080fd5b803590602001918460018302840111600160201b83111715610c3b57600080fd5b91908080601f016020809104026020016040519081016040528093929190818152602001838380828437600092019190915250929550612b06945050505050565b348015610c8857600080fd5b506103b1612be6565b348015610c9d57600080fd5b506103f660048036036060811015610cb457600080fd5b5061ffff8135811691602081013582169160409091013516612c2b565b348015610cdd57600080fd5b506103f6612e18565b348015610cf257600080fd5b506103f6612fc5565b348015610d0757600080fd5b50610879613041565b348015610d1c57600080fd5b506103f6613051565b348015610d3157600080fd5b506103b16131ec565b348015610d4657600080fd5b506103f660048036036020811015610d5d57600080fd5b50356001600160a01b03166131f3565b348015610d7957600080fd5b506103f660048036036060811015610d9057600080fd5b5080359060208101359060400135613246565b600b54600090600160201b900460ff1615610def5760405162461bcd60e51b8152600401808060200182810382526022815260200180613d076022913960400191505060405180910390fd5b620d2f00610e08600354426132d290919063ffffffff16565b1015610e3b57610e36610e26600354426132d290919063ffffffff16565b620d2f009063ffffffff6132d216565b610e3e565b60005b90505b90565b601880546001600160a01b0319166001600160a01b0392909216919091179055565b610e6e612387565b610ead576040805162461bcd60e51b81526020600482018190526024820152600080516020613c39833981519152604482015290519081900360640190fd5b6000816001600160a01b03166359e02dd76040518163ffffffff1660e01b8152600401604080518083038186803b158015610ee757600080fd5b505afa158015610efb573d6000803e3d6000fd5b505050506040513d6040811015610f1157600080fd5b5060200151905080610f6a576040805162461bcd60e51b815260206004820152601860248201527f43616e6e6f742061646420696e61637469766520666565640000000000000000604482015290519081900360640190fd5b601780546001600160a01b0319166001600160a01b03841690811790915542601681905560408051928352602083019190915280517f5a3d3d9197f5c60c16de28887dccf83284a4fd034b930272637c83307b4fffe79281900390910190a15050565b6060600c80548060200260200160405190810160405280929190818152602001828054801561104d57602002820191906000526020600020906000905b82829054906101000a90046001600160401b03166001600160401b03168152602001906008019060208260070104928301926001038202915080841161100a5790505b5050505050905090565b6000610e3e60165460155461332f565b61106f612387565b6110ae576040805162461bcd60e51b81526020600482018190526024820152600080516020613c39833981519152604482015290519081900360640190fd5b600d546202a30060008211611101576040805162461bcd60e51b815260206004820152601460248201527310da185b99d9481b9bdd081a5b9a5d1a585d195960621b604482015290519081900360640190fd5b80611112428463ffffffff6132d216565b1015611153576040805162461bcd60e51b81526020600482018190526024820152600080516020613c19833981519152604482015290519081900360640190fd5b601154600b80546501000000000061ffff90931692830266ffff00000000001990911617905560408051918252517f236dec26d53c6a51390e98ed703106e132fd062b0e38b8a9cf8b4d13f47952c89181900360200190a150506011805461ffff191690556000600d55565b600b54600160201b900460ff1690565b6111d8336123a9565b6112135760405162461bcd60e51b8152600401808060200182810382526024815260200180613ac56024913960400191505060405180910390fd5b84866001600160a01b0316336001600160a01b03167f7959c380174061a21a3ba80243a032ba9cd10dc8bd1736d7e835c94e97a35a9887878787604051808581526020018060200184815260200180602001838103835286818151815260200191508051906020019080838360005b8381101561129a578181015183820152602001611282565b50505050905090810190601f1680156112c75780820380516001836020036101000a031916815260200191505b50838103825284518152845160209182019186019080838360005b838110156112fa5781810151838201526020016112e2565b50505050905090810190601f1680156113275780820380516001836020036101000a031916815260200191505b50965050505050505060405180910390a4505050505050565b6000610e3e6010546202a30061332f565b611359612387565b611398576040805162461bcd60e51b81526020600482018190526024820152600080516020613c39833981519152604482015290519081900360640190fd5b600254156113e3576040805162461bcd60e51b8152602060048201526013602482015272185b1c9958591e481a5b9a5d1a585b1a5e9959606a1b604482015290519081900360640190fd5b6040805163e8e08cf160e01b8152600660048201526001600160a01b038b166024820152905173__KeepFactorySelection__________________9163e8e08cf1916044808301926000929190829003018186803b15801561144457600080fd5b505af4158015611458573d6000803e3d6000fd5b5050600b805461ffff85811661ffff19918816620100000263ffff0000199093169290921716179055505060408051630d4815e560e21b81526001600160a01b0388811660048301528781166024830152868116604483015291519185169163352057949160648082019260009290919082900301818387803b1580156114de57600080fd5b505af11580156114f2573d6000803e3d6000fd5b50506040805163bbe2bbd560e01b81526001600160a01b038b811660048301523060248301528a811660448301528981166064830152888116608483015287811660a48301529151918c16935063bbe2bbd5925060c48082019260009290919082900301818387803b15801561156757600080fd5b505af115801561157b573d6000803e3d6000fd5b50505050611588856133b9565b5050426002555050600b805464ff000000001916600160201b1790555050505050565b6115b4336123a9565b6115ef5760405162461bcd60e51b8152600401808060200182810382526024815260200180613ac56024913960400191505060405180910390fd5b60408051428152905133917f6e7b45210b79c12cd1332babd8d86c0bbb9ca898a89ce0404f17064dbfba18c0919081900360200190a2565b611630336123a9565b61166b5760405162461bcd60e51b8152600401808060200182810382526024815260200180613ac56024913960400191505060405180910390fd5b60408051428152905133917f07f0eaafadb9abb1d28da85d4b4c74f1939fd61b535c7f5ab501f618f07e76ee919081900360200190a2565b600c80546000919060001981019081106116b957fe5b6000918252602090912060048204015460039091166008026101000a90046001600160401b0316919050565b6116ee336123a9565b6117295760405162461bcd60e51b8152600401808060200182810382526024815260200180613ac56024913960400191505060405180910390fd5b6040805142815290516001600160a01b0383169133917f822b3073be62c5c7f143c2dcd71ee266434ee935d90a1eec3be34710ac8ec1a29181900360200190a350565b611774612387565b6117b3576040805162461bcd60e51b81526020600482018190526024820152600080516020613c39833981519152604482015290519081900360640190fd5b6000805b82811015611a0f578383828181106117cb57fe5b905060200201356001600160401b03166001600160401b03166305f5e10014156117f85760019150611a07565b61c35084848381811061180757fe5b905060200201356001600160401b03166001600160401b0316101561185d5760405162461bcd60e51b815260040180806020018281038252602e815260200180613b5a602e913960400191505060405180910390fd5b6402540be40084848381811061186f57fe5b905060200201356001600160401b03166001600160401b031611156118c55760405162461bcd60e51b815260040180806020018281038252602e815260200180613cd9602e913960400191505060405180910390fd5b60008111801561191f57508383600183038181106118df57fe5b905060200201356001600160401b03166001600160401b031684848381811061190457fe5b905060200201356001600160401b03166001600160401b0316145b1561195b5760405162461bcd60e51b8152600401808060200182810382526027815260200180613b336027913960400191505060405180910390fd5b6000811180156119b5575083836001830381811061197557fe5b905060200201356001600160401b03166001600160401b031684848381811061199a57fe5b905060200201356001600160401b03166001600160401b0316105b15611a07576040805162461bcd60e51b815260206004820152601d60248201527f4c6f742073697a65206172726179206d75737420626520736f72746564000000604482015290519081900360640190fd5b6001016117b7565b5080611a4c5760405162461bcd60e51b8152600401808060200182810382526028815260200180613c596028913960400191505060405180910390fd5b7fffb1e2bce3c7a63d0cac5492540bd370e1156621adde36cd481262c2846a2b7b83834260405180806020018381526020018281038252858582818152602001925060200280828437600083820152604051601f909101601f1916909201829003965090945050505050a1611ac36012848461386a565b505042600e555050565b600080600673__KeepFactorySelection__________________63d83d44b090916040518263ffffffff1660e01b81526004018082815260200191505060206040518083038186803b158015611b2257600080fd5b505af4158015611b36573d6000803e3d6000fd5b505050506040513d6020811015611b4c57600080fd5b50516040805163bc2c289f60e01b815290519192506001600160a01b0383169163bc2c289f91600480820192602092909190829003018186803b158015611b9257600080fd5b505afa158015611ba6573d6000803e3d6000fd5b505050506040513d6020811015611bbc57600080fd5b505191505090565b6000600c6000815481106116b957fe5b611bdd336123a9565b611c185760405162461bcd60e51b8152600401808060200182810382526024815260200180613ac56024913960400191505060405180910390fd5b604080518215158152426020820152815133927fbef11c059eefba82a15aea8a3a89c86fd08d7711c88fa7daea2632a55488510c928290030190a250565b6000610e3e600e546202a30061332f565b60055460408051630ae5ef8960e21b815290516000926001600160a01b031691632b97be24916004808301926020929190829003018186803b158015611cac57600080fd5b505afa158015611cc0573d6000803e3d6000fd5b505050506040513d6020811015611cd657600080fd5b5051905090565b611ce5612387565b611d24576040805162461bcd60e51b81526020600482018190526024820152600080516020613c39833981519152604482015290519081900360640190fd5b60098161ffff1611611d675760405162461bcd60e51b815260040180806020018281038252604a815260200180613ae9604a913960600191505060405180910390fd5b6113888161ffff1610611dab5760405162461bcd60e51b815260040180806020018281038252604b815260200180613d55604b913960600191505060405180910390fd5b6011805461ffff191661ffff831690811790915542600d81905560408051928352602083019190915280517f38cb7049f0daf658ca989e9ef6b850ef11e3740ff07a0c16706042c39adf48fc9281900390910190a150565b600b5465010000000000900461ffff1690565b600b5461ffff1681565b611e29336123a9565b611e645760405162461bcd60e51b8152600401808060200182810382526024815260200180613ac56024913960400191505060405180910390fd5b604080514281529051829133917f44b7f176bcc739b54bd0800fe491cbdea19df7d4d6b19c281462e6b4fc5043449181900360200190a350565b600b54600160581b900461ffff1690565b611eb7612387565b611ef6576040805162461bcd60e51b81526020600482018190526024820152600080516020613c39833981519152604482015290519081900360640190fd5b600080546040516001600160a01b03909116907f8be0079c531659141344cd1fd0a4f28419497f9722a3daafe3b4186f6b6457e0908390a3600080546001600160a01b0319169055565b6004546001600160a01b031681565b600b54600160201b900460ff1615611f985760405162461bcd60e51b8152600401808060200182810382526022815260200180613d076022913960400191505060405180910390fd5b600354611fec576040805162461bcd60e51b815260206004820152601b60248201527f4465706f73697420686173206e6f74206265656e207061757365640000000000604482015290519081900360640190fd5b620d2f00612005600354426132d290919063ffffffff16565b1015612058576040805162461bcd60e51b815260206004820152601960248201527f4465706f7369747320617265207374696c6c2070617573656400000000000000604482015290519081900360640190fd5b600b805464ff000000001916600160201b179055604080516001815290517f3a854be74be62dd3ba5f0fdb7aa5b535683f999e90cda09ba75a2d99b27225239181900360200190a1565b73__KeepFactorySelection__________________63e33cd97160066120ce6120c9611bc4565b613439565b600b54604080516001600160e01b031960e087901b1681526004810194909452602484019290925261ffff808216604485015262010000909104166064830152516084808301926000929190829003018186803b15801561212e57600080fd5b505af4158015612142573d6000803e3d6000fd5b50505050565b612151336123a9565b61218c5760405162461bcd60e51b8152600401808060200182810382526024815260200180613ac56024913960400191505060405180910390fd5b604080514281529051829133917fe34c70bd3e03956978a5c76d2ea5f3a60819171afea6dee4fc12b2e45f72d43d9181900360200190a350565b6121ce612387565b61220d576040805162461bcd60e51b81526020600482018190526024820152600080516020613c39833981519152604482015290519081900360640190fd5b6003541561224c5760405162461bcd60e51b81526004018080602001828103825260318152602001806139f26031913960400191505060405180910390fd5b600254420362ed4e0081106122925760405162461bcd60e51b815260040180806020018281038252604e815260200180613a23604e913960600191505060405180910390fd5b42600355600b805464ff0000000019169055604080516000815290517f3a854be74be62dd3ba5f0fdb7aa5b535683f999e90cda09ba75a2d99b27225239181900360200190a150565b6018546001600160a01b03165b92915050565b6122f7336123a9565b6123325760405162461bcd60e51b8152600401808060200182810382526024815260200180613ac56024913960400191505060405180910390fd5b60408051838152602081018390524281830152905133917f8ee737ab16909c4e9d1b750814a4393c9f84ab5d3a29c08c313b783fc846ae33919081900360600190a25050565b6000546001600160a01b031690565b6000546001600160a01b0316331490565b600b54600160381b900461ffff1690565b60015460408051634f558e7960e01b81526001600160a01b03848116600483015291516000939290921691634f558e7991602480820192602092909190829003018186803b1580156123fa57600080fd5b505afa15801561240e573d6000803e3d6000fd5b505050506040513d602081101561242457600080fd5b505190505b919050565b6000805b600c5481101561249257826001600160401b0316600c828154811061245357fe5b6000918252602090912060048204015460039091166008026101000a90046001600160401b0316141561248a576001915050612429565b600101612432565b50600092915050565b600b54600160481b900461ffff1690565b60195490565b6124bb336123a9565b6124f65760405162461bcd60e51b8152600401808060200182810382526024815260200180613ac56024913960400191505060405180910390fd5b60408051428152905133917f8fd2cfb62a35fccc1ecef829f83a6c2f840b73dad49d3eaaa402909752086d4b919081900360200190a2565b612536612387565b612575576040805162461bcd60e51b81526020600482018190526024820152600080516020613c39833981519152604482015290519081900360640190fd5b601654601554600082116125c7576040805162461bcd60e51b815260206004820152601460248201527310da185b99d9481b9bdd081a5b9a5d1a585d195960621b604482015290519081900360640190fd5b806125d8428463ffffffff6132d216565b1015612619576040805162461bcd60e51b81526020600482018190526024820152600080516020613c19833981519152604482015290519081900360640190fd5b601780546001600160a01b0319811690915560006016819055600480546040805163d14dd41360e01b81526001600160a01b03958616938101849052905192949091169263d14dd4139260248084019382900301818387803b15801561267e57600080fd5b505af1158015612692573d6000803e3d6000fd5b5050604080516001600160a01b038516815290517f5e4bd1f6e413d39e172d96a88ee6b1b2ba9e1a6207e2ca34fa8c3ccd152ff21a9350908190036020019150a1505050565b60155490565b6005546001600160a01b031681565b6000610e3e600d546202a30061332f565b6000610e3e600f546202a30061332f565b601955565b61271d336123a9565b6127585760405162461bcd60e51b8152600401808060200182810382526024815260200180613ac56024913960400191505060405180910390fd5b60408051428152905133917fa5ee7a2b0254fce91deed604506790ed7fa072d0b14cba4859c3bc8955b9caac919081900360200190a2565b612798612387565b6127d7576040805162461bcd60e51b81526020600482018190526024820152600080516020613c39833981519152604482015290519081900360640190fd5b6010541515806127f057506014546001600160a01b0316155b61282b5760405162461bcd60e51b815260040180806020018281038252602a815260200180613bce602a913960400191505060405180910390fd5b6001600160a01b0382166128705760405162461bcd60e51b815260040180806020018281038252602a815260200180613caf602a913960400191505060405180910390fd5b6001600160a01b0381166128b55760405162461bcd60e51b815260040180806020018281038252602c815260200180613d29602c913960400191505060405180910390fd5b601380546601000000000000600160d01b031916600160301b6001600160a01b0385811691820292909217909255601480546001600160a01b031916918416918217905542601081905560408051938452602084019290925282820152517fdc461af7d95f963ea23749952c5e95648f5f7c79116442e5a1a7010259e88548916060908290030190a15050565b61294a612387565b612989576040805162461bcd60e51b81526020600482018190526024820152600080516020613c39833981519152604482015290519081900360640190fd5b600e546202a300600082116129dc576040805162461bcd60e51b815260206004820152601460248201527310da185b99d9481b9bdd081a5b9a5d1a585d195960621b604482015290519081900360640190fd5b806129ed428463ffffffff6132d216565b1015612a2e576040805162461bcd60e51b81526020600482018190526024820152600080516020613c19833981519152604482015290519081900360640190fd5b60128054612a3e91600c9161392b565b507fa801e49d33e856d89d06e647753d9d9dda3d0b0520c4346290ada455a00cafcc601260405180806020018281038252838181548152602001915080548015612ad957602002820191906000526020600020906000905b82829054906101000a90046001600160401b03166001600160401b031681526020019060080190602082600701049283019260010382029150808411612a965790505b50509250505060405180910390a16000600e819055612af9601282613979565b50612b026120a2565b5050565b612b0f336123a9565b612b4a5760405162461bcd60e51b8152600401808060200182810382526024815260200180613ac56024913960400191505060405180910390fd5b604080516020808252835181830152835133937fa6e9673b5d53b3fe3c62b6459720f9c2a1b129d4f69acb771404ba8681b6a9309386939092839283019185019080838360005b83811015612ba9578181015183820152602001612b91565b50505050905090810190601f168015612bd65780820380516001836020036101000a031916815260200191505b509250505060405180910390a250565b6005546040805163089bb25f60e11b815290516000926001600160a01b03169163113764be916004808301926020929190829003018186803b158015611cac57600080fd5b612c33612387565b612c72576040805162461bcd60e51b81526020600482018190526024820152600080516020613c39833981519152604482015290519081900360640190fd5b61012c8361ffff161115612cb75760405162461bcd60e51b815260040180806020018281038252602e815260200180613c81602e913960400191505060405180910390fd5b60648361ffff1611612cfa5760405162461bcd60e51b815260040180806020018281038252602e815260200180613a97602e913960400191505060405180910390fd5b8161ffff168361ffff1611612d405760405162461bcd60e51b8152600401808060200182810382526046815260200180613b886046913960600191505060405180910390fd5b8061ffff168261ffff1611612d865760405162461bcd60e51b815260040180806020018281038252604c815260200180613da0604c913960600191505060405180910390fd5b6013805461ffff191661ffff85811691821763ffff00001916620100008683169081029190911765ffff000000001916600160201b9286169283021790935542600f81905560408051938452602084019490945282840191909152606082015290517fc9e225c2db3e9f70966e6c0403de785bcda0172ec4e41111a6e8f4b85b1f30fb916080908290030190a1505050565b612e20612387565b612e5f576040805162461bcd60e51b81526020600482018190526024820152600080516020613c39833981519152604482015290519081900360640190fd5b600f546202a30060008211612eb2576040805162461bcd60e51b815260206004820152601460248201527310da185b99d9481b9bdd081a5b9a5d1a585d195960621b604482015290519081900360640190fd5b80612ec3428463ffffffff6132d216565b1015612f04576040805162461bcd60e51b81526020600482018190526024820152600080516020613c19833981519152604482015290519081900360640190fd5b601354600b805468ffff00000000000000191661ffff808416600160381b8102929092176affff00000000000000000019166201000085048216600160481b81029190911761ffff60581b1916600160201b90950491909116600160581b81029490941790925560408051918252602082019290925280820192909252517f07ac9ce7dc4b2edb6435fb2255e9e867f357ef2052b982ce468442aa9d6c1d50916060908290030190a150506013805465ffffffffffff191690556000600f55565b612fce336123a9565b6130095760405162461bcd60e51b8152600401808060200182810382526024815260200180613ac56024913960400191505060405180910390fd5b60408051428152905133917f1e61af503f1d7de21d5300094c18bf8700f82b2951a4d54dd2adda13f6b3da30919081900360200190a2565b600b5462010000900461ffff1681565b613059612387565b613098576040805162461bcd60e51b81526020600482018190526024820152600080516020613c39833981519152604482015290519081900360640190fd5b6010546202a300600082116130eb576040805162461bcd60e51b815260206004820152601460248201527310da185b99d9481b9bdd081a5b9a5d1a585d195960621b604482015290519081900360640190fd5b806130fc428463ffffffff6132d216565b101561313d576040805162461bcd60e51b81526020600482018190526024820152600080516020613c19833981519152604482015290519081900360640190fd5b60135461315c90600690600160301b90046001600160a01b031661348b565b60145461317a906006906001600160a01b031663ffffffff61355d16565b60135460145460408051600160301b9093046001600160a01b039081168452909116602083015280517f39b37f415e2f67e47284ea76be07eb83aea456a7f5457474f09e078d69a7c0279281900390910190a150506000601055601380546601000000000000600160d01b0319169055565b6202a30090565b6131fb612387565b61323a576040805162461bcd60e51b81526020600482018190526024820152600080516020613c39833981519152604482015290519081900360640190fd5b6132438161362f565b50565b61324f336123a9565b61328a5760405162461bcd60e51b8152600401808060200182810382526024815260200180613ac56024913960400191505060405180910390fd5b604080518381526020810183905242818301529051849133917f7f7d7327762d01d2c4a552ea0be2bc5a76264574a80aa78083e691a840e509f29181900360600190a3505050565b600082821115613329576040805162461bcd60e51b815260206004820152601e60248201527f536166654d6174683a207375627472616374696f6e206f766572666c6f770000604482015290519081900360640190fd5b50900390565b600080831161337c576040805162461bcd60e51b8152602060048201526014602482015273155c19185d19481b9bdd081a5b9a5d1a585d195960621b604482015290519081900360640190fd5b600061338e428563ffffffff6132d216565b90508281106133a15760009150506122e8565b6133b1838263ffffffff6132d216565b9150506122e8565b6001546001600160a01b031615613417576040805162461bcd60e51b815260206004820152601f60248201527f746274634465706f736974546f6b656e20697320616c72656164792073657400604482015290519081900360640190fd5b600180546001600160a01b0319166001600160a01b0392909216919091179055565b600b54600090819061346a9060649061345e908690600160381b900461ffff166136cf565b9063ffffffff61372816565b905061348481613478613792565b9063ffffffff6136cf16565b9392505050565b60028201546001600160a01b0316156134eb576040805162461bcd60e51b815260206004820152601c60248201527f466163746f72792073656c6563746f7220616c72656164792073657400000000604482015290519081900360640190fd5b6001600160a01b038116613538576040805162461bcd60e51b815260206004820152600f60248201526e496e76616c6964206164647265737360881b604482015290519081900360640190fd5b60029190910180546001600160a01b0319166001600160a01b03909216919091179055565b60048201546001600160a01b0316156135bd576040805162461bcd60e51b815260206004820181905260248201527f46756c6c79206261636b656420666163746f727920616c726561647920736574604482015290519081900360640190fd5b6001600160a01b03811661360a576040805162461bcd60e51b815260206004820152600f60248201526e496e76616c6964206164647265737360881b604482015290519081900360640190fd5b60049190910180546001600160a01b0319166001600160a01b03909216919091179055565b6001600160a01b0381166136745760405162461bcd60e51b8152600401808060200182810382526026815260200180613a716026913960400191505060405180910390fd5b600080546040516001600160a01b03808516939216917f8be0079c531659141344cd1fd0a4f28419497f9722a3daafe3b4186f6b6457e091a3600080546001600160a01b0319166001600160a01b0392909216919091179055565b6000826136de575060006122e8565b828202828482816136eb57fe5b04146134845760405162461bcd60e51b8152600401808060200182810382526021815260200180613bf86021913960400191505060405180910390fd5b600080821161377e576040805162461bcd60e51b815260206004820152601a60248201527f536166654d6174683a206469766973696f6e206279207a65726f000000000000604482015290519081900360640190fd5b600082848161378957fe5b04949350505050565b6004805460408051634c6afee560e11b8152905160009384936001600160a01b0316926398d5fdca9281830192602092829003018186803b1580156137d657600080fd5b505afa1580156137ea573d6000803e3d6000fd5b505050506040513d602081101561380057600080fd5b505190508015806138185750670de0b6b3a764000081115b15610e3e576040805162461bcd60e51b815260206004820152601b60248201527f53797374656d2072657475726e65642061206261642070726963650000000000604482015290519081900360640190fd5b8280548282559060005260206000209060030160049004810192821561391b5791602002820160005b838211156138e65783356001600160401b031683826101000a8154816001600160401b0302191690836001600160401b031602179055509260200192600801602081600701049283019260010302613893565b80156139195782816101000a8154906001600160401b0302191690556008016020816007010492830192600103026138e6565b505b506139279291506139b2565b5090565b8280548282559060005260206000209060030160049004810192821561391b576000526020600020916003016004900482015b8281111561391b57825482559160010191906001019061395e565b8154818355818111156139ad5760030160049004816003016004900483600052602060002091820191016139ad91906139d7565b505050565b610e4191905b8082111561392757805467ffffffffffffffff191681556001016139b8565b610e4191905b8082111561392757600081556001016139dd56fe656d657267656e637950617573654e65774465706f736974732063616e206f6e6c792062652063616c6c6564206f6e6365656d657267656e637950617573654e65774465706f736974732063616e206f6e6c792062652063616c6c65642077697468696e203138302064617973206f6620696e697469616c697a6174696f6e4f776e61626c653a206e6577206f776e657220697320746865207a65726f2061646472657373496e697469616c20636f6c6c61746572616c697a65642070657263656e74206d757374206265203e3d203130302543616c6c6572206973206e6f7420617070726f76656420746f206c6f67206576656e74735369676e6572206665652064697669736f72206d7573742062652067726561746572207468616e20392c20666f722061207369676e6572206665652074686174206973203c3d203130254c6f742073697a65206172726179206d757374206e6f742068617665206475706c6963617465734c6f742073697a6573206c657373207468616e20302e303030352042544320617265206e6f7420616c6c6f776564556e646572636f6c6c61746572616c697a6564207468726573686f6c64206d757374206265203c20696e697469616c20636f6c6c61746572616c697a65642070657263656e744b65657020666163746f727920646174612063616e206f6e6c792062652075706461746564206f6e6365536166654d6174683a206d756c7469706c69636174696f6e206f766572666c6f77476f7665726e616e63652064656c617920686173206e6f7420656c61707365644f776e61626c653a2063616c6c6572206973206e6f7420746865206f776e65724c6f742073697a65206172726179206d75737420616c7761797320636f6e7461696e203120425443496e697469616c20636f6c6c61746572616c697a65642070657263656e74206d757374206265203c3d2033303025466163746f72792073656c6563746f72206d7573742062652061206e6f6e7a65726f20616464726573734c6f742073697a65732067726561746572207468616e203130302042544320617265206e6f7420616c6c6f7765644e6577206465706f73697473206172652063757272656e746c7920616c6c6f7765644554482d6261636b656420666163746f7279206d7573742062652061206e6f6e7a65726f20616464726573735369676e6572206665652064697669736f72206d757374206265206c657373207468616e20353030302c20666f722061207369676e6572206665652074686174206973203e20302e30322553657665726520756e646572636f6c6c61746572616c697a6564207468726573686f6c64206d757374206265203c20756e646572636f6c6c61746572616c697a6564207468726573686f6c64a265627a7a72315820945a9964d0a7fb779188a9cd3fa5b09f2940afc44b4609c79a5680bfa9f30ae864736f6c63430005110032",
  "source": "pragma solidity 0.5.17;\n\nimport {TBTCSystem} from \"../../../contracts/system/TBTCSystem.sol\";\n\ncontract TBTCSystemStub is TBTCSystem {\n    address keepAddress = address(7);\n    uint256 oraclePrice = 10 ** 12;\n\n    constructor(address _priceFeed, address _relay)\n        // Set expected factory address to 0-address.\n        // Address is irelevant as test use forceMint function to bypass ACL\n        TBTCSystem(_priceFeed, _relay)\n    public {\n        // solium-disable-previous-line no-empty-blocks\n    }\n\n    function setOraclePrice(uint256 _oraclePrice) external {\n        oraclePrice = _oraclePrice;\n    }\n\n    /// @dev Override TBTCSystem.fetchBitcoinPrice, don't call out to the price feed.\n    function fetchBitcoinPrice() external view returns (uint256) {\n        return oraclePrice;\n    }\n\n    function setKeepAddress(address _keepAddress) external {\n        keepAddress = _keepAddress;\n    }\n\n    function requestNewKeep(uint64, uint256) external payable returns (address _keepAddress) {\n        return keepAddress;\n    }\n}\n",
  "sourcePath": "/Users/symf/IdeaProjects/tbtc/solidity/contracts/test/system/TBTCSystemStub.sol",
  "compiler": {
    "name": "solc",
    "version": "0.5.17+commit.d19bba13.Emscripten.clang"
  },
  "schemaVersion": "3.0.23",
  "updatedAt": "2020-08-21T21:24:02.922Z",
  "devdoc": {
    "methods": {
      "approvedToLog(address)": {
        "details": "checks tbtcDepositToken to see if the caller represents                     an existing deposit.                     We don't require this, so deposits are not bricked if the system borks.",
        "params": {
          "_caller": "The address of the calling contract."
        },
        "return": "True if approved, otherwise false."
      },
      "beginCollateralizationThresholdsUpdate(uint16,uint16,uint16)": {
        "details": "This can be finalized by calling `finalizeCollateralizationThresholdsUpdate`         Anytime after `governanceTimeDelay` has elapsed.",
        "params": {
          "_initialCollateralizedPercent": "default signing bond percent for new deposits",
          "_severelyUndercollateralizedThresholdPercent": "second undercollateralization trigger",
          "_undercollateralizedThresholdPercent": "first undercollateralization trigger"
        }
      },
      "beginEthBtcPriceFeedAddition(address)": {
        "details": "This can be finalized by calling `finalizeEthBtcPriceFeedAddition`      anytime after `priceFeedGovernanceTimeDelay` has elapsed."
      },
      "beginKeepFactorySingleShotUpdate(address,address)": {
        "details": "It can be finalized by calling `finalizeKeepFactorySingleShotUpdate`      any time after `governanceTimeDelay` has elapsed. This can be      called more than once until finalized to reset the values and      timer, but it can only be finalized once!",
        "params": {
          "_ethBackedFactory": "Address of the ETH-stake-based factory.",
          "_factorySelector": "Address of the keep factory selection strategy."
        }
      },
      "beginLotSizesUpdate(uint64[])": {
        "details": "Lot size array should always contain 10**8 satoshis (1 BTC) and         cannot contain values less than 50000 satoshis (0.0005 BTC) or         greater than 10**10 satoshis (100 BTC). Lot size array must not         have duplicates and it must be sorted.         This can be finalized by calling `finalizeLotSizesUpdate`         anytime after `governanceTimeDelay` has elapsed.",
        "params": {
          "_lotSizes": "Array of allowed lot sizes."
        }
      },
      "beginSignerFeeDivisorUpdate(uint16)": {
        "details": "This can be finalized by calling `finalizeSignerFeeDivisorUpdate`         Anytime after `governanceTimeDelay` has elapsed.",
        "params": {
          "_signerFeeDivisor": "The signer fee divisor."
        }
      },
      "fetchBitcoinPrice()": {
        "details": "Override TBTCSystem.fetchBitcoinPrice, don't call out to the price feed."
      },
      "finalizeCollateralizationThresholdsUpdate()": {
        "details": "`beginCollateralizationThresholdsUpdate` must be called first, once `governanceTimeDelay`       has passed, this function can be called to set the collateralization thresholds to the       value set in `beginCollateralizationThresholdsUpdate`"
      },
      "finalizeEthBtcPriceFeedAddition()": {
        "details": "`beginEthBtcPriceFeedAddition` must be called first; once      `ethBtcPriceFeedAdditionInitiated` has passed, this function can be      called to append a new price feed."
      },
      "finalizeKeepFactorySingleShotUpdate()": {
        "details": "`beginKeepFactorySingleShotUpdate` must be called first; once      `governanceTimeDelay` has passed, this function can be called to      set the collateralization thresholds to the value set in      `beginKeepFactorySingleShotUpdate`."
      },
      "finalizeLotSizesUpdate()": {
        "details": "`beginLotSizesUpdate` must be called first, once `governanceTimeDelay`       has passed, this function can be called to set the lot sizes to the       value set in `beginLotSizesUpdate`"
      },
      "finalizeSignerFeeDivisorUpdate()": {
        "details": "`beginSignerFeeDivisorUpdate` must be called first, once `governanceTimeDelay`       has passed, this function can be called to set the signer fee divisor to the       value set in `beginSignerFeeDivisorUpdate`"
      },
      "getAllowNewDeposits()": {
        "return": "True if new deposits should be allowed by the emergency pause button"
      },
      "getAllowedLotSizes()": {
        "return": "Uint64 array of allowed lot sizes"
      },
      "getMaximumLotSize()": {
        "return": "The largest lot size, in satoshis."
      },
      "getMinimumLotSize()": {
        "return": "The lowest lot size, in satoshis."
      },
      "getNewDepositFeeEstimate()": {
        "return": "Uint256 estimate."
      },
      "getSignerFeeDivisor()": {
        "return": "The signer fee divisor."
      },
      "initialize(address,address,address,address,address,address,address,uint16,uint16)": {
        "details": "Only the Deposit factory should call this, and only once.",
        "params": {
          "_defaultKeepFactory": "ECDSA keep factory backed by KEEP stake.",
          "_depositFactory": "Deposit Factory. More info in `DepositFactory`.",
          "_feeRebateToken": "FeeRebateToken (FRT). More info in `FeeRebateToken`.",
          "_keepSize": "Signing group size.",
          "_keepThreshold": "Signing group honesty threshold.",
          "_masterDepositAddress": "Master Deposit address. More info in `Deposit`.",
          "_tbtcDepositToken": "TBTCDepositToken (TDT). More info in `TBTCDepositToken`.",
          "_tbtcToken": "TBTCToken. More info in `TBTCToken`."
        }
      },
      "isAllowedLotSize(uint64)": {
        "params": {
          "_lotSizeSatoshis": "Lot size to check."
        },
        "return": "True if lot size is allowed, false otherwise."
      },
      "isOwner()": {
        "details": "Returns true if the caller is the current owner."
      },
      "logCourtesyCalled()": {
        "details": "We append the sender, which is the deposit contract that called."
      },
      "logCreated(address)": {
        "details": "We append the sender, which is the deposit contract that called.",
        "params": {
          "_keepAddress": "The address of the associated keep."
        },
        "return": "True if successful, else revert."
      },
      "logExitedCourtesyCall()": {
        "details": "We append the sender, which is the deposit contract that called."
      },
      "logFraudDuringSetup()": {
        "details": "We append the sender, which is the deposit contract that called."
      },
      "logFunded(bytes32)": {
        "details": "We append the sender, which is the deposit contract that called."
      },
      "logFunderRequestedAbort(bytes)": {
        "details": "We append the sender, which is the deposit contract that called."
      },
      "logGotRedemptionSignature(bytes32,bytes32,bytes32)": {
        "details": "We append the sender, which is the deposit contract that called.",
        "params": {
          "_digest": "signed digest.",
          "_r": "signature r value.",
          "_s": "signature s value."
        }
      },
      "logLiquidated()": {
        "details": "We append the sender, which is the deposit contract that called."
      },
      "logRedeemed(bytes32)": {
        "details": "We append the sender, which is the deposit contract that called."
      },
      "logRedemptionRequested(address,bytes32,uint256,bytes,uint256,bytes)": {
        "details": "This is the only event without an explicit timestamp.",
        "params": {
          "_digest": "The calculated sighash digest.",
          "_outpoint": "The 36 byte outpoint.",
          "_redeemerOutputScript": "The redeemer's length-prefixed output script.",
          "_requestedFee": "The requester or bump-system specified fee.",
          "_requester": "The ethereum address of the requester.",
          "_utxoValue": "The size of the utxo in sat."
        },
        "return": "True if successful, else revert."
      },
      "logRegisteredPubkey(bytes32,bytes32)": {
        "details": "We append the sender, which is the deposit contract that called."
      },
      "logSetupFailed()": {
        "details": "We append the sender, which is the deposit contract that called."
      },
      "logStartedLiquidation(bool)": {
        "details": "We append the sender, which is the deposit contract that called.",
        "params": {
          "_wasFraud": "True if liquidating for fraud."
        }
      },
      "owner()": {
        "details": "Returns the address of the current owner."
      },
      "refreshMinimumBondableValue()": {
        "details": "It is recommended to call this function on tBTC initialization and after minimum lot size update."
      },
      "renounceOwnership()": {
        "details": "Leaves the contract without owner. It will not be possible to call `onlyOwner` functions anymore. Can only be called by the current owner.     * > Note: Renouncing ownership will leave the contract without an owner, thereby removing any functionality that is only available to the owner."
      },
      "transferOwnership(address)": {
        "details": "Transfers ownership of the contract to a new account (`newOwner`). Can only be called by the current owner."
      }
    }
  },
  "userdoc": {
    "methods": {
      "approvedToLog(address)": {
        "notice": "Checks if an address is an allowed logger."
      },
      "beginCollateralizationThresholdsUpdate(uint16,uint16,uint16)": {
        "notice": "Set the system collateralization levels"
      },
      "beginEthBtcPriceFeedAddition(address)": {
        "notice": "Add a new ETH/BTC price feed contract to the priecFeed."
      },
      "beginKeepFactorySingleShotUpdate(address,address)": {
        "notice": "Sets the address of the ETH-only-backed ECDSA keep factory and         the selection strategy that will choose between it and the         default KEEP-backed factory for new deposits. When the         ETH-only-backed factory and strategy are set, TBTCSystem load         balances between two factories based on the selection strategy."
      },
      "beginLotSizesUpdate(uint64[])": {
        "notice": "Set the allowed deposit lot sizes."
      },
      "beginSignerFeeDivisorUpdate(uint16)": {
        "notice": "Set the system signer fee divisor."
      },
      "emergencyPauseNewDeposits()": {
        "notice": "One-time-use emergency function to disallow future deposit creation for 10 days."
      },
      "finalizeCollateralizationThresholdsUpdate()": {
        "notice": "Finish setting the system collateralization levels"
      },
      "finalizeEthBtcPriceFeedAddition()": {
        "notice": "Finish adding a new price feed contract to the priceFeed."
      },
      "finalizeKeepFactorySingleShotUpdate()": {
        "notice": "Finish setting the address of the ETH-only-backed ECDSA keep         factory and the selection strategy that will choose between it         and the default KEEP-backed factory for new deposits."
      },
      "finalizeLotSizesUpdate()": {
        "notice": "Finish setting the accepted system lot sizes."
      },
      "finalizeSignerFeeDivisorUpdate()": {
        "notice": "Finish setting the system signer fee divisor."
      },
      "getAllowNewDeposits()": {
        "notice": "Returns whether new deposits should be allowed."
      },
      "getAllowedLotSizes()": {
        "notice": "Gets the allowed lot sizes"
      },
      "getGovernanceTimeDelay()": {
        "notice": "Returns the time delay used for governance actions except for         price feed additions."
      },
      "getInitialCollateralizedPercent()": {
        "notice": "Get the system initial collateralized level for new deposits."
      },
      "getMaximumLotSize()": {
        "notice": "Return the largest lot size currently enabled for deposits."
      },
      "getMinimumLotSize()": {
        "notice": "Return the lowest lot size currently enabled for deposits."
      },
      "getNewDepositFeeEstimate()": {
        "notice": "Gets a fee estimate for creating a new Deposit."
      },
      "getPriceFeedGovernanceTimeDelay()": {
        "notice": "Returns the time delay used for price feed addition governance         actions."
      },
      "getRemainingCollateralizationThresholdsUpdateTime()": {
        "notice": "Get the time remaining until the collateralization thresholds can be updated."
      },
      "getRemainingEthBtcPriceFeedAdditionTime()": {
        "notice": "Get the time remaining until the signer fee divisor can be updated."
      },
      "getRemainingKeepFactorySingleShotUpdateTime()": {
        "notice": "Get the time remaining until the Keep ETH-only-backed ECDSA keep         factory and the selection strategy that will choose between it         and the KEEP-backed factory can be updated."
      },
      "getRemainingLotSizesUpdateTime()": {
        "notice": "Get the time remaining until the lot sizes can be updated."
      },
      "getRemainingSignerFeeDivisorUpdateTime()": {
        "notice": "Get the time remaining until the signer fee divisor can be updated."
      },
      "getSeverelyUndercollateralizedThresholdPercent()": {
        "notice": "Get the system severe undercollateralization level for new deposits"
      },
      "getSignerFeeDivisor()": {
        "notice": "Gets the system signer fee divisor."
      },
      "getUndercollateralizedThresholdPercent()": {
        "notice": "Get the system undercollateralization level for new deposits"
      },
      "initialize(address,address,address,address,address,address,address,uint16,uint16)": {
        "notice": "Initialize contracts"
      },
      "isAllowedLotSize(uint64)": {
        "notice": "Check if a lot size is allowed."
      },
      "logCourtesyCalled()": {
        "notice": "Fires a CourtesyCalled event."
      },
      "logCreated(address)": {
        "notice": "Fires a Created event."
      },
      "logExitedCourtesyCall()": {
        "notice": "Fires a ExitedCourtesyCall event"
      },
      "logFraudDuringSetup()": {
        "notice": "Fires a FraudDuringSetup event."
      },
      "logFunded(bytes32)": {
        "notice": "Fires a Funded event."
      },
      "logFunderRequestedAbort(bytes)": {
        "notice": "Fires a FunderAbortRequested event."
      },
      "logGotRedemptionSignature(bytes32,bytes32,bytes32)": {
        "notice": "Fires a GotRedemptionSignature event."
      },
      "logLiquidated()": {
        "notice": "Fires a Liquidated event"
      },
      "logRedeemed(bytes32)": {
        "notice": "Fires a Redeemed event"
      },
      "logRedemptionRequested(address,bytes32,uint256,bytes,uint256,bytes)": {
        "notice": "Fires a RedemptionRequested event."
      },
      "logRegisteredPubkey(bytes32,bytes32)": {
        "notice": "Fires a RegisteredPubkey event."
      },
      "logSetupFailed()": {
        "notice": "Fires a SetupFailed event."
      },
      "logStartedLiquidation(bool)": {
        "notice": "Fires a StartedLiquidation event."
      },
      "refreshMinimumBondableValue()": {
        "notice": "Refreshes the minimum bondable value required from the operator to join the sortition pool for tBTC. The minimum bondable value is equal to the current minimum lot size collateralized 150% multiplied by the current BTC price."
      },
      "resumeNewDeposits()": {
        "notice": "Anyone can reactivate deposit creations after the pause duration is over."
      }
    }
  }
}