{
  "contractName": "TestDepositUtils",
  "abi": [
    {
      "inputs": [],
      "payable": false,
      "stateMutability": "nonpayable",
      "type": "constructor"
    },
    {
      "payable": true,
      "stateMutability": "payable",
      "type": "fallback"
    },
    {
      "constant": false,
      "inputs": [
        {
          "internalType": "bytes32",
          "name": "_digest",
          "type": "bytes32"
        }
      ],
      "name": "approveDigest",
      "outputs": [],
      "payable": false,
      "stateMutability": "nonpayable",
      "type": "function"
    },
    {
      "constant": true,
      "inputs": [],
      "name": "auctionValue",
      "outputs": [
        {
          "internalType": "uint256",
          "name": "",
          "type": "uint256"
        }
      ],
      "payable": false,
      "stateMutability": "view",
      "type": "function"
    },
    {
      "constant": true,
      "inputs": [
        {
          "internalType": "address",
          "name": "_redeemer",
          "type": "address"
        }
      ],
      "name": "calculateRedemptionTbtcAmounts",
      "outputs": [
        {
          "internalType": "uint256",
          "name": "",
          "type": "uint256"
        },
        {
          "internalType": "uint256",
          "name": "",
          "type": "uint256"
        },
        {
          "internalType": "uint256",
          "name": "",
          "type": "uint256"
        }
      ],
      "payable": false,
      "stateMutability": "view",
      "type": "function"
    },
    {
      "constant": true,
      "inputs": [],
      "name": "collateralizationPercentage",
      "outputs": [
        {
          "internalType": "uint256",
          "name": "",
          "type": "uint256"
        }
      ],
      "payable": false,
      "stateMutability": "view",
      "type": "function"
    },
    {
      "constant": true,
      "inputs": [],
      "name": "currentState",
      "outputs": [
        {
          "internalType": "uint256",
          "name": "",
          "type": "uint256"
        }
      ],
      "payable": false,
      "stateMutability": "view",
      "type": "function"
    },
    {
      "constant": false,
      "inputs": [],
      "name": "exitCourtesyCall",
      "outputs": [],
      "payable": false,
      "stateMutability": "nonpayable",
      "type": "function"
    },
    {
      "constant": true,
      "inputs": [],
      "name": "fundingInfo",
      "outputs": [
        {
          "internalType": "bytes8",
          "name": "utxoValueBytes",
          "type": "bytes8"
        },
        {
          "internalType": "uint256",
          "name": "fundedAt",
          "type": "uint256"
        },
        {
          "internalType": "bytes",
          "name": "utxoOutpoint",
          "type": "bytes"
        }
      ],
      "payable": false,
      "stateMutability": "view",
      "type": "function"
    },
    {
      "constant": true,
      "inputs": [],
      "name": "getAuctionBasePercentage",
      "outputs": [
        {
          "internalType": "uint256",
          "name": "",
          "type": "uint256"
        }
      ],
      "payable": false,
      "stateMutability": "view",
      "type": "function"
    },
    {
      "constant": true,
      "inputs": [],
      "name": "getFundingProofTimerStart",
      "outputs": [
        {
          "internalType": "uint256",
          "name": "",
          "type": "uint256"
        }
      ],
      "payable": false,
      "stateMutability": "view",
      "type": "function"
    },
    {
      "constant": true,
      "inputs": [],
      "name": "getLatestRedemptionFee",
      "outputs": [
        {
          "internalType": "uint256",
          "name": "",
          "type": "uint256"
        }
      ],
      "payable": false,
      "stateMutability": "view",
      "type": "function"
    },
    {
      "constant": true,
      "inputs": [],
      "name": "getLiquidationAndCourtesyInitiated",
      "outputs": [
        {
          "internalType": "uint256",
          "name": "",
          "type": "uint256"
        },
        {
          "internalType": "uint256",
          "name": "",
          "type": "uint256"
        }
      ],
      "payable": false,
      "stateMutability": "view",
      "type": "function"
    },
    {
      "constant": true,
      "inputs": [],
      "name": "getLiquidationInitiator",
      "outputs": [
        {
          "internalType": "address",
          "name": "",
          "type": "address"
        }
      ],
      "payable": false,
      "stateMutability": "view",
      "type": "function"
    },
    {
      "constant": true,
      "inputs": [],
      "name": "getLiquidationTimestamp",
      "outputs": [
        {
          "internalType": "uint256",
          "name": "",
          "type": "uint256"
        }
      ],
      "payable": false,
      "stateMutability": "view",
      "type": "function"
    },
    {
      "constant": true,
      "inputs": [
        {
          "internalType": "address",
          "name": "_redeemer",
          "type": "address"
        }
      ],
      "name": "getOwnerRedemptionTbtcRequirement",
      "outputs": [
        {
          "internalType": "uint256",
          "name": "",
          "type": "uint256"
        }
      ],
      "payable": false,
      "stateMutability": "view",
      "type": "function"
    },
    {
      "constant": true,
      "inputs": [
        {
          "internalType": "address",
          "name": "_redeemer",
          "type": "address"
        }
      ],
      "name": "getRedemptionTbtcRequirement",
      "outputs": [
        {
          "internalType": "uint256",
          "name": "",
          "type": "uint256"
        }
      ],
      "payable": false,
      "stateMutability": "view",
      "type": "function"
    },
    {
      "constant": true,
      "inputs": [],
      "name": "getRequestInfo",
      "outputs": [
        {
          "internalType": "address",
          "name": "",
          "type": "address"
        },
        {
          "internalType": "bytes",
          "name": "",
          "type": "bytes"
        },
        {
          "internalType": "uint256",
          "name": "",
          "type": "uint256"
        },
        {
          "internalType": "uint256",
          "name": "",
          "type": "uint256"
        },
        {
          "internalType": "bytes32",
          "name": "",
          "type": "bytes32"
        }
      ],
      "payable": false,
      "stateMutability": "view",
      "type": "function"
    },
    {
      "constant": true,
      "inputs": [],
      "name": "getSignerFeeDivisor",
      "outputs": [
        {
          "internalType": "uint256",
          "name": "",
          "type": "uint256"
        }
      ],
      "payable": false,
      "stateMutability": "view",
      "type": "function"
    },
    {
      "constant": true,
      "inputs": [],
      "name": "getSigningGroupPublicKey",
      "outputs": [
        {
          "internalType": "bytes32",
          "name": "",
          "type": "bytes32"
        },
        {
          "internalType": "bytes32",
          "name": "",
          "type": "bytes32"
        }
      ],
      "payable": false,
      "stateMutability": "view",
      "type": "function"
    },
    {
      "constant": true,
      "inputs": [],
      "name": "getSigningGroupRequestedAt",
      "outputs": [
        {
          "internalType": "uint256",
          "name": "",
          "type": "uint256"
        }
      ],
      "payable": false,
      "stateMutability": "view",
      "type": "function"
    },
    {
      "constant": true,
      "inputs": [],
      "name": "getState",
      "outputs": [
        {
          "internalType": "uint8",
          "name": "",
          "type": "uint8"
        }
      ],
      "payable": false,
      "stateMutability": "view",
      "type": "function"
    },
    {
      "constant": true,
      "inputs": [],
      "name": "getWithdrawalRequestTime",
      "outputs": [
        {
          "internalType": "uint256",
          "name": "",
          "type": "uint256"
        }
      ],
      "payable": false,
      "stateMutability": "view",
      "type": "function"
    },
    {
      "constant": true,
      "inputs": [],
      "name": "inActive",
      "outputs": [
        {
          "internalType": "bool",
          "name": "",
          "type": "bool"
        }
      ],
      "payable": false,
      "stateMutability": "view",
      "type": "function"
    },
    {
      "constant": false,
      "inputs": [
        {
          "internalType": "bytes8",
          "name": "_previousOutputValueBytes",
          "type": "bytes8"
        },
        {
          "internalType": "bytes8",
          "name": "_newOutputValueBytes",
          "type": "bytes8"
        }
      ],
      "name": "increaseRedemptionFee",
      "outputs": [],
      "payable": false,
      "stateMutability": "nonpayable",
      "type": "function"
    },
    {
      "constant": true,
      "inputs": [],
      "name": "initialCollateralizedPercent",
      "outputs": [
        {
          "internalType": "uint16",
          "name": "",
          "type": "uint16"
        }
      ],
      "payable": false,
      "stateMutability": "view",
      "type": "function"
    },
    {
      "constant": false,
      "inputs": [
        {
          "internalType": "address",
          "name": "_factory",
          "type": "address"
        }
      ],
      "name": "initialize",
      "outputs": [],
      "payable": false,
      "stateMutability": "nonpayable",
      "type": "function"
    },
    {
      "constant": false,
      "inputs": [
        {
          "internalType": "contract ITBTCSystem",
          "name": "_tbtcSystem",
          "type": "address"
        },
        {
          "internalType": "contract TBTCToken",
          "name": "_tbtcToken",
          "type": "address"
        },
        {
          "internalType": "contract IERC721",
          "name": "_tbtcDepositToken",
          "type": "address"
        },
        {
          "internalType": "contract FeeRebateToken",
          "name": "_feeRebateToken",
          "type": "address"
        },
        {
          "internalType": "address",
          "name": "_vendingMachineAddress",
          "type": "address"
        },
        {
          "internalType": "uint64",
          "name": "_lotSizeSatoshis",
          "type": "uint64"
        }
      ],
      "name": "initializeDeposit",
      "outputs": [],
      "payable": true,
      "stateMutability": "payable",
      "type": "function"
    },
    {
      "constant": true,
      "inputs": [],
      "name": "keepAddress",
      "outputs": [
        {
          "internalType": "address",
          "name": "",
          "type": "address"
        }
      ],
      "payable": false,
      "stateMutability": "view",
      "type": "function"
    },
    {
      "constant": true,
      "inputs": [],
      "name": "lotSizeSatoshis",
      "outputs": [
        {
          "internalType": "uint64",
          "name": "",
          "type": "uint64"
        }
      ],
      "payable": false,
      "stateMutability": "view",
      "type": "function"
    },
    {
      "constant": true,
      "inputs": [],
      "name": "lotSizeTbtc",
      "outputs": [
        {
          "internalType": "uint256",
          "name": "",
          "type": "uint256"
        }
      ],
      "payable": false,
      "stateMutability": "view",
      "type": "function"
    },
    {
      "constant": false,
      "inputs": [],
      "name": "notifyCourtesyCall",
      "outputs": [],
      "payable": false,
      "stateMutability": "nonpayable",
      "type": "function"
    },
    {
      "constant": false,
      "inputs": [],
      "name": "notifyCourtesyCallExpired",
      "outputs": [],
      "payable": false,
      "stateMutability": "nonpayable",
      "type": "function"
    },
    {
      "constant": false,
      "inputs": [],
      "name": "notifyFundingTimedOut",
      "outputs": [],
      "payable": false,
      "stateMutability": "nonpayable",
      "type": "function"
    },
    {
      "constant": false,
      "inputs": [],
      "name": "notifyRedemptionProofTimedOut",
      "outputs": [],
      "payable": false,
      "stateMutability": "nonpayable",
      "type": "function"
    },
    {
      "constant": false,
      "inputs": [],
      "name": "notifyRedemptionSignatureTimedOut",
      "outputs": [],
      "payable": false,
      "stateMutability": "nonpayable",
      "type": "function"
    },
    {
      "constant": false,
      "inputs": [],
      "name": "notifySignerSetupFailed",
      "outputs": [],
      "payable": false,
      "stateMutability": "nonpayable",
      "type": "function"
    },
    {
      "constant": false,
      "inputs": [],
      "name": "notifyUndercollateralizedLiquidation",
      "outputs": [],
      "payable": false,
      "stateMutability": "nonpayable",
      "type": "function"
    },
    {
      "constant": false,
      "inputs": [],
      "name": "performRedemptionTbtcTransfers",
      "outputs": [],
      "payable": false,
      "stateMutability": "nonpayable",
      "type": "function"
    },
    {
      "constant": false,
      "inputs": [
        {
          "internalType": "bytes4",
          "name": "_txVersion",
          "type": "bytes4"
        },
        {
          "internalType": "bytes",
          "name": "_txInputVector",
          "type": "bytes"
        },
        {
          "internalType": "bytes",
          "name": "_txOutputVector",
          "type": "bytes"
        },
        {
          "internalType": "bytes4",
          "name": "_txLocktime",
          "type": "bytes4"
        },
        {
          "internalType": "uint8",
          "name": "_fundingOutputIndex",
          "type": "uint8"
        },
        {
          "internalType": "bytes",
          "name": "_merkleProof",
          "type": "bytes"
        },
        {
          "internalType": "uint256",
          "name": "_txIndexInBlock",
          "type": "uint256"
        },
        {
          "internalType": "bytes",
          "name": "_bitcoinHeaders",
          "type": "bytes"
        }
      ],
      "name": "provideBTCFundingProof",
      "outputs": [],
      "payable": false,
      "stateMutability": "nonpayable",
      "type": "function"
    },
    {
      "constant": false,
      "inputs": [
        {
          "internalType": "uint8",
          "name": "_v",
          "type": "uint8"
        },
        {
          "internalType": "bytes32",
          "name": "_r",
          "type": "bytes32"
        },
        {
          "internalType": "bytes32",
          "name": "_s",
          "type": "bytes32"
        },
        {
          "internalType": "bytes32",
          "name": "_signedDigest",
          "type": "bytes32"
        },
        {
          "internalType": "bytes",
          "name": "_preimage",
          "type": "bytes"
        }
      ],
      "name": "provideECDSAFraudProof",
      "outputs": [],
      "payable": false,
      "stateMutability": "nonpayable",
      "type": "function"
    },
    {
      "constant": false,
      "inputs": [
        {
          "internalType": "uint8",
          "name": "_v",
          "type": "uint8"
        },
        {
          "internalType": "bytes32",
          "name": "_r",
          "type": "bytes32"
        },
        {
          "internalType": "bytes32",
          "name": "_s",
          "type": "bytes32"
        },
        {
          "internalType": "bytes32",
          "name": "_signedDigest",
          "type": "bytes32"
        },
        {
          "internalType": "bytes",
          "name": "_preimage",
          "type": "bytes"
        }
      ],
      "name": "provideFundingECDSAFraudProof",
      "outputs": [],
      "payable": false,
      "stateMutability": "nonpayable",
      "type": "function"
    },
    {
      "constant": false,
      "inputs": [
        {
          "internalType": "bytes4",
          "name": "_txVersion",
          "type": "bytes4"
        },
        {
          "internalType": "bytes",
          "name": "_txInputVector",
          "type": "bytes"
        },
        {
          "internalType": "bytes",
          "name": "_txOutputVector",
          "type": "bytes"
        },
        {
          "internalType": "bytes4",
          "name": "_txLocktime",
          "type": "bytes4"
        },
        {
          "internalType": "bytes",
          "name": "_merkleProof",
          "type": "bytes"
        },
        {
          "internalType": "uint256",
          "name": "_txIndexInBlock",
          "type": "uint256"
        },
        {
          "internalType": "bytes",
          "name": "_bitcoinHeaders",
          "type": "bytes"
        }
      ],
      "name": "provideRedemptionProof",
      "outputs": [],
      "payable": false,
      "stateMutability": "nonpayable",
      "type": "function"
    },
    {
      "constant": false,
      "inputs": [
        {
          "internalType": "uint8",
          "name": "_v",
          "type": "uint8"
        },
        {
          "internalType": "bytes32",
          "name": "_r",
          "type": "bytes32"
        },
        {
          "internalType": "bytes32",
          "name": "_s",
          "type": "bytes32"
        }
      ],
      "name": "provideRedemptionSignature",
      "outputs": [],
      "payable": false,
      "stateMutability": "nonpayable",
      "type": "function"
    },
    {
      "constant": false,
      "inputs": [],
      "name": "purchaseSignerBondsAtAuction",
      "outputs": [],
      "payable": false,
      "stateMutability": "nonpayable",
      "type": "function"
    },
    {
      "constant": true,
      "inputs": [
        {
          "internalType": "bytes",
          "name": "_txInputVector",
          "type": "bytes"
        },
        {
          "internalType": "bytes",
          "name": "_txOutputVector",
          "type": "bytes"
        }
      ],
      "name": "redemptionTransactionChecks",
      "outputs": [
        {
          "internalType": "uint256",
          "name": "",
          "type": "uint256"
        }
      ],
      "payable": false,
      "stateMutability": "view",
      "type": "function"
    },
    {
      "constant": true,
      "inputs": [],
      "name": "remainingTerm",
      "outputs": [
        {
          "internalType": "uint256",
          "name": "",
          "type": "uint256"
        }
      ],
      "payable": false,
      "stateMutability": "view",
      "type": "function"
    },
    {
      "constant": false,
      "inputs": [
        {
          "internalType": "bytes",
          "name": "_abortOutputScript",
          "type": "bytes"
        }
      ],
      "name": "requestFunderAbort",
      "outputs": [],
      "payable": false,
      "stateMutability": "nonpayable",
      "type": "function"
    },
    {
      "constant": false,
      "inputs": [
        {
          "internalType": "bytes8",
          "name": "_outputValueBytes",
          "type": "bytes8"
        },
        {
          "internalType": "bytes",
          "name": "_redeemerOutputScript",
          "type": "bytes"
        }
      ],
      "name": "requestRedemption",
      "outputs": [],
      "payable": false,
      "stateMutability": "nonpayable",
      "type": "function"
    },
    {
      "constant": false,
      "inputs": [],
      "name": "reset",
      "outputs": [],
      "payable": false,
      "stateMutability": "nonpayable",
      "type": "function"
    },
    {
      "constant": false,
      "inputs": [],
      "name": "retrieveSignerPubkey",
      "outputs": [],
      "payable": false,
      "stateMutability": "nonpayable",
      "type": "function"
    },
    {
      "constant": false,
      "inputs": [
        {
          "internalType": "bytes32",
          "name": "_digest",
          "type": "bytes32"
        },
        {
          "internalType": "uint256",
          "name": "_timestamp",
          "type": "uint256"
        }
      ],
      "name": "setDigestApprovedAtTime",
      "outputs": [],
      "payable": false,
      "stateMutability": "nonpayable",
      "type": "function"
    },
    {
      "constant": false,
      "inputs": [
        {
          "internalType": "address",
          "name": "_sys",
          "type": "address"
        },
        {
          "internalType": "address",
          "name": "_token",
          "type": "address"
        },
        {
          "internalType": "address",
          "name": "_tbtcDepositToken",
          "type": "address"
        },
        {
          "internalType": "address",
          "name": "_feeRebateToken",
          "type": "address"
        },
        {
          "internalType": "address",
          "name": "_vendingMachineAddress",
          "type": "address"
        }
      ],
      "name": "setExteriorAddresses",
      "outputs": [],
      "payable": false,
      "stateMutability": "nonpayable",
      "type": "function"
    },
    {
      "constant": false,
      "inputs": [
        {
          "internalType": "bytes8",
          "name": "_utxoValueBytes",
          "type": "bytes8"
        },
        {
          "internalType": "uint256",
          "name": "_fundedAt",
          "type": "uint256"
        },
        {
          "internalType": "bytes",
          "name": "_utxoOutpoint",
          "type": "bytes"
        }
      ],
      "name": "setFundingInfo",
      "outputs": [],
      "payable": false,
      "stateMutability": "nonpayable",
      "type": "function"
    },
    {
      "constant": false,
      "inputs": [
        {
          "internalType": "uint256",
          "name": "_fundingProofTimerStart",
          "type": "uint256"
        }
      ],
      "name": "setFundingProofTimerStart",
      "outputs": [],
      "payable": false,
      "stateMutability": "nonpayable",
      "type": "function"
    },
    {
      "constant": false,
      "inputs": [
        {
          "internalType": "uint16",
          "name": "_initialCollateralizedPercent",
          "type": "uint16"
        }
      ],
      "name": "setInitialCollateralizedPercent",
      "outputs": [],
      "payable": false,
      "stateMutability": "nonpayable",
      "type": "function"
    },
    {
      "constant": false,
      "inputs": [
        {
          "internalType": "address",
          "name": "_keepAddress",
          "type": "address"
        }
      ],
      "name": "setKeepAddress",
      "outputs": [],
      "payable": false,
      "stateMutability": "nonpayable",
      "type": "function"
    },
    {
      "constant": false,
      "inputs": [
        {
          "internalType": "uint256",
          "name": "_fee",
          "type": "uint256"
        }
      ],
      "name": "setKeepSetupFee",
      "outputs": [],
      "payable": false,
      "stateMutability": "nonpayable",
      "type": "function"
    },
    {
      "constant": false,
      "inputs": [
        {
          "internalType": "uint256",
          "name": "_latestRedemptionFee",
          "type": "uint256"
        }
      ],
      "name": "setLatestRedemptionFee",
      "outputs": [],
      "payable": false,
      "stateMutability": "nonpayable",
      "type": "function"
    },
    {
      "constant": false,
      "inputs": [
        {
          "internalType": "uint256",
          "name": "_liquidation",
          "type": "uint256"
        },
        {
          "internalType": "uint256",
          "name": "_courtesy",
          "type": "uint256"
        }
      ],
      "name": "setLiquidationAndCourtesyInitated",
      "outputs": [],
      "payable": false,
      "stateMutability": "nonpayable",
      "type": "function"
    },
    {
      "constant": false,
      "inputs": [
        {
          "internalType": "address payable",
          "name": "_initiator",
          "type": "address"
        }
      ],
      "name": "setLiquidationInitiator",
      "outputs": [],
      "payable": false,
      "stateMutability": "nonpayable",
      "type": "function"
    },
    {
      "constant": false,
      "inputs": [
        {
          "internalType": "uint64",
          "name": "_lotSizeSatoshis",
          "type": "uint64"
        }
      ],
      "name": "setLotSize",
      "outputs": [],
      "payable": false,
      "stateMutability": "nonpayable",
      "type": "function"
    },
    {
      "constant": false,
      "inputs": [
        {
          "internalType": "address payable",
          "name": "_redeemerAddress",
          "type": "address"
        }
      ],
      "name": "setRedeemerAddress",
      "outputs": [],
      "payable": false,
      "stateMutability": "nonpayable",
      "type": "function"
    },
    {
      "constant": false,
      "inputs": [
        {
          "internalType": "address payable",
          "name": "_redeemerAddress",
          "type": "address"
        },
        {
          "internalType": "bytes",
          "name": "_redeemerOutputScript",
          "type": "bytes"
        },
        {
          "internalType": "uint256",
          "name": "_initialRedemptionFee",
          "type": "uint256"
        },
        {
          "internalType": "uint256",
          "name": "_withdrawalRequestTime",
          "type": "uint256"
        },
        {
          "internalType": "bytes32",
          "name": "_lastRequestedDigest",
          "type": "bytes32"
        }
      ],
      "name": "setRequestInfo",
      "outputs": [],
      "payable": false,
      "stateMutability": "nonpayable",
      "type": "function"
    },
    {
      "constant": false,
      "inputs": [
        {
          "internalType": "uint16",
          "name": "_severelyUndercollateralizedThresholdPercent",
          "type": "uint16"
        }
      ],
      "name": "setSeverelyUndercollateralizedThresholdPercent",
      "outputs": [],
      "payable": false,
      "stateMutability": "nonpayable",
      "type": "function"
    },
    {
      "constant": false,
      "inputs": [
        {
          "internalType": "uint16",
          "name": "_signerFeeDivisor",
          "type": "uint16"
        }
      ],
      "name": "setSignerFeeDivisor",
      "outputs": [],
      "payable": false,
      "stateMutability": "nonpayable",
      "type": "function"
    },
    {
      "constant": false,
      "inputs": [
        {
          "internalType": "bytes32",
          "name": "_x",
          "type": "bytes32"
        },
        {
          "internalType": "bytes32",
          "name": "_y",
          "type": "bytes32"
        }
      ],
      "name": "setSigningGroupPublicKey",
      "outputs": [],
      "payable": false,
      "stateMutability": "nonpayable",
      "type": "function"
    },
    {
      "constant": false,
      "inputs": [
        {
          "internalType": "uint256",
          "name": "_signingGroupRequestedAt",
          "type": "uint256"
        }
      ],
      "name": "setSigningGroupRequestedAt",
      "outputs": [],
      "payable": false,
      "stateMutability": "nonpayable",
      "type": "function"
    },
    {
      "constant": false,
      "inputs": [
        {
          "internalType": "uint8",
          "name": "_state",
          "type": "uint8"
        }
      ],
      "name": "setState",
      "outputs": [],
      "payable": false,
      "stateMutability": "nonpayable",
      "type": "function"
    },
    {
      "constant": false,
      "inputs": [
        {
          "internalType": "uint16",
          "name": "_undercollateralizedThresholdPercent",
          "type": "uint16"
        }
      ],
      "name": "setUndercollateralizedThresholdPercent",
      "outputs": [],
      "payable": false,
      "stateMutability": "nonpayable",
      "type": "function"
    },
    {
      "constant": false,
      "inputs": [
        {
          "internalType": "address",
          "name": "_vendingMachineAddress",
          "type": "address"
        }
      ],
      "name": "setVendingMachineAddress",
      "outputs": [],
      "payable": false,
      "stateMutability": "nonpayable",
      "type": "function"
    },
    {
      "constant": true,
      "inputs": [],
      "name": "severelyUndercollateralizedThresholdPercent",
      "outputs": [
        {
          "internalType": "uint16",
          "name": "",
          "type": "uint16"
        }
      ],
      "payable": false,
      "stateMutability": "view",
      "type": "function"
    },
    {
      "constant": true,
      "inputs": [],
      "name": "signerFeeTbtc",
      "outputs": [
        {
          "internalType": "uint256",
          "name": "",
          "type": "uint256"
        }
      ],
      "payable": false,
      "stateMutability": "view",
      "type": "function"
    },
    {
      "constant": false,
      "inputs": [
        {
          "internalType": "bool",
          "name": "_wasFraud",
          "type": "bool"
        }
      ],
      "name": "startLiquidation",
      "outputs": [],
      "payable": false,
      "stateMutability": "nonpayable",
      "type": "function"
    },
    {
      "constant": false,
      "inputs": [
        {
          "internalType": "bytes8",
          "name": "_outputValueBytes",
          "type": "bytes8"
        },
        {
          "internalType": "bytes",
          "name": "_redeemerOutputScript",
          "type": "bytes"
        },
        {
          "internalType": "address payable",
          "name": "_finalRecipient",
          "type": "address"
        }
      ],
      "name": "transferAndRequestRedemption",
      "outputs": [],
      "payable": false,
      "stateMutability": "nonpayable",
      "type": "function"
    },
    {
      "constant": true,
      "inputs": [],
      "name": "undercollateralizedThresholdPercent",
      "outputs": [
        {
          "internalType": "uint16",
          "name": "",
          "type": "uint16"
        }
      ],
      "payable": false,
      "stateMutability": "view",
      "type": "function"
    },
    {
      "constant": true,
      "inputs": [],
      "name": "utxoValue",
      "outputs": [
        {
          "internalType": "uint256",
          "name": "",
          "type": "uint256"
        }
      ],
      "payable": false,
      "stateMutability": "view",
      "type": "function"
    },
    {
      "constant": true,
      "inputs": [
        {
          "internalType": "bytes32",
          "name": "_digest",
          "type": "bytes32"
        }
      ],
      "name": "wasDigestApprovedForSigning",
      "outputs": [
        {
          "internalType": "uint256",
          "name": "",
          "type": "uint256"
        }
      ],
      "payable": false,
      "stateMutability": "view",
      "type": "function"
    },
    {
      "constant": false,
      "inputs": [],
      "name": "withdrawFunds",
      "outputs": [],
      "payable": false,
      "stateMutability": "nonpayable",
      "type": "function"
    },
    {
      "constant": true,
      "inputs": [],
      "name": "withdrawableAmount",
      "outputs": [
        {
          "internalType": "uint256",
          "name": "",
          "type": "uint256"
        }
      ],
      "payable": false,
      "stateMutability": "view",
      "type": "function"
    },
    {
      "constant": true,
      "inputs": [],
      "name": "currentBlockDifficulty",
      "outputs": [
        {
          "internalType": "uint256",
          "name": "",
          "type": "uint256"
        }
      ],
      "payable": false,
      "stateMutability": "view",
      "type": "function"
    },
    {
      "constant": true,
      "inputs": [],
      "name": "previousBlockDifficulty",
      "outputs": [
        {
          "internalType": "uint256",
          "name": "",
          "type": "uint256"
        }
      ],
      "payable": false,
      "stateMutability": "view",
      "type": "function"
    },
    {
      "constant": true,
      "inputs": [
        {
          "internalType": "bytes",
          "name": "_bitcoinHeaders",
          "type": "bytes"
        }
      ],
      "name": "evaluateProofDifficulty",
      "outputs": [],
      "payable": false,
      "stateMutability": "view",
      "type": "function"
    },
    {
      "constant": false,
      "inputs": [
        {
          "internalType": "bytes32",
          "name": "_signingGroupPubkeyX",
          "type": "bytes32"
        },
        {
          "internalType": "bytes32",
          "name": "_signingGroupPubkeyY",
          "type": "bytes32"
        }
      ],
      "name": "setPubKey",
      "outputs": [],
      "payable": false,
      "stateMutability": "nonpayable",
      "type": "function"
    },
    {
      "constant": true,
      "inputs": [
        {
          "internalType": "bytes",
          "name": "_txOutputVector",
          "type": "bytes"
        },
        {
          "internalType": "uint8",
          "name": "_fundingOutputIndex",
          "type": "uint8"
        }
      ],
      "name": "findAndParseFundingOutput",
      "outputs": [
        {
          "internalType": "bytes8",
          "name": "",
          "type": "bytes8"
        }
      ],
      "payable": false,
      "stateMutability": "view",
      "type": "function"
    },
    {
      "constant": true,
      "inputs": [],
      "name": "signerFee",
      "outputs": [
        {
          "internalType": "uint256",
          "name": "",
          "type": "uint256"
        }
      ],
      "payable": false,
      "stateMutability": "view",
      "type": "function"
    },
    {
      "constant": true,
      "inputs": [],
      "name": "signerPubkey",
      "outputs": [
        {
          "internalType": "bytes",
          "name": "",
          "type": "bytes"
        }
      ],
      "payable": false,
      "stateMutability": "view",
      "type": "function"
    },
    {
      "constant": true,
      "inputs": [],
      "name": "signerPKH",
      "outputs": [
        {
          "internalType": "bytes20",
          "name": "",
          "type": "bytes20"
        }
      ],
      "payable": false,
      "stateMutability": "view",
      "type": "function"
    },
    {
      "constant": true,
      "inputs": [],
      "name": "fetchBitcoinPrice",
      "outputs": [
        {
          "internalType": "uint256",
          "name": "",
          "type": "uint256"
        }
      ],
      "payable": false,
      "stateMutability": "view",
      "type": "function"
    },
    {
      "constant": true,
      "inputs": [],
      "name": "fetchBondAmount",
      "outputs": [
        {
          "internalType": "uint256",
          "name": "",
          "type": "uint256"
        }
      ],
      "payable": false,
      "stateMutability": "view",
      "type": "function"
    },
    {
      "constant": true,
      "inputs": [],
      "name": "feeRebateTokenHolder",
      "outputs": [
        {
          "internalType": "address payable",
          "name": "",
          "type": "address"
        }
      ],
      "payable": false,
      "stateMutability": "view",
      "type": "function"
    },
    {
      "constant": false,
      "inputs": [],
      "name": "redemptionTeardown",
      "outputs": [],
      "payable": false,
      "stateMutability": "nonpayable",
      "type": "function"
    },
    {
      "constant": false,
      "inputs": [],
      "name": "seizeSignerBonds",
      "outputs": [
        {
          "internalType": "uint256",
          "name": "",
          "type": "uint256"
        }
      ],
      "payable": false,
      "stateMutability": "nonpayable",
      "type": "function"
    },
    {
      "constant": false,
      "inputs": [],
      "name": "distributeFeeRebate",
      "outputs": [],
      "payable": false,
      "stateMutability": "nonpayable",
      "type": "function"
    },
    {
      "constant": false,
      "inputs": [
        {
          "internalType": "uint256",
          "name": "_ethValue",
          "type": "uint256"
        }
      ],
      "name": "pushFundsToKeepGroup",
      "outputs": [],
      "payable": false,
      "stateMutability": "nonpayable",
      "type": "function"
    },
    {
      "constant": false,
      "inputs": [
        {
          "internalType": "address",
          "name": "_withdrawer",
          "type": "address"
        },
        {
          "internalType": "uint256",
          "name": "_amount",
          "type": "uint256"
        }
      ],
      "name": "enableWithdrawal",
      "outputs": [],
      "payable": false,
      "stateMutability": "nonpayable",
      "type": "function"
    }
  ],
  "bytecode": "0x60806040526000805460ff191690553480156200001b57600080fd5b506200003160006001600160e01b036200003716565b620000aa565b60005460ff16156200007b5760405162461bcd60e51b8152600401808060200182810382526025815260200180620056a56025913960400191505060405180910390fd5b6000805460ff196001600160a01b0390931661010002610100600160a81b031990911617919091166001179055565b6155eb80620000ba6000396000f3fe60806040526004361061050b5760003560e01c806385df153d11610297578063c415955911610165578063dba49153116100cc578063f5f6deda11610085578063f5f6deda14611d4e578063f603f2eb14611d87578063f97a02fa14611db3578063fb7c592a14611ddc578063fb90da6814611ea9578063fc1e6db214611ebe5761050b565b8063dba4915314611c21578063dd9e995a14611479578063df27eb8914611cd0578063ea3db25014611cfa578063f0cde07e14611d0f578063f21cc71f14611d245761050b565b8063d02fd9581161011e578063d02fd958146115fc578063d459c4161461162f578063d5eef9711461189a578063d826f88f14611966578063d8d023301461197b578063d9f74b0e146119ae5761050b565b8063c41595591461153c578063c4572eb914611575578063c4d66de81461158a578063c6254dba146115bd578063c82ba9dd146115d2578063cfaba010146115e75761050b565b8063994aa93111610209578063b4bd2e7a116101c2578063b4bd2e7a146114a9578063b6104f96146114be578063b6aef06f146114d3578063b7a34a73146114e8578063ba34683914611512578063bcb65607146115275761050b565b8063994aa931146112e5578063a2af0419146113a7578063a6c1691c146113da578063a81e63f7146113ef578063abb3bb7314611446578063b1474a97146114795761050b565b806393c43bd01161025b57806393c43bd014611212578063946626f414611240578063946fbf4c1461126a578063951303f51461127f57806396aab311146112945780639894d734146112a95761050b565b806385df153d1461117757806387a90d801461118c5780638a7e6464146111a157806390a2f687146111cb57806391d165e3146111fd5761050b565b80632d099442116103df5780636e4668be1161034657806375030f9c116102ff57806375030f9c1461076657806376ef551014610f9d5780637a26f05a14610fb25780637be4227f14610fe05780637f6e12161461109b57806384eb69aa146110b05761050b565b80636e4668be14610e145780636ede101114610e29578063725bd32414610e535780637305919914610f04578063735bd9d614610f1957806374f1c69414610f4c5761050b565b80634f706e44116103985780634f706e4414610c5257806356de96db14610c6757806360e98d5914610c9457806368b2bb3514610ca95780636beb29ef14610d755780636c3b011414610dff5761050b565b80632d099442146109b35780633322f9a014610a7f57806335bc0ebe14610bb557806342dbc60a14610bca578063436fd9e614610bfa5780634cb24d4114610c245761050b565b806313f654df11610483578063245dc4c51161043c578063245dc4c51461093557806324600fc31461094a578063259b1ea31461095f578063287b32e5146109745780632b0bc981146109895780632c735daa1461099e5761050b565b806313f654df146108455780631865c57d1461085a57806318e3cde9146108855780631f8e1d6a1461089a578063228a0507146108af57806324315537146108e05761050b565b8063058d3703116104d5578063058d37031461076657806307acd5cb1461078d5780630b3728c3146107a25780630c3f6acf146107d05780630d5889f4146107e55780631209114a146108115761050b565b80621b28031461054a57806249ce7514610581578063022d44b71461063257806303c73ded146106655780630576025214610693575b36156105485760405162461bcd60e51b815260040180806020018281038252603b81526020018061545f603b913960400191505060405180910390fd5b005b34801561055657600080fd5b5061055f611eee565b604080516bffffffffffffffffffffffff199092168252519081900360200190f35b34801561058d57600080fd5b50610548600480360360208110156105a457600080fd5b810190602081018135600160201b8111156105be57600080fd5b8201836020820111156105d057600080fd5b803590602001918460018302840111600160201b831117156105f157600080fd5b91908080601f016020809104026020016040519081016040528093929190818152602001838380828437600092019190915250929550611f74945050505050565b34801561063e57600080fd5b506105486004803603602081101561065557600080fd5b50356001600160a01b031661210f565b34801561067157600080fd5b506105486004803603602081101561068857600080fd5b503561ffff16612131565b34801561069f57600080fd5b50610749600480360360408110156106b657600080fd5b810190602081018135600160201b8111156106d057600080fd5b8201836020820111156106e257600080fd5b803590602001918460018302840111600160201b8311171561070357600080fd5b91908080601f0160208091040260200160405190810160405280939291908181526020018383808284376000920191909152509295505050903560ff1691506121519050565b604080516001600160c01b03199092168252519081900360200190f35b34801561077257600080fd5b5061077b61224d565b60408051918252519081900360200190f35b34801561079957600080fd5b5061077b6122a1565b3480156107ae57600080fd5b50610548600480360360208110156107c557600080fd5b503561ffff166122b2565b3480156107dc57600080fd5b5061077b6122ca565b3480156107f157600080fd5b506107fa6122da565b6040805161ffff9092168252519081900360200190f35b34801561081d57600080fd5b506105486004803603602081101561083457600080fd5b503567ffffffffffffffff166122eb565b34801561085157600080fd5b5061077b612319565b34801561086657600080fd5b5061086f6122ca565b6040805160ff9092168252519081900360200190f35b34801561089157600080fd5b5061077b612426565b3480156108a657600080fd5b5061054861247a565b3480156108bb57600080fd5b506108c4612486565b604080516001600160a01b039092168252519081900360200190f35b3480156108ec57600080fd5b50610548600480360360a081101561090357600080fd5b506001600160a01b038135811691602081013582169160408201358116916060810135821691608090910135166124da565b34801561094157600080fd5b5061077b612539565b34801561095657600080fd5b5061054861253f565b34801561096b57600080fd5b50610548612549565b34801561098057600080fd5b506105486125b5565b34801561099557600080fd5b50610548612607565b3480156109aa57600080fd5b50610548612659565b3480156109bf57600080fd5b50610548600480360360a08110156109d657600080fd5b60ff8235169160208101359160408201359160608101359181019060a081016080820135600160201b811115610a0b57600080fd5b820183602082011115610a1d57600080fd5b803590602001918460018302840111600160201b83111715610a3e57600080fd5b91908080601f0160208091040260200160405190810160405280939291908181526020018383808284376000920191909152509295506126ab945050505050565b348015610a8b57600080fd5b5061077b60048036036040811015610aa257600080fd5b810190602081018135600160201b811115610abc57600080fd5b820183602082011115610ace57600080fd5b803590602001918460018302840111600160201b83111715610aef57600080fd5b91908080601f0160208091040260200160405190810160405280939291908181526020018383808284376000920191909152509295949360208101935035915050600160201b811115610b4157600080fd5b820183602082011115610b5357600080fd5b803590602001918460018302840111600160201b83111715610b7457600080fd5b91908080601f0160208091040260200160405190810160405280939291908181526020018383808284376000920191909152509295506127ac945050505050565b348015610bc157600080fd5b5061077b6128d1565b348015610bd657600080fd5b5061054860048036036040811015610bed57600080fd5b5080359060200135612925565b348015610c0657600080fd5b5061054860048036036020811015610c1d57600080fd5b5035612930565b348015610c3057600080fd5b50610c39612944565b6040805192835260208301919091528051918290030190f35b348015610c5e57600080fd5b5061054861294e565b348015610c7357600080fd5b5061054860048036036020811015610c8a57600080fd5b503560ff166129a0565b348015610ca057600080fd5b5061077b6129c0565b348015610cb557600080fd5b50610548600480360360a0811015610ccc57600080fd5b6001600160a01b038235169190810190604081016020820135600160201b811115610cf657600080fd5b820183602082011115610d0857600080fd5b803590602001918460018302840111600160201b83111715610d2957600080fd5b91908080601f01602080910402602001604051908101604052809392919081815260200183838082843760009201919091525092955050823593505050602081013590604001356129d1565b348015610d8157600080fd5b50610d8a612a10565b6040805160208082528351818301528351919283929083019185019080838360005b83811015610dc4578181015183820152602001610dac565b50505050905090810190601f168015610df15780820380516001836020036101000a031916815260200191505b509250505060405180910390f35b348015610e0b57600080fd5b506108c4612b54565b348015610e2057600080fd5b5061077b612b63565b348015610e3557600080fd5b5061054860048036036020811015610e4c57600080fd5b5035612bb7565b348015610e5f57600080fd5b5061054860048036036020811015610e7657600080fd5b810190602081018135600160201b811115610e9057600080fd5b820183602082011115610ea257600080fd5b803590602001918460018302840111600160201b83111715610ec357600080fd5b91908080601f016020809104026020016040519081016040528093929190818152602001838380828437600092019190915250929550612bbc945050505050565b348015610f1057600080fd5b5061077b612c28565b348015610f2557600080fd5b5061054860048036036020811015610f3c57600080fd5b50356001600160a01b0316612c2e565b348015610f5857600080fd5b50610f7f60048036036020811015610f6f57600080fd5b50356001600160a01b0316612c50565b60408051938452602084019290925282820152519081900360600190f35b348015610fa957600080fd5b506107fa612c73565b348015610fbe57600080fd5b5061054860048036036020811015610fd557600080fd5b503561ffff16612c7d565b348015610fec57600080fd5b50610ff5612c9f565b60405180866001600160a01b03166001600160a01b0316815260200180602001858152602001848152602001838152602001828103825286818151815260200191508051906020019080838360005b8381101561105c578181015183820152602001611044565b50505050905090810190601f1680156110895780820380516001836020036101000a031916815260200191505b50965050505050505060405180910390f35b3480156110a757600080fd5b5061077b612d69565b3480156110bc57600080fd5b50610548600480360360608110156110d357600080fd5b6001600160c01b031982351691602081013591810190606081016040820135600160201b81111561110357600080fd5b82018360208201111561111557600080fd5b803590602001918460018302840111600160201b8311171561113657600080fd5b91908080601f016020809104026020016040519081016040528093929190818152602001838380828437600092019190915250929550612dbd945050505050565b34801561118357600080fd5b506107fa612dec565b34801561119857600080fd5b5061077b612dfc565b3480156111ad57600080fd5b50610548600480360360208110156111c457600080fd5b5035612f0a565b3480156111d757600080fd5b506111e0612f1b565b6040805167ffffffffffffffff9092168252519081900360200190f35b34801561120957600080fd5b50610548612f32565b34801561121e57600080fd5b506105486004803603602081101561123557600080fd5b503561ffff16612f84565b34801561124c57600080fd5b506105486004803603602081101561126357600080fd5b5035612fa7565b34801561127657600080fd5b5061077b612fac565b34801561128b57600080fd5b5061077b613000565b3480156112a057600080fd5b5061054861300c565b3480156112b557600080fd5b50610548600480360360408110156112cc57600080fd5b506001600160c01b03198135811691602001351661305e565b3480156112f157600080fd5b506105486004803603604081101561130857600080fd5b6001600160c01b03198235169190810190604081016020820135600160201b81111561133357600080fd5b82018360208201111561134557600080fd5b803590602001918460018302840111600160201b8311171561136657600080fd5b91908080601f0160208091040260200160405190810160405280939291908181526020018383808284376000920191909152509295506130e4945050505050565b3480156113b357600080fd5b50610548600480360360208110156113ca57600080fd5b50356001600160a01b03166131b6565b3480156113e657600080fd5b5061077b6131d8565b610548600480360360c081101561140557600080fd5b5080356001600160a01b03908116916020810135821691604082013581169160608101358216916080820135169060a0013567ffffffffffffffff1661322c565b34801561145257600080fd5b506105486004803603602081101561146957600080fd5b50356001600160a01b0316613304565b34801561148557600080fd5b506105486004803603604081101561149c57600080fd5b5080359060200135613326565b3480156114b557600080fd5b50610548613331565b3480156114ca57600080fd5b5061077b613383565b3480156114df57600080fd5b5061077b613389565b3480156114f457600080fd5b5061077b6004803603602081101561150b57600080fd5b503561338f565b34801561151e57600080fd5b5061054861341f565b34801561153357600080fd5b50610548613471565b34801561154857600080fd5b506105486004803603606081101561155f57600080fd5b5060ff813516906020810135906040013561347b565b34801561158157600080fd5b5061077b613501565b34801561159657600080fd5b50610548600480360360208110156115ad57600080fd5b50356001600160a01b031661350d565b3480156115c957600080fd5b50610c3961357e565b3480156115de57600080fd5b5061077b613588565b3480156115f357600080fd5b5061054861358e565b34801561160857600080fd5b5061077b6004803603602081101561161f57600080fd5b50356001600160a01b03166135e0565b34801561163b57600080fd5b50610548600480360360e081101561165257600080fd5b6001600160e01b03198235169190810190604081016020820135600160201b81111561167d57600080fd5b82018360208201111561168f57600080fd5b803590602001918460018302840111600160201b831117156116b057600080fd5b91908080601f0160208091040260200160405190810160405280939291908181526020018383808284376000920191909152509295949360208101935035915050600160201b81111561170257600080fd5b82018360208201111561171457600080fd5b803590602001918460018302840111600160201b8311171561173557600080fd5b91908080601f01602080910402602001604051908101604052809392919081815260200183838082843760009201919091525092956001600160e01b0319853516959094909350604081019250602001359050600160201b81111561179957600080fd5b8201836020820111156117ab57600080fd5b803590602001918460018302840111600160201b831117156117cc57600080fd5b91908080601f01602080910402602001604051908101604052809392919081815260200183838082843760009201919091525092958435959094909350604081019250602001359050600160201b81111561182657600080fd5b82018360208201111561183857600080fd5b803590602001918460018302840111600160201b8311171561185957600080fd5b91908080601f0160208091040260200160405190810160405280939291908181526020018383808284376000920191909152509295506135ff945050505050565b3480156118a657600080fd5b50610548600480360360a08110156118bd57600080fd5b60ff8235169160208101359160408201359160608101359181019060a081016080820135600160201b8111156118f257600080fd5b82018360208201111561190457600080fd5b803590602001918460018302840111600160201b8311171561192557600080fd5b91908080601f016020809104026020016040519081016040528093929190818152602001838380828437600092019190915250929550613841945050505050565b34801561197257600080fd5b506105486138d3565b34801561198757600080fd5b5061077b6004803603602081101561199e57600080fd5b50356001600160a01b031661394c565b3480156119ba57600080fd5b5061054860048036036101008110156119d257600080fd5b6001600160e01b03198235169190810190604081016020820135600160201b8111156119fd57600080fd5b820183602082011115611a0f57600080fd5b803590602001918460018302840111600160201b83111715611a3057600080fd5b91908080601f0160208091040260200160405190810160405280939291908181526020018383808284376000920191909152509295949360208101935035915050600160201b811115611a8257600080fd5b820183602082011115611a9457600080fd5b803590602001918460018302840111600160201b83111715611ab557600080fd5b91908080601f01602080910402602001604051908101604052809392919081815260200183838082843760009201919091525092956001600160e01b03198535169560ff60208701351695919450925060608101915060400135600160201b811115611b2057600080fd5b820183602082011115611b3257600080fd5b803590602001918460018302840111600160201b83111715611b5357600080fd5b91908080601f01602080910402602001604051908101604052809392919081815260200183838082843760009201919091525092958435959094909350604081019250602001359050600160201b811115611bad57600080fd5b820183602082011115611bbf57600080fd5b803590602001918460018302840111600160201b83111715611be057600080fd5b91908080601f016020809104026020016040519081016040528093929190818152602001838380828437600092019190915250929550613961945050505050565b348015611c2d57600080fd5b50611c36613bb1565b60405180846001600160c01b0319166001600160c01b031916815260200183815260200180602001828103825283818151815260200191508051906020019080838360005b83811015611c93578181015183820152602001611c7b565b50505050905090810190601f168015611cc05780820380516001836020036101000a031916815260200191505b5094505050505060405180910390f35b348015611cdc57600080fd5b5061054860048036036020811015611cf357600080fd5b5035613d17565b348015611d0657600080fd5b50610548613d1c565b348015611d1b57600080fd5b5061077b613d6e565b348015611d3057600080fd5b5061054860048036036020811015611d4757600080fd5b5035613dc2565b348015611d5a57600080fd5b5061054860048036036040811015611d7157600080fd5b506001600160a01b038135169060200135613dc7565b348015611d9357600080fd5b5061054860048036036020811015611daa57600080fd5b50351515613ddd565b348015611dbf57600080fd5b50611dc8613dee565b604080519115158252519081900360200190f35b348015611de857600080fd5b5061054860048036036060811015611dff57600080fd5b6001600160c01b03198235169190810190604081016020820135600160201b811115611e2a57600080fd5b820183602082011115611e3c57600080fd5b803590602001918460018302840111600160201b83111715611e5d57600080fd5b91908080601f016020809104026020016040519081016040528093929190818152602001838380828437600092019190915250929550505090356001600160a01b03169150613e429050565b348015611eb557600080fd5b506108c4613f69565b348015611eca57600080fd5b5061054860048036036040811015611ee157600080fd5b5080359060200135613f78565b6000600173__DepositUtils__________________________63e0dfd81a90916040518263ffffffff1660e01b81526004018082815260200191505060206040518083038186803b158015611f4257600080fd5b505af4158015611f56573d6000803e3d6000fd5b505050506040513d6020811015611f6c57600080fd5b505190505b90565b6040805163ad91ce1f60e01b8152600160048201529051339173__DepositUtils__________________________9163ad91ce1f91602480820192602092909190829003018186803b158015611fc957600080fd5b505af4158015611fdd573d6000803e3d6000fd5b505050506040513d6020811015611ff357600080fd5b50516001600160a01b03161461203a5760405162461bcd60e51b815260040180806020018281038252602881526020018061549a6028913960400191505060405180910390fd5b60408051635f3c5d8960e01b81526001600482018181526024830193845284516044840152845173__DepositFunding________________________94635f3c5d8994879392606490910190602085019080838360005b838110156120a9578181015183820152602001612091565b50505050905090810190601f1680156120d65780820380516001836020036101000a031916815260200191505b50935050505060006040518083038186803b1580156120f457600080fd5b505af4158015612108573d6000803e3d6000fd5b5050505050565b600b80546001600160a01b0319166001600160a01b0392909216919091179055565b6006805461ffff909216620100000263ffff000019909216919091179055565b60405162793f2d60e51b815260016004820181815260ff8416604484015260606024840190815285516064850152855160009473__DepositUtils__________________________94630f27e5a0949093899389936084019060208601908083838d5b838110156121cc5781810151838201526020016121b4565b50505050905090810190601f1680156121f95780820380516001836020036101000a031916815260200191505b5094505050505060206040518083038186803b15801561221857600080fd5b505af415801561222c573d6000803e3d6000fd5b505050506040513d602081101561224257600080fd5b505190505b92915050565b6000600173__DepositUtils__________________________63a880784890916040518263ffffffff1660e01b81526004018082815260200191505060206040518083038186803b158015611f4257600080fd5b60006122ad6001613f8a565b905090565b6006805461ffff191661ffff92909216919091179055565b600554600160e01b900460ff1690565b600654600160201b900461ffff1690565b6005805467ffffffffffffffff909216600160a01b0267ffffffffffffffff60a01b19909216919091179055565b6000600173__DepositStates_________________________63fb0611ff90916040518263ffffffff1660e01b81526004018082815260200191505060206040518083038186803b15801561236d57600080fd5b505af4158015612381573d6000803e3d6000fd5b505050506040513d602081101561239757600080fd5b50516123d45760405162461bcd60e51b815260040180806020018281038252602981526020018061558e6029913960400191505060405180910390fd5b604080516350ef3aa160e01b815260016004820152905173__DepositUtils__________________________916350ef3aa1916024808301926020929190829003018186803b158015611f4257600080fd5b6000600173__DepositUtils__________________________632fac808a90916040518263ffffffff1660e01b81526004018082815260200191505060206040518083038186803b158015611f4257600080fd5b612484600161405e565b565b6000600173__DepositUtils__________________________631bf7ad3190916040518263ffffffff1660e01b81526004018082815260200191505060206040518083038186803b158015611f4257600080fd5b600180546001600160a01b03199081166001600160a01b03978816179091556002805482169587169590951790945560038054851693861693909317909255600480548416918516919091179055600580549092169216919091179055565b600d5490565b612484600161419c565b6040805163426e16c160e01b815260016004820152905173__DepositFunding________________________9163426e16c1916024808301926000929190829003018186803b15801561259b57600080fd5b505af41580156125af573d6000803e3d6000fd5b50505050565b6040805163077aceb960e31b815260016004820152905173__DepositLiquidation____________________91633bd675c8916024808301926000929190829003018186803b15801561259b57600080fd5b6040805163439b7be160e11b815260016004820152905173__DepositRedemption_____________________91638736f7c2916024808301926000929190829003018186803b15801561259b57600080fd5b60408051631754228360e11b815260016004820152905173__DepositLiquidation____________________91632ea84506916024808301926000929190829003018186803b15801561259b57600080fd5b600173__DepositFunding________________________63fb12d9df909187878787876040518763ffffffff1660e01b8152600401808781526020018660ff1660ff16815260200185815260200184815260200183815260200180602001828103825283818151815260200191508051906020019080838360005b8381101561273e578181015183820152602001612726565b50505050905090810190601f16801561276b5780820380516001836020036101000a031916815260200191505b5097505050505050505060006040518083038186803b15801561278d57600080fd5b505af41580156127a1573d6000803e3d6000fd5b505050505050505050565b6000600173__DepositRedemption_____________________63936b9ac5909185856040518463ffffffff1660e01b8152600401808481526020018060200180602001838103835285818151815260200191508051906020019080838360005b8381101561282457818101518382015260200161280c565b50505050905090810190601f1680156128515780820380516001836020036101000a031916815260200191505b50838103825284518152845160209182019186019080838360005b8381101561288457818101518382015260200161286c565b50505050905090810190601f1680156128b15780820380516001836020036101000a031916815260200191505b509550505050505060206040518083038186803b15801561221857600080fd5b6000600173__DepositUtils__________________________6391f88c8590916040518263ffffffff1660e01b81526004018082815260200191505060206040518083038186803b158015611f4257600080fd5b600891909155600955565b61294160018263ffffffff6143b916565b50565b6008546009549091565b604080516361f036d360e01b815260016004820152905173__DepositFunding________________________916361f036d3916024808301926000929190829003018186803b15801561259b57600080fd5b6005805460ff909216600160e01b0260ff60e01b19909216919091179055565b600554600160e81b900461ffff1690565b601080546001600160a01b0319166001600160a01b03871617905583516129ff906011906020870190615359565b506012929092556014556015555050565b6060600173__DepositUtils__________________________63db08d91990916040518263ffffffff1660e01b81526004018082815260200191505060006040518083038186803b158015612a6457600080fd5b505af4158015612a78573d6000803e3d6000fd5b505050506040513d6000823e601f3d908101601f191682016040526020811015612aa157600080fd5b8101908080516040519392919084600160201b821115612ac057600080fd5b908301906020820185811115612ad557600080fd5b8251600160201b811182820188101715612aee57600080fd5b82525081516020918201929091019080838360005b83811015612b1b578181015183820152602001612b03565b50505050905090810190601f168015612b485780820380516001836020036101000a031916815260200191505b50604052505050905090565b600b546001600160a01b031690565b6000600173__DepositLiquidation____________________63e86e97b690916040518263ffffffff1660e01b81526004018082815260200191505060206040518083038186803b158015611f4257600080fd5b601355565b60408051635c7b82d760e01b81526001600482018181526024830193845284516044840152845173__DepositUtils__________________________94635c7b82d7948793926064909101906020850190808383600083156120a9578181015183820152602001612091565b60145490565b600580546001600160a01b0319166001600160a01b0392909216919091179055565b60008080612c666001858363ffffffff61443616565b9250925092509193909250565b60065461ffff1690565b6005805461ffff909216600160e81b0261ffff60e81b19909216919091179055565b6010546012546014546015546011805460408051602060026101006001861615026000190190941693909304601f81018490048402820184019092528181526000976060978997889788976001600160a01b039094169693959294919390928691830182828015612d515780601f10612d2657610100808354040283529160200191612d51565b820191906000526020600020905b815481529060010190602001808311612d3457829003601f168201915b50505050509350945094509450945094509091929394565b6000600173__DepositUtils__________________________6368c2bd8690916040518263ffffffff1660e01b81526004018082815260200191505060206040518083038186803b158015611f4257600080fd5b6016805467ffffffffffffffff191660c085901c179055601782905580516125af906018906020840190615359565b60065462010000900461ffff1690565b6000600173__DepositStates_________________________6348312fa390916040518263ffffffff1660e01b81526004018082815260200191505060206040518083038186803b158015612e5057600080fd5b505af4158015612e64573d6000803e3d6000fd5b505050506040513d6020811015612e7a57600080fd5b505115612eb85760405162461bcd60e51b81526004018080602001828103825260418152602001806153f26041913960600191505060405180910390fd5b60408051631ec664f560e21b815260016004820152905173__DepositUtils__________________________91637b1993d4916024808301926020929190829003018186803b158015611f4257600080fd5b61294160018263ffffffff6146ad16565b600554600160a01b900467ffffffffffffffff1690565b60408051634e40547560e11b815260016004820152905173__DepositLiquidation____________________91639c80a8ea916024808301926000929190829003018186803b15801561259b57600080fd5b6006805461ffff909216600160201b0265ffff0000000019909216919091179055565b600d55565b6000600173__DepositUtils__________________________637949c2d290916040518263ffffffff1660e01b81526004018082815260200191505060206040518083038186803b158015611f4257600080fd5b60006122ad6001614772565b6040805163a221542160e01b815260016004820152905173__DepositLiquidation____________________9163a2215421916024808301926000929190829003018186803b15801561259b57600080fd5b60408051632d0c21bf60e01b8152600160048201526001600160c01b0319808516602483015283166044820152905173__DepositRedemption_____________________91632d0c21bf916064808301926000929190829003018186803b1580156130c857600080fd5b505af41580156130dc573d6000803e3d6000fd5b505050505050565b604051632cac94ef60e01b81526001600482018181526001600160c01b03198516602484015260606044840190815284516064850152845173__DepositRedemption_____________________94632cac94ef94938893889391929091608490910190602085019080838360005b8381101561316a578181015183820152602001613152565b50505050905090810190601f1680156131975780820380516001836020036101000a031916815260200191505b5094505050505060006040518083038186803b1580156130c857600080fd5b601080546001600160a01b0319166001600160a01b0392909216919091179055565b6000600173__DepositUtils__________________________63fa067d9290916040518263ffffffff1660e01b81526004018082815260200191505060206040518083038186803b158015611f4257600080fd5b600180546001600160a01b03199081166001600160a01b03898116919091178355600280548316898316179055600380548316888316179055600480548316878316178155600580549093169186169190911790915560408051632851e9dd60e01b81529182019290925267ffffffffffffffff83166024820152905173__DepositFunding________________________91632851e9dd916044808301926000929190829003018186803b1580156132e457600080fd5b505af41580156132f8573d6000803e3d6000fd5b50505050505050505050565b600a80546001600160a01b0319166001600160a01b0392909216919091179055565b600e91909155600f55565b604080516324e8e19960e21b815260016004820152905173__DepositLiquidation____________________916393a38664916024808301926000929190829003018186803b15801561259b57600080fd5b60085490565b60135490565b6000600173__DepositUtils__________________________631129a8a99091846040518363ffffffff1660e01b8152600401808381526020018281526020019250505060206040518083038186803b1580156133eb57600080fd5b505af41580156133ff573d6000803e3d6000fd5b505050506040513d602081101561341557600080fd5b505190505b919050565b604080516304bfa27760e01b815260016004820152905173__DepositRedemption_____________________916304bfa277916024808301926000929190829003018186803b15801561259b57600080fd5b6124846001614789565b60408051631e3435d560e11b81526001600482015260ff851660248201526044810184905260648101839052905173__DepositRedemption_____________________91633c686baa916084808301926000929190829003018186803b1580156134e457600080fd5b505af41580156134f8573d6000803e3d6000fd5b50505050505050565b60006122ad6001614aee565b60005460ff161561354f5760405162461bcd60e51b81526004018080602001828103825260258152602001806155696025913960400191505060405180910390fd5b6000805460ff196001600160a01b0390931661010002610100600160a81b031990911617919091166001179055565b600e54600f549091565b600c5490565b6040805163288ac18560e21b815260016004820152905173__DepositUtils__________________________9163a22b0614916024808301926000929190829003018186803b15801561259b57600080fd5b6000806135f56001848363ffffffff61443616565b5090949350505050565b604051636c7e2b9d60e01b81526001600482018181526001600160e01b0319808b1660248501528716608484015260c48301859052610100604484019081528951610104850152895173__DepositRedemption_____________________94636c7e2b9d94938d938d938d938d938d938d938d93606481019160a482019160e48101916101249091019060208d019080838360005b838110156136ac578181015183820152602001613694565b50505050905090810190601f1680156136d95780820380516001836020036101000a031916815260200191505b5085810384528a5181528a516020918201918c019080838360005b8381101561370c5781810151838201526020016136f4565b50505050905090810190601f1680156137395780820380516001836020036101000a031916815260200191505b5085810383528851815288516020918201918a019080838360005b8381101561376c578181015183820152602001613754565b50505050905090810190601f1680156137995780820380516001836020036101000a031916815260200191505b50858103825286518152865160209182019188019080838360005b838110156137cc5781810151838201526020016137b4565b50505050905090810190601f1680156137f95780820380516001836020036101000a031916815260200191505b509c5050505050505050505050505060006040518083038186803b15801561382057600080fd5b505af4158015613834573d6000803e3d6000fd5b5050505050505050505050565b600173__DepositLiquidation____________________634941676c909187878787876040518763ffffffff1660e01b8152600401808781526020018660ff1660ff16815260200185815260200184815260200183815260200180602001828103825283818151815260200191508051906020019080838360008381101561273e578181015183820152602001612726565b6138dd60006129a0565b6138e8600080612925565b60408051602081019091526000808252613904918180806129d1565b613923600060c01b600060405180602001604052806000815250612dbd565b61392d600061210f565b6139376000613d17565b6139416000612fa7565b612484600080613326565b6000806135f56001848163ffffffff61443616565b60405163d745519360e01b81526001600482018181526001600160e01b0319808c1660248501528816608484015260ff871660a484015260e48301859052610120604484019081528a516101248501528a5173__DepositFunding________________________9463d745519394938e938e938e938e938e938e938e938e939291606482019160c4810191610104820191610144019060208e019080838360005b83811015613a1a578181015183820152602001613a02565b50505050905090810190601f168015613a475780820380516001836020036101000a031916815260200191505b5085810384528b5181528b516020918201918d019080838360005b83811015613a7a578181015183820152602001613a62565b50505050905090810190601f168015613aa75780820380516001836020036101000a031916815260200191505b5085810383528851815288516020918201918a019080838360005b83811015613ada578181015183820152602001613ac2565b50505050905090810190601f168015613b075780820380516001836020036101000a031916815260200191505b50858103825286518152865160209182019188019080838360005b83811015613b3a578181015183820152602001613b22565b50505050905090810190601f168015613b675780820380516001836020036101000a031916815260200191505b509d505050505050505050505050505060006040518083038186803b158015613b8f57600080fd5b505af4158015613ba3573d6000803e3d6000fd5b505050505050505050505050565b6000806060600173__DepositStates_________________________6348312fa390916040518263ffffffff1660e01b81526004018082815260200191505060206040518083038186803b158015613c0857600080fd5b505af4158015613c1c573d6000803e3d6000fd5b505050506040513d6020811015613c3257600080fd5b505115613c705760405162461bcd60e51b81526004018080602001828103825260418152602001806153f26041913960600191505060405180910390fd5b60165460175460188054604080516020601f6002600019600187161561010002019095169490940493840181900481028201810190925282815260c09590951b94918391830182828015613d055780601f10613cda57610100808354040283529160200191613d05565b820191906000526020600020905b815481529060010190602001808311613ce857829003601f168201915b50505050509050925092509250909192565b600c55565b60408051632ec8740960e21b815260016004820152905173__DepositFunding________________________9163bb21d024916024808301926000929190829003018186803b15801561259b57600080fd5b6000600173__DepositUtils__________________________638fdd038890916040518263ffffffff1660e01b81526004018082815260200191505060206040518083038186803b158015611f4257600080fd5b600755565b613dd96001838363ffffffff614b0d16565b5050565b61294160018263ffffffff614b5916565b6000600173__DepositStates_________________________630f2c635590916040518263ffffffff1660e01b81526004018082815260200191505060206040518083038186803b158015611f4257600080fd5b6005546001600160a01b03163314613e8b5760405162461bcd60e51b815260040180806020018281038252603e81526020018061552b603e913960400191505060405180910390fd5b604051630d806ee760e41b81526001600482018181526001600160c01b0319861660248401526001600160a01b038416606484015260806044840190815285516084850152855173__DepositRedemption_____________________9463d806ee70949389938993899360a40190602086019080838360005b83811015613f1c578181015183820152602001613f04565b50505050905090810190601f168015613f495780820380516001836020036101000a031916815260200191505b509550505050505060006040518083038186803b1580156134e457600080fd5b600a546001600160a01b031690565b6000918252601a602052604090912055565b600a810154604080516307acd5cb60e01b8152905160009247926001600160a01b039091169182916307acd5cb916004808301928892919082900301818387803b158015613fd757600080fd5b505af1158015613feb573d6000803e3d6000fd5b504792505050828111614045576040805162461bcd60e51b815260206004820152601d60248201527f4e6f2066756e64732072656365697665642c20756e6578706563746564000000604482015290519081900360640190fd5b614055818463ffffffff614ebf16565b95945050505050565b600061406982614f1c565b90506001600160a01b03811661407f5750612941565b61408882615000565b6001830154604080516370a0823160e01b815230600482015290516001600160a01b03909216916370a0823191602480820192602092909190829003018186803b1580156140d557600080fd5b505afa1580156140e9573d6000803e3d6000fd5b505050506040513d60208110156140ff57600080fd5b505110613dd95760018201546001600160a01b031663a9059cbb8261412385615000565b6040518363ffffffff1660e01b815260040180836001600160a01b03166001600160a01b0316815260200182815260200192505050602060405180830381600087803b15801561417257600080fd5b505af1158015614186573d6000803e3d6000fd5b505050506040513d60208110156125af57600080fd5b336000908152601882016020908152604091829020548251635a33257560e01b8152600481018590529251909273__DepositStates_________________________92635a33257592602480840193829003018186803b1580156141ff57600080fd5b505af4158015614213573d6000803e3d6000fd5b505050506040513d602081101561422957600080fd5b505161427c576040805162461bcd60e51b815260206004820152601b60248201527f436f6e7472616374206e6f7420796574207465726d696e617465640000000000604482015290519081900360640190fd5b600081116142c7576040805162461bcd60e51b81526020600482015260136024820152724e6f7468696e6720746f20776974686472617760681b604482015290519081900360640190fd5b8047101561431c576040805162461bcd60e51b815260206004820152601d60248201527f496e73756666696369656e7420636f6e74726163742062616c616e6365000000604482015290519081900360640190fd5b3360008181526018840160205260408082208290555190919083908381818185875af1925050503d806000811461436f576040519150601f19603f3d011682016040523d82523d6000602084013e614374565b606091505b50509050806143b45760405162461bcd60e51b815260040180806020018281038252602c815260200180615433602c913960400191505060405180910390fd5b505050565b600a8201546040805163799cd33360e01b81526004810184905290516001600160a01b039092169163799cd3339160248082019260009290919082900301818387803b15801561440857600080fd5b505af115801561441c573d6000803e3d6000fd5b505050600091825250601990910160205260409020429055565b60008060008084806144615750856001600160a01b03166144568861502c565b6001600160a01b0316145b905060008061446f8961508d565b1180156144f657508773__DepositStates_________________________63761275bf90916040518263ffffffff1660e01b81526004018082815260200191505060206040518083038186803b1580156144c857600080fd5b505af41580156144dc573d6000803e3d6000fd5b505050506040513d60208110156144f257600080fd5b5051155b90508180614502575080155b61453d5760405162461bcd60e51b81526004018080602001828103825260488152602001806154c26048913960600191505060405180910390fd5b6000806145498a614f1c565b6001600160a01b0316141590506000886001600160a01b031661456b8b614f1c565b6001600160a01b031614905060006145828b615000565b90506000614593828686898761513f565b90506145b7816145ab6145a58f61518d565b8961521e565b9063ffffffff61523516565b60018d0154604080516370a0823160e01b81523060048201529051929b506000926001600160a01b03909216916370a0823191602480820192602092909190829003018186803b15801561460a57600080fd5b505afa15801561461e573d6000803e3d6000fd5b505050506040513d602081101561463457600080fd5b50519050808a1115614657576146508a8263ffffffff614ebf16565b995061465c565b600099505b8580156146665750845b8015614670575083155b15614679578297505b61469b8861468f8581858f63ffffffff61523516565b9063ffffffff614ebf16565b98505050505050505093509350939050565b80471015614702576040805162461bcd60e51b815260206004820152601860248201527f4e6f7420656e6f7567682066756e647320746f2073656e640000000000000000604482015290519081900360640190fd5b8015613dd957600a82015460408051631bb457e560e21b815290516001600160a01b03909216918291636ed15f9491859160048082019260009290919082900301818588803b15801561475457600080fd5b505af1158015614768573d6000803e3d6000fd5b5050505050505050565b336000908152601882016020526040902054919050565b60008173__DepositUtils__________________________63ad91ce1f90916040518263ffffffff1660e01b81526004018082815260200191505060206040518083038186803b1580156147dc57600080fd5b505af41580156147f0573d6000803e3d6000fd5b505050506040513d602081101561480657600080fd5b505160408051631bf7ad3160e01b815260048101859052905191925060009173__DepositUtils__________________________91631bf7ad31916024808301926020929190829003018186803b15801561486057600080fd5b505af4158015614874573d6000803e3d6000fd5b505050506040513d602081101561488a57600080fd5b50516004840154600f8501549192506001600160a01b0390811691600091829182916148bf918991168363ffffffff61443616565b919450925090508215614955576001870154604080516323b872dd60e01b81523360048201523060248201526044810186905290516001600160a01b03909216916323b872dd916064808201926020929091908290030181600087803b15801561492857600080fd5b505af115801561493c573d6000803e3d6000fd5b505050506040513d602081101561495257600080fd5b50505b8115614a6657836001600160a01b0316866001600160a01b031614156149e157600187015460408051630852cd8d60e31b81526004810185905290516001600160a01b03909216916342966c689160248082019260009290919082900301818387803b1580156149c457600080fd5b505af11580156149d8573d6000803e3d6000fd5b50505050614a66565b60018701546040805163a9059cbb60e01b81526001600160a01b038981166004830152602482018690529151919092169163a9059cbb9160448083019260209291908290030181600087803b158015614a3957600080fd5b505af1158015614a4d573d6000803e3d6000fd5b505050506040513d6020811015614a6357600080fd5b50505b80156134f85760018701546040805163a9059cbb60e01b81526001600160a01b038881166004830152602482018590529151919092169163a9059cbb9160448083019260209291908290030181600087803b158015614ac457600080fd5b505af1158015614ad8573d6000803e3d6000fd5b505050506040513d60208110156127a157600080fd5b6005810154600090612247906127109061ffff1663ffffffff61529616565b6001600160a01b0382166000908152601884016020526040902054614b38908263ffffffff61523516565b6001600160a01b039092166000908152601890930160205250604090912055565b60408051630b97468760e31b8152600481018490528215156024820152905173__OutsourceDepositLogging_______________91635cba3438916044808301926000929190829003018186803b158015614bb357600080fd5b505af4158015614bc7573d6000803e3d6000fd5b505050506000614bd683613f8a565b600f8401546040805163288ac18560e21b81526004810187905290519293506001600160a01b039091169173__DepositUtils__________________________9163a22b0614916024808301926000929190829003018186803b158015614c3c57600080fd5b505af4158015614c50573d6000803e3d6000fd5b505050508373__DepositStates_________________________63e0dfa4b390916040518263ffffffff1660e01b81526004018082815260200191505060206040518083038186803b158015614ca557600080fd5b505af4158015614cb9573d6000803e3d6000fd5b505050506040513d6020811015614ccf57600080fd5b50518015614cda5750825b15614dcc578373__DepositStates_________________________63056256a890916040518263ffffffff1660e01b81526004018082815260200191505060006040518083038186803b158015614d3057600080fd5b505af4158015614d44573d6000803e3d6000fd5b50614d5c92508691508390508463ffffffff614b0d16565b8373__OutsourceDepositLogging_______________6332e42f2d90916040518263ffffffff1660e01b81526004018082815260200191505060006040518083038186803b158015614dad57600080fd5b505af4158015614dc1573d6000803e3d6000fd5b505050505050613dd9565b6009840180546001600160a01b031916331790554260078501558215614e5a578373__DepositStates_________________________63c28eab4090916040518263ffffffff1660e01b81526004018082815260200191505060006040518083038186803b158015614e3d57600080fd5b505af4158015614e51573d6000803e3d6000fd5b505050506125af565b8373__DepositStates_________________________635dd33d9990916040518263ffffffff1660e01b81526004018082815260200191505060006040518083038186803b158015614eab57600080fd5b505af4158015614768573d6000803e3d6000fd5b600082821115614f16576040805162461bcd60e51b815260206004820152601e60248201527f536166654d6174683a207375627472616374696f6e206f766572666c6f770000604482015290519081900360640190fd5b50900390565b600381015460408051634f558e7960e01b8152306004820152905160009283926001600160a01b0390911691634f558e7991602480820192602092909190829003018186803b158015614f6e57600080fd5b505afa158015614f82573d6000803e3d6000fd5b505050506040513d6020811015614f9857600080fd5b505115612247576003830154604080516331a9108f60e11b815230600482015290516001600160a01b0390921691636352211e91602480820192602092909190829003018186803b158015614fec57600080fd5b505afa15801561222c573d6000803e3d6000fd5b600481015460009061224790600160e81b900461ffff166150208461518d565b9063ffffffff61529616565b6002810154604080516331a9108f60e11b815230600482015290516000926001600160a01b031691636352211e916024808301926020929190829003018186803b15801561507957600080fd5b505afa1580156133ff573d6000803e3d6000fd5b60008061511473__TBTCConstants_________________________63d565d1f16040518163ffffffff1660e01b815260040160206040518083038186803b1580156150d757600080fd5b505af41580156150eb573d6000803e3d6000fd5b505050506040513d602081101561510157600080fd5b505160168501549063ffffffff61523516565b9050804210156151365761512e814263ffffffff614ebf16565b91505061341a565b50600092915050565b60008085801561514c5750845b8015615156575082155b9050600086806151635750855b8061516b5750845b9050600081156151785788015b82156151815788015b98975050505050505050565b600061224773__TBTCConstants_________________________63ae9eb1276040518163ffffffff1660e01b815260040160206040518083038186803b1580156151d657600080fd5b505af41580156151ea573d6000803e3d6000fd5b505050506040513d602081101561520057600080fd5b50516004840154600160a01b900467ffffffffffffffff1690615300565b6000811561522e57506000612247565b5090919050565b60008282018381101561528f576040805162461bcd60e51b815260206004820152601b60248201527f536166654d6174683a206164646974696f6e206f766572666c6f770000000000604482015290519081900360640190fd5b9392505050565b60008082116152ec576040805162461bcd60e51b815260206004820152601a60248201527f536166654d6174683a206469766973696f6e206279207a65726f000000000000604482015290519081900360640190fd5b60008284816152f757fe5b04949350505050565b60008261530f57506000612247565b8282028284828161531c57fe5b041461528f5760405162461bcd60e51b815260040180806020018281038252602181526020018061550a6021913960400191505060405180910390fd5b828054600181600116156101000203166002900490600052602060002090601f016020900481019282601f1061539a57805160ff19168380011785556153c7565b828001600101855582156153c7579182015b828111156153c75782518255916020019190600101906153ac565b506153d39291506153d7565b5090565b611f7191905b808211156153d357600081556001016153dd56fe4465706f73697420686173206e6f7420796574206265656e2066756e64656420616e6420686173206e6f20617661696c61626c652066756e64696e6720696e666f4661696c656420746f2073656e6420776974686472617761626c6520616d6f756e7420746f2073656e6465724465706f73697420636f6e7472616374207761732063616c6c6564207769746820756e6b6e6f776e2066756e6374696f6e2073656c6563746f722e4f6e6c792054445420686f6c6465722063616e20726571756573742066756e6465722061626f72744f6e6c792054445420686f6c6465722063616e2072656465656d20756e6c657373206465706f7369742069732061742d7465726d206f7220696e20434f5552544553595f43414c4c536166654d6174683a206d756c7469706c69636174696f6e206f766572666c6f774f6e6c79207468652076656e64696e67206d616368696e652063616e2063616c6c207472616e73666572416e6452657175657374526564656d7074696f6e466163746f72792063616e206f6e6c7920626520696e697469616c697a6564206f6e63652e4465706f73697420686173206e6f2066756e64732063757272656e746c792061742061756374696f6ea265627a7a72315820f6d9d200fdca600a6d330cf8a105a5d39855cfe9144eb13a456b06d92534918664736f6c63430005110032466163746f72792063616e206f6e6c7920626520696e697469616c697a6564206f6e63652e",
  "source": "pragma solidity 0.5.17;\n\nimport {DepositUtils} from \"../../../contracts/deposit/DepositUtils.sol\";\nimport {TestDeposit} from \"./TestDeposit.sol\";\n\ncontract TestDepositUtils is TestDeposit {\n    constructor() public {\n    // solium-disable-previous-line no-empty-blocks\n    }\n\n    // Passthroughs to test view and pure functions\n\n    function currentBlockDifficulty() public view returns (uint256) {\n        return self.currentBlockDifficulty();\n    }\n\n    function previousBlockDifficulty() public view returns (uint256) {\n        return self.previousBlockDifficulty();\n    }\n\n    function evaluateProofDifficulty(bytes memory _bitcoinHeaders) public view {\n        return self.evaluateProofDifficulty(_bitcoinHeaders);\n    }\n\n    function setPubKey(\n        bytes32 _signingGroupPubkeyX,\n        bytes32 _signingGroupPubkeyY\n    ) public {\n        self.signingGroupPubkeyX = _signingGroupPubkeyX;\n        self.signingGroupPubkeyY = _signingGroupPubkeyY;\n    }\n\n    function findAndParseFundingOutput(\n        bytes memory _txOutputVector,\n        uint8 _fundingOutputIndex\n    ) public view returns (bytes8) {\n        return self.findAndParseFundingOutput(_txOutputVector, _fundingOutputIndex);\n    }\n\n    function signerFee() public view returns (uint256) {\n        return self.signerFeeTbtc();\n    }\n\n    function signerPubkey() public view returns (bytes memory) {\n        return self.signerPubkey();\n    }\n\n    function signerPKH() public view returns (bytes20) {\n        return self.signerPKH();\n    }\n\n    function fetchBitcoinPrice() public view returns (uint256) {\n        return self.fetchBitcoinPrice();\n    }\n\n    function fetchBondAmount() public view returns (uint256) {\n        return self.fetchBondAmount();\n    }\n\n    function feeRebateTokenHolder() public view returns (address payable) {\n        return self.feeRebateTokenHolder();\n    }\n\n    function redemptionTeardown() public {\n        return self.redemptionTeardown();\n    }\n\n    function seizeSignerBonds() public returns (uint256) {\n        return self.seizeSignerBonds();\n    }\n\n    function distributeFeeRebate() public {\n        return self.distributeFeeRebate();\n    }\n\n    function pushFundsToKeepGroup(uint256 _ethValue) public {\n        self.pushFundsToKeepGroup(_ethValue);\n    }\n\n    function enableWithdrawal(address _withdrawer, uint256 _amount) public {\n        self.enableWithdrawal(_withdrawer, _amount);\n    }\n}\n\n// Separate contract for testing SPV proofs, as putting this in the main\n// TestDepositUtils contract causes it to run out of gas before finishing its\n// deploy.\ncontract TestDepositUtilsSPV is TestDeposit {\n    constructor() public {\n        // solium-disable-previous-line no-empty-blocks\n    }\n\n    function setPubKey(\n        bytes32 _signingGroupPubkeyX,\n        bytes32 _signingGroupPubkeyY\n    ) public {\n        self.signingGroupPubkeyX = _signingGroupPubkeyX;\n        self.signingGroupPubkeyY = _signingGroupPubkeyY;\n    }\n\n    function validateAndParseFundingSPVProof(\n        bytes4 _txVersion,\n        bytes memory _txInputVector,\n        bytes memory _txOutputVector,\n        bytes4 _txLocktime,\n        uint8 _fundingOutputIndex,\n        bytes memory _merkleProof,\n        uint256 _txIndexInBlock,\n        bytes memory _bitcoinHeaders\n    ) public view returns (bytes8 _valueBytes, bytes memory _utxoOutpoint){\n        return self.validateAndParseFundingSPVProof(\n            _txVersion,\n            _txInputVector,\n            _txOutputVector,\n            _txLocktime,\n            _fundingOutputIndex,\n            _merkleProof,\n            _txIndexInBlock,\n            _bitcoinHeaders\n        );\n    }\n\n    function checkProofFromTxId(\n        bytes32 _bitcoinTxId,\n        bytes memory _merkleProof,\n        uint256 _index,\n        bytes memory _bitcoinHeaders\n    ) public view returns (bytes32) {\n        self.checkProofFromTxId(_bitcoinTxId, _merkleProof, _index, _bitcoinHeaders);\n    }\n}\n",
  "sourcePath": "/Users/symf/IdeaProjects/tbtc/solidity/contracts/test/deposit/TestDepositUtils.sol",
  "compiler": {
    "name": "solc",
    "version": "0.5.17+commit.d19bba13.Emscripten.clang"
  },
  "schemaVersion": "3.0.23",
  "updatedAt": "2020-08-21T21:24:02.904Z",
  "devdoc": {
    "methods": {
      "auctionValue()": {
        "details": "This call will revert if the deposit is not in a state where an      auction is currently in progress.",
        "return": "The value in wei that would be received in exchange for the         deposit's lot size in TBTC if `purchaseSignerBondsAtAuction`         were called at the time this function is called."
      },
      "collateralizationPercentage()": {
        "details": "This value represents the percentage of the backing BTC value the      signers currently must hold as bond.",
        "return": "The current collateralization level for this deposit."
      },
      "currentState()": {
        "details": "We implement this because contracts don't handle foreign enums      well. See `DepositStates` for more info on states.",
        "return": "The 0-indexed state from the DepositStates enum."
      },
      "exitCourtesyCall()": {
        "details": "This call will revert if collateral is still below the      undercollateralized threshold according to the price feed."
      },
      "fundingInfo()": {
        "details": "This call will revert if the deposit is not in a state where the      funding info should be valid. In particular, before funding proof      is successfully submitted (i.e. in states START,      AWAITING_SIGNER_SETUP, and AWAITING_BTC_FUNDING_PROOF), none of      these values are set or valid.",
        "return": "A tuple of (uxtoValueBytes, fundedAt, uxtoOutpoint)."
      },
      "getOwnerRedemptionTbtcRequirement(address)": {
        "params": {
          "_redeemer": "The assumed owner of the deposit's TDT ."
        },
        "return": "The amount in TBTC needed to redeem the deposit."
      },
      "getRedemptionTbtcRequirement(address)": {
        "details": "This call will revert if redemption is not possible by _redeemer.",
        "params": {
          "_redeemer": "The deposit redeemer whose TBTC requirement is being        requested."
        },
        "return": "The amount in TBTC needed by the `_redeemer` to redeem the         deposit."
      },
      "inActive()": {
        "return": "True if state is ACTIVE, false otherwise."
      },
      "increaseRedemptionFee(bytes8,bytes8)": {
        "details": "This call will revert if the fee is already at its maximum, or if      the new requested fee is not a multiple of the initial requested      fee. Transaction fees can only be bumped by the amount of the      initial requested fee. Calling this sends the deposit back to      the `AWAITING_WITHDRAWAL_SIGNATURE` state and requires the signers      to `provideRedemptionSignature` for the new output value in a      timely fashion.",
        "params": {
          "_newOutputValueBytes": "The new output's value.",
          "_previousOutputValueBytes": "The previous output's value."
        }
      },
      "initialCollateralizedPercent()": {
        "details": "This value represents the percentage of the backing BTC value      the signers hold initially. It is set at creation time.",
        "return": "The initial collateralization level for this deposit."
      },
      "keepAddress()": {
        "details": "The keep contract address is saved on Deposit initialization.",
        "return": "Address of the Keep contract."
      },
      "lotSizeSatoshis()": {
        "return": "uint64 lot size in satoshis."
      },
      "lotSizeTbtc()": {
        "details": "This is the same as lotSizeSatoshis(), but is multiplied to scale      to 18 decimal places.",
        "return": "uint256 lot size in TBTC precision (max 18 decimal places)."
      },
      "notifyCourtesyCall()": {
        "details": "This call will revert if the signers are not in fact      undercollateralized according to the price feed. After      TBTCConstants.COURTESY_CALL_DURATION, courtesy call times out and      regular abort liquidation occurs; see      `notifyCourtesyTimedOut`."
      },
      "notifyCourtesyCallExpired()": {
        "details": "This call will revert if the courtesy call period has not in fact      expired or is not in the courtesy call state. Courtesy call      expiration is treated as an abort, and is handled by seizing signer      bonds and putting them up for auction for the lot size amount in      TBTC (see `purchaseSignerBondsAtAuction`). Emits a      LiquidationStarted event. The caller is captured as the liquidation      initiator, and is eligible for 50% of any bond left after the      auction is completed."
      },
      "notifyFundingTimedOut()": {
        "details": "This is considered a funder fault, and the funder's payment for      opening the deposit is not refunded. Emits a SetupFailed event.      Reverts if the funding timeout has not yet elapsed, or if the      deposit is not currently awaiting funding proof."
      },
      "notifyRedemptionProofTimedOut()": {
        "details": "This call will revert if the deposit is not currently awaiting a      signature or if the allotted time has not yet elapsed. This is      considered an abort, and is punished by seizing signer bonds and      putting them up for auction for the lot size amount in TBTC (see      `purchaseSignerBondsAtAuction`). Emits a LiquidationStarted event.      The caller is captured as the liquidation initiator, and      is eligible for 50% of any bond left after the auction is     completed."
      },
      "notifyRedemptionSignatureTimedOut()": {
        "details": "This is considered an abort, and is punished by seizing signer      bonds and putting them up for auction. Emits a LiquidationStarted      event and a Liquidated event and sends the full signer bond to the      redeemer. Reverts if the deposit is not currently awaiting a      signature or if the allotted time has not yet elapsed. The caller      is captured as the liquidation initiator, and is eligible for 50%      of any bond left after the auction is completed."
      },
      "notifySignerSetupFailed()": {
        "details": "This is considered a signer fault, and the signers' bonds are used      to make the deposit setup fee available for withdrawal by the TDT      holder as a refund. The remainder of the signers' bonds are      returned to the bonding pool and the signers are released from any      further responsibilities. Reverts if the deposit is not awaiting      signer setup or if the signing group formation timeout has not      elapsed."
      },
      "notifyUndercollateralizedLiquidation()": {
        "details": "Calls out to the system for oracle info.This call will revert if the signers are not in fact severely      undercollateralized according to the price feed. Severe      undercollateralization is treated as an abort, and is handled by      seizing signer bonds and putting them up for auction in exchange      for the lot size amount in TBTC (see      `purchaseSignerBondsAtAuction`). Emits a LiquidationStarted event.      The caller is captured as the liquidation initiator, and is      eligible for 50% of any bond left after the auction is completed."
      },
      "provideBTCFundingProof(bytes4,bytes,bytes,bytes4,uint8,bytes,uint256,bytes)": {
        "details": "Takes a pre-parsed transaction and calculates values needed to      verify funding.",
        "params": {
          "_bitcoinHeaders": "Single bytestring of 80-byte bitcoin headers,        lowest height first.",
          "_fundingOutputIndex": "Index of funding output in _txOutputVector        (0-indexed).",
          "_merkleProof": "The merkle proof of transaction inclusion in a        block.",
          "_txIndexInBlock": "Transaction index in the block (0-indexed).",
          "_txInputVector": "All transaction inputs prepended by the number of        inputs encoded as a VarInt, max 0xFC(252) inputs.",
          "_txLocktime": "Final 4 bytes of the transaction.",
          "_txOutputVector": "All transaction outputs prepended by the number         of outputs encoded as a VarInt, max 0xFC(252) outputs.",
          "_txVersion": "Transaction version number (4-byte little-endian)."
        }
      },
      "provideECDSAFraudProof(uint8,bytes32,bytes32,bytes32,bytes)": {
        "details": "This call will revert if the underlying keep cannot verify that      there was fraud. Fraud is handled by seizing signer bonds and      putting them up for auction in exchange for the lot size amount in      TBTC (see `purchaseSignerBondsAtAuction`). Emits a      LiquidationStarted event. The caller is captured as the liquidation      initiator, and is eligible for any bond left after the auction is      completed.",
        "params": {
          "_preimage": "The sha256 preimage of the digest.",
          "_r": "Signature R value.",
          "_s": "Signature S value.",
          "_signedDigest": "The digest signed by the signature (v,r,s) tuple.",
          "_v": "Signature recovery value."
        }
      },
      "provideFundingECDSAFraudProof(uint8,bytes32,bytes32,bytes32,bytes)": {
        "details": "Calls out to the keep to verify if there was fraud.",
        "params": {
          "_preimage": "The sha256 preimage of the digest.",
          "_r": "Signature R value.",
          "_s": "Signature S value.",
          "_signedDigest": "The digest signed by the signature (v,r,s) tuple.",
          "_v": "Signature recovery value."
        }
      },
      "provideRedemptionProof(bytes4,bytes,bytes,bytes4,bytes,uint256,bytes)": {
        "details": "Takes a pre-parsed transaction and calculates values needed to      verify funding. Signers can have their bonds seized if this is not      called within `TBTCConstants.REDEMPTION_PROOF_TIMEOUT` seconds of      a redemption signature being provided.",
        "params": {
          "_bitcoinHeaders": "Single bytestring of 80-byte bitcoin headers,        lowest height first.",
          "_merkleProof": "The merkle proof of transaction inclusion in a        block.",
          "_txIndexInBlock": "Transaction index in the block (0-indexed).",
          "_txInputVector": "All transaction inputs prepended by the number of        inputs encoded as a VarInt, max 0xFC(252) inputs.",
          "_txLocktime": "Final 4 bytes of the transaction.",
          "_txOutputVector": "All transaction outputs prepended by the number         of outputs encoded as a VarInt, max 0xFC(252) outputs.",
          "_txVersion": "Transaction version number (4-byte little-endian)."
        }
      },
      "provideRedemptionSignature(uint8,bytes32,bytes32)": {
        "details": "The signers will be penalized if this function is not called      correctly within `TBTCConstants.REDEMPTION_SIGNATURE_TIMEOUT`      seconds of a redemption request or fee increase being received.",
        "params": {
          "_r": "Signature R value.",
          "_s": "Signature S value. Should be in the low half of secp256k1        curve's order.",
          "_v": "Signature recovery value."
        }
      },
      "purchaseSignerBondsAtAuction()": {
        "details": "The amount of ETH given for the transferred TBTC can be read using      the `auctionValue` function; note, however, that the function's      value is only static during the specific block it is queried, as it      varies by block timestamp."
      },
      "remainingTerm()": {
        "details": "The value accuracy is not guaranteed since block.timestmap can be      lightly manipulated by miners.",
        "return": "The remaining term of the deposit in seconds. 0 if already at         term."
      },
      "requestFunderAbort(bytes)": {
        "details": "This is a self-admitted funder fault, and is only be callable by      the TDT holder. This function emits the FunderAbortRequested event,      but stores no additional state.",
        "params": {
          "_abortOutputScript": "The output script the funder wishes to request        a return of their UTXO to."
        }
      },
      "requestRedemption(bytes8,bytes)": {
        "details": "The amount of TBTC needed to redeem can be looked up using the      `getRedemptionTbtcRequirement` or `getOwnerRedemptionTbtcRequirement`      functions.",
        "params": {
          "_outputValueBytes": "The 8-byte little-endian output size. The         difference between this value and the lot size of the deposit         will be paid as a fee to the Bitcoin miners when the signed         transaction is broadcast.",
          "_redeemerOutputScript": "The redeemer's length-prefixed output         script."
        }
      },
      "retrieveSignerPubkey()": {
        "details": "Stores the pubkey as 2 bytestrings, X and Y. Emits a      RegisteredPubkey event with the two components. Reverts if the      deposit is not awaiting signer setup, if the generated public key      is unset or has incorrect length, or if the public key has a 0      X or Y value."
      },
      "severelyUndercollateralizedThresholdPercent()": {
        "details": "This collateralization level is critical. If the collateralization      level falls below this percentage the Deposit can get liquidated.      This value represents the percentage of the backing BTC value the      signers must hold as bond in order to not be severely      undercollateralized. It is set at creation time. Note that the      value for new deposits in TBTCSystem can be changed by governance,      but the value for a particular deposit is static once the deposit      is created.",
        "return": "The severely undercollateralized level for this deposit."
      },
      "signerFeeTbtc()": {
        "details": "This is the one-time fee required by the signers to perform the      tasks needed to maintain a decentralized and trustless model for      tBTC. It is a percentage of the deposit's lot size.",
        "return": "Fee amount in TBTC."
      },
      "transferAndRequestRedemption(bytes8,bytes,address)": {
        "details": "Performs the same action as requestRedemption, but transfers      ownership of the deposit to the specified _finalRecipient. Used as      a utility helper for the vending machine's shortcut      TBTC->redemption path.",
        "params": {
          "_finalRecipient": "The address to receive the TDT and later be recorded as deposit redeemer.",
          "_outputValueBytes": "The 8-byte little-endian output size.",
          "_redeemerOutputScript": "The redeemer's length-prefixed output script."
        }
      },
      "undercollateralizedThresholdPercent()": {
        "details": "This collateralization level is semi-critical. If the      collateralization level falls below this percentage the Deposit can      be courtesy-called by calling `notifyCourtesyCall`. This value      represents the percentage of the backing BTC value the signers must      hold as bond in order to not be undercollateralized. It is set at      creation time. Note that the value for new deposits in TBTCSystem      can be changed by governance, but the value for a particular      deposit is static once the deposit is created.",
        "return": "The undercollateralized level for this deposit."
      },
      "utxoValue()": {
        "details": "This call will revert if the deposit is not in a state where the      UTXO info should be valid. In particular, before funding proof is      successfully submitted (i.e. in states START,      AWAITING_SIGNER_SETUP, and AWAITING_BTC_FUNDING_PROOF), this value      would not be valid.",
        "return": "The value of the funding UTXO in satoshis."
      },
      "withdrawFunds()": {
        "details": "Withdrawals can only happen when a contract is in an end-state."
      },
      "withdrawableAmount()": {
        "details": "Generally ETH is only available to withdraw after the deposit      reaches a closed state. The amount reported is for the sender, and      can be withdrawn using `withdrawFunds` if the deposit is in an end      state.",
        "return": "The withdraw allowance in wei."
      }
    }
  },
  "userdoc": {
    "methods": {
      "auctionValue()": {
        "notice": "Calculates the amount of value at auction right now."
      },
      "collateralizationPercentage()": {
        "notice": "Get the current collateralization level for this Deposit."
      },
      "currentState()": {
        "notice": "Get the integer representing the current state."
      },
      "exitCourtesyCall()": {
        "notice": "Notify the contract that the signers' bond value has recovered         enough to be considered sufficiently collateralized."
      },
      "fundingInfo()": {
        "notice": "Returns information associated with the funding UXTO."
      },
      "getOwnerRedemptionTbtcRequirement(address)": {
        "notice": "Get TBTC amount required for redemption assuming _redeemer         is this deposit's owner (TDT holder)."
      },
      "getRedemptionTbtcRequirement(address)": {
        "notice": "Get TBTC amount required for redemption by a specified         _redeemer."
      },
      "inActive()": {
        "notice": "Check if the Deposit is in ACTIVE state."
      },
      "increaseRedemptionFee(bytes8,bytes8)": {
        "notice": "Anyone may request a signature for a transaction with an         increased Bitcoin transaction fee."
      },
      "initialCollateralizedPercent()": {
        "notice": "Get the initial collateralization level for this Deposit."
      },
      "initialize(address)": {
        "notice": "Set the address of the System contract on contract initialization."
      },
      "keepAddress()": {
        "notice": "Get the contract address of the BondedECDSAKeep associated with         this Deposit."
      },
      "lotSizeSatoshis()": {
        "notice": "Get this deposit's BTC lot size in satoshis."
      },
      "lotSizeTbtc()": {
        "notice": "Get this deposit's lot size in TBTC."
      },
      "notifyCourtesyCall()": {
        "notice": "Notify the contract that the signers are undercollateralized."
      },
      "notifyCourtesyCallExpired()": {
        "notice": "Notify the contract that the courtesy period has expired and the         deposit should move into liquidation."
      },
      "notifyFundingTimedOut()": {
        "notice": "Notify the contract that the funding phase of the deposit has         timed out if `provideBTCFundingProof` is not successfully called         within the allotted time. Any sent BTC is left under control of         the signer group, and the funder can use `requestFunderAbort` to         request an at-signer-discretion return of any BTC sent to a         deposit that has been notified of a funding timeout."
      },
      "notifyRedemptionProofTimedOut()": {
        "notice": "Notify the contract that the deposit has failed to receive a         redemption proof in the allotted time."
      },
      "notifyRedemptionSignatureTimedOut()": {
        "notice": "Notify the contract that the signers have failed to produce a         signature for a redemption request in the allotted time."
      },
      "notifySignerSetupFailed()": {
        "notice": "Notify the contract that signing group setup has timed out if         retrieveSignerPubkey is not successfully called within the         allotted time."
      },
      "notifyUndercollateralizedLiquidation()": {
        "notice": "Notify the contract that the signers are undercollateralized."
      },
      "provideBTCFundingProof(bytes4,bytes,bytes,bytes4,uint8,bytes,uint256,bytes)": {
        "notice": "Anyone may submit a funding proof to the deposit showing that         a transaction was submitted and sufficiently confirmed on the         Bitcoin chain transferring the deposit lot size's amount of BTC         to the signer-controlled private key corresopnding to this         deposit. This will move the deposit into an active state."
      },
      "provideECDSAFraudProof(uint8,bytes32,bytes32,bytes32,bytes)": {
        "notice": "Anyone can provide a signature corresponding to the signers'         public key that was not requested to prove fraud. A redemption         request and a redemption fee increase are the only ways to         request a signature from the signers."
      },
      "provideFundingECDSAFraudProof(uint8,bytes32,bytes32,bytes32,bytes)": {
        "notice": "Anyone can provide a signature corresponding to the signers'         public key to prove fraud during funding. Note that during         funding no signature has been requested from the signers, so         any signature is effectively fraud."
      },
      "provideRedemptionProof(bytes4,bytes,bytes,bytes4,bytes,uint256,bytes)": {
        "notice": "Anyone may submit a redemption proof to the deposit showing that         a transaction was submitted and sufficiently confirmed on the         Bitcoin chain transferring the deposit lot size's amount of BTC         from the signer-controlled private key corresponding to this         deposit to the requested redemption output script. This will         move the deposit into a redeemed state."
      },
      "provideRedemptionSignature(uint8,bytes32,bytes32)": {
        "notice": "Anyone may provide a withdrawal signature if it was requested."
      },
      "purchaseSignerBondsAtAuction()": {
        "notice": "Closes an auction and purchases the signer bonds by transferring         the lot size in TBTC to the redeemer, if there is one, or to the         TDT holder if not. Any bond amount that is not currently up for         auction is either made available for the liquidation initiator         to withdraw (for fraud) or split 50-50 between the initiator and         the signers (for abort or collateralization issues)."
      },
      "remainingTerm()": {
        "notice": "Retrieve the remaining term of the deposit in seconds."
      },
      "requestFunderAbort(bytes)": {
        "notice": "Requests a funder abort for a failed-funding deposit; that is,         requests the return of a sent UTXO to _abortOutputScript. It         imposes no requirements on the signing group. Signers should         send their UTXO to the requested output script, but do so at         their discretion and with no penalty for failing to do so. This         can be used for example when a UTXO is sent that is the wrong         size for the lot."
      },
      "requestRedemption(bytes8,bytes)": {
        "notice": "Requests redemption of this deposit, meaning the transmission,         by the signers, of the deposit's UTXO to the specified Bitocin         output script. Requires approving the deposit to spend the         amount of TBTC needed to redeem."
      },
      "retrieveSignerPubkey()": {
        "notice": "Notify the contract that the ECDSA keep has generated a public         key so the deposit contract can pull it in."
      },
      "severelyUndercollateralizedThresholdPercent()": {
        "notice": "Get the severe undercollateralization level for this Deposit."
      },
      "signerFeeTbtc()": {
        "notice": "Get the signer fee for this deposit, in TBTC."
      },
      "transferAndRequestRedemption(bytes8,bytes,address)": {
        "notice": "This function can only be called by the vending machine."
      },
      "undercollateralizedThresholdPercent()": {
        "notice": "Get the undercollateralization level for this Deposit."
      },
      "utxoValue()": {
        "notice": "Get the value of the funding UTXO."
      },
      "withdrawFunds()": {
        "notice": "Withdraw the ETH balance of the deposit allotted to the caller."
      },
      "withdrawableAmount()": {
        "notice": "Get caller's ETH withdraw allowance."
      }
    }
  }
}