{
  "contractName": "TestTBTCDepositToken",
  "abi": [
    {
      "inputs": [
        {
          "internalType": "address",
          "name": "_factory",
          "type": "address"
        }
      ],
      "payable": false,
      "stateMutability": "nonpayable",
      "type": "constructor"
    },
    {
      "anonymous": false,
      "inputs": [
        {
          "indexed": true,
          "internalType": "address",
          "name": "owner",
          "type": "address"
        },
        {
          "indexed": true,
          "internalType": "address",
          "name": "approved",
          "type": "address"
        },
        {
          "indexed": true,
          "internalType": "uint256",
          "name": "tokenId",
          "type": "uint256"
        }
      ],
      "name": "Approval",
      "type": "event"
    },
    {
      "anonymous": false,
      "inputs": [
        {
          "indexed": true,
          "internalType": "address",
          "name": "owner",
          "type": "address"
        },
        {
          "indexed": true,
          "internalType": "address",
          "name": "operator",
          "type": "address"
        },
        {
          "indexed": false,
          "internalType": "bool",
          "name": "approved",
          "type": "bool"
        }
      ],
      "name": "ApprovalForAll",
      "type": "event"
    },
    {
      "anonymous": false,
      "inputs": [
        {
          "indexed": true,
          "internalType": "address",
          "name": "from",
          "type": "address"
        },
        {
          "indexed": true,
          "internalType": "address",
          "name": "to",
          "type": "address"
        },
        {
          "indexed": true,
          "internalType": "uint256",
          "name": "tokenId",
          "type": "uint256"
        }
      ],
      "name": "Transfer",
      "type": "event"
    },
    {
      "constant": false,
      "inputs": [
        {
          "internalType": "address",
          "name": "to",
          "type": "address"
        },
        {
          "internalType": "uint256",
          "name": "tokenId",
          "type": "uint256"
        }
      ],
      "name": "approve",
      "outputs": [],
      "payable": false,
      "stateMutability": "nonpayable",
      "type": "function"
    },
    {
      "constant": false,
      "inputs": [
        {
          "internalType": "contract ITokenRecipient",
          "name": "_spender",
          "type": "address"
        },
        {
          "internalType": "uint256",
          "name": "_tdtId",
          "type": "uint256"
        },
        {
          "internalType": "bytes",
          "name": "_extraData",
          "type": "bytes"
        }
      ],
      "name": "approveAndCall",
      "outputs": [
        {
          "internalType": "bool",
          "name": "",
          "type": "bool"
        }
      ],
      "payable": false,
      "stateMutability": "nonpayable",
      "type": "function"
    },
    {
      "constant": true,
      "inputs": [
        {
          "internalType": "address",
          "name": "owner",
          "type": "address"
        }
      ],
      "name": "balanceOf",
      "outputs": [
        {
          "internalType": "uint256",
          "name": "",
          "type": "uint256"
        }
      ],
      "payable": false,
      "stateMutability": "view",
      "type": "function"
    },
    {
      "constant": true,
      "inputs": [
        {
          "internalType": "uint256",
          "name": "_tokenId",
          "type": "uint256"
        }
      ],
      "name": "exists",
      "outputs": [
        {
          "internalType": "bool",
          "name": "",
          "type": "bool"
        }
      ],
      "payable": false,
      "stateMutability": "view",
      "type": "function"
    },
    {
      "constant": true,
      "inputs": [
        {
          "internalType": "uint256",
          "name": "tokenId",
          "type": "uint256"
        }
      ],
      "name": "getApproved",
      "outputs": [
        {
          "internalType": "address",
          "name": "",
          "type": "address"
        }
      ],
      "payable": false,
      "stateMutability": "view",
      "type": "function"
    },
    {
      "constant": false,
      "inputs": [
        {
          "internalType": "address",
          "name": "_factory",
          "type": "address"
        }
      ],
      "name": "initialize",
      "outputs": [],
      "payable": false,
      "stateMutability": "nonpayable",
      "type": "function"
    },
    {
      "constant": true,
      "inputs": [
        {
          "internalType": "address",
          "name": "owner",
          "type": "address"
        },
        {
          "internalType": "address",
          "name": "operator",
          "type": "address"
        }
      ],
      "name": "isApprovedForAll",
      "outputs": [
        {
          "internalType": "bool",
          "name": "",
          "type": "bool"
        }
      ],
      "payable": false,
      "stateMutability": "view",
      "type": "function"
    },
    {
      "constant": false,
      "inputs": [
        {
          "internalType": "address",
          "name": "_to",
          "type": "address"
        },
        {
          "internalType": "uint256",
          "name": "_tokenId",
          "type": "uint256"
        }
      ],
      "name": "mint",
      "outputs": [],
      "payable": false,
      "stateMutability": "nonpayable",
      "type": "function"
    },
    {
      "constant": true,
      "inputs": [],
      "name": "name",
      "outputs": [
        {
          "internalType": "string",
          "name": "",
          "type": "string"
        }
      ],
      "payable": false,
      "stateMutability": "view",
      "type": "function"
    },
    {
      "constant": true,
      "inputs": [
        {
          "internalType": "uint256",
          "name": "tokenId",
          "type": "uint256"
        }
      ],
      "name": "ownerOf",
      "outputs": [
        {
          "internalType": "address",
          "name": "",
          "type": "address"
        }
      ],
      "payable": false,
      "stateMutability": "view",
      "type": "function"
    },
    {
      "constant": false,
      "inputs": [
        {
          "internalType": "address",
          "name": "from",
          "type": "address"
        },
        {
          "internalType": "address",
          "name": "to",
          "type": "address"
        },
        {
          "internalType": "uint256",
          "name": "tokenId",
          "type": "uint256"
        }
      ],
      "name": "safeTransferFrom",
      "outputs": [],
      "payable": false,
      "stateMutability": "nonpayable",
      "type": "function"
    },
    {
      "constant": false,
      "inputs": [
        {
          "internalType": "address",
          "name": "from",
          "type": "address"
        },
        {
          "internalType": "address",
          "name": "to",
          "type": "address"
        },
        {
          "internalType": "uint256",
          "name": "tokenId",
          "type": "uint256"
        },
        {
          "internalType": "bytes",
          "name": "_data",
          "type": "bytes"
        }
      ],
      "name": "safeTransferFrom",
      "outputs": [],
      "payable": false,
      "stateMutability": "nonpayable",
      "type": "function"
    },
    {
      "constant": false,
      "inputs": [
        {
          "internalType": "address",
          "name": "to",
          "type": "address"
        },
        {
          "internalType": "bool",
          "name": "approved",
          "type": "bool"
        }
      ],
      "name": "setApprovalForAll",
      "outputs": [],
      "payable": false,
      "stateMutability": "nonpayable",
      "type": "function"
    },
    {
      "constant": true,
      "inputs": [
        {
          "internalType": "bytes4",
          "name": "interfaceId",
          "type": "bytes4"
        }
      ],
      "name": "supportsInterface",
      "outputs": [
        {
          "internalType": "bool",
          "name": "",
          "type": "bool"
        }
      ],
      "payable": false,
      "stateMutability": "view",
      "type": "function"
    },
    {
      "constant": true,
      "inputs": [],
      "name": "symbol",
      "outputs": [
        {
          "internalType": "string",
          "name": "",
          "type": "string"
        }
      ],
      "payable": false,
      "stateMutability": "view",
      "type": "function"
    },
    {
      "constant": true,
      "inputs": [
        {
          "internalType": "uint256",
          "name": "tokenId",
          "type": "uint256"
        }
      ],
      "name": "tokenURI",
      "outputs": [
        {
          "internalType": "string",
          "name": "",
          "type": "string"
        }
      ],
      "payable": false,
      "stateMutability": "view",
      "type": "function"
    },
    {
      "constant": false,
      "inputs": [
        {
          "internalType": "address",
          "name": "from",
          "type": "address"
        },
        {
          "internalType": "address",
          "name": "to",
          "type": "address"
        },
        {
          "internalType": "uint256",
          "name": "tokenId",
          "type": "uint256"
        }
      ],
      "name": "transferFrom",
      "outputs": [],
      "payable": false,
      "stateMutability": "nonpayable",
      "type": "function"
    },
    {
      "constant": false,
      "inputs": [
        {
          "internalType": "address",
          "name": "_account",
          "type": "address"
        },
        {
          "internalType": "uint256",
          "name": "_tdtId",
          "type": "uint256"
        }
      ],
      "name": "forceMint",
      "outputs": [
        {
          "internalType": "bool",
          "name": "",
          "type": "bool"
        }
      ],
      "payable": false,
      "stateMutability": "nonpayable",
      "type": "function"
    }
  ],
  "bytecode": "0x60806040526008805460ff191690553480156200001b57600080fd5b5060405162001a2a38038062001a2a833981810160405260208110156200004157600080fd5b505160408051808201825260128152713a212a21902232b837b9b4ba102a37b5b2b760711b6020828101919091528251808401909352600383526215111560ea1b908301528291620000a36301ffc9a760e01b6001600160e01b036200012416565b620000be6380ac58cd60e01b6001600160e01b036200012416565b8151620000d39060059060208501906200021c565b508051620000e99060069060208401906200021c565b5062000105635b5e139f60e01b6001600160e01b036200012416565b506200011c9050816001600160e01b03620001a916565b5050620002c1565b6001600160e01b0319808216141562000184576040805162461bcd60e51b815260206004820152601c60248201527f4552433136353a20696e76616c696420696e7465726661636520696400000000604482015290519081900360640190fd5b6001600160e01b0319166000908152602081905260409020805460ff19166001179055565b60085460ff1615620001ed5760405162461bcd60e51b815260040180806020018281038252602581526020018062001a056025913960400191505060405180910390fd5b6008805460ff196001600160a01b0390931661010002610100600160a81b031990911617919091166001179055565b828054600181600116156101000203166002900490600052602060002090601f016020900481019282601f106200025f57805160ff19168380011785556200028f565b828001600101855582156200028f579182015b828111156200028f57825182559160200191906001019062000272565b506200029d929150620002a1565b5090565b620002be91905b808211156200029d5760008155600101620002a8565b90565b61173480620002d16000396000f3fe608060405234801561001057600080fd5b50600436106101165760003560e01c80636a9d5c84116100a2578063b88d4fde11610071578063b88d4fde146103a6578063c4d66de81461046c578063c87b56dd14610492578063cae9ca51146104af578063e985e9c51461056a57610116565b80636a9d5c841461030c57806370a082311461033857806395d89b4114610370578063a22cb4651461037857610116565b806323b872dd116100e957806323b872dd1461023a57806340c10f191461027057806342842e0e1461029c5780634f558e79146102d25780636352211e146102ef57610116565b806301ffc9a71461011b57806306fdde0314610156578063081812fc146101d3578063095ea7b31461020c575b600080fd5b6101426004803603602081101561013157600080fd5b50356001600160e01b031916610598565b604080519115158252519081900360200190f35b61015e6105b7565b6040805160208082528351818301528351919283929083019185019080838360005b83811015610198578181015183820152602001610180565b50505050905090810190601f1680156101c55780820380516001836020036101000a031916815260200191505b509250505060405180910390f35b6101f0600480360360208110156101e957600080fd5b503561064e565b604080516001600160a01b039092168252519081900360200190f35b6102386004803603604081101561022257600080fd5b506001600160a01b0381351690602001356106b0565b005b6102386004803603606081101561025057600080fd5b506001600160a01b038135811691602081013590911690604001356107c1565b6102386004803603604081101561028657600080fd5b506001600160a01b038135169060200135610816565b610238600480360360608110156102b257600080fd5b506001600160a01b038135811691602081013590911690604001356108b3565b610142600480360360208110156102e857600080fd5b50356108ce565b6101f06004803603602081101561030557600080fd5b50356108df565b6101426004803603604081101561032257600080fd5b506001600160a01b038135169060200135610933565b61035e6004803603602081101561034e57600080fd5b50356001600160a01b031661095f565b60408051918252519081900360200190f35b61015e6109c7565b6102386004803603604081101561038e57600080fd5b506001600160a01b0381351690602001351515610a28565b610238600480360360808110156103bc57600080fd5b6001600160a01b038235811692602081013590911691604082013591908101906080810160608201356401000000008111156103f757600080fd5b82018360208201111561040957600080fd5b8035906020019184600183028401116401000000008311171561042b57600080fd5b91908080601f016020809104026020016040519081016040528093929190818152602001838380828437600092019190915250929550610af4945050505050565b6102386004803603602081101561048257600080fd5b50356001600160a01b0316610b4c565b61015e600480360360208110156104a857600080fd5b5035610bbd565b610142600480360360608110156104c557600080fd5b6001600160a01b03823516916020810135918101906060810160408201356401000000008111156104f557600080fd5b82018360208201111561050757600080fd5b8035906020019184600183028401116401000000008311171561052957600080fd5b91908080601f016020809104026020016040519081016040528093929190818152602001838380828437600092019190915250929550610ca2945050505050565b6101426004803603604081101561058057600080fd5b506001600160a01b0381358116916020013516610d99565b6001600160e01b03191660009081526020819052604090205460ff1690565b60058054604080516020601f60026000196101006001881615020190951694909404938401819004810282018101909252828152606093909290918301828280156106435780601f1061061857610100808354040283529160200191610643565b820191906000526020600020905b81548152906001019060200180831161062657829003601f168201915b505050505090505b90565b600061065982610dc7565b6106945760405162461bcd60e51b815260040180806020018281038252602c81526020018061158d602c913960400191505060405180910390fd5b506000908152600260205260409020546001600160a01b031690565b60006106bb826108df565b9050806001600160a01b0316836001600160a01b0316141561070e5760405162461bcd60e51b81526004018080602001828103825260218152602001806116116021913960400191505060405180910390fd5b336001600160a01b038216148061072a575061072a8133610d99565b6107655760405162461bcd60e51b81526004018080602001828103825260388152602001806115026038913960400191505060405180910390fd5b60008281526002602052604080822080546001600160a01b0319166001600160a01b0387811691821790925591518593918516917f8c5be1e5ebec7d5bd14f71427d1e84f3dd0314c0f7b2291e5b200ac8c7c3b92591a4505050565b6107cb3382610de4565b6108065760405162461bcd60e51b81526004018080602001828103825260318152602001806116326031913960400191505060405180910390fd5b610811838383610e88565b505050565b60085460ff166108575760405162461bcd60e51b815260040180806020018281038252602d8152602001806116d3602d913960400191505060405180910390fd5b60085461010090046001600160a01b031633146108a55760405162461bcd60e51b81526004018080602001828103825260268152602001806116ad6026913960400191505060405180910390fd5b6108af8282610fcc565b5050565b61081183838360405180602001604052806000815250610af4565b60006108d982610dc7565b92915050565b6000818152600160205260408120546001600160a01b0316806108d95760405162461bcd60e51b81526004018080602001828103825260298152602001806115646029913960400191505060405180910390fd5b600061093e82610dc7565b1561094c5761094c826110fd565b6109568383610fcc565b50600192915050565b60006001600160a01b0382166109a65760405162461bcd60e51b815260040180806020018281038252602a81526020018061153a602a913960400191505060405180910390fd5b6001600160a01b03821660009081526003602052604090206108d990611112565b60068054604080516020601f60026000196101006001881615020190951694909404938401819004810282018101909252828152606093909290918301828280156106435780601f1061061857610100808354040283529160200191610643565b6001600160a01b038216331415610a86576040805162461bcd60e51b815260206004820152601960248201527f4552433732313a20617070726f766520746f2063616c6c657200000000000000604482015290519081900360640190fd5b3360008181526004602090815260408083206001600160a01b03871680855290835292819020805460ff1916861515908117909155815190815290519293927f17307eab39ab6107e8899845ad3d59bd9653f200f220920489ca2b5937696c31929181900390910190a35050565b610aff8484846107c1565b610b0b84848484611116565b610b465760405162461bcd60e51b81526004018080602001828103825260328152602001806114806032913960400191505060405180910390fd5b50505050565b60085460ff1615610b8e5760405162461bcd60e51b81526004018080602001828103825260258152602001806116636025913960400191505060405180910390fd5b6008805460ff196001600160a01b0390931661010002610100600160a81b031990911617919091166001179055565b6060610bc882610dc7565b610c035760405162461bcd60e51b815260040180806020018281038252602f8152602001806115e2602f913960400191505060405180910390fd5b60008281526007602090815260409182902080548351601f600260001961010060018616150201909316929092049182018490048402810184019094528084529091830182828015610c965780601f10610c6b57610100808354040283529160200191610c96565b820191906000526020600020905b815481529060010190602001808311610c7957829003601f168201915b50505050509050919050565b6000610cae84846106b0565b604051638f4ffcb160e01b815233600482018181526024830186905230604484018190526080606485019081528651608486015286516001600160a01b038a1695638f4ffcb195948a94938a939192909160a490910190602085019080838360005b83811015610d28578181015183820152602001610d10565b50505050905090810190601f168015610d555780820380516001836020036101000a031916815260200191505b5095505050505050600060405180830381600087803b158015610d7757600080fd5b505af1158015610d8b573d6000803e3d6000fd5b506001979650505050505050565b6001600160a01b03918216600090815260046020908152604080832093909416825291909152205460ff1690565b6000908152600160205260409020546001600160a01b0316151590565b6000610def82610dc7565b610e2a5760405162461bcd60e51b815260040180806020018281038252602c8152602001806114d6602c913960400191505060405180910390fd5b6000610e35836108df565b9050806001600160a01b0316846001600160a01b03161480610e705750836001600160a01b0316610e658461064e565b6001600160a01b0316145b80610e805750610e808185610d99565b949350505050565b826001600160a01b0316610e9b826108df565b6001600160a01b031614610ee05760405162461bcd60e51b81526004018080602001828103825260298152602001806115b96029913960400191505060405180910390fd5b6001600160a01b038216610f255760405162461bcd60e51b81526004018080602001828103825260248152602001806114b26024913960400191505060405180910390fd5b610f2e81611249565b6001600160a01b0383166000908152600360205260409020610f4f90611284565b6001600160a01b0382166000908152600360205260409020610f709061129b565b60008181526001602052604080822080546001600160a01b0319166001600160a01b0386811691821790925591518493918716917fddf252ad1be2c89b69c2b068fc378daa952ba7f163c4a11628f55a4df523b3ef91a4505050565b6001600160a01b038216611027576040805162461bcd60e51b815260206004820181905260248201527f4552433732313a206d696e7420746f20746865207a65726f2061646472657373604482015290519081900360640190fd5b61103081610dc7565b15611082576040805162461bcd60e51b815260206004820152601c60248201527f4552433732313a20746f6b656e20616c7265616479206d696e74656400000000604482015290519081900360640190fd5b600081815260016020908152604080832080546001600160a01b0319166001600160a01b0387169081179091558352600390915290206110c19061129b565b60405181906001600160a01b038416906000907fddf252ad1be2c89b69c2b068fc378daa952ba7f163c4a11628f55a4df523b3ef908290a45050565b61110f611109826108df565b826112a4565b50565b5490565b600061112a846001600160a01b03166112ec565b61113657506001610e80565b604051630a85bd0160e11b815233600482018181526001600160a01b03888116602485015260448401879052608060648501908152865160848601528651600095928a169463150b7a029490938c938b938b939260a4019060208501908083838e5b838110156111b0578181015183820152602001611198565b50505050905090810190601f1680156111dd5780820380516001836020036101000a031916815260200191505b5095505050505050602060405180830381600087803b1580156111ff57600080fd5b505af1158015611213573d6000803e3d6000fd5b505050506040513d602081101561122957600080fd5b50516001600160e01b031916630a85bd0160e11b14915050949350505050565b6000818152600260205260409020546001600160a01b03161561110f57600090815260026020526040902080546001600160a01b0319169055565b805461129790600163ffffffff6112f216565b9055565b80546001019055565b6112ae828261134f565b60008181526007602052604090205460026000196101006001841615020190911604156108af5760008181526007602052604081206108af91611426565b3b151590565b600082821115611349576040805162461bcd60e51b815260206004820152601e60248201527f536166654d6174683a207375627472616374696f6e206f766572666c6f770000604482015290519081900360640190fd5b50900390565b816001600160a01b0316611362826108df565b6001600160a01b0316146113a75760405162461bcd60e51b81526004018080602001828103825260258152602001806116886025913960400191505060405180910390fd5b6113b081611249565b6001600160a01b03821660009081526003602052604090206113d190611284565b60008181526001602052604080822080546001600160a01b0319169055518291906001600160a01b038516907fddf252ad1be2c89b69c2b068fc378daa952ba7f163c4a11628f55a4df523b3ef908390a45050565b50805460018160011615610100020316600290046000825580601f1061144c575061110f565b600091825260209182902061110f9261064b92601f01048101905b8082111561147b5760008155600101611467565b509056fe4552433732313a207472616e7366657220746f206e6f6e20455243373231526563656976657220696d706c656d656e7465724552433732313a207472616e7366657220746f20746865207a65726f20616464726573734552433732313a206f70657261746f7220717565727920666f72206e6f6e6578697374656e7420746f6b656e4552433732313a20617070726f76652063616c6c6572206973206e6f74206f776e6572206e6f7220617070726f76656420666f7220616c6c4552433732313a2062616c616e636520717565727920666f7220746865207a65726f20616464726573734552433732313a206f776e657220717565727920666f72206e6f6e6578697374656e7420746f6b656e4552433732313a20617070726f76656420717565727920666f72206e6f6e6578697374656e7420746f6b656e4552433732313a207472616e73666572206f6620746f6b656e2074686174206973206e6f74206f776e4552433732314d657461646174613a2055524920717565727920666f72206e6f6e6578697374656e7420746f6b656e4552433732313a20617070726f76616c20746f2063757272656e74206f776e65724552433732313a207472616e736665722063616c6c6572206973206e6f74206f776e6572206e6f7220617070726f766564466163746f72792063616e206f6e6c7920626520696e697469616c697a6564206f6e63652e4552433732313a206275726e206f6620746f6b656e2074686174206973206e6f74206f776e43616c6c6572206d757374206265206465706f736974466163746f727920636f6e7472616374466163746f727920696e697469616c697a6174696f6e206d7573742068617665206265656e2063616c6c65642ea265627a7a723158207f503992db89ca019217188df1979cb7deae71db32d968d4e8cb26229c67cc3f64736f6c63430005110032466163746f72792063616e206f6e6c7920626520696e697469616c697a6564206f6e63652e",
  "source": "pragma solidity 0.5.17;\n\nimport \"../../../contracts/system/TBTCDepositToken.sol\";\n\ncontract TestTBTCDepositToken is TBTCDepositToken {\n\n    constructor(address _factory)\n        TBTCDepositToken(_factory)\n    public{}\n\n    /// @dev             We can't call TBTCDepositToken mint function from tests because of ACL.\n    ///                  This function bypasses ACL and can be called in tests.\n    ///                  Mints a token and assigns it to an account.\n    ///                  Uses the internal _mint function.\n    /// @param _account  The account that will receive the token.\n    /// @param _tdtId    The tBTC Deposit Token ID.\n    function forceMint(address _account, uint256 _tdtId) public returns (bool) {\n        if(_exists(_tdtId)){\n            _burn(_tdtId);\n        }\n        _mint(_account, _tdtId);\n        return true;\n    }\n}\n",
  "sourcePath": "/Users/symf/IdeaProjects/tbtc/solidity/contracts/test/system/TestTBTCDepositToken.sol",
  "compiler": {
    "name": "solc",
    "version": "0.5.17+commit.d19bba13.Emscripten.clang"
  },
  "schemaVersion": "3.0.23",
  "updatedAt": "2020-08-21T21:24:02.928Z",
  "devdoc": {
    "methods": {
      "approve(address,uint256)": {
        "details": "Approves another address to transfer the given token ID The zero address indicates there is no approved address. There can only be one approved address per token at a given time. Can only be called by the token owner or an approved operator.",
        "params": {
          "to": "address to be approved for the given token ID",
          "tokenId": "uint256 ID of the token to be approved"
        }
      },
      "approveAndCall(address,uint256,bytes)": {
        "details": "The `_spender` should implement the `ITokenRecipient`                   interface below to receive approval notifications.",
        "params": {
          "_extraData": "Extra information to send to the approved contract.",
          "_spender": "`ITokenRecipient`-conforming contract authorized to        operate on the approved token.",
          "_tdtId": "The TDT they can spend."
        }
      },
      "balanceOf(address)": {
        "details": "Gets the balance of the specified address.",
        "params": {
          "owner": "address to query the balance of"
        },
        "return": "uint256 representing the amount owned by the passed address"
      },
      "exists(uint256)": {
        "details": "Returns whether the specified token exists.",
        "params": {
          "_tokenId": "uint256 ID of the token to query the existence of."
        },
        "return": "bool whether the token exists."
      },
      "forceMint(address,uint256)": {
        "details": "We can't call TBTCDepositToken mint function from tests because of ACL.                  This function bypasses ACL and can be called in tests.                  Mints a token and assigns it to an account.                  Uses the internal _mint function.",
        "params": {
          "_account": "The account that will receive the token.",
          "_tdtId": "The tBTC Deposit Token ID."
        }
      },
      "getApproved(uint256)": {
        "details": "Gets the approved address for a token ID, or zero if no address set Reverts if the token ID does not exist.",
        "params": {
          "tokenId": "uint256 ID of the token to query the approval of"
        },
        "return": "address currently approved for the given token ID"
      },
      "isApprovedForAll(address,address)": {
        "details": "Tells whether an operator is approved by a given owner.",
        "params": {
          "operator": "operator address which you want to query the approval of",
          "owner": "owner address which you want to query the approval of"
        },
        "return": "bool whether the given operator is approved by the given owner"
      },
      "mint(address,uint256)": {
        "details": "Mints a new token. Reverts if the given token ID already exists.",
        "params": {
          "_to": "The address that will own the minted token",
          "_tokenId": "uint256 ID of the token to be minted"
        }
      },
      "name()": {
        "details": "Gets the token name.",
        "return": "string representing the token name"
      },
      "ownerOf(uint256)": {
        "details": "Gets the owner of the specified token ID.",
        "params": {
          "tokenId": "uint256 ID of the token to query the owner of"
        },
        "return": "address currently marked as the owner of the given token ID"
      },
      "safeTransferFrom(address,address,uint256)": {
        "details": "Safely transfers the ownership of a given token ID to another address If the target address is a contract, it must implement `onERC721Received`, which is called upon a safe transfer, and return the magic value `bytes4(keccak256(\"onERC721Received(address,address,uint256,bytes)\"))`; otherwise, the transfer is reverted. Requires the msg.sender to be the owner, approved, or operator",
        "params": {
          "from": "current owner of the token",
          "to": "address to receive the ownership of the given token ID",
          "tokenId": "uint256 ID of the token to be transferred"
        }
      },
      "safeTransferFrom(address,address,uint256,bytes)": {
        "details": "Safely transfers the ownership of a given token ID to another address If the target address is a contract, it must implement `onERC721Received`, which is called upon a safe transfer, and return the magic value `bytes4(keccak256(\"onERC721Received(address,address,uint256,bytes)\"))`; otherwise, the transfer is reverted. Requires the msg.sender to be the owner, approved, or operator",
        "params": {
          "_data": "bytes data to send along with a safe transfer check",
          "from": "current owner of the token",
          "to": "address to receive the ownership of the given token ID",
          "tokenId": "uint256 ID of the token to be transferred"
        }
      },
      "setApprovalForAll(address,bool)": {
        "details": "Sets or unsets the approval of a given operator An operator is allowed to transfer all tokens of the sender on their behalf.",
        "params": {
          "approved": "representing the status of the approval to be set",
          "to": "operator address to set the approval"
        }
      },
      "supportsInterface(bytes4)": {
        "details": "See `IERC165.supportsInterface`.     * Time complexity O(1), guaranteed to always use less than 30 000 gas."
      },
      "symbol()": {
        "details": "Gets the token symbol.",
        "return": "string representing the token symbol"
      },
      "tokenURI(uint256)": {
        "details": "Returns an URI for a given token ID. Throws if the token ID does not exist. May return an empty string.",
        "params": {
          "tokenId": "uint256 ID of the token to query"
        }
      },
      "transferFrom(address,address,uint256)": {
        "details": "Transfers the ownership of a given token ID to another address. Usage of this method is discouraged, use `safeTransferFrom` whenever possible. Requires the msg.sender to be the owner, approved, or operator.",
        "params": {
          "from": "current owner of the token",
          "to": "address to receive the ownership of the given token ID",
          "tokenId": "uint256 ID of the token to be transferred"
        }
      }
    }
  },
  "userdoc": {
    "methods": {
      "approveAndCall(address,uint256,bytes)": {
        "notice": "Allow another address to spend on the caller's behalf.                   Set allowance for other address and notify.                   Allows `_spender` to transfer the specified TDT                   on your behalf and then ping the contract about it."
      },
      "initialize(address)": {
        "notice": "Set the address of the System contract on contract initialization."
      }
    }
  }
}