{
  "contractName": "TestFeeRebateToken",
  "abi": [
    {
      "inputs": [
        {
          "internalType": "address",
          "name": "_vendingMachine",
          "type": "address"
        }
      ],
      "payable": false,
      "stateMutability": "nonpayable",
      "type": "constructor"
    },
    {
      "anonymous": false,
      "inputs": [
        {
          "indexed": true,
          "internalType": "address",
          "name": "owner",
          "type": "address"
        },
        {
          "indexed": true,
          "internalType": "address",
          "name": "approved",
          "type": "address"
        },
        {
          "indexed": true,
          "internalType": "uint256",
          "name": "tokenId",
          "type": "uint256"
        }
      ],
      "name": "Approval",
      "type": "event"
    },
    {
      "anonymous": false,
      "inputs": [
        {
          "indexed": true,
          "internalType": "address",
          "name": "owner",
          "type": "address"
        },
        {
          "indexed": true,
          "internalType": "address",
          "name": "operator",
          "type": "address"
        },
        {
          "indexed": false,
          "internalType": "bool",
          "name": "approved",
          "type": "bool"
        }
      ],
      "name": "ApprovalForAll",
      "type": "event"
    },
    {
      "anonymous": false,
      "inputs": [
        {
          "indexed": true,
          "internalType": "address",
          "name": "from",
          "type": "address"
        },
        {
          "indexed": true,
          "internalType": "address",
          "name": "to",
          "type": "address"
        },
        {
          "indexed": true,
          "internalType": "uint256",
          "name": "tokenId",
          "type": "uint256"
        }
      ],
      "name": "Transfer",
      "type": "event"
    },
    {
      "constant": false,
      "inputs": [
        {
          "internalType": "address",
          "name": "to",
          "type": "address"
        },
        {
          "internalType": "uint256",
          "name": "tokenId",
          "type": "uint256"
        }
      ],
      "name": "approve",
      "outputs": [],
      "payable": false,
      "stateMutability": "nonpayable",
      "type": "function"
    },
    {
      "constant": true,
      "inputs": [
        {
          "internalType": "address",
          "name": "owner",
          "type": "address"
        }
      ],
      "name": "balanceOf",
      "outputs": [
        {
          "internalType": "uint256",
          "name": "",
          "type": "uint256"
        }
      ],
      "payable": false,
      "stateMutability": "view",
      "type": "function"
    },
    {
      "constant": true,
      "inputs": [
        {
          "internalType": "uint256",
          "name": "_tokenId",
          "type": "uint256"
        }
      ],
      "name": "exists",
      "outputs": [
        {
          "internalType": "bool",
          "name": "",
          "type": "bool"
        }
      ],
      "payable": false,
      "stateMutability": "view",
      "type": "function"
    },
    {
      "constant": true,
      "inputs": [
        {
          "internalType": "uint256",
          "name": "tokenId",
          "type": "uint256"
        }
      ],
      "name": "getApproved",
      "outputs": [
        {
          "internalType": "address",
          "name": "",
          "type": "address"
        }
      ],
      "payable": false,
      "stateMutability": "view",
      "type": "function"
    },
    {
      "constant": true,
      "inputs": [
        {
          "internalType": "address",
          "name": "owner",
          "type": "address"
        },
        {
          "internalType": "address",
          "name": "operator",
          "type": "address"
        }
      ],
      "name": "isApprovedForAll",
      "outputs": [
        {
          "internalType": "bool",
          "name": "",
          "type": "bool"
        }
      ],
      "payable": false,
      "stateMutability": "view",
      "type": "function"
    },
    {
      "constant": false,
      "inputs": [
        {
          "internalType": "address",
          "name": "_to",
          "type": "address"
        },
        {
          "internalType": "uint256",
          "name": "_tokenId",
          "type": "uint256"
        }
      ],
      "name": "mint",
      "outputs": [],
      "payable": false,
      "stateMutability": "nonpayable",
      "type": "function"
    },
    {
      "constant": true,
      "inputs": [],
      "name": "name",
      "outputs": [
        {
          "internalType": "string",
          "name": "",
          "type": "string"
        }
      ],
      "payable": false,
      "stateMutability": "view",
      "type": "function"
    },
    {
      "constant": true,
      "inputs": [
        {
          "internalType": "uint256",
          "name": "tokenId",
          "type": "uint256"
        }
      ],
      "name": "ownerOf",
      "outputs": [
        {
          "internalType": "address",
          "name": "",
          "type": "address"
        }
      ],
      "payable": false,
      "stateMutability": "view",
      "type": "function"
    },
    {
      "constant": false,
      "inputs": [
        {
          "internalType": "address",
          "name": "from",
          "type": "address"
        },
        {
          "internalType": "address",
          "name": "to",
          "type": "address"
        },
        {
          "internalType": "uint256",
          "name": "tokenId",
          "type": "uint256"
        }
      ],
      "name": "safeTransferFrom",
      "outputs": [],
      "payable": false,
      "stateMutability": "nonpayable",
      "type": "function"
    },
    {
      "constant": false,
      "inputs": [
        {
          "internalType": "address",
          "name": "from",
          "type": "address"
        },
        {
          "internalType": "address",
          "name": "to",
          "type": "address"
        },
        {
          "internalType": "uint256",
          "name": "tokenId",
          "type": "uint256"
        },
        {
          "internalType": "bytes",
          "name": "_data",
          "type": "bytes"
        }
      ],
      "name": "safeTransferFrom",
      "outputs": [],
      "payable": false,
      "stateMutability": "nonpayable",
      "type": "function"
    },
    {
      "constant": false,
      "inputs": [
        {
          "internalType": "address",
          "name": "to",
          "type": "address"
        },
        {
          "internalType": "bool",
          "name": "approved",
          "type": "bool"
        }
      ],
      "name": "setApprovalForAll",
      "outputs": [],
      "payable": false,
      "stateMutability": "nonpayable",
      "type": "function"
    },
    {
      "constant": true,
      "inputs": [
        {
          "internalType": "bytes4",
          "name": "interfaceId",
          "type": "bytes4"
        }
      ],
      "name": "supportsInterface",
      "outputs": [
        {
          "internalType": "bool",
          "name": "",
          "type": "bool"
        }
      ],
      "payable": false,
      "stateMutability": "view",
      "type": "function"
    },
    {
      "constant": true,
      "inputs": [],
      "name": "symbol",
      "outputs": [
        {
          "internalType": "string",
          "name": "",
          "type": "string"
        }
      ],
      "payable": false,
      "stateMutability": "view",
      "type": "function"
    },
    {
      "constant": true,
      "inputs": [
        {
          "internalType": "uint256",
          "name": "tokenId",
          "type": "uint256"
        }
      ],
      "name": "tokenURI",
      "outputs": [
        {
          "internalType": "string",
          "name": "",
          "type": "string"
        }
      ],
      "payable": false,
      "stateMutability": "view",
      "type": "function"
    },
    {
      "constant": false,
      "inputs": [
        {
          "internalType": "address",
          "name": "from",
          "type": "address"
        },
        {
          "internalType": "address",
          "name": "to",
          "type": "address"
        },
        {
          "internalType": "uint256",
          "name": "tokenId",
          "type": "uint256"
        }
      ],
      "name": "transferFrom",
      "outputs": [],
      "payable": false,
      "stateMutability": "nonpayable",
      "type": "function"
    },
    {
      "constant": false,
      "inputs": [
        {
          "internalType": "address",
          "name": "_account",
          "type": "address"
        },
        {
          "internalType": "uint256",
          "name": "_frtId",
          "type": "uint256"
        }
      ],
      "name": "forceMint",
      "outputs": [
        {
          "internalType": "bool",
          "name": "",
          "type": "bool"
        }
      ],
      "payable": false,
      "stateMutability": "nonpayable",
      "type": "function"
    },
    {
      "constant": false,
      "inputs": [
        {
          "internalType": "uint256",
          "name": "_frtId",
          "type": "uint256"
        }
      ],
      "name": "burn",
      "outputs": [],
      "payable": false,
      "stateMutability": "nonpayable",
      "type": "function"
    }
  ],
  "bytecode": "0x60806040523480156200001157600080fd5b50604051620016b0380380620016b0833981810160405260208110156200003757600080fd5b5051604080518082018252601581527f74425443204665652052656261746520546f6b656e00000000000000000000006020828101919091528251808401909352600383526211949560ea1b908301528291829190620000a76301ffc9a760e01b6001600160e01b036200013416565b620000c26380ac58cd60e01b6001600160e01b036200013416565b8151620000d7906005906020850190620001b9565b508051620000ed906006906020840190620001b9565b5062000109635b5e139f60e01b6001600160e01b036200013416565b5050600880546001600160a01b0319166001600160a01b0392909216919091179055506200025e9050565b6001600160e01b0319808216141562000194576040805162461bcd60e51b815260206004820152601c60248201527f4552433136353a20696e76616c696420696e7465726661636520696400000000604482015290519081900360640190fd5b6001600160e01b0319166000908152602081905260409020805460ff19166001179055565b828054600181600116156101000203166002900490600052602060002090601f016020900481019282601f10620001fc57805160ff19168380011785556200022c565b828001600101855582156200022c579182015b828111156200022c5782518255916020019190600101906200020f565b506200023a9291506200023e565b5090565b6200025b91905b808211156200023a576000815560010162000245565b90565b611442806200026e6000396000f3fe608060405234801561001057600080fd5b506004361061010b5760003560e01c80634f558e79116100a257806395d89b411161007157806395d89b4114610382578063a22cb4651461038a578063b88d4fde146103b8578063c87b56dd1461047e578063e985e9c51461049b5761010b565b80634f558e79146102e45780636352211e146103015780636a9d5c841461031e57806370a082311461034a5761010b565b806323b872dd116100de57806323b872dd1461022f57806340c10f191461026557806342842e0e1461029157806342966c68146102c75761010b565b806301ffc9a71461011057806306fdde031461014b578063081812fc146101c8578063095ea7b314610201575b600080fd5b6101376004803603602081101561012657600080fd5b50356001600160e01b0319166104c9565b604080519115158252519081900360200190f35b6101536104e8565b6040805160208082528351818301528351919283929083019185019080838360005b8381101561018d578181015183820152602001610175565b50505050905090810190601f1680156101ba5780820380516001836020036101000a031916815260200191505b509250505060405180910390f35b6101e5600480360360208110156101de57600080fd5b503561057f565b604080516001600160a01b039092168252519081900360200190f35b61022d6004803603604081101561021757600080fd5b506001600160a01b0381351690602001356105e1565b005b61022d6004803603606081101561024557600080fd5b506001600160a01b038135811691602081013590911690604001356106f2565b61022d6004803603604081101561027b57600080fd5b506001600160a01b038135169060200135610747565b61022d600480360360608110156102a757600080fd5b506001600160a01b0381358116916020810135909116906040013561079e565b61022d600480360360208110156102dd57600080fd5b50356107b9565b610137600480360360208110156102fa57600080fd5b50356107c6565b6101e56004803603602081101561031757600080fd5b50356107d7565b6101376004803603604081101561033457600080fd5b506001600160a01b03813516906020013561082b565b6103706004803603602081101561036057600080fd5b50356001600160a01b0316610840565b60408051918252519081900360200190f35b6101536108a8565b61022d600480360360408110156103a057600080fd5b506001600160a01b0381351690602001351515610909565b61022d600480360360808110156103ce57600080fd5b6001600160a01b0382358116926020810135909116916040820135919081019060808101606082013564010000000081111561040957600080fd5b82018360208201111561041b57600080fd5b8035906020019184600183028401116401000000008311171561043d57600080fd5b91908080601f0160208091040260200160405190810160405280939291908181526020018383808284376000920191909152509295506109d5945050505050565b6101536004803603602081101561049457600080fd5b5035610a2d565b610137600480360360408110156104b157600080fd5b506001600160a01b0381358116916020013516610b12565b6001600160e01b03191660009081526020819052604090205460ff1690565b60058054604080516020601f60026000196101006001881615020190951694909404938401819004810282018101909252828152606093909290918301828280156105745780601f1061054957610100808354040283529160200191610574565b820191906000526020600020905b81548152906001019060200180831161055757829003601f168201915b505050505090505b90565b600061058a82610b40565b6105c55760405162461bcd60e51b815260040180806020018281038252602c815260200180611313602c913960400191505060405180910390fd5b506000908152600260205260409020546001600160a01b031690565b60006105ec826107d7565b9050806001600160a01b0316836001600160a01b0316141561063f5760405162461bcd60e51b81526004018080602001828103825260218152602001806113976021913960400191505060405180910390fd5b336001600160a01b038216148061065b575061065b8133610b12565b6106965760405162461bcd60e51b81526004018080602001828103825260388152602001806112886038913960400191505060405180910390fd5b60008281526002602052604080822080546001600160a01b0319166001600160a01b0387811691821790925591518593918516917f8c5be1e5ebec7d5bd14f71427d1e84f3dd0314c0f7b2291e5b200ac8c7c3b92591a4505050565b6106fc3382610b5d565b6107375760405162461bcd60e51b81526004018080602001828103825260318152602001806113b86031913960400191505060405180910390fd5b610742838383610c01565b505050565b6008546001600160a01b031633146107905760405162461bcd60e51b81526004018080602001828103825260228152602001806111e46022913960400191505060405180910390fd5b61079a8282610d45565b5050565b610742838383604051806020016040528060008152506109d5565b6107c33382610e76565b50565b60006107d182610b40565b92915050565b6000818152600160205260408120546001600160a01b0316806107d15760405162461bcd60e51b81526004018080602001828103825260298152602001806112ea6029913960400191505060405180910390fd5b60006108378383610d45565b50600192915050565b60006001600160a01b0382166108875760405162461bcd60e51b815260040180806020018281038252602a8152602001806112c0602a913960400191505060405180910390fd5b6001600160a01b03821660009081526003602052604090206107d190610ebe565b60068054604080516020601f60026000196101006001881615020190951694909404938401819004810282018101909252828152606093909290918301828280156105745780601f1061054957610100808354040283529160200191610574565b6001600160a01b038216331415610967576040805162461bcd60e51b815260206004820152601960248201527f4552433732313a20617070726f766520746f2063616c6c657200000000000000604482015290519081900360640190fd5b3360008181526004602090815260408083206001600160a01b03871680855290835292819020805460ff1916861515908117909155815190815290519293927f17307eab39ab6107e8899845ad3d59bd9653f200f220920489ca2b5937696c31929181900390910190a35050565b6109e08484846106f2565b6109ec84848484610ec2565b610a275760405162461bcd60e51b81526004018080602001828103825260328152602001806112066032913960400191505060405180910390fd5b50505050565b6060610a3882610b40565b610a735760405162461bcd60e51b815260040180806020018281038252602f815260200180611368602f913960400191505060405180910390fd5b60008281526007602090815260409182902080548351601f600260001961010060018616150201909316929092049182018490048402810184019094528084529091830182828015610b065780601f10610adb57610100808354040283529160200191610b06565b820191906000526020600020905b815481529060010190602001808311610ae957829003601f168201915b50505050509050919050565b6001600160a01b03918216600090815260046020908152604080832093909416825291909152205460ff1690565b6000908152600160205260409020546001600160a01b0316151590565b6000610b6882610b40565b610ba35760405162461bcd60e51b815260040180806020018281038252602c81526020018061125c602c913960400191505060405180910390fd5b6000610bae836107d7565b9050806001600160a01b0316846001600160a01b03161480610be95750836001600160a01b0316610bde8461057f565b6001600160a01b0316145b80610bf95750610bf98185610b12565b949350505050565b826001600160a01b0316610c14826107d7565b6001600160a01b031614610c595760405162461bcd60e51b815260040180806020018281038252602981526020018061133f6029913960400191505060405180910390fd5b6001600160a01b038216610c9e5760405162461bcd60e51b81526004018080602001828103825260248152602001806112386024913960400191505060405180910390fd5b610ca781610ff5565b6001600160a01b0383166000908152600360205260409020610cc890611030565b6001600160a01b0382166000908152600360205260409020610ce990611047565b60008181526001602052604080822080546001600160a01b0319166001600160a01b0386811691821790925591518493918716917fddf252ad1be2c89b69c2b068fc378daa952ba7f163c4a11628f55a4df523b3ef91a4505050565b6001600160a01b038216610da0576040805162461bcd60e51b815260206004820181905260248201527f4552433732313a206d696e7420746f20746865207a65726f2061646472657373604482015290519081900360640190fd5b610da981610b40565b15610dfb576040805162461bcd60e51b815260206004820152601c60248201527f4552433732313a20746f6b656e20616c7265616479206d696e74656400000000604482015290519081900360640190fd5b600081815260016020908152604080832080546001600160a01b0319166001600160a01b038716908117909155835260039091529020610e3a90611047565b60405181906001600160a01b038416906000907fddf252ad1be2c89b69c2b068fc378daa952ba7f163c4a11628f55a4df523b3ef908290a45050565b610e808282611050565b600081815260076020526040902054600260001961010060018416150201909116041561079a57600081815260076020526040812061079a9161118a565b5490565b6000610ed6846001600160a01b0316611127565b610ee257506001610bf9565b604051630a85bd0160e11b815233600482018181526001600160a01b03888116602485015260448401879052608060648501908152865160848601528651600095928a169463150b7a029490938c938b938b939260a4019060208501908083838e5b83811015610f5c578181015183820152602001610f44565b50505050905090810190601f168015610f895780820380516001836020036101000a031916815260200191505b5095505050505050602060405180830381600087803b158015610fab57600080fd5b505af1158015610fbf573d6000803e3d6000fd5b505050506040513d6020811015610fd557600080fd5b50516001600160e01b031916630a85bd0160e11b14915050949350505050565b6000818152600260205260409020546001600160a01b0316156107c357600090815260026020526040902080546001600160a01b0319169055565b805461104390600163ffffffff61112d16565b9055565b80546001019055565b816001600160a01b0316611063826107d7565b6001600160a01b0316146110a85760405162461bcd60e51b81526004018080602001828103825260258152602001806113e96025913960400191505060405180910390fd5b6110b181610ff5565b6001600160a01b03821660009081526003602052604090206110d290611030565b60008181526001602052604080822080546001600160a01b0319169055518291906001600160a01b038516907fddf252ad1be2c89b69c2b068fc378daa952ba7f163c4a11628f55a4df523b3ef908390a45050565b3b151590565b600082821115611184576040805162461bcd60e51b815260206004820152601e60248201527f536166654d6174683a207375627472616374696f6e206f766572666c6f770000604482015290519081900360640190fd5b50900390565b50805460018160011615610100020316600290046000825580601f106111b057506107c3565b60009182526020918290206107c39261057c92601f01048101905b808211156111df57600081556001016111cb565b509056fe63616c6c6572206d757374206265207468652076656e64696e67206d616368696e654552433732313a207472616e7366657220746f206e6f6e20455243373231526563656976657220696d706c656d656e7465724552433732313a207472616e7366657220746f20746865207a65726f20616464726573734552433732313a206f70657261746f7220717565727920666f72206e6f6e6578697374656e7420746f6b656e4552433732313a20617070726f76652063616c6c6572206973206e6f74206f776e6572206e6f7220617070726f76656420666f7220616c6c4552433732313a2062616c616e636520717565727920666f7220746865207a65726f20616464726573734552433732313a206f776e657220717565727920666f72206e6f6e6578697374656e7420746f6b656e4552433732313a20617070726f76656420717565727920666f72206e6f6e6578697374656e7420746f6b656e4552433732313a207472616e73666572206f6620746f6b656e2074686174206973206e6f74206f776e4552433732314d657461646174613a2055524920717565727920666f72206e6f6e6578697374656e7420746f6b656e4552433732313a20617070726f76616c20746f2063757272656e74206f776e65724552433732313a207472616e736665722063616c6c6572206973206e6f74206f776e6572206e6f7220617070726f7665644552433732313a206275726e206f6620746f6b656e2074686174206973206e6f74206f776ea265627a7a72315820be5d71568d137d5f39eadbcdf1c61d7cc1cc8fedcb1bd0490512cee347be508364736f6c63430005110032",
  "source": "pragma solidity 0.5.17;\n\nimport \"../../../contracts/system/FeeRebateToken.sol\";\n\ncontract TestFeeRebateToken is FeeRebateToken {\n\n    constructor(address _vendingMachine)\n        FeeRebateToken(_vendingMachine)\n    public{}\n\n    /// @dev             We can't call FeeRebateToken mint function from tests because of ACL.\n    ///                  This function bypasses ACL and can be called in tests.\n    ///                  Mints a token and assigns it to an account.\n    ///                  Uses the internal _mint function.\n    /// @param _account  The account that will receive the token.\n    /// @param _frtId    The Fee Rebate Token ID.\n    function forceMint(address _account, uint256 _frtId) public returns (bool) {\n        _mint(_account, _frtId);\n        return true;\n    }\n\n    /// @dev             Delete a feeRebateToken. This function is used to\n    ///                  test cases where the existence of an FRT impacts test outcomes.\n    ///                  Must be called my the token owner.\n    /// @param _frtId    The Fee Rebate Token ID.\n    function burn(uint256 _frtId) public {\n        _burn(msg.sender, _frtId);\n    }\n}\n",
  "sourcePath": "/Users/symf/IdeaProjects/tbtc/solidity/contracts/test/system/TestFeeRebateToken.sol",
  "compiler": {
    "name": "solc",
    "version": "0.5.17+commit.d19bba13.Emscripten.clang"
  },
  "schemaVersion": "3.0.23",
  "updatedAt": "2020-08-21T21:24:02.925Z",
  "devdoc": {
    "methods": {
      "approve(address,uint256)": {
        "details": "Approves another address to transfer the given token ID The zero address indicates there is no approved address. There can only be one approved address per token at a given time. Can only be called by the token owner or an approved operator.",
        "params": {
          "to": "address to be approved for the given token ID",
          "tokenId": "uint256 ID of the token to be approved"
        }
      },
      "balanceOf(address)": {
        "details": "Gets the balance of the specified address.",
        "params": {
          "owner": "address to query the balance of"
        },
        "return": "uint256 representing the amount owned by the passed address"
      },
      "burn(uint256)": {
        "details": "Delete a feeRebateToken. This function is used to                  test cases where the existence of an FRT impacts test outcomes.                  Must be called my the token owner.",
        "params": {
          "_frtId": "The Fee Rebate Token ID."
        }
      },
      "exists(uint256)": {
        "details": "Returns whether the specified token exists.",
        "params": {
          "_tokenId": "uint256 ID of the token to query the existence of."
        },
        "return": "bool whether the token exists."
      },
      "forceMint(address,uint256)": {
        "details": "We can't call FeeRebateToken mint function from tests because of ACL.                  This function bypasses ACL and can be called in tests.                  Mints a token and assigns it to an account.                  Uses the internal _mint function.",
        "params": {
          "_account": "The account that will receive the token.",
          "_frtId": "The Fee Rebate Token ID."
        }
      },
      "getApproved(uint256)": {
        "details": "Gets the approved address for a token ID, or zero if no address set Reverts if the token ID does not exist.",
        "params": {
          "tokenId": "uint256 ID of the token to query the approval of"
        },
        "return": "address currently approved for the given token ID"
      },
      "isApprovedForAll(address,address)": {
        "details": "Tells whether an operator is approved by a given owner.",
        "params": {
          "operator": "operator address which you want to query the approval of",
          "owner": "owner address which you want to query the approval of"
        },
        "return": "bool whether the given operator is approved by the given owner"
      },
      "mint(address,uint256)": {
        "details": "Mints a new token. Reverts if the given token ID already exists.",
        "params": {
          "_to": "The address that will own the minted token.",
          "_tokenId": "uint256 ID of the token to be minted."
        }
      },
      "name()": {
        "details": "Gets the token name.",
        "return": "string representing the token name"
      },
      "ownerOf(uint256)": {
        "details": "Gets the owner of the specified token ID.",
        "params": {
          "tokenId": "uint256 ID of the token to query the owner of"
        },
        "return": "address currently marked as the owner of the given token ID"
      },
      "safeTransferFrom(address,address,uint256)": {
        "details": "Safely transfers the ownership of a given token ID to another address If the target address is a contract, it must implement `onERC721Received`, which is called upon a safe transfer, and return the magic value `bytes4(keccak256(\"onERC721Received(address,address,uint256,bytes)\"))`; otherwise, the transfer is reverted. Requires the msg.sender to be the owner, approved, or operator",
        "params": {
          "from": "current owner of the token",
          "to": "address to receive the ownership of the given token ID",
          "tokenId": "uint256 ID of the token to be transferred"
        }
      },
      "safeTransferFrom(address,address,uint256,bytes)": {
        "details": "Safely transfers the ownership of a given token ID to another address If the target address is a contract, it must implement `onERC721Received`, which is called upon a safe transfer, and return the magic value `bytes4(keccak256(\"onERC721Received(address,address,uint256,bytes)\"))`; otherwise, the transfer is reverted. Requires the msg.sender to be the owner, approved, or operator",
        "params": {
          "_data": "bytes data to send along with a safe transfer check",
          "from": "current owner of the token",
          "to": "address to receive the ownership of the given token ID",
          "tokenId": "uint256 ID of the token to be transferred"
        }
      },
      "setApprovalForAll(address,bool)": {
        "details": "Sets or unsets the approval of a given operator An operator is allowed to transfer all tokens of the sender on their behalf.",
        "params": {
          "approved": "representing the status of the approval to be set",
          "to": "operator address to set the approval"
        }
      },
      "supportsInterface(bytes4)": {
        "details": "See `IERC165.supportsInterface`.     * Time complexity O(1), guaranteed to always use less than 30 000 gas."
      },
      "symbol()": {
        "details": "Gets the token symbol.",
        "return": "string representing the token symbol"
      },
      "tokenURI(uint256)": {
        "details": "Returns an URI for a given token ID. Throws if the token ID does not exist. May return an empty string.",
        "params": {
          "tokenId": "uint256 ID of the token to query"
        }
      },
      "transferFrom(address,address,uint256)": {
        "details": "Transfers the ownership of a given token ID to another address. Usage of this method is discouraged, use `safeTransferFrom` whenever possible. Requires the msg.sender to be the owner, approved, or operator.",
        "params": {
          "from": "current owner of the token",
          "to": "address to receive the ownership of the given token ID",
          "tokenId": "uint256 ID of the token to be transferred"
        }
      }
    }
  },
  "userdoc": {
    "methods": {}
  }
}