{
  "contractName": "TestTBTCToken",
  "abi": [
    {
      "inputs": [
        {
          "internalType": "address",
          "name": "_vendingMachine",
          "type": "address"
        }
      ],
      "payable": false,
      "stateMutability": "nonpayable",
      "type": "constructor"
    },
    {
      "anonymous": false,
      "inputs": [
        {
          "indexed": true,
          "internalType": "address",
          "name": "owner",
          "type": "address"
        },
        {
          "indexed": true,
          "internalType": "address",
          "name": "spender",
          "type": "address"
        },
        {
          "indexed": false,
          "internalType": "uint256",
          "name": "value",
          "type": "uint256"
        }
      ],
      "name": "Approval",
      "type": "event"
    },
    {
      "anonymous": false,
      "inputs": [
        {
          "indexed": true,
          "internalType": "address",
          "name": "from",
          "type": "address"
        },
        {
          "indexed": true,
          "internalType": "address",
          "name": "to",
          "type": "address"
        },
        {
          "indexed": false,
          "internalType": "uint256",
          "name": "value",
          "type": "uint256"
        }
      ],
      "name": "Transfer",
      "type": "event"
    },
    {
      "constant": true,
      "inputs": [
        {
          "internalType": "address",
          "name": "owner",
          "type": "address"
        },
        {
          "internalType": "address",
          "name": "spender",
          "type": "address"
        }
      ],
      "name": "allowance",
      "outputs": [
        {
          "internalType": "uint256",
          "name": "",
          "type": "uint256"
        }
      ],
      "payable": false,
      "stateMutability": "view",
      "type": "function"
    },
    {
      "constant": false,
      "inputs": [
        {
          "internalType": "address",
          "name": "spender",
          "type": "address"
        },
        {
          "internalType": "uint256",
          "name": "value",
          "type": "uint256"
        }
      ],
      "name": "approve",
      "outputs": [
        {
          "internalType": "bool",
          "name": "",
          "type": "bool"
        }
      ],
      "payable": false,
      "stateMutability": "nonpayable",
      "type": "function"
    },
    {
      "constant": false,
      "inputs": [
        {
          "internalType": "contract ITokenRecipient",
          "name": "_spender",
          "type": "address"
        },
        {
          "internalType": "uint256",
          "name": "_value",
          "type": "uint256"
        },
        {
          "internalType": "bytes",
          "name": "_extraData",
          "type": "bytes"
        }
      ],
      "name": "approveAndCall",
      "outputs": [
        {
          "internalType": "bool",
          "name": "",
          "type": "bool"
        }
      ],
      "payable": false,
      "stateMutability": "nonpayable",
      "type": "function"
    },
    {
      "constant": true,
      "inputs": [
        {
          "internalType": "address",
          "name": "account",
          "type": "address"
        }
      ],
      "name": "balanceOf",
      "outputs": [
        {
          "internalType": "uint256",
          "name": "",
          "type": "uint256"
        }
      ],
      "payable": false,
      "stateMutability": "view",
      "type": "function"
    },
    {
      "constant": false,
      "inputs": [
        {
          "internalType": "uint256",
          "name": "_amount",
          "type": "uint256"
        }
      ],
      "name": "burn",
      "outputs": [],
      "payable": false,
      "stateMutability": "nonpayable",
      "type": "function"
    },
    {
      "constant": false,
      "inputs": [
        {
          "internalType": "address",
          "name": "_account",
          "type": "address"
        },
        {
          "internalType": "uint256",
          "name": "_amount",
          "type": "uint256"
        }
      ],
      "name": "burnFrom",
      "outputs": [],
      "payable": false,
      "stateMutability": "nonpayable",
      "type": "function"
    },
    {
      "constant": true,
      "inputs": [],
      "name": "decimals",
      "outputs": [
        {
          "internalType": "uint8",
          "name": "",
          "type": "uint8"
        }
      ],
      "payable": false,
      "stateMutability": "view",
      "type": "function"
    },
    {
      "constant": false,
      "inputs": [
        {
          "internalType": "address",
          "name": "spender",
          "type": "address"
        },
        {
          "internalType": "uint256",
          "name": "subtractedValue",
          "type": "uint256"
        }
      ],
      "name": "decreaseAllowance",
      "outputs": [
        {
          "internalType": "bool",
          "name": "",
          "type": "bool"
        }
      ],
      "payable": false,
      "stateMutability": "nonpayable",
      "type": "function"
    },
    {
      "constant": false,
      "inputs": [
        {
          "internalType": "address",
          "name": "spender",
          "type": "address"
        },
        {
          "internalType": "uint256",
          "name": "addedValue",
          "type": "uint256"
        }
      ],
      "name": "increaseAllowance",
      "outputs": [
        {
          "internalType": "bool",
          "name": "",
          "type": "bool"
        }
      ],
      "payable": false,
      "stateMutability": "nonpayable",
      "type": "function"
    },
    {
      "constant": false,
      "inputs": [
        {
          "internalType": "address",
          "name": "_account",
          "type": "address"
        },
        {
          "internalType": "uint256",
          "name": "_amount",
          "type": "uint256"
        }
      ],
      "name": "mint",
      "outputs": [
        {
          "internalType": "bool",
          "name": "",
          "type": "bool"
        }
      ],
      "payable": false,
      "stateMutability": "nonpayable",
      "type": "function"
    },
    {
      "constant": true,
      "inputs": [],
      "name": "name",
      "outputs": [
        {
          "internalType": "string",
          "name": "",
          "type": "string"
        }
      ],
      "payable": false,
      "stateMutability": "view",
      "type": "function"
    },
    {
      "constant": true,
      "inputs": [],
      "name": "symbol",
      "outputs": [
        {
          "internalType": "string",
          "name": "",
          "type": "string"
        }
      ],
      "payable": false,
      "stateMutability": "view",
      "type": "function"
    },
    {
      "constant": true,
      "inputs": [],
      "name": "totalSupply",
      "outputs": [
        {
          "internalType": "uint256",
          "name": "",
          "type": "uint256"
        }
      ],
      "payable": false,
      "stateMutability": "view",
      "type": "function"
    },
    {
      "constant": false,
      "inputs": [
        {
          "internalType": "address",
          "name": "recipient",
          "type": "address"
        },
        {
          "internalType": "uint256",
          "name": "amount",
          "type": "uint256"
        }
      ],
      "name": "transfer",
      "outputs": [
        {
          "internalType": "bool",
          "name": "",
          "type": "bool"
        }
      ],
      "payable": false,
      "stateMutability": "nonpayable",
      "type": "function"
    },
    {
      "constant": false,
      "inputs": [
        {
          "internalType": "address",
          "name": "sender",
          "type": "address"
        },
        {
          "internalType": "address",
          "name": "recipient",
          "type": "address"
        },
        {
          "internalType": "uint256",
          "name": "amount",
          "type": "uint256"
        }
      ],
      "name": "transferFrom",
      "outputs": [
        {
          "internalType": "bool",
          "name": "",
          "type": "bool"
        }
      ],
      "payable": false,
      "stateMutability": "nonpayable",
      "type": "function"
    },
    {
      "constant": false,
      "inputs": [
        {
          "internalType": "address",
          "name": "_account",
          "type": "address"
        },
        {
          "internalType": "uint256",
          "name": "_amount",
          "type": "uint256"
        }
      ],
      "name": "forceMint",
      "outputs": [
        {
          "internalType": "bool",
          "name": "",
          "type": "bool"
        }
      ],
      "payable": false,
      "stateMutability": "nonpayable",
      "type": "function"
    },
    {
      "constant": false,
      "inputs": [
        {
          "internalType": "address",
          "name": "_account",
          "type": "address"
        },
        {
          "internalType": "uint256",
          "name": "_amount",
          "type": "uint256"
        }
      ],
      "name": "forceBurn",
      "outputs": [],
      "payable": false,
      "stateMutability": "nonpayable",
      "type": "function"
    },
    {
      "constant": false,
      "inputs": [],
      "name": "zeroBalance",
      "outputs": [],
      "payable": false,
      "stateMutability": "nonpayable",
      "type": "function"
    },
    {
      "constant": false,
      "inputs": [
        {
          "internalType": "uint256",
          "name": "_newBalance",
          "type": "uint256"
        }
      ],
      "name": "resetBalance",
      "outputs": [],
      "payable": false,
      "stateMutability": "nonpayable",
      "type": "function"
    },
    {
      "constant": false,
      "inputs": [
        {
          "internalType": "address",
          "name": "_spender",
          "type": "address"
        },
        {
          "internalType": "uint256",
          "name": "_newAllowance",
          "type": "uint256"
        }
      ],
      "name": "resetAllowance",
      "outputs": [],
      "payable": false,
      "stateMutability": "nonpayable",
      "type": "function"
    }
  ],
  "bytecode": "0x608060405234801561001057600080fd5b50604051620010df380380620010df8339818101604052602081101561003557600080fd5b50516040805180820182526004808252637442544360e01b60208381019182528451808601909552918452635442544360e01b9184019190915281518493849392909160129161008891600091906100db565b50815161009c9060019060208501906100db565b506002805460ff191660ff929092169190911790555050600680546001600160a01b0319166001600160a01b0392909216919091179055506101769050565b828054600181600116156101000203166002900490600052602060002090601f016020900481019282601f1061011c57805160ff1916838001178555610149565b82800160010185558215610149579182015b8281111561014957825182559160200191906001019061012e565b50610155929150610159565b5090565b61017391905b80821115610155576000815560010161015f565b90565b610f5980620001866000396000f3fe608060405234801561001057600080fd5b506004361061012c5760003560e01c80636a9d5c84116100ad578063a9059cbb11610071578063a9059cbb146103b9578063c27b7a24146103e5578063cae9ca5114610402578063dd62ed3e146104bd578063e2d6f634146104eb5761012c565b80636a9d5c841461030757806370a082311461033357806379cc67901461035957806395d89b4114610385578063a457c2d71461038d5761012c565b806339509351116100f4578063395093511461025c57806340899d651461028857806340c10f19146102b657806342966c68146102e25780634ed9af4c146102ff5761012c565b806306fdde0314610131578063095ea7b3146101ae57806318160ddd146101ee57806323b872dd14610208578063313ce5671461023e575b600080fd5b610139610517565b6040805160208082528351818301528351919283929083019185019080838360005b8381101561017357818101518382015260200161015b565b50505050905090810190601f1680156101a05780820380516001836020036101000a031916815260200191505b509250505060405180910390f35b6101da600480360360408110156101c457600080fd5b506001600160a01b0381351690602001356105ad565b604080519115158252519081900360200190f35b6101f66105c3565b60408051918252519081900360200190f35b6101da6004803603606081101561021e57600080fd5b506001600160a01b038135811691602081013590911690604001356105c9565b610246610621565b6040805160ff9092168252519081900360200190f35b6101da6004803603604081101561027257600080fd5b506001600160a01b03813516906020013561062a565b6102b46004803603604081101561029e57600080fd5b506001600160a01b038135169060200135610666565b005b6101da600480360360408110156102cc57600080fd5b506001600160a01b038135169060200135610696565b6102b4600480360360208110156102f857600080fd5b50356106ec565b6102b46106f9565b6101da6004803603604081101561031d57600080fd5b506001600160a01b038135169060200135610716565b6101f66004803603602081101561034957600080fd5b50356001600160a01b0316610722565b6102b46004803603604081101561036f57600080fd5b506001600160a01b03813516906020013561073d565b61013961074b565b6101da600480360360408110156103a357600080fd5b506001600160a01b0381351690602001356107ab565b6101da600480360360408110156103cf57600080fd5b506001600160a01b0381351690602001356107e7565b6102b4600480360360208110156103fb57600080fd5b50356107f4565b6101da6004803603606081101561041857600080fd5b6001600160a01b038235169160208101359181019060608101604082013564010000000081111561044857600080fd5b82018360208201111561045a57600080fd5b8035906020019184600183028401116401000000008311171561047c57600080fd5b91908080601f016020809104026020016040519081016040528093929190818152602001838380828437600092019190915250929550610820945050505050565b6101f6600480360360408110156104d357600080fd5b506001600160a01b0381358116916020013516610925565b6102b46004803603604081101561050157600080fd5b506001600160a01b038135169060200135610950565b60008054604080516020601f60026000196101006001881615020190951694909404938401819004810282018101909252828152606093909290918301828280156105a35780601f10610578576101008083540402835291602001916105a3565b820191906000526020600020905b81548152906001019060200180831161058657829003601f168201915b5050505050905090565b60006105ba33848461095a565b50600192915050565b60055490565b60006105d6848484610a46565b6001600160a01b038416600090815260046020908152604080832033808552925290912054610616918691610611908663ffffffff610b8a16565b61095a565b5060015b9392505050565b60025460ff1690565b3360008181526004602090815260408083206001600160a01b038716845290915281205490916105ba918590610611908663ffffffff610be716565b60006106723384610925565b905080156106865761068483826107ab565b505b61069083836105ad565b50505050565b6006546000906001600160a01b031633146106e25760405162461bcd60e51b8152600401808060200182810382526022815260200180610e546022913960400191505060405180910390fd5b6105ba8383610c41565b6106f63382610d33565b50565b600061070433610722565b905080156106f6576106f63382610d33565b60006105ba8383610c41565b6001600160a01b031660009081526003602052604090205490565b6107478282610e0e565b5050565b60018054604080516020601f600260001961010087891615020190951694909404938401819004810282018101909252828152606093909290918301828280156105a35780601f10610578576101008083540402835291602001916105a3565b3360008181526004602090815260408083206001600160a01b038716845290915281205490916105ba918590610611908663ffffffff610b8a16565b60006105ba338484610a46565b60006107ff33610722565b90508015610811576108113382610950565b61081b3383610716565b505050565b600061082c84846105ad565b1561091b57604051638f4ffcb160e01b815233600482018181526024830186905230604484018190526080606485019081528651608486015286516001600160a01b038a1695638f4ffcb195948a94938a939192909160a490910190602085019080838360005b838110156108ab578181015183820152602001610893565b50505050905090810190601f1680156108d85780820380516001836020036101000a031916815260200191505b5095505050505050600060405180830381600087803b1580156108fa57600080fd5b505af115801561090e573d6000803e3d6000fd5b505050506001905061061a565b5060009392505050565b6001600160a01b03918216600090815260046020908152604080832093909416825291909152205490565b6107478282610d33565b6001600160a01b03831661099f5760405162461bcd60e51b8152600401808060200182810382526024815260200180610f016024913960400191505060405180910390fd5b6001600160a01b0382166109e45760405162461bcd60e51b8152600401808060200182810382526022815260200180610e996022913960400191505060405180910390fd5b6001600160a01b03808416600081815260046020908152604080832094871680845294825291829020859055815185815291517f8c5be1e5ebec7d5bd14f71427d1e84f3dd0314c0f7b2291e5b200ac8c7c3b9259281900390910190a3505050565b6001600160a01b038316610a8b5760405162461bcd60e51b8152600401808060200182810382526025815260200180610edc6025913960400191505060405180910390fd5b6001600160a01b038216610ad05760405162461bcd60e51b8152600401808060200182810382526023815260200180610e766023913960400191505060405180910390fd5b6001600160a01b038316600090815260036020526040902054610af9908263ffffffff610b8a16565b6001600160a01b038085166000908152600360205260408082209390935590841681522054610b2e908263ffffffff610be716565b6001600160a01b0380841660008181526003602090815260409182902094909455805185815290519193928716927fddf252ad1be2c89b69c2b068fc378daa952ba7f163c4a11628f55a4df523b3ef92918290030190a3505050565b600082821115610be1576040805162461bcd60e51b815260206004820152601e60248201527f536166654d6174683a207375627472616374696f6e206f766572666c6f770000604482015290519081900360640190fd5b50900390565b60008282018381101561061a576040805162461bcd60e51b815260206004820152601b60248201527f536166654d6174683a206164646974696f6e206f766572666c6f770000000000604482015290519081900360640190fd5b6001600160a01b038216610c9c576040805162461bcd60e51b815260206004820152601f60248201527f45524332303a206d696e7420746f20746865207a65726f206164647265737300604482015290519081900360640190fd5b600554610caf908263ffffffff610be716565b6005556001600160a01b038216600090815260036020526040902054610cdb908263ffffffff610be716565b6001600160a01b03831660008181526003602090815260408083209490945583518581529351929391927fddf252ad1be2c89b69c2b068fc378daa952ba7f163c4a11628f55a4df523b3ef9281900390910190a35050565b6001600160a01b038216610d785760405162461bcd60e51b8152600401808060200182810382526021815260200180610ebb6021913960400191505060405180910390fd5b600554610d8b908263ffffffff610b8a16565b6005556001600160a01b038216600090815260036020526040902054610db7908263ffffffff610b8a16565b6001600160a01b0383166000818152600360209081526040808320949094558351858152935191937fddf252ad1be2c89b69c2b068fc378daa952ba7f163c4a11628f55a4df523b3ef929081900390910190a35050565b610e188282610d33565b6001600160a01b038216600090815260046020908152604080832033808552925290912054610747918491610611908563ffffffff610b8a1656fe63616c6c6572206d757374206265207468652076656e64696e67206d616368696e6545524332303a207472616e7366657220746f20746865207a65726f206164647265737345524332303a20617070726f766520746f20746865207a65726f206164647265737345524332303a206275726e2066726f6d20746865207a65726f206164647265737345524332303a207472616e736665722066726f6d20746865207a65726f206164647265737345524332303a20617070726f76652066726f6d20746865207a65726f2061646472657373a265627a7a72315820cfad3621d227aff61e8b7d6b05f54edae6a3c296f21f8e47ae9524cb7983dae464736f6c63430005110032",
  "source": "pragma solidity 0.5.17;\n\nimport \"openzeppelin-solidity/contracts/token/ERC20/ERC20.sol\";\nimport \"openzeppelin-solidity/contracts/token/ERC20/ERC20Detailed.sol\";\nimport \"../../../contracts/system/TBTCToken.sol\";\n\ncontract TestTBTCToken is TBTCToken{\n\n    constructor(address _vendingMachine)\n        TBTCToken(_vendingMachine)\n    public {\n        // solium-disable-previous-line no-empty-blocks\n    }\n\n    /// @dev             We can't call TBTCToken mint function from deposit Test becuase of ACL.\n    ///                  This function bypasses ACL and can be called in Deposit tests\n    ///                  Mints an amount of the token and assigns it to an account.\n    ///                  Uses the internal _mint function.\n    /// @param _account  The account that will receive the created tokens.\n    /// @param _amount   The amount of tokens that will be created.\n    function forceMint(address _account, uint256 _amount) public returns (bool){\n        // NOTE: this is a public function with unchecked minting.\n        _mint(_account, _amount);\n        return true;\n    }\n\n    /// @dev             We can't call TBTCToken burn function from deposit Test becuase of ACL.\n    ///                  This function bypasses ACL and can be called in Deposit tests.\n    ///                  Burns an amount of the token of a given account\n    ///                  deducting from the sender's allowance for said account.\n    ///                  Bypasses ACL and can be called in Deposit tests\n    /// @param _account  The account whose tokens will be burnt.\n    /// @param _amount   The amount of tokens that will be burnt.\n    function forceBurn(address _account, uint256 _amount) public {\n        // NOTE: this uses internal function _burn instead of _burnFrom.\n        // This will bypass allowance check for now.\n        _burn(_account, _amount);\n    }\n\n    /// @dev                Zeros out the balance of the calling address.\n    ///                     Does nothing if address has zero balance.\n    function zeroBalance() public {\n        uint256 currentBalance = balanceOf(msg.sender);\n        if (currentBalance > 0){\n            _burn(msg.sender, currentBalance);\n        }\n    }\n\n    /// @dev                Uses exposed token functions to reset caller's balance.\n    /// @param _newBalance  New balance to assign to caller\n    function resetBalance(uint256 _newBalance) public {\n        uint256 currentBalance = balanceOf(msg.sender);\n        if(currentBalance > 0){\n            forceBurn(msg.sender, currentBalance);\n        }\n        forceMint(msg.sender, _newBalance);\n    }\n\n    /// @dev                   Uses exposed token functions to reset the allowance\n    ///                        of a given account.\n    /// @param _spender        The allowed account.\n    /// @param _newAllowance   New allowance to assign.\n    function resetAllowance(address _spender, uint256 _newAllowance) public {\n        uint256 currentAllowance = allowance(msg.sender, _spender);\n        if (currentAllowance > 0){\n            decreaseAllowance(_spender, currentAllowance);\n        }\n        approve(_spender, _newAllowance);\n    }\n}\n",
  "sourcePath": "/Users/symf/IdeaProjects/tbtc/solidity/contracts/test/system/TestTBTCToken.sol",
  "compiler": {
    "name": "solc",
    "version": "0.5.17+commit.d19bba13.Emscripten.clang"
  },
  "schemaVersion": "3.0.23",
  "updatedAt": "2020-08-21T21:24:02.929Z",
  "devdoc": {
    "methods": {
      "allowance(address,address)": {
        "details": "See `IERC20.allowance`."
      },
      "approve(address,uint256)": {
        "details": "See `IERC20.approve`.     * Requirements:     * - `spender` cannot be the zero address."
      },
      "approveAndCall(address,uint256,bytes)": {
        "details": "The `_spender` should implement the `ITokenRecipient`                   interface to receive approval notifications.",
        "params": {
          "_extraData": "Extra information to send to the approved contract.",
          "_spender": "Address of contract authorized to spend.",
          "_value": "The max amount they can spend."
        },
        "return": "true if the `_spender` was successfully approved and acted on         the approval, false (or revert) otherwise."
      },
      "balanceOf(address)": {
        "details": "See `IERC20.balanceOf`."
      },
      "burn(uint256)": {
        "details": "Destroys `amount` tokens from `msg.sender`, reducing the total supply.",
        "params": {
          "_amount": "The amount of tokens that will be burnt."
        }
      },
      "burnFrom(address,uint256)": {
        "details": "Burns an amount of the token from the given account's balance.                  deducting from the sender's allowance for said account.                  Uses the internal _burn function.",
        "params": {
          "_account": "The account whose tokens will be burnt.",
          "_amount": "The amount of tokens that will be burnt."
        }
      },
      "decimals()": {
        "details": "Returns the number of decimals used to get its user representation. For example, if `decimals` equals `2`, a balance of `505` tokens should be displayed to a user as `5,05` (`505 / 10 ** 2`).     * Tokens usually opt for a value of 18, imitating the relationship between Ether and Wei.     * > Note that this information is only used for _display_ purposes: it in no way affects any of the arithmetic of the contract, including `IERC20.balanceOf` and `IERC20.transfer`."
      },
      "decreaseAllowance(address,uint256)": {
        "details": "Atomically decreases the allowance granted to `spender` by the caller.     * This is an alternative to `approve` that can be used as a mitigation for problems described in `IERC20.approve`.     * Emits an `Approval` event indicating the updated allowance.     * Requirements:     * - `spender` cannot be the zero address. - `spender` must have allowance for the caller of at least `subtractedValue`."
      },
      "forceBurn(address,uint256)": {
        "details": "We can't call TBTCToken burn function from deposit Test becuase of ACL.                  This function bypasses ACL and can be called in Deposit tests.                  Burns an amount of the token of a given account                  deducting from the sender's allowance for said account.                  Bypasses ACL and can be called in Deposit tests",
        "params": {
          "_account": "The account whose tokens will be burnt.",
          "_amount": "The amount of tokens that will be burnt."
        }
      },
      "forceMint(address,uint256)": {
        "details": "We can't call TBTCToken mint function from deposit Test becuase of ACL.                  This function bypasses ACL and can be called in Deposit tests                  Mints an amount of the token and assigns it to an account.                  Uses the internal _mint function.",
        "params": {
          "_account": "The account that will receive the created tokens.",
          "_amount": "The amount of tokens that will be created."
        }
      },
      "increaseAllowance(address,uint256)": {
        "details": "Atomically increases the allowance granted to `spender` by the caller.     * This is an alternative to `approve` that can be used as a mitigation for problems described in `IERC20.approve`.     * Emits an `Approval` event indicating the updated allowance.     * Requirements:     * - `spender` cannot be the zero address."
      },
      "mint(address,uint256)": {
        "details": "Mints an amount of the token and assigns it to an account.                  Uses the internal _mint function.",
        "params": {
          "_account": "The account that will receive the created tokens.",
          "_amount": "The amount of tokens that will be created."
        }
      },
      "name()": {
        "details": "Returns the name of the token."
      },
      "resetAllowance(address,uint256)": {
        "details": "Uses exposed token functions to reset the allowance                        of a given account.",
        "params": {
          "_newAllowance": "New allowance to assign.",
          "_spender": "The allowed account."
        }
      },
      "resetBalance(uint256)": {
        "details": "Uses exposed token functions to reset caller's balance.",
        "params": {
          "_newBalance": "New balance to assign to caller"
        }
      },
      "symbol()": {
        "details": "Returns the symbol of the token, usually a shorter version of the name."
      },
      "totalSupply()": {
        "details": "See `IERC20.totalSupply`."
      },
      "transfer(address,uint256)": {
        "details": "See `IERC20.transfer`.     * Requirements:     * - `recipient` cannot be the zero address. - the caller must have a balance of at least `amount`."
      },
      "transferFrom(address,address,uint256)": {
        "details": "See `IERC20.transferFrom`.     * Emits an `Approval` event indicating the updated allowance. This is not required by the EIP. See the note at the beginning of `ERC20`;     * Requirements: - `sender` and `recipient` cannot be the zero address. - `sender` must have a balance of at least `value`. - the caller must have allowance for `sender`'s tokens of at least `amount`."
      },
      "zeroBalance()": {
        "details": "Zeros out the balance of the calling address.                     Does nothing if address has zero balance."
      }
    }
  },
  "userdoc": {
    "methods": {
      "approveAndCall(address,uint256,bytes)": {
        "notice": "Set allowance for other address and notify.                   Allows `_spender` to spend no more than `_value`                   tokens on your behalf and then ping the contract about                   it."
      }
    }
  }
}