{
  "contractName": "TestnetRelay",
  "abi": [
    {
      "inputs": [
        {
          "internalType": "bytes",
          "name": "_genesisHeader",
          "type": "bytes"
        },
        {
          "internalType": "uint256",
          "name": "_height",
          "type": "uint256"
        },
        {
          "internalType": "bytes32",
          "name": "_periodStart",
          "type": "bytes32"
        },
        {
          "internalType": "uint256",
          "name": "_firstID",
          "type": "uint256"
        }
      ],
      "payable": false,
      "stateMutability": "nonpayable",
      "type": "constructor"
    },
    {
      "anonymous": false,
      "inputs": [
        {
          "indexed": true,
          "internalType": "bytes32",
          "name": "_first",
          "type": "bytes32"
        },
        {
          "indexed": true,
          "internalType": "bytes32",
          "name": "_last",
          "type": "bytes32"
        }
      ],
      "name": "Extension",
      "type": "event"
    },
    {
      "anonymous": false,
      "inputs": [
        {
          "indexed": true,
          "internalType": "address",
          "name": "_requester",
          "type": "address"
        },
        {
          "indexed": true,
          "internalType": "uint256",
          "name": "_requestID",
          "type": "uint256"
        },
        {
          "indexed": false,
          "internalType": "uint64",
          "name": "_paysValue",
          "type": "uint64"
        },
        {
          "indexed": false,
          "internalType": "bytes",
          "name": "_spends",
          "type": "bytes"
        },
        {
          "indexed": false,
          "internalType": "bytes",
          "name": "_pays",
          "type": "bytes"
        }
      ],
      "name": "NewProofRequest",
      "type": "event"
    },
    {
      "anonymous": false,
      "inputs": [
        {
          "indexed": true,
          "internalType": "bytes32",
          "name": "_from",
          "type": "bytes32"
        },
        {
          "indexed": true,
          "internalType": "bytes32",
          "name": "_to",
          "type": "bytes32"
        },
        {
          "indexed": true,
          "internalType": "bytes32",
          "name": "_gcd",
          "type": "bytes32"
        }
      ],
      "name": "NewTip",
      "type": "event"
    },
    {
      "anonymous": false,
      "inputs": [
        {
          "indexed": true,
          "internalType": "uint256",
          "name": "_requestID",
          "type": "uint256"
        }
      ],
      "name": "RequestClosed",
      "type": "event"
    },
    {
      "anonymous": false,
      "inputs": [
        {
          "indexed": true,
          "internalType": "bytes32",
          "name": "_txid",
          "type": "bytes32"
        },
        {
          "indexed": true,
          "internalType": "uint256",
          "name": "_requestID",
          "type": "uint256"
        }
      ],
      "name": "RequestFilled",
      "type": "event"
    },
    {
      "constant": true,
      "inputs": [],
      "name": "BASE_COST",
      "outputs": [
        {
          "internalType": "uint256",
          "name": "",
          "type": "uint256"
        }
      ],
      "payable": false,
      "stateMutability": "view",
      "type": "function"
    },
    {
      "constant": true,
      "inputs": [],
      "name": "HEIGHT_INTERVAL",
      "outputs": [
        {
          "internalType": "uint32",
          "name": "",
          "type": "uint32"
        }
      ],
      "payable": false,
      "stateMutability": "view",
      "type": "function"
    },
    {
      "constant": false,
      "inputs": [
        {
          "internalType": "bytes",
          "name": "_anchor",
          "type": "bytes"
        },
        {
          "internalType": "bytes",
          "name": "_headers",
          "type": "bytes"
        }
      ],
      "name": "addHeaders",
      "outputs": [
        {
          "internalType": "bool",
          "name": "",
          "type": "bool"
        }
      ],
      "payable": false,
      "stateMutability": "nonpayable",
      "type": "function"
    },
    {
      "constant": false,
      "inputs": [
        {
          "internalType": "bytes",
          "name": "_oldPeriodStartHeader",
          "type": "bytes"
        },
        {
          "internalType": "bytes",
          "name": "_oldPeriodEndHeader",
          "type": "bytes"
        },
        {
          "internalType": "bytes",
          "name": "_headers",
          "type": "bytes"
        }
      ],
      "name": "addHeadersWithRetarget",
      "outputs": [
        {
          "internalType": "bool",
          "name": "",
          "type": "bool"
        }
      ],
      "payable": false,
      "stateMutability": "nonpayable",
      "type": "function"
    },
    {
      "constant": false,
      "inputs": [
        {
          "internalType": "uint256",
          "name": "_requestID",
          "type": "uint256"
        }
      ],
      "name": "cancelRequest",
      "outputs": [
        {
          "internalType": "bool",
          "name": "",
          "type": "bool"
        }
      ],
      "payable": false,
      "stateMutability": "nonpayable",
      "type": "function"
    },
    {
      "constant": true,
      "inputs": [
        {
          "internalType": "bytes32",
          "name": "_digest",
          "type": "bytes32"
        },
        {
          "internalType": "uint256",
          "name": "_offset",
          "type": "uint256"
        }
      ],
      "name": "findAncestor",
      "outputs": [
        {
          "internalType": "bytes32",
          "name": "",
          "type": "bytes32"
        }
      ],
      "payable": false,
      "stateMutability": "view",
      "type": "function"
    },
    {
      "constant": true,
      "inputs": [
        {
          "internalType": "bytes32",
          "name": "_digest",
          "type": "bytes32"
        }
      ],
      "name": "findHeight",
      "outputs": [
        {
          "internalType": "uint256",
          "name": "",
          "type": "uint256"
        }
      ],
      "payable": false,
      "stateMutability": "view",
      "type": "function"
    },
    {
      "constant": true,
      "inputs": [],
      "name": "getBestKnownDigest",
      "outputs": [
        {
          "internalType": "bytes32",
          "name": "",
          "type": "bytes32"
        }
      ],
      "payable": false,
      "stateMutability": "view",
      "type": "function"
    },
    {
      "constant": true,
      "inputs": [],
      "name": "getCurrentEpochDifficulty",
      "outputs": [
        {
          "internalType": "uint256",
          "name": "",
          "type": "uint256"
        }
      ],
      "payable": false,
      "stateMutability": "view",
      "type": "function"
    },
    {
      "constant": true,
      "inputs": [],
      "name": "getLastReorgCommonAncestor",
      "outputs": [
        {
          "internalType": "bytes32",
          "name": "",
          "type": "bytes32"
        }
      ],
      "payable": false,
      "stateMutability": "view",
      "type": "function"
    },
    {
      "constant": true,
      "inputs": [],
      "name": "getLatestValidatedTx",
      "outputs": [
        {
          "internalType": "bytes32",
          "name": "",
          "type": "bytes32"
        }
      ],
      "payable": false,
      "stateMutability": "view",
      "type": "function"
    },
    {
      "constant": true,
      "inputs": [],
      "name": "getPrevEpochDifficulty",
      "outputs": [
        {
          "internalType": "uint256",
          "name": "",
          "type": "uint256"
        }
      ],
      "payable": false,
      "stateMutability": "view",
      "type": "function"
    },
    {
      "constant": true,
      "inputs": [],
      "name": "getRelayGenesis",
      "outputs": [
        {
          "internalType": "bytes32",
          "name": "",
          "type": "bytes32"
        }
      ],
      "payable": false,
      "stateMutability": "view",
      "type": "function"
    },
    {
      "constant": true,
      "inputs": [
        {
          "internalType": "uint256",
          "name": "_requestID",
          "type": "uint256"
        }
      ],
      "name": "getRequest",
      "outputs": [
        {
          "internalType": "bytes32",
          "name": "spends",
          "type": "bytes32"
        },
        {
          "internalType": "bytes32",
          "name": "pays",
          "type": "bytes32"
        },
        {
          "internalType": "uint64",
          "name": "paysValue",
          "type": "uint64"
        },
        {
          "internalType": "uint8",
          "name": "state",
          "type": "uint8"
        },
        {
          "internalType": "address",
          "name": "consumer",
          "type": "address"
        },
        {
          "internalType": "address",
          "name": "owner",
          "type": "address"
        },
        {
          "internalType": "uint8",
          "name": "numConfs",
          "type": "uint8"
        },
        {
          "internalType": "uint256",
          "name": "notBefore",
          "type": "uint256"
        }
      ],
      "payable": false,
      "stateMutability": "view",
      "type": "function"
    },
    {
      "constant": true,
      "inputs": [
        {
          "internalType": "bytes32",
          "name": "_ancestor",
          "type": "bytes32"
        },
        {
          "internalType": "bytes32",
          "name": "_descendant",
          "type": "bytes32"
        },
        {
          "internalType": "uint256",
          "name": "_limit",
          "type": "uint256"
        }
      ],
      "name": "isAncestor",
      "outputs": [
        {
          "internalType": "bool",
          "name": "",
          "type": "bool"
        }
      ],
      "payable": false,
      "stateMutability": "view",
      "type": "function"
    },
    {
      "constant": true,
      "inputs": [],
      "name": "latestValidatedTx",
      "outputs": [
        {
          "internalType": "bytes32",
          "name": "",
          "type": "bytes32"
        }
      ],
      "payable": false,
      "stateMutability": "view",
      "type": "function"
    },
    {
      "constant": false,
      "inputs": [
        {
          "internalType": "bytes32",
          "name": "_ancestor",
          "type": "bytes32"
        },
        {
          "internalType": "bytes",
          "name": "_currentBest",
          "type": "bytes"
        },
        {
          "internalType": "bytes",
          "name": "_newBest",
          "type": "bytes"
        },
        {
          "internalType": "uint256",
          "name": "_limit",
          "type": "uint256"
        }
      ],
      "name": "markNewHeaviest",
      "outputs": [
        {
          "internalType": "bool",
          "name": "",
          "type": "bool"
        }
      ],
      "payable": false,
      "stateMutability": "nonpayable",
      "type": "function"
    },
    {
      "constant": true,
      "inputs": [],
      "name": "nextID",
      "outputs": [
        {
          "internalType": "uint256",
          "name": "",
          "type": "uint256"
        }
      ],
      "payable": false,
      "stateMutability": "view",
      "type": "function"
    },
    {
      "constant": false,
      "inputs": [
        {
          "internalType": "bytes",
          "name": "_header",
          "type": "bytes"
        },
        {
          "internalType": "bytes",
          "name": "_proof",
          "type": "bytes"
        },
        {
          "internalType": "bytes4",
          "name": "_version",
          "type": "bytes4"
        },
        {
          "internalType": "bytes4",
          "name": "_locktime",
          "type": "bytes4"
        },
        {
          "internalType": "uint256",
          "name": "_index",
          "type": "uint256"
        },
        {
          "internalType": "uint16",
          "name": "_reqIndices",
          "type": "uint16"
        },
        {
          "internalType": "bytes",
          "name": "_vin",
          "type": "bytes"
        },
        {
          "internalType": "bytes",
          "name": "_vout",
          "type": "bytes"
        },
        {
          "internalType": "uint256",
          "name": "_requestID",
          "type": "uint256"
        }
      ],
      "name": "provideProof",
      "outputs": [
        {
          "internalType": "bool",
          "name": "",
          "type": "bool"
        }
      ],
      "payable": false,
      "stateMutability": "nonpayable",
      "type": "function"
    },
    {
      "constant": true,
      "inputs": [],
      "name": "remoteGasAllowance",
      "outputs": [
        {
          "internalType": "uint256",
          "name": "",
          "type": "uint256"
        }
      ],
      "payable": false,
      "stateMutability": "view",
      "type": "function"
    },
    {
      "constant": false,
      "inputs": [
        {
          "internalType": "bytes",
          "name": "_spends",
          "type": "bytes"
        },
        {
          "internalType": "bytes",
          "name": "_pays",
          "type": "bytes"
        },
        {
          "internalType": "uint64",
          "name": "_paysValue",
          "type": "uint64"
        },
        {
          "internalType": "address",
          "name": "_consumer",
          "type": "address"
        },
        {
          "internalType": "uint8",
          "name": "_numConfs",
          "type": "uint8"
        },
        {
          "internalType": "uint256",
          "name": "_notBefore",
          "type": "uint256"
        }
      ],
      "name": "request",
      "outputs": [
        {
          "internalType": "uint256",
          "name": "",
          "type": "uint256"
        }
      ],
      "payable": false,
      "stateMutability": "nonpayable",
      "type": "function"
    }
  ],
  "bytecode": "0x60806040526207a120600b553480156200001857600080fd5b5060405162003c3d38038062003c3d833981810160405260808110156200003e57600080fd5b81019080805160405193929190846401000000008211156200005f57600080fd5b9083019060208201858111156200007557600080fd5b82516401000000008111828201881017156200009057600080fd5b82525081516020918201929091019080838360005b83811015620000bf578181015183820152602001620000a5565b50505050905090810190601f168015620000ed5780820380516001836020036101000a031916815260200191505b506040908152602082015190820151606090920151855191945091925084908490849084908490849084906050146200015f576040805162461bcd60e51b815260206004820152600f60248201526e29ba37b8103132b4b73390323ab6b160891b604482015290519081900360640190fd5b600062000177846200024060201b6200162a1760201c565b905062ffffff821615620001bd5760405162461bcd60e51b815260040180806020018281038252603d81526020018062003c00603d913960400191505060405180910390fd5b600081815560018290556002829055818152600460205260409020839055620001f96107e08406846200037960201b62002f041790919060201c565b60046000848152602001908152602001600020819055506200022684620003d760201b620023cc1760201c565b600555505050600991909155505050505050505062000658565b6000600280836040518082805190602001908083835b60208310620002775780518252601f19909201916020918201910162000256565b51815160209384036101000a60001901801990921691161790526040519190930194509192505080830381855afa158015620002b7573d6000803e3d6000fd5b5050506040513d6020811015620002cd57600080fd5b50516040805160208181019390935281518082038401815290820191829052805190928291908401908083835b602083106200031b5780518252601f199092019160209182019101620002fa565b51815160209384036101000a60001901801990921691161790526040519190930194509192505080830381855afa1580156200035b573d6000803e3d6000fd5b5050506040513d60208110156200037157600080fd5b505192915050565b600082821115620003d1576040805162461bcd60e51b815260206004820152601d60248201527f556e646572666c6f7720647572696e67207375627472616374696f6e2e000000604482015290519081900360640190fd5b50900390565b600062000400620003f1836001600160e01b036200040616565b6001600160e01b036200048616565b92915050565b60006060620004286048600385620004a760201b62002aab179092919060201c565b9050600083604b815181106200043a57fe5b016020015160f81c905060006200046d6200045e846001600160e01b036200057216565b6001600160e01b036200060416565b6002199290920160ff166101000a909102949350505050565b6000620004008261ffff60d01b6200064460201b6200326d1790919060201c565b606081620004c557506040805160208101909152600081526200056b565b8282018381118015620004d9575080855110155b6200052b576040805162461bcd60e51b815260206004820152601360248201527f536c696365206f7574206f6620626f756e647300000000000000000000000000604482015290519081900360640190fd5b604051915082604083010160405282825283850182038460208701018481015b8082101562000566578151838301526020820191506200054b565b505050505b9392505050565b60608082516040519080825280601f01601f191660200182016040528015620005a2576020820181803883390190505b50905060005b8351811015620005fd57838181518110620005bf57fe5b602001015160f81c60f81b826001838751030381518110620005dd57fe5b60200101906001600160f81b031916908160001a905350600101620005a8565b5092915050565b600080805b8351811015620005fd578060010184510360080260020a8482815181106200062d57fe5b016020015160f81c02919091019060010162000609565b60008183816200065057fe5b049392505050565b61359880620006686000396000f3fe608060405234801561001057600080fd5b50600436106101375760003560e01c806374c3a3a9116100b8578063a882e8641161007c578063a882e8641461058f578063ad401de614610597578063b985621a1461071e578063c58242cd14610747578063c58343ef1461074f578063e3d8d8d8146107c357610137565b806374c3a3a9146102c65780637fa637fc1461038b5780639426323414610499578063a00d95261461057f578063a24022aa1461058757610137565b806330017b3b116100ff57806330017b3b146101765780633015394c1461019957806360b5c390146101ca57806365da41b9146101e757806370d53c18146102a557610137565b8063113764be1461013c5780631910d973146101565780631e96917d1461015e57806329798b96146101665780632b97be241461016e575b600080fd5b6101446107cb565b60408051918252519081900360200190f35b6101446107d1565b6101446107d7565b6101446107dd565b6101446107e3565b6101446004803603604081101561018c57600080fd5b50803590602001356107e9565b6101b6600480360360208110156101af57600080fd5b50356107fe565b604080519115158252519081900360200190f35b610144600480360360208110156101e057600080fd5b503561091c565b6101b6600480360360408110156101fd57600080fd5b810190602081018135600160201b81111561021757600080fd5b82018360208201111561022957600080fd5b803590602001918460018302840111600160201b8311171561024a57600080fd5b919390929091602081019035600160201b81111561026757600080fd5b82018360208201111561027957600080fd5b803590602001918460018302840111600160201b8311171561029a57600080fd5b509092509050610927565b6102ad6109a7565b6040805163ffffffff9092168252519081900360200190f35b6101b6600480360360808110156102dc57600080fd5b81359190810190604081016020820135600160201b8111156102fd57600080fd5b82018360208201111561030f57600080fd5b803590602001918460018302840111600160201b8311171561033057600080fd5b919390929091602081019035600160201b81111561034d57600080fd5b82018360208201111561035f57600080fd5b803590602001918460018302840111600160201b8311171561038057600080fd5b9193509150356109ac565b6101b6600480360360608110156103a157600080fd5b810190602081018135600160201b8111156103bb57600080fd5b8201836020820111156103cd57600080fd5b803590602001918460018302840111600160201b831117156103ee57600080fd5b919390929091602081019035600160201b81111561040b57600080fd5b82018360208201111561041d57600080fd5b803590602001918460018302840111600160201b8311171561043e57600080fd5b919390929091602081019035600160201b81111561045b57600080fd5b82018360208201111561046d57600080fd5b803590602001918460018302840111600160201b8311171561048e57600080fd5b509092509050610a2f565b610144600480360360c08110156104af57600080fd5b810190602081018135600160201b8111156104c957600080fd5b8201836020820111156104db57600080fd5b803590602001918460018302840111600160201b831117156104fc57600080fd5b919390929091602081019035600160201b81111561051957600080fd5b82018360208201111561052b57600080fd5b803590602001918460018302840111600160201b8311171561054c57600080fd5b919350915067ffffffffffffffff813516906001600160a01b036020820135169060ff6040820135169060600135610ad8565b610144610b60565b610144610b67565b610144610b6d565b6101b660048036036101208110156105ae57600080fd5b810190602081018135600160201b8111156105c857600080fd5b8201836020820111156105da57600080fd5b803590602001918460018302840111600160201b831117156105fb57600080fd5b919390929091602081019035600160201b81111561061857600080fd5b82018360208201111561062a57600080fd5b803590602001918460018302840111600160201b8311171561064b57600080fd5b919390926001600160e01b0319833581169360208101359091169260408201359261ffff6060840135169260a081019060800135600160201b81111561069057600080fd5b8201836020820111156106a257600080fd5b803590602001918460018302840111600160201b831117156106c357600080fd5b919390929091602081019035600160201b8111156106e057600080fd5b8201836020820111156106f257600080fd5b803590602001918460018302840111600160201b8311171561071357600080fd5b919350915035610b73565b6101b66004803603606081101561073457600080fd5b5080359060208101359060400135610dad565b610144610dc4565b61076c6004803603602081101561076557600080fd5b5035610dca565b60408051988952602089019790975267ffffffffffffffff9095168787015260ff93841660608801526001600160a01b039283166080880152911660a08601521660c084015260e083015251908190036101000190f35b610144610e56565b60055490565b60015490565b60095481565b600a5481565b60065490565b60006107f58383610e5c565b90505b92915050565b600081815260086020526040812060016004820154600160a01b900460ff16600281111561082857fe5b1461086f576040805162461bcd60e51b815260206004820152601260248201527152657175657374206e6f742061637469766560701b604482015290519081900360640190fd5b60038101546001600160a01b0316331480610896575060048101546001600160a01b031633145b6108d15760405162461bcd60e51b815260040180806020018281038252602a8152602001806134ae602a913960400191505060405180910390fd5b60048101805460ff60a01b1916600160a11b17905560405183907f4287938c90f288c18d761d34c3a5ad998017f7e890a72628c9636bb82ea286bd90600090a260019150505b919050565b60006107f882610ed8565b600061099c85858080601f01602080910402602001604051908101604052809392919081815260200183838082843760009201919091525050604080516020601f8901819004810282018101909252878152925087915086908190840183828082843760009201829052509250610f83915050565b90505b949350505050565b600481565b6000610a248787878080601f01602080910402602001604051908101604052809392919081815260200183838082843760009201919091525050604080516020601f8b018190048102820181019092528981529250899150889081908401838280828437600092019190915250889250610f8f915050565b979650505050505050565b6000610a2487878080601f01602080910402602001604051908101604052809392919081815260200183838082843760009201919091525050604080516020601f8b01819004810282018101909252898152925089915088908190840183828082843760009201919091525050604080516020601f8a01819004810282018101909252888152925088915087908190840183828082843760009201919091525061118c92505050565b6000610b5389898080601f01602080910402602001604051908101604052809392919081815260200183838082843760009201919091525050604080516020601f8d018190048102820181019092528b815292508b91508a90819084018382808284376000920191909152508a925089915088905087611198565b9998505050505050505050565b6201518081565b600b5481565b600a5490565b600080610be78b888888888f60405160200180876001600160e01b0319166001600160e01b03191681526004018686808284379190910190508484808284376001600160e01b03199094169190930190815260408051601b1981840301815260049092019052965061162a95505050505050565b60008181526007602052604090205490915060ff16610ca957610c898f8f8080601f016020809104026020016040519081016040528093929190818152602001838380828437600081840152601f19601f820116905080830192505050505050508e8e8080601f0160208091040260200160405190810160405280939291908181526020018383808284376000920191909152508e925086915088905061175b565b506000818152600760205260409020805460ff19166001179055600a8190555b610d1f8888888080601f01602080910402602001604051908101604052809392919081815260200183838082843760009201919091525050604080516020601f8c018190048102820181019092528a815292508a91508990819084018382808284376000920191909152508992506118c1915050565b50610d97818989898080601f01602080910402602001604051908101604052809392919081815260200183838082843760009201919091525050604080516020601f8d018190048102820181019092528b815292508b91508a90819084018382808284376000920191909152508a9250611c14915050565b5060019f9e505050505050505050505050505050565b6000610dba848484611eeb565b90505b9392505050565b60025490565b600081815260086020526040812080546001820154600383015460048401549294919367ffffffffffffffff600160a01b928390041693839283928392839260ff9104166002811115610e1957fe5b600382015460048301546002909301549a9c999b50979990986001600160a01b03808a169993169750600160e01b90920460ff1695509350915050565b60005490565b600082815b83811015610e92576000918252600360205260409091205490610e8b81600163ffffffff611f4016565b9050610e61565b50806107f5576040805162461bcd60e51b815260206004820152601060248201526f2ab735b737bbb71030b731b2b9ba37b960811b604482015290519081900360640190fd5b60008082815b6005811015610f4557600082815260046020526040902054925082610f13576000918252600360205260409091205490610f2d565b610f23838263ffffffff611f4016565b9350505050610917565b610f3e81600163ffffffff611f4016565b9050610ede565b506040805162461bcd60e51b815260206004820152600d60248201526c556e6b6e6f776e20626c6f636b60981b604482015290519081900360640190fd5b6000610dba8484611f98565b60006107e0821115610fd25760405162461bcd60e51b815260040180806020018281038252603381526020018061342e6033913960400191505060405180910390fd5b6000610fdd8461162a565b90506000610fea8661162a565b90506001548114611042576040805162461bcd60e51b815260206004820181905260248201527f50617373656420696e2062657374206973206e6f742062657374206b6e6f776e604482015290519081900360640190fd5b600082815260036020526040902054611098576040805162461bcd60e51b81526020600482015260136024820152722732bb903132b9ba1034b9903ab735b737bbb760691b604482015290519081900360640190fd5b6110a68760015484876121ce565b6110e15760405162461bcd60e51b815260040180806020018281038252602981526020018061353b6029913960400191505060405180910390fd5b816110ed888888612270565b146111295760405162461bcd60e51b81526004018080602001828103825260338152602001806134d86033913960400191505060405180910390fd5b60018290556002879055600061113e866123cc565b9050600554811461114f5760058190555b8783837f3cc13de64df0f0239626235c51a2da251bbc8c85664ecce39263da3ee03f606c60405160405180910390a4506001979650505050505050565b6000610dba8383611f98565b60098054600181019091558651600091908790602414806111b857508851155b6111fc576040805162461bcd60e51b815260206004820152601060248201526f4e6f7420612076616c6964205554584f60801b604482015290519081900360640190fd5b805180158015906112245750600181038260008151811061121957fe5b016020015160f81c14155b156112aa578082604051602001808360ff1660ff1660f81b815260010182805190602001908083835b6020831061126c5780518252601f19909201916020918201910161124d565b6001836020036101000a0380198251168184511680821785525050505050509050019250505060405160208183030381529060405291506001810190505b6040516000602080830182815285516060948793602890910191908401908083835b602083106112eb5780518252601f1990920191602091820191016112cc565b6001836020036101000a038019825116818451168082178552505050505050905001925050506040516020818303038152906040529050816000148061133a57506000611337826123df565b51115b8061134e5750600061134b82612613565b51115b61139f576040805162461bcd60e51b815260206004820152601a60248201527f4e6f742061207374616e64617264206f75747075742074797065000000000000604482015290519081900360640190fd5b60008b5111806113af5750600082115b6113f7576040805162461bcd60e51b8152602060048201526014602482015273139bc81c995c5d595cdd081cdc1958da599a595960621b604482015290519081900360640190fd5b60008481526008602052604090206004810180546001600160a01b031916331790558b511561142a578b5160208d012081555b821561143d578351602085012060018201555b67ffffffffffffffff8a16156114765760038101805467ffffffffffffffff60a01b1916600160a01b67ffffffffffffffff8d16021790555b60008860ff1611801561148c575060f18860ff16105b156114ac5760038101805460ff60e01b1916600160e01b60ff8b16021790555b86156114ba57600281018790555b6003810180546001600160a01b0319166001600160a01b038b161790556004810180546001919060ff60a01b1916600160a01b83021790555084336001600160a01b03167ff6744579059b48cd66d2c2dfe223754f166f2200b6de2bc6e0d239cd52d1a8c48c8f88604051808467ffffffffffffffff1667ffffffffffffffff1681526020018060200180602001838103835285818151815260200191508051906020019080838360005b8381101561157d578181015183820152602001611565565b50505050905090810190601f1680156115aa5780820380516001836020036101000a031916815260200191505b50838103825284518152845160209182019186019080838360005b838110156115dd5781810151838201526020016115c5565b50505050905090810190601f16801561160a5780820380516001836020036101000a031916815260200191505b509550505050505060405180910390a350929a9950505050505050505050565b6000600280836040518082805190602001908083835b6020831061165f5780518252601f199092019160209182019101611640565b51815160209384036101000a60001901801990921691161790526040519190930194509192505080830381855afa15801561169e573d6000803e3d6000fd5b5050506040513d60208110156116b357600080fd5b50516040805160208181019390935281518082038401815290820191829052805190928291908401908083835b602083106116ff5780518252601f1990920191602091820191016116e0565b51815160209384036101000a60001901801990921691161790526040519190930194509192505080830381855afa15801561173e573d6000803e3d6000fd5b5050506040513d602081101561175357600080fd5b505192915050565b60006117798361177261176d89612688565b61269d565b87876126b9565b6117c0576040805162461bcd60e51b81526020600482015260136024820152722130b21034b731b63ab9b4b7b710383937b7b360691b604482015290519081900360640190fd5b60006117cb8761162a565b905060006117d7610dc4565b90506117e5828260f0611eeb565b611836576040805162461bcd60e51b815260206004820152601b60248201527f47434420646f6573206e6f7420636f6e6669726d206865616465720000000000604482015290519081900360640190fd5b600084815260086020526040902060030154600160e01b900460ff168061185c84612767565b60ff1610156118b2576040805162461bcd60e51b815260206004820152601a60248201527f496e73756666696369656e7420636f6e6669726d6174696f6e73000000000000604482015290519081900360640190fd5b50600198975050505050505050565b60006118cc84612784565b611913576040805162461bcd60e51b8152602060048201526013602482015272159a5b881a5cc81b585b199bdc9b585d1d1959606a1b604482015290519081900360640190fd5b61191c83612836565b611964576040805162461bcd60e51b8152602060048201526014602482015273159bdd5d081a5cc81b585b199bdc9b585d1d195960621b604482015290519081900360640190fd5b6000828152600860208190526040909120600281015460ff9288901c831692881691904210156119db576040805162461bcd60e51b815260206004820152601e60248201527f52657175657374206973207375626d697474656420746f6f206561726c790000604482015290519081900360640190fd5b60016004820154600160a01b900460ff1660028111156119f757fe5b14611a41576040805162461bcd60e51b815260206004820152601560248201527452657175657374206973206e6f742061637469766560581b604482015290519081900360640190fd5b60018101548015801590611b72576060611a648960ff871663ffffffff6128db16565b90506060611a8160088084510384612aab9092919063ffffffff16565b905083818051906020012014611ade576040805162461bcd60e51b815260206004820152601b60248201527f446f6573206e6f74206d61746368207061797320726571756573740000000000604482015290519081900360640190fd5b6003850154600160a01b900467ffffffffffffffff16801580611b1d57508067ffffffffffffffff16611b1084612b65565b67ffffffffffffffff1610155b611b6e576040805162461bcd60e51b815260206004820152601c60248201527f446f6573206e6f74206d617463682076616c7565207265717565737400000000604482015290519081900360640190fd5b5050505b82548015801590611c02576060611b928c60ff8a1663ffffffff612b8a16565b9050811580611baf575082611ba682612d30565b80519060200120145b611c00576040805162461bcd60e51b815260206004820152601d60248201527f446f6573206e6f74206d61746368207370656e64732072657175657374000000604482015290519081900360640190fd5b505b5060019b9a5050505050505050505050565b60008060086000848152602001908152602001600020905060008160030160009054906101000a90046001600160a01b03169050600060088861ffff16901c905060008860ff169050826001600160a01b0316600b54846001600160a01b0316630140356d905060e01b8c8b8b8b88886040516020018087815260200180602001806020018681526020018560ff1660ff1681526020018460ff1660ff168152602001838103835288818151815260200191508051906020019080838360005b83811015611cec578181015183820152602001611cd4565b50505050905090810190601f168015611d195780820380516001836020036101000a031916815260200191505b50838103825287518152875160209182019189019080838360005b83811015611d4c578181015183820152602001611d34565b50505050905090810190601f168015611d795780820380516001836020036101000a031916815260200191505b509850505050505050505060405160208183030381529060405260405160200180836001600160e01b0319166001600160e01b031916815260040182805190602001908083835b60208310611ddf5780518252601f199092019160209182019101611dc0565b6001836020036101000a038019825116818451168082178552505050505050905001925050506040516020818303038152906040526040518082805190602001908083835b60208310611e435780518252601f199092019160209182019101611e24565b6001836020036101000a03801982511681845116808217855250505050505090500191505060006040518083038160008787f1925050503d8060008114611ea6576040519150601f19603f3d011682016040523d82523d6000602084013e611eab565b606091505b50506040518791508b907f97b6ce150a3b8e94c442fb09fe13c2b262f0e9b3bfc83ef2309675e09dcb453b90600090a35060019998505050505050505050565b600082815b83811015611f345785821415611f0b57600192505050610dbd565b6000918252600360205260409091205490611f2d81600163ffffffff611f4016565b9050611ef0565b50600095945050505050565b818101828110156107f8576040805162461bcd60e51b815260206004820152601960248201527f4f766572666c6f7720647572696e67206164646974696f6e2e00000000000000604482015290519081900360640190fd5b6000806060600080611fa98761162a565b90506000611fb682610ed8565b90506050875181611fc357fe5b06156120005760405162461bcd60e51b815260040180806020018281038252602b815260200180613483602b913960400191505060405180910390fd5b60005b605088518161200e57fe5b0481101561218c5761203961202a82605063ffffffff612d4516565b8990605063ffffffff612aab16565b945061204e826001830163ffffffff611f4016565b95506120598561162a565b6000818152600360205260409020549094506121265761207885612db5565b6120a86120a38660405160200180828152602001915050604051602081830303815290604052612e0e565b612e9b565b11156120fb576040805162461bcd60e51b815260206004820152601b60248201527f48656164657220776f726b20697320696e73756666696369656e740000000000604482015290519081900360640190fd5b6000848152600360205260409020839055600486066121265760008481526004602052604090208690555b612136858463ffffffff612ed816565b6121715760405162461bcd60e51b81526004018080602001828103825260268152602001806134086026913960400191505060405180910390fd5b83925061218581600163ffffffff611f4016565b9050612003565b50826121978961162a565b6040517ff90e4f1d9cd0dd55e339411cbc9b152482307c3a23ed64715e4a2858f641a3f590600090a3506001979650505050505050565b600083851480156121de57508285145b156121eb5750600161099f565b8383818160005b8681101561224657898314612214576000838152600360205260409020549294505b89821461222e576000828152600360205260409020549193505b61223f81600163ffffffff611f4016565b90506121f2565b508284141561225c57600094505050505061099f565b8082146118b257600094505050505061099f565b60008061227c85610ed8565b9050600061229161228c8661162a565b610ed8565b905060006122a161228c8661162a565b90508282101580156122b35750828110155b6122ee5760405162461bcd60e51b815260040180806020018281038252603081526020018061350b6030913960400191505060405180910390fd5b60006123166107e0850661230a866107e063ffffffff611f4016565b9063ffffffff612f0416565b90508083108183108115826123285750805b15612343576123368961162a565b9650505050505050610dbd565b81801561234e575080155b1561235c576123368861162a565b8180156123665750805b1561238a57838510156123815761237c8861162a565b612336565b6123368961162a565b6123a8612396896123cc565b6107e0865b069063ffffffff612d4516565b6123bd6123b48b6123cc565b6107e08861239b565b1015612381576123368861162a565b60006107f86123da83612db5565b612f61565b60606000826008815181106123f057fe5b0160200151835160f89190911c91506009820160ff1614612421575050604080516020810190915260008152610917565b8260098151811061242e57fe5b016020015160f81c6124d15760028160ff16101561245c575050604080516020810190915260008152610917565b600083600a8151811061246b57fe5b016020015160f81c9050600119820160ff1681141580612498575080602014158015612498575080601414155b156124b6576040518060200160405280600081525092505050610917565b6124c884600b8363ffffffff612aab16565b92505050610917565b60006124e6846008600363ffffffff612f7816565b60408051621976a960e81b815290519081900360030190209091508114156125915783600b8151811061251557fe5b60209101015160f81c60141415806125605750604051808061222b60f21b8152506002019050604051809103902061255d6002865103600287612f789092919063ffffffff16565b14155b1561257e576040518060200160405280600081525092505050610917565b6124c884600c601463ffffffff612aab16565b604080516205ea4560ea1b815290519081900360030190208114156125fc57836001855103815181106125c057fe5b60209101015160f81c6087146125e9576040518060200160405280600081525092505050610917565b6124c884600b601463ffffffff612aab16565b505050604080516020810190915260008152919050565b60408051603560f91b815290516001918190038201902060609161263b908490600990612f78565b146126555750604080516020810190915260008152610917565b606061266a83600a600163ffffffff612aab16565b9050610dbd600b61267a83612e9b565b85919063ffffffff612aab16565b60606107f8826024602063ffffffff612aab16565b60008151600014156126b157506000610917565b506020015190565b600083851480156126c8575081155b80156126d357508251155b156126e05750600161099f565b60608584866040516020018084815260200183805190602001908083835b6020831061271d5780518252601f1990920191602091820191016126fe565b51815160209384036101000a600019018019909216911617905292019384525060408051808503815293909101905250925061275d915082905084612fdf565b9695505050505050565b600061277282610ed8565b61277d600154610ed8565b0392915050565b60008060006127928461311e565b90925090508015806127a5575060001982145b156127b557600092505050610917565b6001820160005b8281101561282957855182106127d9576000945050505050610917565b60606127f3838489510389612aab9092919063ffffffff16565b90506000612800826131aa565b905060001981141561281b5760009650505050505050610917565b9290920191506001016127bc565b5084511492505050919050565b60008060006128448461311e565b9092509050801580612857575060001982145b1561286757600092505050610917565b6001820160005b82811015612829578551821061288b576000945050505050610917565b60606128a5838489510389612aab9092919063ffffffff16565b905060006128b2826131dd565b90506000198114156128cd5760009650505050505050610917565b92909201915060010161286e565b60606000806128e98561311e565b909250905060001982141561292f5760405162461bcd60e51b81526004018080602001828103825260228152602001806134616022913960400191505060405180910390fd5b808410612977576040805162461bcd60e51b81526020600482015260116024820152702b37baba103932b0b21037bb32b9393ab760791b604482015290519081900360640190fd5b6060600060018401815b87811015612a11576129a182838b51038b612aab9092919063ffffffff16565b93506129ac846131dd565b9250600019831415612a05576040805162461bcd60e51b815260206004820152601a60248201527f42616420566172496e7420696e207363726970745075626b6579000000000000604482015290519081900360640190fd5b90820190600101612981565b50612a2a81828a51038a612aab9092919063ffffffff16565b9250612a35836131dd565b9150600019821415612a8e576040805162461bcd60e51b815260206004820152601a60248201527f42616420566172496e7420696e207363726970745075626b6579000000000000604482015290519081900360640190fd5b612a9f88828463ffffffff612aab16565b98975050505050505050565b606081612ac75750604080516020810190915260008152610dbd565b8282018381118015612ada575080855110155b612b21576040805162461bcd60e51b8152602060048201526013602482015272536c696365206f7574206f6620626f756e647360681b604482015290519081900360640190fd5b604051915082604083010160405282825283850182038460208701018481015b80821015612b5a57815183830152602082019150612b41565b505050509392505050565b60006060612b7283613243565b90506060612b7f82612e0e565b905061099f81612e9b565b6060600080612b988561311e565b9092509050600019821415612bde5760405162461bcd60e51b81526004018080602001828103825260228152602001806134616022913960400191505060405180910390fd5b808410612c25576040805162461bcd60e51b815260206004820152601060248201526f2b34b7103932b0b21037bb32b9393ab760811b604482015290519081900360640190fd5b6060600060018401815b87811015612cb957612c4f82838b51038b612aab9092919063ffffffff16565b9350612c5a846131aa565b9250600019831415612cad576040805162461bcd60e51b815260206004820152601760248201527642616420566172496e7420696e2073637269707453696760481b604482015290519081900360640190fd5b90820190600101612c2f565b50612cd281828a51038a612aab9092919063ffffffff16565b9250612cdd836131aa565b9150600019821415612a8e576040805162461bcd60e51b815260206004820152601760248201527642616420566172496e7420696e2073637269707453696760481b604482015290519081900360640190fd5b60606107f8826000602463ffffffff612aab16565b600082612d54575060006107f8565b5081810281838281612d6257fe5b04146107f8576040805162461bcd60e51b815260206004820152601f60248201527f4f766572666c6f7720647572696e67206d756c7469706c69636174696f6e2e00604482015290519081900360640190fd5b60006060612dcc836048600363ffffffff612aab16565b9050600083604b81518110612ddd57fe5b016020015160f81c90506000612df56120a384612e0e565b6002199290920160ff166101000a909102949350505050565b60608082516040519080825280601f01601f191660200182016040528015612e3d576020820181803883390190505b50905060005b8351811015612e9457838181518110612e5857fe5b602001015160f81c60f81b826001838751030381518110612e7557fe5b60200101906001600160f81b031916908160001a905350600101612e43565b5092915050565b600080805b8351811015612e94578060010184510360080260020a848281518110612ec257fe5b016020015160f81c029190910190600101612ea0565b600080612ee761176d85613258565b9050828114612efa5760009150506107f8565b5060019392505050565b600082821115612f5b576040805162461bcd60e51b815260206004820152601d60248201527f556e646572666c6f7720647572696e67207375627472616374696f6e2e000000604482015290519081900360640190fd5b50900390565b60006107f861ffff60d01b8363ffffffff61326d16565b60008282018381118015612f8d575080855110155b612fd4576040805162461bcd60e51b8152602060048201526013602482015272536c696365206f7574206f6620626f756e647360681b604482015290519081900360640190fd5b505091016020012090565b60006020835181612fec57fe5b0615612ffa575060006107f8565b82516020141561300c575060016107f8565b82516040141561301e575060006107f8565b825182906000906130409061176d908790601f1901602063ffffffff612aab16565b9050600061305961176d8783602063ffffffff612aab16565b905060015b865160019061307490602063ffffffff61326d16565b038110156131145760028406600114156130cc576130c56130a08860208085029063ffffffff612aab16565b8360405160200180828152602001915050604051602081830303815290604052613280565b9150613108565b60408051602080820185905282518083038201815291830190925261310591613100908a908581029063ffffffff612aab16565b613280565b91505b600193841c930161305e565b5014949350505050565b600080600061312c8461333b565b905060ff81166131595760008460008151811061314557fe5b016020015190935060f81c91506131a59050565b8060010160ff168451101561317757506000199150600090506131a5565b60006131996120a361319487600160ff871663ffffffff612aab16565b612e0e565b60ff9092169350909150505b915091565b60008060006131b8846133b7565b90925090506000198214156131d35760001992505050610917565b0160290192915050565b60006009825110156131f25750600019610917565b606061320d60088085510385612aab9092919063ffffffff16565b905060008061321b8361311e565b9092509050600019821415613237576000199350505050610917565b01600901915050919050565b60606107f8826000600863ffffffff612aab16565b60606107f8826004602063ffffffff612aab16565b600081838161327857fe5b049392505050565b60006107f583836040516020018083805190602001908083835b602083106132b95780518252601f19909201916020918201910161329a565b51815160209384036101000a600019018019909216911617905285519190930192850191508083835b602083106133015780518252601f1990920191602091820191016132e2565b6001836020036101000a0380198251168184511680821785525050505050509050019250505060405160208183030381529060405261162a565b60008160008151811061334a57fe5b60209101015160f81c60ff141561336357506008610917565b8160008151811061337057fe5b60209101015160f81c60fe141561338957506004610917565b8160008151811061339657fe5b60209101015160f81c60fd14156133af57506002610917565b506000919050565b6000806025835110156133d15750600019905060006131a5565b60606133ec60248086510386612aab9092919063ffffffff16565b90506000806133fa8361311e565b909550935050505091509156fe4865616465727320646f206e6f7420666f726d206120636f6e73697374656e7420636861696e526571756573746564206c696d69742069732067726561746572207468616e203120646966666963756c747920706572696f6452656164206f76657272756e20647572696e6720566172496e742070617273696e67486561646572206172726179206c656e677468206d75737420626520646976697369626c6520627920383043616e206f6e6c792062652063616e63656c6c6564206279206f776e6572206f7220636f6e73756d65724e65772062657374206861736820646f6573206e6f742068617665206d6f726520776f726b207468616e2070726576696f7573412064657363656e64616e74206865696768742069732062656c6f772074686520616e636573746f7220686569676874416e636573746f72206d75737420626520686561766965737420636f6d6d6f6e20616e636573746f72a265627a7a723158206ed290dbc9fcda5971cb159e23f675634d1db5dd03f740332fadc483c744b45564736f6c63430005110032506572696f64207374617274206861736820646f6573206e6f74206861766520776f726b2e2048696e743a2077726f6e672062797465206f726465723f",
  "source": "pragma solidity ^0.5.10;\n\n/** @title TestnetRelay */\n/** @author Summa (https://summa.one) */\n\nimport {OnDemandSPV} from \"./OnDemandSPV.sol\";\n\ncontract TestnetRelay is OnDemandSPV {\n\n    constructor(\n        bytes memory _genesisHeader,\n        uint256 _height,\n        bytes32 _periodStart,\n        uint256 _firstID\n    ) OnDemandSPV(\n        _genesisHeader,\n        _height,\n        _periodStart,\n        _firstID\n    ) public {return ;}\n\n    function _addHeadersWithRetarget(\n        bytes memory, // _oldPeriodStartHeader,\n        bytes memory _oldPeriodEndHeader,\n        bytes memory _headers\n    ) internal returns (bool) {\n        return _addHeaders(_oldPeriodEndHeader, _headers);\n    }\n\n    function _addHeaders(bytes memory _anchor, bytes memory _headers, bool) internal returns (bool) {\n        return _addHeaders(_anchor, _headers);\n    }\n\n    /// @notice             Adds headers to storage after validating\n    /// @dev                We check integrity and consistency of the header chain\n    /// @param  _anchor     The header immediately preceeding the new chain\n    /// @param  _headers    A tightly-packed list of new 80-byte Bitcoin headers to record\n    /// @return             True if successfully written, error otherwise\n    function _addHeaders(bytes memory _anchor, bytes memory _headers) internal returns (bool) {\n        uint256 _height;\n        bytes memory _header;\n        bytes32 _currentDigest;\n        bytes32 _previousDigest = _anchor.hash256();\n\n        /* uint256 _target = _headers.slice(0, 80).extractTarget(); */\n        uint256 _anchorHeight = _findHeight(_previousDigest);  /* NB: errors if unknown */\n\n        /* require(\n            _internal || _anchor.extractTarget() == _target,\n            \"Unexpected retarget on external call\"); */\n        require(_headers.length % 80 == 0, \"Header array length must be divisible by 80\");\n\n        /*\n        NB:\n        1. check that the header has sufficient work\n        2. check that headers are in a coherent chain (no retargets, hash links good)\n        3. Store the block connection\n        4. Store the height\n        */\n        for (uint256 i = 0; i < _headers.length / 80; i = i.add(1)) {\n            _header = _headers.slice(i.mul(80), 80);\n            _height = _anchorHeight.add(i + 1);\n            _currentDigest = _header.hash256();\n\n            /*\n            NB:\n            if the block is already authenticated, we don't need to a work check\n            Or write anything to state. This saves gas\n            */\n            if (previousBlock[_currentDigest] == bytes32(0)) {\n                require(\n                    abi.encodePacked(_currentDigest).reverseEndianness().bytesToUint() <= _header.extractTarget(),\n                    \"Header work is insufficient\");\n                previousBlock[_currentDigest] = _previousDigest;\n                if (_height % HEIGHT_INTERVAL == 0) {\n                    /*\n                    NB: We store the height only every 4th header to save gas\n                    */\n                    blockHeight[_currentDigest] = _height;\n                }\n            }\n\n            /* NB: we do still need to make chain level checks tho */\n            /* require(_header.extractTarget() == _target, \"Target changed unexpectedly\"); */\n            require(_header.validateHeaderPrevHash(_previousDigest), \"Headers do not form a consistent chain\");\n\n            _previousDigest = _currentDigest;\n        }\n\n        emit Extension(\n            _anchor.hash256(),\n            _currentDigest);\n        return true;\n    }\n}\n",
  "sourcePath": "@summa-tx/relay-sol/contracts/TestnetRelay.sol",
  "compiler": {
    "name": "solc",
    "version": "0.5.17+commit.d19bba13.Emscripten.clang"
  },
  "schemaVersion": "3.0.23",
  "updatedAt": "2020-08-21T21:24:02.980Z",
  "devdoc": {
    "methods": {
      "addHeaders(bytes,bytes)": {
        "details": "We check integrity and consistency of the header chain",
        "params": {
          "_anchor": "The header immediately preceeding the new chain",
          "_headers": "A tightly-packed list of 80-byte Bitcoin headers"
        },
        "return": "True if successfully written, error otherwise"
      },
      "addHeadersWithRetarget(bytes,bytes,bytes)": {
        "details": "Checks the retarget, the heights, and the linkage",
        "params": {
          "_headers": "A tightly-packed list of 80-byte Bitcoin headers",
          "_oldPeriodEndHeader": "The last header in the difficulty period being closed",
          "_oldPeriodStartHeader": "The first header in the difficulty period being closed"
        },
        "return": "True if successfully written, error otherwise"
      },
      "cancelRequest(uint256)": {
        "details": "Prevents the relay from forwarding tx infromation",
        "params": {
          "_requestID": "The ID of the request to be cancelled"
        },
        "return": "True if succesful, error otherwise"
      },
      "findAncestor(bytes32,uint256)": {
        "details": "Will fail if the header is unknown",
        "params": {
          "_digest": "The header digest to search for"
        },
        "return": "The height of the header, or error if unknown"
      },
      "findHeight(bytes32)": {
        "details": "Will fail if the header is unknown",
        "params": {
          "_digest": "The header digest to search for"
        },
        "return": "The height of the header, or error if unknown"
      },
      "getBestKnownDigest()": {
        "details": "This updated only by calling markNewHeaviest",
        "return": "The hash of the best marked chain tip"
      },
      "getCurrentEpochDifficulty()": {
        "details": "This is updated when a new heavist header has a new diff",
        "return": "The difficulty of the bestKnownDigest"
      },
      "getLastReorgCommonAncestor()": {
        "details": "This is updated only by calling markNewHeaviest",
        "return": "The hash of the shared ancestor of the most recent fork"
      },
      "getPrevEpochDifficulty()": {
        "details": "This is updated when a difficulty change is accepted",
        "return": "The difficulty of the previous epoch"
      },
      "getRelayGenesis()": {
        "details": "This is an initialization parameter",
        "return": "The hash of the first block of the relay"
      },
      "getRequest(uint256)": {
        "details": "Requests ids are numerical",
        "params": {
          "_requestID": "The numerical ID of the request"
        },
        "return": "A tuple representation of the request struct"
      },
      "isAncestor(bytes32,bytes32,uint256)": {
        "details": "Limit the amount of lookups (and thus gas usage) with _limit",
        "params": {
          "_ancestor": "The prospective ancestor",
          "_descendant": "The descendant to check",
          "_limit": "The maximum number of blocks to check"
        },
        "return": "true if ancestor is at most limit blocks lower than descendant, otherwise false"
      },
      "markNewHeaviest(bytes32,bytes,bytes,uint256)": {
        "details": "We don't check this AT ALL really. Don't use relays with bad genesis",
        "params": {
          "_ancestor": "The digest of the most recent common ancestor",
          "_currentBest": "The 80-byte header referenced by bestKnownDigest",
          "_limit": "Limit the amount of traversal of the chain",
          "_newBest": "The 80-byte header to mark as the new best"
        },
        "return": "True if successfully updates bestKnownDigest, error otherwise"
      },
      "provideProof(bytes,bytes,bytes4,bytes4,uint256,uint16,bytes,bytes,uint256)": {
        "details": "The caller must specify which inputs, which outputs, and which request",
        "params": {
          "_header": "The header containing the merkleroot committing to the tx",
          "_index": "The index of the tx in the merkle tree's leaves",
          "_locktime": "The tx locktime, always the last 4 bytes of the tx",
          "_proof": "The merkle proof intermediate nodes",
          "_reqIndices": "The input and output index to check against the request, packed",
          "_requestID": "The id of the request that has been triggered",
          "_version": "The tx version, always the first 4 bytes of the tx",
          "_vin": "The tx input vector",
          "_vout": "The tx output vector"
        },
        "return": "True if succesful, error otherwise"
      },
      "request(bytes,bytes,uint64,address,uint8,uint256)": {
        "details": "The request can be a spent utxo and/or a created utxo",
        "params": {
          "_consumer": "The address of a ISPVConsumer exposing spv",
          "_notBefore": "A timestamp before which proofs are not accepted",
          "_numConfs": "The minimum number of Bitcoin confirmations to accept",
          "_pays": "An output script that must be paid in acceptable txns (optional)",
          "_paysValue": "A minimum value that must be paid to the output script (optional)",
          "_spends": "An outpoint that must be spent in acceptable txns (optional)"
        },
        "return": "A unique request ID."
      }
    }
  },
  "userdoc": {
    "methods": {
      "addHeaders(bytes,bytes)": {
        "notice": "Adds headers to storage after validating"
      },
      "addHeadersWithRetarget(bytes,bytes,bytes)": {
        "notice": "Adds headers to storage, performs additional validation of retarget"
      },
      "cancelRequest(uint256)": {
        "notice": "Cancel a bitcoin event request."
      },
      "findAncestor(bytes32,uint256)": {
        "notice": "Finds an ancestor for a block by its digest"
      },
      "findHeight(bytes32)": {
        "notice": "Finds the height of a header by its digest"
      },
      "getBestKnownDigest()": {
        "notice": "Getter for bestKnownDigest"
      },
      "getCurrentEpochDifficulty()": {
        "notice": "Getter for currentEpochDiff"
      },
      "getLastReorgCommonAncestor()": {
        "notice": "Getter for relayGenesis"
      },
      "getPrevEpochDifficulty()": {
        "notice": "Getter for prevEpochDiff"
      },
      "getRelayGenesis()": {
        "notice": "Getter for relayGenesis"
      },
      "getRequest(uint256)": {
        "notice": "Retrieve info about a request"
      },
      "isAncestor(bytes32,bytes32,uint256)": {
        "notice": "Checks if a digest is an ancestor of the current one"
      },
      "markNewHeaviest(bytes32,bytes,bytes,uint256)": {
        "notice": "Gives a starting point for the relay"
      },
      "provideProof(bytes,bytes,bytes4,bytes4,uint256,uint16,bytes,bytes,uint256)": {
        "notice": "Provide a proof of a tx that satisfies some request"
      },
      "request(bytes,bytes,uint64,address,uint8,uint256)": {
        "notice": "Subscribe to a feed of Bitcoin txns matching a request"
      }
    }
  }
}