{
  "contractName": "VendingMachine",
  "abi": [
    {
      "inputs": [
        {
          "internalType": "address",
          "name": "_systemAddress",
          "type": "address"
        }
      ],
      "payable": false,
      "stateMutability": "nonpayable",
      "type": "constructor"
    },
    {
      "constant": true,
      "inputs": [],
      "name": "getMintedSupply",
      "outputs": [
        {
          "internalType": "uint256",
          "name": "",
          "type": "uint256"
        }
      ],
      "payable": false,
      "stateMutability": "view",
      "type": "function"
    },
    {
      "constant": true,
      "inputs": [],
      "name": "getMaxSupply",
      "outputs": [
        {
          "internalType": "uint256",
          "name": "",
          "type": "uint256"
        }
      ],
      "payable": false,
      "stateMutability": "view",
      "type": "function"
    },
    {
      "constant": false,
      "inputs": [
        {
          "internalType": "contract TBTCToken",
          "name": "_tbtcToken",
          "type": "address"
        },
        {
          "internalType": "contract TBTCDepositToken",
          "name": "_tbtcDepositToken",
          "type": "address"
        },
        {
          "internalType": "contract FeeRebateToken",
          "name": "_feeRebateToken",
          "type": "address"
        }
      ],
      "name": "setExternalAddresses",
      "outputs": [],
      "payable": false,
      "stateMutability": "nonpayable",
      "type": "function"
    },
    {
      "constant": true,
      "inputs": [
        {
          "internalType": "address payable",
          "name": "_depositAddress",
          "type": "address"
        }
      ],
      "name": "isQualified",
      "outputs": [
        {
          "internalType": "bool",
          "name": "",
          "type": "bool"
        }
      ],
      "payable": false,
      "stateMutability": "view",
      "type": "function"
    },
    {
      "constant": false,
      "inputs": [
        {
          "internalType": "uint256",
          "name": "_tdtId",
          "type": "uint256"
        }
      ],
      "name": "tbtcToTdt",
      "outputs": [],
      "payable": false,
      "stateMutability": "nonpayable",
      "type": "function"
    },
    {
      "constant": false,
      "inputs": [
        {
          "internalType": "uint256",
          "name": "_tdtId",
          "type": "uint256"
        }
      ],
      "name": "tdtToTbtc",
      "outputs": [],
      "payable": false,
      "stateMutability": "nonpayable",
      "type": "function"
    },
    {
      "constant": true,
      "inputs": [
        {
          "internalType": "uint256",
          "name": "amount",
          "type": "uint256"
        }
      ],
      "name": "canMint",
      "outputs": [
        {
          "internalType": "bool",
          "name": "",
          "type": "bool"
        }
      ],
      "payable": false,
      "stateMutability": "view",
      "type": "function"
    },
    {
      "constant": false,
      "inputs": [
        {
          "internalType": "address payable",
          "name": "_depositAddress",
          "type": "address"
        },
        {
          "internalType": "bytes4",
          "name": "_txVersion",
          "type": "bytes4"
        },
        {
          "internalType": "bytes",
          "name": "_txInputVector",
          "type": "bytes"
        },
        {
          "internalType": "bytes",
          "name": "_txOutputVector",
          "type": "bytes"
        },
        {
          "internalType": "bytes4",
          "name": "_txLocktime",
          "type": "bytes4"
        },
        {
          "internalType": "uint8",
          "name": "_fundingOutputIndex",
          "type": "uint8"
        },
        {
          "internalType": "bytes",
          "name": "_merkleProof",
          "type": "bytes"
        },
        {
          "internalType": "uint256",
          "name": "_txIndexInBlock",
          "type": "uint256"
        },
        {
          "internalType": "bytes",
          "name": "_bitcoinHeaders",
          "type": "bytes"
        }
      ],
      "name": "unqualifiedDepositToTbtc",
      "outputs": [],
      "payable": false,
      "stateMutability": "nonpayable",
      "type": "function"
    },
    {
      "constant": false,
      "inputs": [
        {
          "internalType": "address payable",
          "name": "_depositAddress",
          "type": "address"
        },
        {
          "internalType": "bytes8",
          "name": "_outputValueBytes",
          "type": "bytes8"
        },
        {
          "internalType": "bytes",
          "name": "_redeemerOutputScript",
          "type": "bytes"
        }
      ],
      "name": "tbtcToBtc",
      "outputs": [],
      "payable": false,
      "stateMutability": "nonpayable",
      "type": "function"
    }
  ],
  "bytecode": "0x608060405234801561001057600080fd5b5060405161191a38038061191a8339818101604052602081101561003357600080fd5b5051600080546001600160a01b039092166001600160a01b0319909216919091179055426004556118b1806100696000396000f3fe608060405234801561001057600080fd5b50600436106100935760003560e01c8063ac37d7ce11610066578063ac37d7ce14610143578063ba2238d014610160578063be138da71461017d578063efa4b19914610240578063f2113b5a146104b457610093565b806335205794146100985780634c0f38c2146100d25780635dd871a3146100ec578063a421d6681461011d575b600080fd5b6100d0600480360360608110156100ae57600080fd5b506001600160a01b0381358116916020810135821691604090910135166104bc565b005b6100da610544565b60408051918252519081900360200190f35b6101096004803603602081101561010257600080fd5b50356105d2565b604080519115158252519081900360200190f35b6101096004803603602081101561013357600080fd5b50356001600160a01b03166105fb565b6100d06004803603602081101561015957600080fd5b5035610668565b6100d06004803603602081101561017657600080fd5b5035610a4f565b6100d06004803603606081101561019357600080fd5b6001600160a01b03823516916001600160c01b031960208201351691810190606081016040820135600160201b8111156101cc57600080fd5b8201836020820111156101de57600080fd5b803590602001918460018302840111600160201b831117156101ff57600080fd5b91908080601f016020809104026020016040519081016040528093929190818152602001838380828437600092019190915250929550611003945050505050565b6100d0600480360361012081101561025757600080fd5b6001600160a01b03823516916001600160e01b031960208201351691810190606081016040820135600160201b81111561029057600080fd5b8201836020820111156102a257600080fd5b803590602001918460018302840111600160201b831117156102c357600080fd5b91908080601f0160208091040260200160405190810160405280939291908181526020018383808284376000920191909152509295949360208101935035915050600160201b81111561031557600080fd5b82018360208201111561032757600080fd5b803590602001918460018302840111600160201b8311171561034857600080fd5b91908080601f01602080910402602001604051908101604052809392919081815260200183838082843760009201919091525092956001600160e01b03198535169560ff60208701351695919450925060608101915060400135600160201b8111156103b357600080fd5b8201836020820111156103c557600080fd5b803590602001918460018302840111600160201b831117156103e657600080fd5b91908080601f01602080910402602001604051908101604052809392919081815260200183838082843760009201919091525092958435959094909350604081019250602001359050600160201b81111561044057600080fd5b82018360208201111561045257600080fd5b803590602001918460018302840111600160201b8311171561047357600080fd5b91908080601f016020809104026020016040519081016040528093929190818152602001838380828437600092019190915250929550611478945050505050565b6100da6116de565b6000546001600160a01b031633146105055760405162461bcd60e51b81526004018080602001828103825260228152602001806118136022913960400191505060405180910390fd5b600180546001600160a01b039485166001600160a01b031991821617909155600280549385169382169390931790925560038054919093169116179055565b60045460009042036201518081101561056857671bc16d674ec800009150506105cf565b62278d008110156105855768056bc75e2d631000009150506105cf565b624f1a008110156105a257680d8d726b7177a800009150506105cf565b6276a7008110156105bf57681b1ae4d6e2ef5000009150506105cf565b6a115eec47f6cf7e350000009150505b90565b60006105dc610544565b6105f4836105e86116de565b9063ffffffff61175416565b1092915050565b6000816001600160a01b031663f97a02fa6040518163ffffffff1660e01b815260040160206040518083038186803b15801561063657600080fd5b505afa15801561064a573d6000803e3d6000fd5b505050506040513d602081101561066057600080fd5b505192915050565b60025460408051634f558e7960e01b81526004810184905290516001600160a01b0390921691634f558e7991602480820192602092909190829003018186803b1580156106b457600080fd5b505afa1580156106c8573d6000803e3d6000fd5b505050506040513d60208110156106de57600080fd5b505161071b5760405162461bcd60e51b815260040180806020018281038252602181526020018061185c6021913960400191505060405180910390fd5b610724816105fb565b610771576040805162461bcd60e51b815260206004820152601960248201527811195c1bdcda5d081b5d5cdd081899481c5d585b1a599a5959603a1b604482015290519081900360640190fd5b6000816001600160a01b031663946fbf4c6040518163ffffffff1660e01b815260040160206040518083038186803b1580156107ac57600080fd5b505afa1580156107c0573d6000803e3d6000fd5b505050506040513d60208110156107d657600080fd5b5051600154604080516370a0823160e01b8152336004820152905192935083926001600160a01b03909216916370a0823191602480820192602092909190829003018186803b15801561082857600080fd5b505afa15801561083c573d6000803e3d6000fd5b505050506040513d602081101561085257600080fd5b505110156108a7576040805162461bcd60e51b815260206004820181905260248201527f4e6f7420656e6f756768205442544320666f72205444542065786368616e6765604482015290519081900360640190fd5b6001546040805163079cc67960e41b81523360048201526024810184905290516001600160a01b03909216916379cc67909160448082019260009290919082900301818387803b1580156108fa57600080fd5b505af115801561090e573d6000803e3d6000fd5b5050600254604080516331a9108f60e11b81526004810187905290513094506001600160a01b039092169250636352211e916024808301926020929190829003018186803b15801561095f57600080fd5b505afa158015610973573d6000803e3d6000fd5b505050506040513d602081101561098957600080fd5b50516001600160a01b0316146109da576040805162461bcd60e51b815260206004820152601160248201527011195c1bdcda5d081a5cc81b1bd8dad959607a1b604482015290519081900360640190fd5b600254604080516323b872dd60e01b81523060048201523360248201526044810185905290516001600160a01b03909216916323b872dd9160648082019260009290919082900301818387803b158015610a3357600080fd5b505af1158015610a47573d6000803e3d6000fd5b505050505050565b60025460408051634f558e7960e01b81526004810184905290516001600160a01b0390921691634f558e7991602480820192602092909190829003018186803b158015610a9b57600080fd5b505afa158015610aaf573d6000803e3d6000fd5b505050506040513d6020811015610ac557600080fd5b5051610b025760405162461bcd60e51b815260040180806020018281038252602181526020018061185c6021913960400191505060405180910390fd5b610b0b816105fb565b610b58576040805162461bcd60e51b815260206004820152601960248201527811195c1bdcda5d081b5d5cdd081899481c5d585b1a599a5959603a1b604482015290519081900360640190fd5b600254604080516323b872dd60e01b81523360048201523060248201526044810184905290516001600160a01b03909216916323b872dd9160648082019260009290919082900301818387803b158015610bb157600080fd5b505af1158015610bc5573d6000803e3d6000fd5b5050505060008190506000816001600160a01b031663058d37036040518163ffffffff1660e01b815260040160206040518083038186803b158015610c0957600080fd5b505afa158015610c1d573d6000803e3d6000fd5b505050506040513d6020811015610c3357600080fd5b50516040805163251befd360e21b815290519192506000916001600160a01b0385169163946fbf4c916004808301926020929190829003018186803b158015610c7b57600080fd5b505afa158015610c8f573d6000803e3d6000fd5b505050506040513d6020811015610ca557600080fd5b50519050610cb2816105d2565b610ced5760405162461bcd60e51b81526004018080602001828103825260278152602001806118356027913960400191505060405180910390fd5b600154604080516370a0823160e01b81526001600160a01b0387811660048301529151859392909216916370a0823191602480820192602092909190829003018186803b158015610d3d57600080fd5b505afa158015610d51573d6000803e3d6000fd5b505050506040513d6020811015610d6757600080fd5b50511015610e94576001546001600160a01b03166340c10f1933610d91848663ffffffff6117b516565b6040518363ffffffff1660e01b815260040180836001600160a01b03166001600160a01b0316815260200182815260200192505050602060405180830381600087803b158015610de057600080fd5b505af1158015610df4573d6000803e3d6000fd5b505050506040513d6020811015610e0a57600080fd5b5050600154604080516340c10f1960e01b81526001600160a01b03878116600483015260248201869052915191909216916340c10f199160448083019260209291908290030181600087803b158015610e6257600080fd5b505af1158015610e76573d6000803e3d6000fd5b505050506040513d6020811015610e8c57600080fd5b50610f159050565b600154604080516340c10f1960e01b81523360048201526024810184905290516001600160a01b03909216916340c10f19916044808201926020929091908290030181600087803b158015610ee857600080fd5b505af1158015610efc573d6000803e3d6000fd5b505050506040513d6020811015610f1257600080fd5b50505b60035460408051634f558e7960e01b81526004810187905290516001600160a01b0390921691634f558e7991602480820192602092909190829003018186803b158015610f6157600080fd5b505afa158015610f75573d6000803e3d6000fd5b505050506040513d6020811015610f8b57600080fd5b5051610ffd57600354604080516340c10f1960e01b81523360048201526024810187905290516001600160a01b03909216916340c10f199160448082019260009290919082900301818387803b158015610fe457600080fd5b505af1158015610ff8573d6000803e3d6000fd5b505050505b50505050565b60025460408051634f558e7960e01b81526001600160a01b03868116600483015291519190921691634f558e79916024808301926020929190829003018186803b15801561105057600080fd5b505afa158015611064573d6000803e3d6000fd5b505050506040513d602081101561107a57600080fd5b50516110b75760405162461bcd60e51b815260040180806020018281038252602181526020018061185c6021913960400191505060405180910390fd5b6001546040805163251befd360e21b8152905185926001600160a01b03908116926379cc679092339286169163946fbf4c916004808301926020929190829003018186803b15801561110857600080fd5b505afa15801561111c573d6000803e3d6000fd5b505050506040513d602081101561113257600080fd5b5051604080516001600160e01b031960e086901b1681526001600160a01b039093166004840152602483019190915251604480830192600092919082900301818387803b15801561118257600080fd5b505af1158015611196573d6000803e3d6000fd5b50506002546040805163095ea7b360e01b81526001600160a01b03898116600483018190526024830152915191909216935063095ea7b39250604480830192600092919082900301818387803b1580156111ef57600080fd5b505af1158015611203573d6000803e3d6000fd5b505060408051630d8d023360e41b81523360048201529051600093506001600160a01b038516925063d8d0233091602480820192602092909190829003018186803b15801561125157600080fd5b505afa158015611265573d6000803e3d6000fd5b505050506040513d602081101561127b57600080fd5b50519050801561138e57600154604080516323b872dd60e01b81523360048201523060248201526044810184905290516001600160a01b03909216916323b872dd916064808201926020929091908290030181600087803b1580156112df57600080fd5b505af11580156112f3573d6000803e3d6000fd5b505050506040513d602081101561130957600080fd5b50506001546040805163095ea7b360e01b81526001600160a01b038881166004830152602482018590529151919092169163095ea7b39160448083019260209291908290030181600087803b15801561136157600080fd5b505af1158015611375573d6000803e3d6000fd5b505050506040513d602081101561138b57600080fd5b50505b604051637dbe2c9560e11b81526001600160c01b031985166004820190815233604483018190526060602484019081528651606485015286516001600160a01b0387169463fb7c592a948a948a94909391929091608490910190602086019080838360005b8381101561140b5781810151838201526020016113f3565b50505050905090810190601f1680156114385780820380516001836020036101000a031916815260200191505b50945050505050600060405180830381600087803b15801561145957600080fd5b505af115801561146d573d6000803e3d6000fd5b505050505050505050565b6000899050806001600160a01b031663d9f74b0e8a8a8a8a8a8a8a8a6040518963ffffffff1660e01b815260040180896001600160e01b0319166001600160e01b03191681526020018060200180602001886001600160e01b0319166001600160e01b03191681526020018760ff1660ff168152602001806020018681526020018060200185810385528c818151815260200191508051906020019080838360005b8381101561153257818101518382015260200161151a565b50505050905090810190601f16801561155f5780820380516001836020036101000a031916815260200191505b5085810384528b5181528b516020918201918d019080838360005b8381101561159257818101518382015260200161157a565b50505050905090810190601f1680156115bf5780820380516001836020036101000a031916815260200191505b5085810383528851815288516020918201918a019080838360005b838110156115f25781810151838201526020016115da565b50505050905090810190601f16801561161f5780820380516001836020036101000a031916815260200191505b50858103825286518152865160209182019188019080838360005b8381101561165257818101518382015260200161163a565b50505050905090810190601f16801561167f5780820380516001836020036101000a031916815260200191505b509c50505050505050505050505050600060405180830381600087803b1580156116a857600080fd5b505af11580156116bc573d6000803e3d6000fd5b505050506116d28a6001600160a01b0316610a4f565b50505050505050505050565b600154604080516318160ddd60e01b815290516000926001600160a01b0316916318160ddd916004808301926020929190829003018186803b15801561172357600080fd5b505afa158015611737573d6000803e3d6000fd5b505050506040513d602081101561174d57600080fd5b5051905090565b6000828201838110156117ae576040805162461bcd60e51b815260206004820152601b60248201527f536166654d6174683a206164646974696f6e206f766572666c6f770000000000604482015290519081900360640190fd5b9392505050565b60008282111561180c576040805162461bcd60e51b815260206004820152601e60248201527f536166654d6174683a207375627472616374696f6e206f766572666c6f770000604482015290519081900360640190fd5b5090039056fe43616c6c6572206d757374206265207462746353797374656d20636f6e747261637443616e2774206d696e74206d6f7265207468616e20746865206d617820737570706c792063617074425443204465706f73697420546f6b656e20646f6573206e6f74206578697374a265627a7a723158208de6c42f4fdbec1e5bfaf6f3aea70ccea1b1d88a90af06b48715d2fc8decfc7c64736f6c63430005110032",
  "source": "pragma solidity 0.5.17;\n\nimport {SafeMath} from \"openzeppelin-solidity/contracts/math/SafeMath.sol\";\nimport {TBTCDepositToken} from \"./TBTCDepositToken.sol\";\nimport {FeeRebateToken} from \"./FeeRebateToken.sol\";\nimport {TBTCToken} from \"./TBTCToken.sol\";\nimport {TBTCConstants} from \"./TBTCConstants.sol\";\nimport \"../deposit/Deposit.sol\";\nimport \"./TBTCSystemAuthority.sol\";\n\n/// @title  Vending Machine\n/// @notice The Vending Machine swaps TDTs (`TBTCDepositToken`)\n///         to TBTC (`TBTCToken`) and vice versa.\n/// @dev    The Vending Machine should have exclusive TBTC and FRT (`FeeRebateToken`) minting\n///         privileges.\ncontract VendingMachine is TBTCSystemAuthority{\n    using SafeMath for uint256;\n\n    TBTCToken tbtcToken;\n    TBTCDepositToken tbtcDepositToken;\n    FeeRebateToken feeRebateToken;\n\n    uint256 createdAt;\n\n    constructor(address _systemAddress)\n        TBTCSystemAuthority(_systemAddress)\n    public {\n        createdAt = block.timestamp;\n    }\n\n    /// @notice Return the minted TBTC supply in weitoshis (BTC * 10 ** 18)\n    function getMintedSupply() public view returns (uint256) {\n        return tbtcToken.totalSupply();\n    }\n\n    /// @notice Get the maximum TBTC token supply based on the age of the contract\n    ///         deployment. The supply cap starts at 2 BTC for the first day, 100 for\n    ///         the first 30 days, 250 for the next 30, 500 for the last 30... then\n    ///         finally removes the restriction, returning 21M BTC as a sanity check.\n    /// @return The max supply in weitoshis (BTC * 10 ** 18)\n    function getMaxSupply() public view returns (uint256) {\n        uint256 age = block.timestamp - createdAt;\n\n        if(age < 1 days) {\n            return 2 * 10 ** 18;\n        }\n\n        if (age < 30 days) {\n            return 100 * 10 ** 18;\n        }\n\n        if (age < 60 days) {\n            return 250 * 10 ** 18;\n        }\n\n        if (age < 90 days) {\n            return 500 * 10 ** 18;\n        }\n\n        return 21000000 * 10 ** 18;\n    }\n\n    /// @notice Set external contracts needed by the Vending Machine.\n    /// @dev    Addresses are used to update the local contract instance.\n    /// @param _tbtcToken        TBTCToken contract. More info in `TBTCToken`.\n    /// @param _tbtcDepositToken TBTCDepositToken (TDT) contract. More info in `TBTCDepositToken`.\n    /// @param _feeRebateToken   FeeRebateToken (FRT) contract. More info in `FeeRebateToken`.\n    function setExternalAddresses(\n        TBTCToken _tbtcToken,\n        TBTCDepositToken _tbtcDepositToken,\n        FeeRebateToken _feeRebateToken\n    ) public onlyTbtcSystem {\n        tbtcToken = _tbtcToken;\n        tbtcDepositToken = _tbtcDepositToken;\n        feeRebateToken = _feeRebateToken;\n    }\n\n    /// @notice Determines whether a deposit is qualified for minting TBTC.\n    /// @param _depositAddress The address of the deposit\n    function isQualified(address payable _depositAddress) public view returns (bool) {\n        return Deposit(_depositAddress).inActive();\n    }\n\n    /// @notice Burns TBTC and transfers the tBTC Deposit Token to the caller\n    ///         as long as it is qualified.\n    /// @dev    We burn the lotSize of the Deposit in order to maintain\n    ///         the TBTC supply peg in the Vending Machine. VendingMachine must be approved\n    ///         by the caller to burn the required amount.\n    /// @param _tdtId ID of tBTC Deposit Token to buy.\n    function tbtcToTdt(uint256 _tdtId) public {\n        require(tbtcDepositToken.exists(_tdtId), \"tBTC Deposit Token does not exist\");\n        require(isQualified(address(_tdtId)), \"Deposit must be qualified\");\n\n        uint256 depositValue = Deposit(address(uint160(_tdtId))).lotSizeTbtc();\n        require(tbtcToken.balanceOf(msg.sender) >= depositValue, \"Not enough TBTC for TDT exchange\");\n        tbtcToken.burnFrom(msg.sender, depositValue);\n\n        // TODO do we need the owner check below? transferFrom can be approved for a user, which might be an interesting use case.\n        require(tbtcDepositToken.ownerOf(_tdtId) == address(this), \"Deposit is locked\");\n        tbtcDepositToken.transferFrom(address(this), msg.sender, _tdtId);\n    }\n\n    /// @notice Transfer the tBTC Deposit Token and mint TBTC.\n    /// @dev    Transfers TDT from caller to vending machine, and mints TBTC to caller.\n    ///         Vending Machine must be approved to transfer TDT by the caller.\n    /// @param _tdtId ID of tBTC Deposit Token to sell.\n    function tdtToTbtc(uint256 _tdtId) public {\n        require(tbtcDepositToken.exists(_tdtId), \"tBTC Deposit Token does not exist\");\n        require(isQualified(address(_tdtId)), \"Deposit must be qualified\");\n\n        tbtcDepositToken.transferFrom(msg.sender, address(this), _tdtId);\n\n        Deposit deposit = Deposit(address(uint160(_tdtId)));\n        uint256 signerFee = deposit.signerFeeTbtc();\n        uint256 depositValue = deposit.lotSizeTbtc();\n\n        require(canMint(depositValue), \"Can't mint more than the max supply cap\");\n\n        // If the backing Deposit does not have a signer fee in escrow, mint it.\n        if(tbtcToken.balanceOf(address(_tdtId)) < signerFee) {\n            tbtcToken.mint(msg.sender, depositValue.sub(signerFee));\n            tbtcToken.mint(address(_tdtId), signerFee);\n        }\n        else{\n            tbtcToken.mint(msg.sender, depositValue);\n        }\n\n        // owner of the TDT during first TBTC mint receives the FRT\n        if(!feeRebateToken.exists(_tdtId)){\n            feeRebateToken.mint(msg.sender, _tdtId);\n        }\n    }\n\n    /// @notice Return whether an amount of TBTC can be minted according to the supply cap\n    ///         schedule\n    /// @dev This function is also used by TBTCSystem to decide whether to allow a new deposit.\n    /// @return True if the amount can be minted without hitting the max supply, false otherwise.\n    function canMint(uint256 amount) public view returns (bool) {\n        return getMintedSupply().add(amount) < getMaxSupply();\n    }\n\n    // WRAPPERS\n\n    /// @notice Qualifies a deposit and mints TBTC.\n    /// @dev User must allow VendingManchine to transfer TDT.\n    function unqualifiedDepositToTbtc(\n        address payable _depositAddress,\n        bytes4 _txVersion,\n        bytes memory _txInputVector,\n        bytes memory _txOutputVector,\n        bytes4 _txLocktime,\n        uint8 _fundingOutputIndex,\n        bytes memory _merkleProof,\n        uint256 _txIndexInBlock,\n        bytes memory _bitcoinHeaders\n    ) public {\n        Deposit _d = Deposit(_depositAddress);\n        _d.provideBTCFundingProof(\n            _txVersion,\n            _txInputVector,\n            _txOutputVector,\n            _txLocktime,\n            _fundingOutputIndex,\n            _merkleProof,\n            _txIndexInBlock,\n            _bitcoinHeaders\n        );\n\n        tdtToTbtc(uint256(_depositAddress));\n    }\n\n    /// @notice Redeems a Deposit by purchasing a TDT with TBTC for _finalRecipient,\n    ///         and using the TDT to redeem corresponding Deposit as _finalRecipient.\n    ///         This function will revert if the Deposit is not in ACTIVE state.\n    /// @dev Vending Machine transfers TBTC allowance to Deposit.\n    /// @param  _depositAddress     The address of the Deposit to redeem.\n    /// @param  _outputValueBytes   The 8-byte Bitcoin transaction output size in Little Endian.\n    /// @param  _redeemerOutputScript The redeemer's length-prefixed output script.\n    function tbtcToBtc(\n        address payable _depositAddress,\n        bytes8 _outputValueBytes,\n        bytes memory _redeemerOutputScript\n    ) public {\n        require(tbtcDepositToken.exists(uint256(_depositAddress)), \"tBTC Deposit Token does not exist\");\n        Deposit _d = Deposit(_depositAddress);\n\n        tbtcToken.burnFrom(msg.sender, _d.lotSizeTbtc());\n        tbtcDepositToken.approve(_depositAddress, uint256(_depositAddress));\n\n        uint256 tbtcOwed = _d.getOwnerRedemptionTbtcRequirement(msg.sender);\n\n        if(tbtcOwed != 0){\n            tbtcToken.transferFrom(msg.sender, address(this), tbtcOwed);\n            tbtcToken.approve(_depositAddress, tbtcOwed);\n        }\n\n        _d.transferAndRequestRedemption(_outputValueBytes, _redeemerOutputScript, msg.sender);\n    }\n}\n",
  "sourcePath": "/Users/symf/IdeaProjects/tbtc/solidity/contracts/system/VendingMachine.sol",
  "compiler": {
    "name": "solc",
    "version": "0.5.17+commit.d19bba13.Emscripten.clang"
  },
  "schemaVersion": "3.0.23",
  "updatedAt": "2020-08-21T21:24:02.892Z",
  "devdoc": {
    "details": "The Vending Machine should have exclusive TBTC and FRT (`FeeRebateToken`) minting         privileges.",
    "methods": {
      "canMint(uint256)": {
        "details": "This function is also used by TBTCSystem to decide whether to allow a new deposit.",
        "return": "True if the amount can be minted without hitting the max supply, false otherwise."
      },
      "getMaxSupply()": {
        "return": "The max supply in weitoshis (BTC * 10 ** 18)"
      },
      "isQualified(address)": {
        "params": {
          "_depositAddress": "The address of the deposit"
        }
      },
      "setExternalAddresses(address,address,address)": {
        "details": "Addresses are used to update the local contract instance.",
        "params": {
          "_feeRebateToken": "FeeRebateToken (FRT) contract. More info in `FeeRebateToken`.",
          "_tbtcDepositToken": "TBTCDepositToken (TDT) contract. More info in `TBTCDepositToken`.",
          "_tbtcToken": "TBTCToken contract. More info in `TBTCToken`."
        }
      },
      "tbtcToBtc(address,bytes8,bytes)": {
        "details": "Vending Machine transfers TBTC allowance to Deposit.",
        "params": {
          "_depositAddress": "The address of the Deposit to redeem.",
          "_outputValueBytes": "The 8-byte Bitcoin transaction output size in Little Endian.",
          "_redeemerOutputScript": "The redeemer's length-prefixed output script."
        }
      },
      "tbtcToTdt(uint256)": {
        "details": "We burn the lotSize of the Deposit in order to maintain         the TBTC supply peg in the Vending Machine. VendingMachine must be approved         by the caller to burn the required amount.",
        "params": {
          "_tdtId": "ID of tBTC Deposit Token to buy."
        }
      },
      "tdtToTbtc(uint256)": {
        "details": "Transfers TDT from caller to vending machine, and mints TBTC to caller.         Vending Machine must be approved to transfer TDT by the caller.",
        "params": {
          "_tdtId": "ID of tBTC Deposit Token to sell."
        }
      },
      "unqualifiedDepositToTbtc(address,bytes4,bytes,bytes,bytes4,uint8,bytes,uint256,bytes)": {
        "details": "User must allow VendingManchine to transfer TDT."
      }
    },
    "title": "Vending Machine"
  },
  "userdoc": {
    "methods": {
      "canMint(uint256)": {
        "notice": "Return whether an amount of TBTC can be minted according to the supply cap         schedule"
      },
      "getMaxSupply()": {
        "notice": "Get the maximum TBTC token supply based on the age of the contract         deployment. The supply cap starts at 2 BTC for the first day, 100 for         the first 30 days, 250 for the next 30, 500 for the last 30... then         finally removes the restriction, returning 21M BTC as a sanity check."
      },
      "getMintedSupply()": {
        "notice": "Return the minted TBTC supply in weitoshis (BTC * 10 ** 18)"
      },
      "isQualified(address)": {
        "notice": "Determines whether a deposit is qualified for minting TBTC."
      },
      "setExternalAddresses(address,address,address)": {
        "notice": "Set external contracts needed by the Vending Machine."
      },
      "tbtcToBtc(address,bytes8,bytes)": {
        "notice": "Redeems a Deposit by purchasing a TDT with TBTC for _finalRecipient,         and using the TDT to redeem corresponding Deposit as _finalRecipient.         This function will revert if the Deposit is not in ACTIVE state."
      },
      "tbtcToTdt(uint256)": {
        "notice": "Burns TBTC and transfers the tBTC Deposit Token to the caller         as long as it is qualified."
      },
      "tdtToTbtc(uint256)": {
        "notice": "Transfer the tBTC Deposit Token and mint TBTC."
      },
      "unqualifiedDepositToTbtc(address,bytes4,bytes,bytes,bytes4,uint8,bytes,uint256,bytes)": {
        "notice": "Qualifies a deposit and mints TBTC."
      }
    },
    "notice": "The Vending Machine swaps TDTs (`TBTCDepositToken`)         to TBTC (`TBTCToken`) and vice versa."
  }
}